:100000000C9451010C9482010C9482010C94820195
:100010000C9482010C9482010C9482010C94820154
:100020000C9482010C9482010C9482010C94820144
:100030000C9482010C943F0D0C9482010C9482016B
:100040000C9482010C94D30E0C9482010C948201C6
:100050000C9482010C9482010C9482010C94FF0D8B
:100060000C9482010C94C90D0C949F0D0C94820188
:100070000C9482010C9482010C9482010C948201F4
:100080000C94A50E0C9482010C9482010C948201B4
:100090000C9482010C9482010C9482010C94010F47
:1000A0000C9482010C9482010C94770E0C948201C2
:1000B0000C9482010C9482010C9482010C94490EE0
:1000C0000C9482010C9482010C9482010C948201A4
:1000D0000C9482010C9482010C9482010C94820194
:1000E0000C9482010C9492030C944F020C948403A0
:1000F0000C9487090C948A090C949C030C948A0331
:100100000C94C1090C94B1150C945C060C94650315
:100110000C94D80A0C9471020C94550B0C9486091B
:100120000C9477030C9480030C94F6020C94400218
:100130000C94A0030C94D70A0C94A5030C946B03A5
:100140000C94D7030C946F030C9494090C943322F1
:100150000C948D090C947A030C9408040C9473038A
:100160000C948E030C94AA030C94A6030C94A9027D
:100170000C9413020C9498030C9463020000210069
:10018000240027002A002D00300033000101000068
:10019000040107010A0100002000230026002900B5
:1001A0002C002F00320000010000030106010901AC
:1001B00000000A0B02090C0D0E08070304010000E1
:1001C000000000000000000000000000000000002F
:1001D00000000000000000000000000012111000EC
:1001E000000000000000000000000000000000000F
:1001F000000000000000010210202008081020402C
:1002000010204080020102010804020101020408DA
:100210001020408080402010080402018004020168
:1002200080402010080402010804020101020408B1
:1002300010204080010204081020408000002200AD
:10024000250028002B002E003100340002010000A0
:10025000050108010B010505050507050808080843
:10026000020202020A0A080804040404010101014E
:100270000101010103030303030303030407070749
:100280000C0C0C0C0C0C0C0C0202020206060606EE
:10029000060606060B0B0B0B0B0B0B0B0200B11526
:1002A000332211241FBECFEFD1E2DEBFCDBF00E06D
:1002B0000CBF15E0A0E0B2E0E2E7FFE400E00BBF16
:1002C00002C007900D92A236B107D9F728E0A2E646
:1002D000B5E001C01D92AE30B207E1F711E0C0E514
:1002E000D1E000E006C021970109802FFE010E94A5
:1002F0008925CF34D10780E00807A9F70E9494161A
:100300000C94A7270C9400008F929F92AF92BF92FB
:10031000FF920F931F93CF93DF93F09007082FE284
:100320002F1508F44CC02091090808E512E0021BC3
:10033000110927FD1395000F111F000F111F2091A8
:100340000808C8E8D0E0C21BD10927FDD395CC0F1F
:10035000DD1FCC0FDD1F4E010D2E000CAA08BB08BF
:100360009801012E000C440B550B281939094A0934
:100370005B09DC010E942C2424EB30E040E050E0DB
:100380000E940224820E931EA41EB51E8C169D068A
:100390002CF0E801801691060CF4E4012297CC0FB2
:1003A000DD1F2FB7F8948F2D90E0FC01EE0FFF1F9B
:1003B000E80FF91FE352F94FD283C1832FBFDF91BA
:1003C000CF911F910F91FF90BF90AF909F908F9012
:1003D000089596E0899FD0011124A658B84F9096B1
:1003E0007C936E935F9791E091969C939197E091A7
:1003F000E707F091E8079091E607992339F03097E5
:1004000051F0811108C0809196071994309719F026
:100410005C968C91FACF0895DC01ED91FC910190EE
:10042000F081E02D1994AF92BF92CF92DF92EF92BC
:10043000FF920F931F93CF93DF936C017B018B018E
:10044000040F151FEB015E01AE18BF08C017D107DE
:1004500059F06991D601ED91FC910190F081E02D68
:10046000C6011995892B79F7C501DF91CF911F91AD
:100470000F91FF90EF90DF90CF90BF90AF900895D5
:10048000FC01538D448D252F30E0842F90E0821B9A
:10049000930B541710F0CF96089501970895FC011F
:1004A000918D828D981761F0A28DAE0FBF2FB11D77
:1004B0005D968C91928D9F5F9F73928F90E00895CF
:1004C0008FEF9FEF0895FC01918D828D981731F089
:1004D000828DE80FF11D858D90E008958FEF9FEFDD
:1004E0000895FC01918D228D892F90E0805C9F4FB3
:1004F000821B91098F739927089584E396E00E94E7
:10050000710221E0892B09F420E0822F0895FC017B
:10051000A48DA80FB92FB11DA35ABF4F2C91848D64
:1005200090E001968F739927848FA689B7892C93C1
:10053000A089B1898C91837080648C93938D848D14
:10054000981306C00288F389E02D80818F7D808317
:100550000895EF92FF920F931F93CF93DF93EC01D7
:1005600081E0888F9B8D8C8D98131AC0E889F9895A
:10057000808185FF15C09FB7F894EE89FF8960835D
:10058000E889F98980818370806480839FBF81E0DE
:1005900090E0DF91CF911F910F91FF90EF90089520
:1005A000F62E0B8D10E00F5F1F4F0F731127E02EFB
:1005B0008C8D8E110CC00FB607FCFACFE889F98933
:1005C000808185FFF5CFCE010E948702F1CFEB8DB0
:1005D000EC0FFD2FF11DE35AFF4FF0829FB7F89407
:1005E0000B8FEA89FB8980818062CFCFCF93DF9325
:1005F000EC01888D8823B9F0AA89BB89E889F9893B
:100600008C9185FD03C0808186FD0DC00FB607FC6F
:10061000F7CF8C9185FFF2CF808185FFEDCFCE01A2
:100620000E948702E9CFDF91CF91089580E090E0AA
:10063000892B29F00E947D0281110E94000080E038
:1006400090E0892B49F080E090E0892B29F00E940E
:10065000000081110E94000080E090E0892B49F0A9
:1006600080E090E0892B29F00E94000081110E9417
:10067000000080E090E0892B49F080E090E0892B39
:1006800029F00E94000081110C940000089581500F
:10069000823108F05AC0E82FF0E08827ED5AFC4F6D
:1006A0008F4F0C9489257303770365036B036F03E6
:1006B000A5037A03800384038A038E0392039803BD
:1006C0009C03A503A003A603AA03809180008F7753
:1006D000809380000895809180008F7DF9CF809174
:1006E0008000877FF5CF84B58F7784BD089584B56A
:1006F0008F7DFBCF8091B0008F778093B0000895FD
:100700008091B0008F7DF9CF809190008F7780939A
:1007100090000895809190008F7DF9CF8091900096
:10072000877FF5CF8091A0008F778093A0000895F8
:100730008091A0008F7DF9CF8091A000877FF5CFB9
:10074000809120018F77809320010895809120016E
:100750008F7DF9CF80912001877FF5CFCF93DF93F5
:10076000282F30E0F901E055FE4F8491F901EA505D
:10077000FE4FD491F901EA5AFD4FC491CC23A1F068
:1007800081110E944703EC2FF0E0EE0FFF1FEA56A5
:10079000FE4FA591B491EC91ED2381E090E009F436
:1007A00080E0DF91CF91089580E090E0FACF862F2E
:1007B0000C94AE031F93CF93DF93282F30E0F90101
:1007C000E055FE4F8491F901EA50FE4FD491F901B2
:1007D000EA5AFD4FC491CC23A9F0162F81110E9433
:1007E0004703EC2FF0E0EE0FFF1FE45CFD4FA591F7
:1007F000B4918FB7F894EC91111108C0D095DE2315
:10080000DC938FBFDF91CF911F910895DE2BF8CF3E
:10081000862F642F0C94DA039091610289130DC026
:10082000ECE9F2E0E4919FEF90936102E230E1F0B5
:1008300038F4EE2381F0E13089F060E00C94DA03C3
:10084000E43049F110F1E530C1F7909173009D7FDC
:1008500090937300F2CF10926E00EFCF90916F00E3
:100860009D7F90936F00E9CF909170009D7F909352
:10087000700091E09093B0009091B100987F9460E7
:100880009093B1001092B300D8CF909171009D7FEA
:1008900090937100D2CF909172009D7F90937200DF
:1008A000CCCFCF93DF9390E0FC01EA50FE4F249130
:1008B0008A5A9D4FFC0184918823C9F090E0880FEB
:1008C000991FFC01E458FE4FA591B491FC01E45C32
:1008D000FD4FC591D49161110DC09FB7F8948C91D3
:1008E000209582238C938881282328839FBFDF91C2
:1008F000CF910895623051F49FB7F8943C91822FC4
:10090000809583238C93E8812E2BEFCF8FB7F894BB
:10091000EC912E2B2C938FBFEACF0F931F93CF9385
:100920008C01809161028D3231F08F3FA1F1CF9126
:100930001F910F910895ECE9F2E0C491C7FDF7CF44
:1009400061E08DE20E945104C1113FC0980150E066
:1009500040E068E478EE81E090E00E940224BA0171
:10096000A901415051096109710985B5887F8360EA
:1009700085BD47BD8FEF9FEFDC01809330069093DC
:100980003106A0933206B093330680916E008260E8
:1009900080936E00CCCF8DE280936102ECE9F2E0AF
:1009A000C4918C2FCF3F09F4C2CFC23009F493C059
:1009B000B8F5CC2309F459C0C13009F46EC087FDE5
:1009C000B6CF61E08DE20E945104980150E040E012
:1009D000C23009F0DFC060E970ED83E090E00E9472
:1009E0000224BA01A901415051096109710980919C
:1009F000B100887F83608093B1004093B3008FEF94
:100A00009FEFDC018093280690932906A0932A0685
:100A1000B0932B068091700082608093700087CF26
:100A2000C43009F499C008F478C0C53041F610927A
:100A30002001109221018091210188608093210181
:100A400080912101816080932101E3E8F2E0E4914B
:100A5000F0E0EE0FFF1FE45CFD4F85919491E3E21F
:100A6000F2E0E491E09314066BCF14BC15BC84B59E
:100A7000826084BD85B5816085BDE3E8F2E0E491E4
:100A8000F0E0EE0FFF1FE45CFD4F85919491E3E2EF
:100A9000F2E0E491E0931B0653CF10928000109295
:100AA0008100809181008860809381008091810025
:100AB000816080938100E3E8F2E0E491F0E0EE0FE2
:100AC000FF1FE45CFD4F85919491E3E2F2E0E49135
:100AD000E0931A0635CF1092B0001092B1008091C9
:100AE000B00082608093B0008091B10081608093FB
:100AF000B100E3E8F2E0E491F0E0EE0FFF1FE45C08
:100B0000FD4F859194919093190680931806E3E226
:100B1000F2E0E491E093170613CF10929000109248
:100B20009100809191008860809391008091910064
:100B3000816080939100E3E8F2E0E491F0E0EE0F51
:100B4000FF1FE45CFD4F85919491E3E2F2E0E491B4
:100B5000E0931606C3E0F4CE1092A0001092A1001C
:100B60008091A10088608093A1008091A1008160A4
:100B70008093A100E3E8F2E0E491F0E0EE0FFF1FC4
:100B8000E45CFD4F85919491E3E2F2E0E491E0931F
:100B90001506D6CE60E072E18AE790E00E9402245A
:100BA000DA01C9010197A109B109AC01C130D9F439
:100BB00020918100287F21602093810090938900FB
:100BC000809388008FEF9FEFDC0180932C06909339
:100BD0002D06A0932E06B0932F0680916F008260A1
:100BE00080936F00A4CEC330D9F420919100287F68
:100BF00021602093910090939900809398008FEF4B
:100C00009FEFDC018093240690932506A09326068F
:100C1000B09327068091710082608093710087CE27
:100C2000C430D9F42091A100287F21602093A10035
:100C30009093A9008093A8008FEF9FEFDC01809331
:100C4000200690932106A0932206B093230680915C
:100C500072008260809372006ACEC530D9F4209110
:100C60002101287F21602093210190932901809305
:100C700028018FEF9FEFDC0180931C0690931D06E7
:100C8000A0931E06B0931F0680917300826080932C
:100C900073004DCEC23009F4B0CE3CF4CC2309F43D
:100CA00068CEC13009F043CE89CFC43009F20CF4CC
:100CB000A2CFC530D1F23BCE862F642F0C945104C5
:100CC0003FB7F8948091020690910306A091040624
:100CD000B091050626B5A89B05C02F3F19F00196D7
:100CE000A11DB11D3FBFBA2FA92F982F8827BC0186
:100CF000CD01620F711D811D911D42E0660F771FAE
:100D0000881F991F4A95D1F708958F929F92AF92AD
:100D1000BF92CF92DF92EF92FF924B015C010E9453
:100D200060066B017C010E9460066C197D098E09CA
:100D30009F09683E734081059105A8F321E0821A5E
:100D40009108A108B10888EEC80E83E0D81EE11C06
:100D5000F11C81149104A104B10429F7FF90EF90D4
:100D6000DF90CF90BF90AF909F908F9008952FB756
:100D7000F8946091FE057091FF05809100069091B6
:100D800001062FBF08950F931F93CF93DF93C82FB2
:100D9000D62F86E0C89FF0011124E658F84F11A223
:100DA000878D90A181309105F1F058F08230910546
:100DB000F1F1039709F440C0DF91CF911F910F919A
:100DC00008956623C9F361E070E08C2F0E94E90169
:100DD0000E94B7066093D2077093D3078093D4071D
:100DE0009093D507E9CF0E94B7060091D2071091E2
:100DF000D3072091D4073091D507AB01BC01401B2C
:100E0000510B620B730B8091E4079091E507B0E002
:100E1000A0E084179507A607B70748F462E070E0E2
:100E20008C2FDF91CF911F910F910C94E90163E01A
:100E300070E0D111C1CFF4CF70E060E0F1CF6F92DC
:100E40007F928F929F92AF92BF92CF92DF92EF925A
:100E5000FF920F931F93CF93DF9381E08093E60778
:100E60000E94B7060091D6071091D7072091D807A6
:100E70003091D907AB01BC01401B510B620B730BC6
:100E80008091E2079091E307B0E0A0E08417950716
:100E9000A607B70708F014C1C0E08091E007C817A3
:100EA00060F4E091DC07F091DD07EC0FF11D62E0EA
:100EB00080810E945104CF5FF0CF712C812C912C46
:100EC000540183948091E107781608F05FC0072DE4
:100ED00010E0E091DE07F091DF07E00FF11F61E025
:100EE00080810E945104E091DE07F091DF07E00F5E
:100EF000F11F60E080810E94DA03D501C401072C54
:100F000004C0880F991FAA1FBB1F0A94D2F76C0157
:100F10007C01E094F094612C8091E0076816F8F46D
:100F2000C62DD0E0E091DC07F091DD07EC0FFD1F4E
:100F300080810E94AE032496CC0FDD1FC658D84F87
:100F4000892B41F4888199818C299D2999838883F3
:100F50006394E2CF888199818E219F21F7CFE09120
:100F6000DE07F091DF07E00FF11F61E080810E9452
:100F7000DA038091DE079091DF07080F191F60E008
:100F8000F80180810E94510473949CCFCAE7D7E096
:100F9000FE018FEF9FEF278D30A1232B21F4148EBC
:100FA000968F858F11A2369627E0E63BF20799F7D8
:100FB000F12C96E0D92E8091E007F81608F050C089
:100FC000E12C0F2D10E0000F111F0E57184F20912C
:100FD000E107E21608F042C0F801608171810E2C31
:100FE00002C0769567950A94E2F7F29E900111246B
:100FF0002E0D311DEAE7F7E080E0458D568D241770
:10100000350709F461C08F5F36968A30B1F760FF0B
:1010100023C0EAE7F7E090E080E0448D411117C07B
:10102000E091DA07F091DB07E20FF31F4081D89ED1
:10103000F001D99EF00D1124E658F84F448F368FF9
:10104000258F10A2178E61E00E94C30605C001968D
:1010500036968A30910509F7E394B9CFF394ABCF74
:1010600010E089A18111182F2696F7E0C63BDF0713
:10107000C1F70E94B7066093D6077093D707809395
:10108000D8079093D9071123D9F080919B07882323
:10109000B9F08091990790919A07019789F480910E
:1010A0009607DF91CF911F910F91FF90EF90DF9006
:1010B000CF90BF90AF909F908F907F906F9008954A
:1010C0001092E60780E0EDCF6170BECFAF92BF9285
:1010D000CF92DF92EF92FF920F931F93CF93DF9304
:1010E0006B017A01EC01C750DA4F28813CE0389F50
:1010F0008001399F100D1124A0906D07B12C27FF9E
:101100001FC0FB011182108288818F5F88838881D4
:101110009801280F311D87FD3A95F6012A153B05E8
:101120001CF488818C30C4F18081918104968034D4
:101130009C4908F473C0F60180819181049670C0C7
:1011400088819801280F311D87FD3A952A153B05A6
:10115000DCF68881A801480F511D87FD5A95FA01D8
:10116000EE0FFF1FE40FF51FE352F94F808186FF5A
:10117000CBCF8881F801E80FF11D87FDFA95CF01EB
:10118000EE0FFF1FE80FF91FE352F94F808160E077
:101190008F730E94DA03B8CF808191812881A801E2
:1011A000420F511D27FD5A959A01FA01EE0FFF1FBC
:1011B000E20FF31FE352F94F21813281820F931F17
:1011C000F7019183808388819801280F311D87FD65
:1011D0003A95F901EE0FFF1FE20FF31FE352F94FAB
:1011E000808186FF22C08881080F111D87FD1A9516
:1011F000F801EE0FFF1FE00FF11FE352F94F80815E
:1012000061E08F73DF91CF911F910F91FF90EF906D
:10121000DF90CF90BF90AF900C94DA0380E49CE90C
:10122000F701918380838FEF8883DF91CF911F91A6
:101230000F91FF90EF90DF90CF90BF90AF90089507
:101240001F93CF93DF93C1E0C0938E05882399F15C
:10125000D091B8001091BA008091BC008A7B809335
:10126000BC0060E084E10E94DA0360E085E10E9456
:10127000DA031092D305C093D5051092D40561E02E
:1012800084E10E94DA0361E085E10E94DA03809143
:10129000B9008E7F8093B9008091B9008D7F8093D3
:1012A000B90088E48093B80085E48093BC00109373
:1012B000BA00D093B800DF91CF911F91089520918B
:1012C000AF05260F3327331F21323105ECF420916F
:1012D000D305FC0190E080E0243069F082E00895BD
:1012E000A091AF052191AC0141575A4FA40FB52FE2
:1012F000B11D2C930196861798F38091AF05680F66
:101300006093AF0580E0089581E0089508958FEF20
:101310009FEF08958FEF9FEF08958091880590E0EB
:101320009195819591090895CF92DF92EF92FF9266
:101330000F931F93CF93DF937C01CB018A01209100
:101340008705222389F0EB016B01C40ED51ECC1555
:10135000DD0569F06991D701ED91FC910190F08173
:10136000E02DC7011995F3CF642F0E945F09C801D2
:10137000DF91CF911F910F91FF90EF90DF90CF9071
:101380000895CF93DF931F92CDB7DEB76983209185
:1013900087052223F9F020918605203258F021E0BC
:1013A00030E0FC013383228390E080E00F90DF91F6
:1013B000CF91089580918505E82FF0E0EB59FA4F21
:1013C000998190838F5F809385058093860581E066
:1013D00090E0ECCF61E0CE0101960E945F09F7CF6B
:1013E000CF92DF92EF92FF920F931F93CF93DF93F1
:1013F000FC01C48121E020938705C093640510920D
:101400008505109286058385682B81ED96E00E9404
:10141000C109D0918605D13208F092C00E946006C1
:101420006B017C018091D305811165C082E08093BE
:10143000D30581E08093D5058FEF8093D20510927C
:10144000F705D093F605A5E6B5E0E6EDF5E080E01A
:10145000D81385C01092F8058091F805CC0FC82BE1
:10146000C093F8058091D405813009F07CC01092BA
:10147000D4050E9460066B017C018091F805809381
:10148000BB0080918A0590918B05A0918C05B0914D
:101490008D05892B8A2B8B2B99F00E946006009179
:1014A0008A0510918B0520918C0530918D056C1962
:1014B0007D098E099F090617170728073907E0F1EC
:1014C0008091BC0083FDD9CF85EC8093BC000E9445
:1014D00060066B017C018091D305823009F445C020
:1014E0008091D2058F3F61F18091D205803241F128
:1014F0008091D20525C080918A0590918B05A0919D
:101500008C05B0918D05892B8A2B8B2B09F48ACF02
:101510000E94600600918A0510918B0520918C0530
:1015200030918D056C197D098E099F0906171707E3
:101530002807390708F076CF809189050E94200995
:10154000109285051092860510928705DF91CF9144
:101550001F910F91FF90EF90DF90CF9008959D9194
:1015600091938F5F75CF85EEB0CF80918A05909172
:101570008B05A0918C05B0918D05892B8A2B8B2B27
:1015800009F4A9CF0E94600600918A0510918B058D
:1015900020918C0530918D056C197D098E099F096C
:1015A000061717072807390708F095CFC5CF089504
:1015B00090E080E008959C01205F3F4F4FEF5FEF88
:1015C000FC0141935193CF01E217F307C9F7089546
:1015D0000F931F93CF938C01C62F0E94F0096C2F9D
:1015E0006460C8010E94F0096C2F6B7FC8010E94E3
:1015F000F00983EC90E00197F1F7CF911F910F91E3
:1016000008950F931F93CF93DF938C01D62FC42F90
:10161000607F642B0E94E80A80E1D89FB00111240A
:101620006C2BC801DF91CF911F910F910C94E80AA8
:1016300040E061E08EE697E00E94010B8BE39FE1C2
:101640000197F1F70895CF93DF9300D000D01F9258
:101650001F92CDB7DEB798E0E0E8F2E0DE01119628
:1016600001900D929A95E1F790917607961710F4F4
:101670006FEF690F262F30E0220F331F41E050E05B
:101680004C0F5D1F240F351FF9016081680F6068E2
:1016900040E08EE697E028960FB6F894DEBF0FBEC6
:1016A000CDBFDF91CF910C94010B41E00E94010B63
:1016B00081E090E008950F931F93CF93DF938B0108
:1016C00098E0899FB0011124606440E08EE697E0C5
:1016D0000E94010BE801085F1F4F69918EE697E0B9
:1016E0000E94550BC017D107C1F7DF91CF911F9111
:1016F0000F910895FB0101900020E9F73197AF01A8
:10170000461B570BDC01ED91FC910280F381E02D2B
:1017100019948F929F92AF92BF92EF92FF920F9384
:101720001F93CF93DF93CDB7DEB7A1970FB6F89491
:10173000DEBF0FBECDBF7C01FA01CB0119A2223062
:1017400008F42AE08E010F5D1F4F822E912CB12CE0
:10175000A12CBF01A50194010E943424F901CA0102
:101760006A300CF5605DD8016E938D01232B242B1C
:10177000252B79F790E080E0109721F0BD01C7019B
:101780000E947A0BA1960FB6F894DEBF0FBECDBFB4
:10179000DF91CF911F910F91FF90EF90BF90AF908D
:1017A0009F908F900895695CDECFCF92DF92EF9289
:1017B000FF92CF93DF936C01990FEE08FF08F7FEBD
:1017C0001BC06DE28EE697E00E940C02EC014427FC
:1017D0005527BA014C195D096E097F092AE08EE68A
:1017E00097E00E94890B8C0F9D1FDF91CF91FF9096
:1017F000EF90DF90CF9008952AE0B701A6018EE622
:1018000097E0DF91CF91FF90EF90DF90CF900C9415
:10181000890BBC018EE697E00C947A0B0E94180BA2
:1018200080910606882369F160E080E00E94230B26
:1018300082EC92E00E94090C61E083E00E94230B9D
:1018400080ED92E00E94090C0E941F07853441F749
:10185000109211061092100610920F0610920E06AA
:1018600080E592E00E94DB0A0E94180B60E080E0B5
:101870000E94230B8CED92E00E94090C1092060648
:10188000CFCF0895FC0180819181009711F00C94D5
:10189000652260E070E0CB010895DC0114968D9123
:1018A0009C9115976817790750F4ED91FC91119769
:1018B000E60FF71F15967C936E9314971082089588
:1018C0000F931F93CF93DF93EC0188819981009749
:1018D00059F02A813B812617370730F081E0DF91EC
:1018E000CF911F910F9108958B016F5F7F4F0E94E1
:1018F000B626009759F0998388831B830A832C812D
:101900003D81232B59F7FC011082E8CF80E0E7CF1F
:10191000EF92FF920F931F93CF93DF931F921F922B
:10192000CDB7DEB78C0169831A82FC01E480F580B3
:10193000FFEFEF1AFF0AB7010E94600C882381F0C5
:10194000F8012081318184819581BE016F5F7F4FD5
:10195000820F931F0E94A027F801F582E48281E0A4
:101960000F900F90DF91CF911F910F91FF90EF900B
:101970000895CF93DF93EC0188819981009711F04E
:101980000E942D26198218821D821C821B821A82B7
:10199000DF91CF910895EF92FF920F931F93CF9312
:1019A000DF93EC017B018A01BA010E94600C811176
:1019B0000BC0CE010E94B90CCE01DF91CF911F91D7
:1019C0000F91FF90EF9008951D830C83B7018881DC
:1019D00099810E94A027F0CFFC011182108213820E
:1019E00012821582148250E040E06AEE73E00C949B
:1019F000CB0C50E040E06AEE73E00C94CB0CFC01A1
:101A000080819181009711F00C942D26089585ED29
:101A10008093BC0080918A0590918B05A0918C05E4
:101A2000B0918D050796A11DB11D23E0B695A79530
:101A3000979587952A95D1F72091BC0024FD03C086
:101A40001092D305089540918A0550918B056091BD
:101A50008C0570918D05452B462B472B69F300971C
:101A6000A105B10541F025E32A95F1F700000197A2
:101A7000A109B109E1CF809189050C9420091F9239
:101A80000F920FB60F9211240BB60F922F933F9324
:101A90004F935F936F937F938F939F93AF93BF9376
:101AA000EF93FF938091280690912906A0912A0632
:101AB000B0912B06892B8A2B8B2BE1F19091170685
:101AC000E0911806F0911906808189278083809122
:101AD000280690912906A0912A06B0912B06181687
:101AE00019061A061B069CF4809128069091290677
:101AF000A0912A06B0912B060197A109B109809304
:101B0000280690932906A0932A06B0932B06FF91EE
:101B1000EF91BF91AF919F918F917F916F915F9165
:101B20004F913F912F910F900BBE0F900FBE0F90D2
:101B30001F901895809161020E940C04E8CF1F92BB
:101B40000F920FB60F9211240BB60F922F933F9363
:101B50004F935F936F937F938F939F93AF93BF93B5
:101B6000EF93FF9384E396E00E948702FF91EF9149
:101B7000BF91AF919F918F917F916F915F914F91A5
:101B80003F912F910F900BBE0F900FBE0F901F90A3
:101B900018951F920F920FB60F9211240BB60F9249
:101BA0002F938F939F93EF93FF93E0914406F091CF
:101BB00045068081E0914A06F0914B0682FD1DC0EA
:101BC000908180914D068F5F8F7320914E06821712
:101BD00041F0E0914D06F0E0EC5CF94F958F809379
:101BE0004D06FF91EF919F918F912F910F900BBE1A
:101BF0000F900FBE0F901F9018958081F2CF1F920B
:101C00000F920FB60F9211242F933F938F939F93B0
:101C1000AF93BF938091FE059091FF05A0910006C0
:101C2000B09101063091FD0523E0230F2D3758F5C3
:101C30000196A11DB11D2093FD058093FE05909393
:101C4000FF05A0930006B0930106809102069091D3
:101C50000306A0910406B09105060196A11DB11DD1
:101C60008093020690930306A0930406B0930506A2
:101C7000BF91AF919F918F913F912F910F900FBE88
:101C80000F901F90189526E8230F0296A11DB11DF5
:101C9000D2CF1F920F920FB60F9211240BB60F9254
:101CA0002F933F934F935F936F937F938F939F9364
:101CB000AF93BF93EF93FF9348E251E064E271E08A
:101CC00090E080E00E946608FF91EF91BF91AF9194
:101CD0009F918F917F916F915F914F913F912F9144
:101CE0000F900BBE0F900FBE0F901F9018951F9274
:101CF0000F920FB60F9211240BB60F922F933F93B2
:101D00004F935F936F937F938F939F93AF93BF9303
:101D1000EF93FF9348EA50E064EA70E083E090E0DC
:101D20000E946608FF91EF91BF91AF919F918F91B3
:101D30007F916F915F914F913F912F910F900BBECB
:101D40000F900FBE0F901F9018951F920F920FB615
:101D50000F9211240BB60F922F933F934F935F93E3
:101D60006F937F938F939F93AF93BF93EF93FF9363
:101D700048E950E064E970E082E090E00E94660883
:101D8000FF91EF91BF91AF919F918F917F916F9153
:101D90005F914F913F912F910F900BBE0F900FBE0F
:101DA0000F901F9018951F920F920FB60F9211244B
:101DB0000BB60F922F933F934F935F936F937F9345
:101DC0008F939F93AF93BF93EF93FF9348E850E0B7
:101DD00064E870E081E090E00E946608FF91EF9176
:101DE000BF91AF919F918F917F916F915F914F9133
:101DF0003F912F910F900BBE0F900FBE0F901F9031
:101E000018951F920F920FB60F9211240BB60F92D6
:101E10002F933F934F935F936F937F938F939F93F2
:101E2000AF93BF93EF93FF938091B900887F803683
:101E300009F44DC008F040C0883209F4A7C028F565
:101E4000803109F49BC0C8F4882309F4F7C08830B6
:101E500009F494C0FF91EF91BF91AF919F918F9141
:101E60007F916F915F914F913F912F910F900BBE9A
:101E70000F900FBE0F901F901895883109F486C0FF
:101E8000803241F78093D20514C0803409F49BC09E
:101E900040F48033B9F38833E9F68093D20585ECBA
:101EA000AEC0803509F483C0883509F494C0883405
:101EB00089F60E94070DCECF883909F48AC038F51B
:101EC000883729F050F4883611F0803719F683E00E
:101ED0008093D3051092D10555C0883809F479C094
:101EE000803919F0803809F0B5CF8091D105803262
:101EF00008F06FC0E091D10581E08E0F8093D1058D
:101F00008091BB00F0E0EF54FA4F80833BC0803BF0
:101F100039F0D0F4803A09F477C0883A09F09ACFC2
:101F200084E08093D3051092B0051092AF05F0E0E5
:101F3000E0E019958091AF0581110FC081E0809399
:101F4000AF0510928F0509C0803C09F4A8CF883CEA
:101F500009F4A5CF883B09F07DCFE091B00581E081
:101F60008E0F8093B005F0E0E157FA4F80818093A7
:101F7000BB009091B0058091AF0529C08091F80514
:101F80008093BB0085EC8093BC0064CF9091F705F3
:101F90008091F605981758F5E091F70581E08E0FCE
:101FA0008093F705F0E0EA52FA4F8081E9CFE091A3
:101FB000F70581E08E0F8093F7058091BB00F0E07C
:101FC000EA52FA4F80839091F7058091F6059817B1
:101FD000C8F285E8D8CFE091F70581E08E0F8093B5
:101FE000F7058091BB00F0E0EA52FA4F80838091C0
:101FF000D50581115ECF81E08093D40584EA80937A
:10200000BC001092D30526CF85EC8093BC001092C3
:10201000D3058091D105803230F4E091D105F0E014
:10202000EF54FA4F10826091D10570E081EB95E09A
:10203000F0E0E0E019951092D1050CCF1092D20596
:1020400038CF2F923F924F925F926F927F928F92F2
:102050009F92AF92BF92CF92DF92EF92FF920F9337
:102060001F93CF93DF93CDB7DEB764970FB6F89485
:10207000DEBF0FBECDBF0E94180B60E081E00E9462
:10208000230B60E08EE697E00E94550B8AEE92E00B
:102090000E94090C60E08EE697E00E94550B60ED0F
:1020A00077E080E090E00E9485060E94180B109275
:1020B00011061092100610920F0610920E0681E083
:1020C00080930D06EE24EA94FE2CCC24CA94DC2CDA
:1020D00080910D06882309F41CC10E941F07182F48
:1020E000882309F4D0C0A0900E06B0900F0661E0DE
:1020F00085E08A0D0E94230B153551F3143441F30A
:10210000133531F3133409F05BC01A141B04B4F512
:102110008091100690911106181619067CF5880F0B
:10212000991FFC01E050FE4FF182E08260E28EE6F2
:1021300097E00E940C0280910E0661E08B5F0E9486
:10214000230B60E28EE697E00E940C0200911006DD
:1021500010911106B8018FEE97E00E944D0C0150CE
:102160001109109311060093100680910E069091AC
:102170000F06019790930F0680930E06809110062C
:1021800090911106892B09F0A3CFD0920102C09241
:10219000000270E060E08FEE97E00E944D0C60E27C
:1021A0008EE697E00E940C0280910E0661E08B5F44
:1021B0000E94230B60E28EE697E00E940C0288CF1B
:1021C0001834D9F40E94180B60E081E00E94230BC0
:1021D00088EF92E00E94090C61E081E00E94230BED
:1021E00089E093E00E94090C68EE73E080E090E0E3
:1021F0000E9485060E94180B6BCF153419F41092BB
:102200000D0666CF809110069091110608970CF08C
:1022100043C028E0A216B1040CF03EC0612F8EE648
:1022200097E00E940C0280910E0661E08B5F0E9495
:10223000230B612F8EE697E00E940C02612F8FEE38
:1022400097E00E94880C105380911006909111061F
:10225000FC01EE0FFF1FE050FE4F212F012E000C5E
:10226000330B3183208301969093110680931006DF
:1022700080910E0690910F06019690930F06809321
:102280000E06111125CF60E080E00E94230B87E14C
:1022900093E00E94090C1CCF81E0809306060E9407
:1022A000180B80910606882369F160E080E00E94A7
:1022B000230B82EC92E00E94090C61E083E00E9413
:1022C000230B80ED92E00E94090C0E941F078534C9
:1022D00041F7109211061092100610920F061092FC
:1022E0000E0680E092E00E94DB0A0E94180B60E07C
:1022F00080E00E94230B87E193E00E94090C10927A
:102300000606CFCF8FEE97E00E94F90C10920606DA
:10231000DFCE109211061092100610920F06109246
:102320000E060E94180B81E080930D06F0E16F2EDF
:10233000F2E07F2ECE0101967C01AA24AA94BA2C49
:1023400088248A94982C80910D06882309F4D1C1A1
:102350000E941F07182F882309F485C1C0900E061C
:10236000D0900F0661E085E08C0D0E94230B15359F
:1023700051F3143441F3133531F3133409F05FC0D2
:102380001C141D04B4F580911006909111061816C6
:1023900019067CF5880F991FFC01E05FFD4FB182A3
:1023A000A08260E28EE697E00E940C0280910E0609
:1023B00061E08B5F0E94230B60E28EE697E00E9453
:1023C0000C020091100610911106B80189EE97E0F9
:1023D0000E944D0C01501109109311060093100634
:1023E00080910E0690910F06019790930F068093AF
:1023F0000E068091100690911106892B09F0A3CF4B
:10240000909211028092100270E060E089EE97E0F5
:102410000E944D0C89EE97E00E94F90C60E28EE676
:1024200097E00E940C0280910E0661E08B5F0E9493
:10243000230B60E28EE697E00E940C0284CF1834F2
:10244000D9F40E94180B60E081E00E94230B88EF12
:1024500092E00E94090C61E081E00E94230B89E078
:1024600093E00E94090C68EE73E080E090E00E9427
:1024700085060E94180B67CF153409F0B3C08FEEA4
:1024800097E00E94420C1B0189EE97E00E94420CEB
:102490002616370609F06BC0CE010F960E94EC0C91
:1024A00070E0C72E72E0D72ED6018D919D916D01FF
:1024B0008F3F980709F43FC00E9447228C011A867B
:1024C00019861C861B861E861D866F857889611578
:1024D000710531F04B895C89CE0109960E94CB0CC5
:1024E0004AE0B701C8010E948C22F7010190002048
:1024F000E9F73197EE19FF0979F00D851E850E0F6A
:102500001F1FB801CE0109960E94600C81111EC0E8
:10251000CE0109960E94B90C69857A85611571050D
:1025200009F14D855E85CE010F960E94CB0CCE0140
:1025300009960E94FF0C6C147D0409F0B5CFCE0102
:102540000F960E94FF0C10920D06FDCE29853A854C
:102550008D859E85B701820F931F0E94A0271E873D
:102560000D87DACFCE010F960E94B90CE0CF0E9402
:10257000180B81E08093060680910606882309F4F3
:10258000E2CE60E080E00E94230B87E293E00E94AD
:10259000090C61E083E00E94230B80ED92E00E9431
:1025A000090C0E941F07853439F71092110610920A
:1025B000100610920F0610920E0689EE97E00E9408
:1025C000F90C80E192E00E94DB0A0E94180B60E0A7
:1025D00080E00E94230B88E393E00E94090C109294
:1025E0000606CACF809110069091110608970CF04C
:1025F00043C0E8E0CE16D1040CF03EC0612F8EE659
:1026000097E00E940C0280910E0661E08B5F0E94B1
:10261000230B612F8EE697E00E940C02612F89EE5A
:1026200097E00E94880C105380911006909111063B
:10263000FC01EE0FFF1FE05FFD4F212F012E000C6C
:10264000330B3183208301969093110680931006FB
:1026500080910E0690910F06019690930F0680933D
:102660000E06111170CE60E080E00E94230B88E31B
:1026700093E00E94090C67CE81E0809306060E94D9
:10268000180B80910606882369F160E080E00E94C3
:10269000230B82EC92E00E94090C61E083E00E942F
:1026A000230B80ED92E00E94090C0E941F078534E5
:1026B00041F7109211061092100610920F06109218
:1026C0000E0680E192E00E94DB0A0E94180B60E097
:1026D00080E00E94230B88E393E00E94090C109293
:1026E0000606CFCF89EE97E00E94F90C10920606FD
:1026F0002ACE109211061092100610920F06109218
:102700000E060E94180B81E080930D06EE24EA94D9
:10271000FE2CCC24CA94DC2C80910D06882309F46D
:102720009DC10E941F07182F882309F40FC1A09094
:102730000E06B0900F0661E085E08A0D0E94230B23
:10274000153551F3143441F3133531F3133409F0D3
:102750004FC01A141B0484F5809110069091110645
:10276000181619064CF5880F991FFC01E05BFD4F08
:10277000F182E08260E28EE697E00E940C02809196
:102780000E0661E08B5F0E94230B60E28EE697E00D
:102790000E940C028091100690911106019790936F
:1027A00011068093100680910E0690910F060197F6
:1027B00090930F0680930E0680911006909111065B
:1027C000892B09F0A9CFD0925102C092500260E249
:1027D0008EE697E00E940C0280910E0661E08B5F0E
:1027E0000E94230B60E28EE697E00E940C0294CFD9
:1027F000183409F491CF153409F0EDC080915002DE
:1028000090915102892B09F060C080915202909101
:102810005302019709F059C08091540290915502DA
:10282000892B09F052C08091560290915702069769
:1028300009F04BC08091580290915902019609F01D
:1028400044C080915A0290915B020196F1F580910B
:102850005C0290915D020196C1F580915E029091BB
:102860005F02019691F50E94180B60E083E00E94E0
:10287000230B88E493E00E94090C61E084E00E944D
:10288000230B8FE094E00E94090C61E08EE30E942C
:10289000DA0368EE73E080E090E00E9485060E9413
:1028A000180B60E08EE30E94DA0310920906109282
:1028B000080610920D0680916205909163050196BD
:1028C000909363058093620527CF809108069091CD
:1028D0000906843091050CF042C0019690930906D8
:1028E000809308060E94180B60E080E00E94230B92
:1028F00083E593E00E94090C8091080690910906F7
:102900000E94D50B61E080E00E94230B8DE593E0EF
:102910000E94090C61E08FE30E94DA036CED75E020
:1029200080E090E00E94850660E08FE30E94DA0379
:10293000109211061092100610920F0610920E06B9
:1029400080E592E00E94DB0A0E94180B60E080E0C4
:102950000E94230B8CED92E00E94090CDDCE0E94B8
:10296000180B81E08093060661E08FE30E94DA0392
:1029700080910606882309F4CFCE60E080E00E94B3
:10298000230B8EE693E00E94090C61E080E00E9438
:10299000230B80E893E00E94090C0E941F078534F6
:1029A00039F7109211061092100610920F0610922D
:1029B0000E0680E592E00E94DB0A0E94180B60E0A0
:1029C00080E00E94230B8CED92E00E94090C109293
:1029D000060660E0CACF8091100690911106089714
:1029E000ACF5E8E0AE16B1048CF5612F8EE697E009
:1029F0000E940C0280910E0661E08B5F0E94230B07
:102A0000612F8EE697E00E940C0210538091100611
:102A100090911106FC01EE0FFF1FE05BFD4F212F8F
:102A2000012E000C330B3183208301969093110605
:102A30008093100680910E0690910F060196909358
:102A40000F0680930E06111167CE80CF81E0809330
:102A500006060E940E0C109206065ECE8FEE97E0E0
:102A60000E94420C4B0100910A0610910B06E09067
:102A70006205F090630588E090E00E949125FC01DA
:102A8000F182E082938282821782168215821482FA
:102A9000D80114968D919C91159701962D913C919A
:102AA0001197232B09F04DC01396FC93EE931297C8
:102AB0001196FC93EE9315969C938E9314970E9417
:102AC000180B60E082E00E94230B81E993E00E94F2
:102AD000090C80916205909163050E94D50B61E01D
:102AE00080E00E94230B85E993E00E94090CC40159
:102AF0000E94D50B61E080E40E94DA036CED75E082
:102B000080E090E00E94850660E080E40E94DA03A5
:102B100064960FB6F894DEBF0FBECDBFDF91CF91A4
:102B20001F910F91FF90EF90DF90CF90BF90AF90EB
:102B30009F908F907F906F905F904F903F902F90DD
:102B4000089512962D913C91D9011596FC93EE9320
:102B5000149737832683D8011396FC93EE9312972C
:102B6000AACF109237061092360688EE93E0A0E0C6
:102B7000B0E08093380690933906A0933A06B0935C
:102B80003B062CE832E0309335062093340625ECE2
:102B900030E0309341062093400624EC30E030933F
:102BA00043062093420620EC30E030934506209304
:102BB000440621EC30E0309347062093460622EC91
:102BC00030E0309349062093480626EC30E03093FD
:102BD0004B0620934A0610924D0610924E06109214
:102BE0004F06109250061092D4061092D30680938E
:102BF000D5069093D606A093D706B093D8068EE953
:102C000092E09093D2068093D10680916D07803335
:102C100008F086C091E0980F90936D0780930708A5
:102C200090E0FC01EE0FFF1FE80FF91FE352F94F90
:102C300088EB9BE09283818381E098E00E94EC0C1A
:102C40008BEF97E00E94EC0C85EF97E00E94EC0C74
:102C50008FEE97E00E94EC0C89EE97E00E94EC0C5E
:102C600010927C071092800710927F0710928107C4
:102C70008CEB92E090937B0780937A07E6E9F7E08C
:102C80001082148213821582369687E0E23DF8079F
:102C9000B9F786E692E09093DD078093DC0782E641
:102CA00092E09093DF078093DE0784E08093E00753
:102CB0008093E1078AE692E09093DB078093DA073E
:102CC0008AE090E09093E3078093E20784EF91E03D
:102CD0009093E5078093E4071092E8071092E707C6
:102CE0001092D6071092D7071092D8071092D907E2
:102CF0001092E607109271071092700780EB92E035
:102D000090936F0780936E0787E28093720780E14C
:102D10008093770782E0809378071092790708956F
:102D20008FEF8093070888CFCF93DF9300D0CDB784
:102D3000DEB7789484B5826084BD84B5816084BD3B
:102D400085B5826085BD85B5816085BD80916E0049
:102D5000816080936E00109281008091810082607A
:102D600080938100809181008160809381008091B7
:102D700080008160809380008091B10084608093A6
:102D8000B1008091B00081608093B000809191008B
:102D90008260809391008091910081608093910086
:102DA000809190008160809390008091A10082606A
:102DB0008093A1008091A10081608093A100809107
:102DC000A00081608093A0008091210182608093A7
:102DD0002101809121018160809321018091200156
:102DE00081608093200180917A00846080937A00D2
:102DF00080917A00826080937A0080917A0081606D
:102E000080937A0080917A00806880937A00109293
:102E1000C100E0914406F091450622E02083E09154
:102E20004006F09141061082E0914206F09143067F
:102E30008FEC808310924C06E0914806F091490691
:102E400086E08083E0914606F091470680818061AC
:102E50008083E0914606F0914706808188608083F8
:102E6000E0914606F0914706808180688083E0917A
:102E70004606F091470680818F7D8083809173079D
:102E80008860809373072093760762E370E080E0A8
:102E900090E00E948506609179078EE697E00E9497
:102EA000F00968EE73E080E090E00E94850660E340
:102EB0008EE697E00E94E80A0BE416E4C801019749
:102EC000F1F760E38EE697E00E94E80AC8010197F7
:102ED000F1F760E38EE697E00E94E80A83E592E06E
:102EE0000197F1F760E28EE697E00E94E80A6091B0
:102EF0007307606240E08EE697E00E94010B84E079
:102F00008093740740E06CE08EE697E00E94010B2E
:102F10000E94180B32E03093750740E066E08EE6C1
:102F200097E00E94010B40E062E08EE697E00E948D
:102F3000010B8BE39FE10197F1F768E372E080E01A
:102F40000E945B0B60E372E081E00E945B0B68E231
:102F500072E082E00E945B0B60E272E083E00E941C
:102F60005B0B88E090E00E949125FC0113821282A5
:102F7000118210821582148281E090E0978386830B
:102F8000F0930B06E0930A0661E088E30E94510487
:102F900061E089E30E94510461E08AE30E945104E8
:102FA00061E08BE30E94510461E08EE30E945104D2
:102FB00061E08FE30E94510461E080E40E945104CB
:102FC00061E08DE20E94510460E08AE00E945104B9
:102FD00060E089E00E94510480910708803308F086
:102FE00054C061E08DE00E94510480910708282FB1
:102FF00030E0F901EE0FFF1FE20FF31FE352F94F2C
:103000009081907C9D60908395E79093080894E66A
:10301000909309082CE0622F0E947D25829FB001C9
:10302000112430E020E0AB01420F531FFA01EE0FF4
:10303000FF1FE40FF51FE352F94F908196FD17C073
:103040002F5F3F4F2C30310571F7813009F002C1FD
:103050001092800082E0809381001092850010928F
:103060008400B19A80916F00826080936F00E0913C
:1030700007088E2F90E0FC01EE0FFF1FE80FF91FED
:10308000E352F94F80818064808390E080E00E9469
:10309000840161E08CE10E94510461E08DE10E94B5
:1030A000510461E08EE10E94510461E08FE10E94D1
:1030B000510460E086E30E94510481E090E0909327
:1030C00013068093120622242A94322C0FEF1FEF4E
:1030D00080911206909113068130910509F40AC57A
:1030E0008230910509F427C5892B09F00CC60E948E
:1030F000180B60E081E00E94230B60E08EE697E011
:103100000E94550B8CE993E00E94090C60E08EE66A
:1031100097E00E94550B60ED77E080E090E00E9420
:10312000850680916002882309F4EDC50E94180B82
:10313000109211061092100610920F0610920E06B1
:1031400081E098E00E94F90C8BEF97E00E94F90C67
:1031500080910C0690910D06992309F48BC1811181
:1031600089C10E941F078B83882309F43DC1E09029
:103170000E06F0900F0661E085E08E0D0E94230B95
:103180008B81853529F3843419F3833509F383342E
:1031900009F08CC01E141F04BCF58091100690919C
:1031A00011061816190684F5880F991FFC01E05CBA
:1031B000FD4F3182208260E28EE697E00E940C0291
:1031C00080910E0661E08B5F0E94230B60E28EE629
:1031D00097E00E940C02E0901006F0901106B701F3
:1031E00081E098E00E944D0C91E0E91AF108F0921C
:1031F0001106E092100680910E0690910F0601973D
:1032000090930F0680930E06809110069091110600
:10321000892B09F09DCF109341020093400270E08A
:1032200060E081E098E00E944D0C81E098E00E940F
:10323000F90C60E28EE697E00E940C0280910E0687
:1032400061E08B5F0E94230B60E28EE697E00E94B4
:103250000C027ECF823061F4109290008093910036
:10326000109295001092940088BB80937100FFCE5D
:10327000833069F41092A00082E08093A100109244
:10328000A5001092A40089BB80937200F0CE81113A
:10329000EECE1092200182E0809321011092250150
:1032A000109224018ABB80937300E1CE2B812834D5
:1032B000D9F40E94180B60E081E00E94230B89EA98
:1032C00093E00E94090C61E081E00E94230B87EBF0
:1032D00093E00E94090C68EE73E080E090E00E94A9
:1032E00085060E94180B34CF3B813534C9F5809197
:1032F000400290914102892B81F580914202909188
:103300004302892B51F58091440290914502892B0B
:1033100021F58091460290914702892BF1F480912A
:103320004802909149020196C1F480914A0290911D
:103330004B02019691F480914C0290914D020196BE
:1033400061F480914E0290914F02019631F481E038
:1033500080930C060E942110FBCE10920D06F8CE31
:10336000809110069091110608970CF046C088E0F5
:10337000E816F1040CF041C06B818EE697E00E94E4
:103380000C0280910E0661E08B5F0E94230B6B8123
:103390008EE697E00E940C026B8181E098E00E942B
:1033A000880C8B8180532091100630911106F90111
:1033B000EE0FFF1FE05CFD4F482F082E000C550B51
:1033C000518340832F5F3F4F3093110620931006A7
:1033D00020910E0630910F062F5F3F4F30930F065E
:1033E00020930E068111B4CE60E080E00E94230B92
:1033F00083ED93E00E94090CABCE81E0809306063A
:103400000E94180B80910606882369F160E080E035
:103410000E94230B87EC93E00E94090C61E083E09B
:103420000E94230B80ED92E00E94090C0E941F076E
:10343000853441F7109211061092100610920F0673
:1034400010920E0680E492E00E94DB0A0E94180BA4
:1034500060E080E00E94230B83ED93E00E94090C62
:1034600010920606CFCF81E098E00E94F90C1092EE
:1034700006066ECE0E94180B1092110610921006CE
:1034800010920F0610920E0681E080930D06809137
:103490000C0690910D06992309F45FC18111B1C109
:1034A0000E941F078B83882309F411C1E0900E0648
:1034B000F0900F0661E085E08E0D0E94230B9B814A
:1034C000953529F3943419F3933509F3933409F0BE
:1034D00060C01E141F04BCF5809110069091110667
:1034E0001816190684F5880F991FFC01E05BFD4F43
:1034F0003182208260E28EE697E00E940C02809189
:103500000E0661E08B5F0E94230B60E28EE697E07F
:103510000E940C02E0901006F0901106B7018BEFAC
:1035200097E00E944D0C21E0E21AF108F09211069A
:10353000E092100680910E0690910F0601979093ED
:103540000F0680930E068091100690911106892B2C
:1035500009F09DCF109351020093500270E060E09B
:103560008BEF97E00E944D0C8BEF97E00E94F90CD7
:1035700060E28EE697E00E940C0280910E0661E008
:103580008B5F0E94230B60E28EE697E00E940C02A4
:103590007ECF3B813834D9F40E94180B60E081E083
:1035A0000E94230B89EA93E00E94090C61E081E00C
:1035B0000E94230B87EB93E00E94090C68EE73E0F6
:1035C00080E090E00E9485060E94180B60CF8B81FE
:1035D0008534C9F58091500290915102892B81F573
:1035E0008091520290915302892B51F5809154029F
:1035F00090915502892B21F58091560290915702A6
:10360000892BF1F480915802909159020196C1F4EE
:1036100080915A0290915B02019691F480915C0234
:1036200090915D02019661F480915E0290915F023B
:10363000019631F481E080930C060E94211027CF7F
:1036400010920D0624CF80911006909111060897D4
:103650000CF046C088E0E816F1040CF041C06B8124
:103660008EE697E00E940C0280910E0661E08B5F6F
:103670000E94230B6B818EE697E00E940C026B8107
:103680008BEF97E00E94880C8B818053209110066D
:1036900030911106F901EE0FFF1FE05BFD4F482F3F
:1036A000082E000C550B518340832F5F3F4F309302
:1036B00011062093100620910E0630910F062F5F01
:1036C0003F4F30930F0620930E068111E0CE60E04D
:1036D00080E00E94230B87E193E00E94090CD7CE83
:1036E00081E0809306060E94180B809106068823CD
:1036F00069F160E080E00E94230B82EC92E00E947E
:10370000090C61E083E00E94230B80ED92E00E94AF
:10371000090C0E941F07853441F710921106109280
:10372000100610920F0610920E0680E592E00E949D
:10373000DB0A0E94180B60E080E00E94230B87E107
:1037400093E00E94090C10920606CFCF8BEF97E012
:103750000E94F90C109206069ACE811152C081E0A7
:1037600098E00E94420C7B018BEF97E00E94420C94
:10377000E0910A06F0910B060190F081E02D309760
:1037800079F080819181E816F90631F48281938184
:103790006817790709F42AC60480F581E02DEFCF78
:1037A00080910806909109060196909309068093EE
:1037B0000806049764F50E94180B60E080E00E9400
:1037C000230B8EED93E00E94090C809108069091E6
:1037D00009060E94D50B61E080E00E94230B8BEE6E
:1037E00093E00E94090C61E08FE30E94DA036CED24
:1037F00075E080E090E00E94850660E08FE30E9423
:10380000DA0310920C0681E080930D068ACC81E0E9
:103810008093070661E08DE20E94DA0361E08FE3A6
:103820000E94DA0360ED77E080E090E00E94850678
:1038300060E08DE20E94DA031092110610921006E9
:1038400010920F0610920E060E94180B8091070628
:10385000882309F44AC10E941F078B83882309F437
:1038600033C1E0900E06F0900F0661E085E08E0D0A
:103870000E94230B9B81953549F3943439F393359A
:1038800029F3933409F04FC01E141F0484F580916E
:10389000100690911106181619064CF5880F991FFD
:1038A000FC01E05BFD4F3182208260E28EE697E012
:1038B0000E940C0280910E0661E08B5F0E94230B38
:1038C00060E28EE697E00E940C02809110069091D3
:1038D00011060197909311068093100680910E06B1
:1038E00090910F06019790930F0680930E0680919A
:1038F000100690911106892B09F0A8CF1093510260
:103900000093500260E28EE697E00E940C028091E4
:103910000E0661E08B5F0E94230B60E28EE697E06B
:103920000E940C0293CF2B81283409F48FCF2534C9
:1039300009F08CC08091500290915102892B09F0BE
:1039400056C08091520290915302019709F04FC0E6
:103950008091540290915502892B09F048C08091C2
:10396000560290915702069709F041C08091580283
:10397000909159020196D9F580915A0290915B027B
:103980000196A9F580915C0290915D02019679F50E
:1039900080915E0290915F02019649F50E94180B9A
:1039A00060E083E00E94230B88E493E00E94090C0E
:1039B00061E084E00E94230B8FE094E00E94090CF8
:1039C00061E08EE30E94DA0364EC79E080E090E04D
:1039D0000E9485060E94180B60E08EE30E94DA03C5
:1039E0001092090610920806109207062FCF0E9427
:1039F000180B60E082E00E94230B8CEF93E00E94A2
:103A0000090C61E080E00E94230B89E094E00E94B1
:103A1000090C61E08DE20E94DA036CED75E080E054
:103A200090E00E94850660E08DE20E94DA030E9429
:103A3000180B109211061092100610920F06109299
:103A40000E0680E592E00E94DB0A00CF809110060E
:103A50009091110608970CF040C038E0E316F1048D
:103A6000E4F56B818EE697E00E940C0280910E06D1
:103A700061E08B5F0E94230B6B818EE697E00E94D2
:103A80000C028B8180532091100630911106F901B0
:103A9000EE0FFF1FE05BFD4F482F082E000C550B6B
:103AA000518340832F5F3F4F3093110620931006C0
:103AB00020910E0630910F062F5F3F4F30930F0677
:103AC00020930E068111C2CE60E081E00E94230B9C
:103AD0008CED92E00E94090CB9CE81E0809306063D
:103AE0000E940E0C10920606B1CE1092090610929A
:103AF000080683CE0E94180B60E081E00E94230B31
:103B000087E194E00E94090C62E081E00E94230BAF
:103B100040910508509106086091010870910208D3
:103B20008EE697E00E94130282E090E090931306E5
:103B300080931206E8C084E396E00E947102181692
:103B400019060CF0E0C084E396E00E944F02813435
:103B5000910509F0DBC08AE00E94AE03019709F0ED
:103B6000B4C00E94180B60E080E00E94230B85E245
:103B700094E00E94090C61E080E00E94230B84E342
:103B800094E00E94090C88EE93E00E948D0468EE98
:103B900073E080E090E00E9485068DE20E940C04B4
:103BA0008AE00E94AE03019709F06FC060E08CE1EB
:103BB0000E94DA0360E08DE10E94DA0360E08EE1AA
:103BC0000E94DA0361E08FE10E94DA0368EC70E0A2
:103BD00080E090E00E94850660E08CE10E94DA03BC
:103BE00061E08DE10E94DA0360E08EE10E94DA0379
:103BF00060E08FE10E94DA0368EC70E080E090E022
:103C00000E94850660E08CE10E94DA0360E08DE1AD
:103C10000E94DA0361E08EE10E94DA0360E08FE146
:103C20000E94DA0368EC70E080E090E00E94850674
:103C300061E08CE10E94DA0360E08DE10E94DA032A
:103C400060E08EE10E94DA0360E08FE10E94DA0317
:103C500068EC70E080E090E00E94850660E08CE116
:103C60000E94DA0360E08DE10E94DA0360E08EE1F9
:103C70000E94DA0360E08FE10E94DA0364E670E0FC
:103C800080E090E00E9485068BCF0E94180B60E0D8
:103C900080E00E94230B8EE394E00E94090C61E017
:103CA00080E00E94230B8FE494E00E94090C8CEDCD
:103CB00095E00E948D0464EF71E080E090E00E9446
:103CC00085068DE20E940C0418C00E94180B60E06B
:103CD00080E00E94230B87E594E00E94090C61E0DC
:103CE00080E00E94230B85E694E00E94090C60EDC1
:103CF00077E080E090E00E94850622E030E030939B
:103D00001306209312060E941603E2C9823491051D
:103D100009F0C0C089E00E94AE03019709F0A9C074
:103D20000E94180B60E080E00E94230B85E294E083
:103D30000E94090C61E080E00E94230B85E794E07B
:103D40000E94090C88EB9BE00E948D0464EF71E0F7
:103D500080E090E00E9485068DE20E940C0489E0DC
:103D60000E94AE03019709F06FC061E08CE10E94F0
:103D7000DA0360E08DE10E94DA0360E08EE10E94E8
:103D8000DA0360E08FE10E94DA0368EC70E080E023
:103D900090E00E94850660E08CE10E94DA0360E01A
:103DA0008DE10E94DA0361E08EE10E94DA0360E0B7
:103DB0008FE10E94DA0368EC70E080E090E00E94FE
:103DC000850660E08CE10E94DA0361E08DE10E94EB
:103DD000DA0360E08EE10E94DA0360E08FE10E9486
:103DE000DA0368EC70E080E090E00E94850660E015
:103DF0008CE10E94DA0360E08DE10E94DA0360E06A
:103E00008EE10E94DA0361E08FE10E94DA0368EC40
:103E100070E080E090E00E94850660E08CE10E9406
:103E2000DA0360E08DE10E94DA0360E08EE10E9437
:103E3000DA0360E08FE10E94DA0364E670E080E07C
:103E400090E00E9485068BCF0E94180B60E080E016
:103E50000E94230B8EE394E00E94090C61E080E055
:103E60000E94230B8EE794E00E94090C84EC99E0F9
:103E700020CF0E94180B60E080E00E94230B86E8B0
:103E800094E00E94090C61E080E00E94230B85E928
:103E900094E02BCF8334910509F0B7C00E94180B32
:103EA00060E080E00E94230B62E08EE697E00E94D3
:103EB000550B85EA94E00E94090C61E082E00E94C3
:103EC000230B61E08EE697E00E94550B63E08EE6DF
:103ED00097E00E94550B85EB94E00E94090C63E08B
:103EE0008EE697E00E94550B84EB90E00E948401DF
:103EF00068E873E180E090E00E94850684E396E044
:103F00000E9471021816190634F484E396E00E94A8
:103F10004F029A8389830E94B7060E94E3226B01B5
:103F20007C0160E070E0CB0129813A8124343105C5
:103F300021F120E030E040EC50E40E94DE2287FFD7
:103F40001CC084E396E00E9471021816190634F42E
:103F500084E396E00E944F029A8389830E94B70609
:103F60000E94E322A70196010E94652420E030E030
:103F70004AE754E40E94D224D7CF61E08EE30E9446
:103F8000DA030E94180B60E080E00E94230B62E0DD
:103F90008EE697E00E94550B85EA94E00E94090C9A
:103FA00061E082E00E94230B60E08EE697E00E94D1
:103FB000550B63E08EE697E00E94550B8EEB94E084
:103FC0000E94090C63E08EE697E00E94550B90E09A
:103FD00080E00E94840180ED97E00E948D0468EEED
:103FE00073E080E090E00E9485068DE20E940C0460
:103FF00068E873E180E090E00E94850660E08EE36F
:104000000E94DA0381E090E091CD8534910509F0BA
:10401000EBC00E94180B60E080E00E94230B87EC4D
:1040200094E00E94090C61E082E00E94230B80ED85
:1040300094E00E94090C80917B00877F80937B0035
:1040400090E490937C0080917A00806480937A0061
:1040500080917A0086FDFCCF809178006091790094
:10406000762F682F072E000C880B990B0E94E522F3
:1040700020E030E040E85AE30E94442320E030E4AE
:104080004CE955E40E94442320E030E040E251E452
:104090000E94D2246B017C014B015C01AC019B01AD
:1040A0000E9478256CED74E0811126C0260137014D
:1040B000E89477F82FEF3FEF4FE75FE7C301B201D6
:1040C0000E94782581110CC02FEF3FEF4FE75FE78B
:1040D000C301B2010E94DE2260EE74E0181664F0A3
:1040E0002FEF3FEF4FE75FE4C701B6010E94732552
:1040F00018163CF464EE74E084E396E00E947A0BB8
:1041000002CE2FEF3FEF4FE75FECC701B6010E94F1
:10411000DE2287FDEFCF20E030E0A901C701B60124
:104120000E94DE2287FF0BC06DE284E396E00E94CE
:104130000C0246015701B7FAB094B7F8B0942AE0E0
:1041400037ED43EA5BE3C501B4010E9466244B01ED
:104150005C010E9444256B017C010E94E3229B01CB
:10416000AC01C501B4010E9465244B015C012AE049
:10417000B701A60184E396E00E94890B6EE284E316
:1041800096E00E940C0220E030E040E251E4C501DC
:10419000B4010E9444234B015C010E9444256B0141
:1041A000F12CE12C2AE0B701A60184E396E00E94FD
:1041B000890BC701B6010E94E3229B01AC01C50136
:1041C000B4010E94652420E030E040E251E40E9406
:1041D00044230E944425AB0170E060E02AE084E3C0
:1041E00096E00E94890B8FCD8033910509F50E94DE
:1041F000180B60E080E00E94230B88EE94E00E94A0
:10420000090C61E082E00E94230B87EF94E00E949A
:10421000090C61E088E30E94DA0361E089E30E940F
:10422000DA0361E08AE30E94DA0361E08BE33AC0DB
:104230008133910501F50E94180B60E080E00E9437
:10424000230B88EE94E00E94090C61E082E00E945A
:10425000230B82E095E00E94090C60E088E30E9455
:10426000DA0360E089E30E94DA0360E08AE30E94F7
:10427000DA0360E0DBCF82339105B9F40E94180BBA
:1042800060E080E00E94230B8BE095E00E94090C27
:1042900061E082E00E94230B87EF94E00E94090C0A
:1042A00061E088E30E94DA032ECD83339105A1F407
:1042B0000E94180B60E080E00E94230B8BE095E0E9
:1042C0000E94090C61E082E00E94230B82E095E0ED
:1042D0000E94090C60E0E5CF84339105A9F40E94A7
:1042E000180B60E080E00E94230B88E195E00E94BB
:1042F000090C61E082E00E94230B87EF94E00E94AA
:10430000090C61E089E3CECF85339105A1F40E94C9
:10431000180B60E080E00E94230B88E195E00E948A
:10432000090C61E082E00E94230B82E095E00E948C
:10433000090C60E0E7CF86339105A9F40E94180BC1
:1043400060E080E00E94230B82E295E00E94090C6D
:1043500061E082E00E94230B87EF94E00E94090C49
:1043600061E08AE39FCF87339105A1F40E94180B87
:1043700060E080E00E94230B82E295E00E94090C3D
:1043800061E082E00E94230B82E095E00E94090C2C
:1043900060E0E7CF8833910599F40E94180B60E044
:1043A00080E00E94230B82E395E00E94090C61E00B
:1043B00082E00E94230B87EF94E00E94090C35CF26
:1043C000C99709F0A0CC0E94180B60E080E00E9421
:1043D000230B82E395E00E94090C61E082E00E94D9
:1043E000230B82E095E00E94090C43CF0E94180B3A
:1043F00060E080E00E94230B81E495E00E94090CBC
:1044000061E080E00E94230B81E595E00E94090CA9
:1044100061E08DE20E94DA0361E08EE30E94DA033C
:1044200061E088E30E94DA0361E089E30E94DA0335
:1044300061E08AE30E94DA0361E08BE30E94DA0321
:1044400060ED77E080E090E00E94850660E08DE21C
:104450000E94DA0321E030E0309313062093120625
:1044600010926002CEC989EE97E00E94FF0C8FEE99
:1044700097E00E94FF0C85EF97E00E94FF0C8BEF06
:1044800097E00E94FF0C81E098E00C94FF0CFC0187
:1044900088279927E89421912032E9F3293010F0F8
:1044A0002E30C8F32B3241F02D3239F4689404C019
:1044B0000E94AC22820F911D219120532A30C0F31B
:1044C0001EF4909581959F4F08951F93FC019927A5
:1044D0008827BC01E89411911032E9F3193010F0EB
:1044E0001E30C8F31B3251F01D3249F4689406C0E7
:1044F0000E949722610F711D811D911D1191105312
:104500001A30B0F33EF490958095709561957F4F89
:104510008F4F9F4F1F910895BB274A3031F4992345
:1045200022F4BDE2909581959F4F0C94B522592FAE
:10453000482F372F262F660F771F881F991F660F6A
:10454000771F881F991F620F731F841F951F660FA7
:10455000771F881F991F08957AE0979F902D879F56
:10456000802D910D11240895BB27FB015527AA2703
:10457000880F991FAA1FA41710F0A41B83955051F0
:10458000B9F7A05DAA3308F0A95DA193009779F768
:10459000B111B1931192CB010C94CE22DC01FC013C
:1045A000672F71917723E1F7329704C07C916D9367
:1045B00070836291AE17BF07C8F308950E9420234D
:1045C00008F481E00895E89409C097FB3EF49095C3
:1045D0008095709561957F4F8F4F9F4F9923A9F0DC
:1045E000F92F96E9BB279395F6958795779567956B
:1045F000B795F111F8CFFAF4BB0F11F460FF1BC0AF
:104600006F5F7F4F8F4F9F4F16C0882311F096E941
:1046100011C0772321F09EE8872F762F05C06623EF
:1046200071F096E8862F70E060E02AF09A95660FA8
:10463000771F881FDAF7880F9695879597F9089561
:10464000990F0008550FAA0BE0E8FEEF16161706A3
:10465000E807F907C0F012161306E407F50798F00B
:10466000621B730B840B950B39F40A2661F0232B24
:10467000242B252B21F408950A2609F4A140A695A0
:104680008FEF811D811D08950E9457230C94C8232C
:104690000E94BA2338F00E94C12320F0952311F024
:1046A0000C94B1230C94B72311240C94FC230E9486
:1046B000D92370F3959FC1F3950F50E0551F629F6A
:1046C000F001729FBB27F00DB11D639FAA27F00D6B
:1046D000B11DAA1F649F6627B00DA11D661F829F92
:1046E0002227B00DA11D621F739FB00DA11D621F77
:1046F000839FA00D611D221F749F3327A00D611D94
:10470000231F849F600D211D822F762F6A2F112475
:104710009F5750409AF0F1F088234AF0EE0FFF1FA8
:10472000BB1F661F771F881F91505040A9F79E3FFF
:10473000510580F00C94B1230C94FC235F3FE4F30B
:10474000983ED4F3869577956795B795F795E79555
:104750009F5FC1F7FE2B880F911D9695879597F95E
:10476000089597F99F6780E870E060E008959FEFF3
:1047700080EC089500240A941616170618060906F8
:10478000089500240A9412161306140605060895C7
:10479000092E0394000C11F4882352F0BB0F40F44F
:1047A000BF2B11F460FF04C06F5F7F4F8F4F9F4F8F
:1047B000089557FD9058440F551F59F05F3F71F011
:1047C0004795880F97FB991F61F09F3F79F0879578
:1047D0000895121613061406551FF2CF4695F1DF01
:1047E00008C0161617061806991FF1CF8695710591
:1047F000610508940895E894BB2766277727CB01C5
:1048000097F90895052E97FB1EF400940E94192431
:1048100057FD07D00E94342407FC03D04EF40C94BB
:10482000192450954095309521953F4F4F4F5F4F3C
:10483000089590958095709561957F4F8F4F9F4F0C
:1048400008950E945624A59F900DB49F900DA49F9B
:10485000800D911D11240895B7FF0C9421240E940E
:104860002124821B930B0895A1E21A2EAA1BBB1BC5
:10487000FD010DC0AA1FBB1FEE1FFF1FA217B3072C
:10488000E407F50720F0A21BB30BE40BF50B661F42
:10489000771F881F991F1A9469F760957095809506
:1048A00090959B01AC01BD01CF010895A29FB0017D
:1048B000B39FC001A39F700D811D1124911DB29F54
:1048C000700D811D1124911D08955058BB27AA27F2
:1048D0000E947D240C94C8230E94BA2338F00E94C1
:1048E000C12320F039F49F3F19F426F40C94B72328
:1048F0000EF4E095E7FB0C94B123E92F0E94D92335
:1049000058F3BA17620773078407950720F079F404
:10491000A6F50C94FB230EF4E0950B2EBA2FA02DD8
:104920000B01B90190010C01CA01A0011124FF275C
:10493000591B99F0593F50F4503E68F11A16F04057
:10494000A22F232F342F4427585FF3CF4695379556
:104950002795A795F0405395C9F77EF41F16BA0B1B
:10496000620B730B840BBAF09150A1F0FF0FBB1FC9
:10497000661F771F881FC2F70EC0BA0F621F731F12
:10498000841F48F4879577956795B795F7959E3F6F
:1049900008F0B0CF9395880F08F09927EE0F979500
:1049A000879508950E94E6240C94C8230E94C12391
:1049B00058F00E94BA2340F029F45F3F29F00C948C
:1049C000B12351110C94FC230C94B7230E94D923DA
:1049D00068F39923B1F3552391F3951B550BBB272E
:1049E000AA2762177307840738F09F5F5F4F220F73
:1049F000331F441FAA1FA9F335D00E2E3AF0E0E86A
:104A000032D091505040E695001CCAF72BD0FE2FB3
:104A100029D0660F771F881FBB1F26173707480747
:104A2000AB07B0E809F0BB0B802DBF01FF279358FF
:104A30005F4F3AF09E3F510578F00C94B1230C94EF
:104A4000FC235F3FE4F3983ED4F386957795679512
:104A5000B795F7959F5FC9F7880F911D9695879534
:104A600097F90895E1E0660F771F881FBB1F621753
:104A700073078407BA0720F0621B730B840BBA0B11
:104A8000EE1F88F7E09508950E94E12388F09F5774
:104A900098F0B92F9927B751B0F0E1F0660F771F62
:104AA000881F991F1AF0BA95C9F714C0B13091F058
:104AB0000E94FB23B1E008950C94FB23672F782F0D
:104AC0008827B85F39F0B93FCCF38695779567951D
:104AD000B395D9F73EF490958095709561957F4F89
:104AE0008F4F9F4F08950E94202308F48FEF089561
:104AF0000E942023880B990B0895991B79E004C02C
:104B0000991F961708F0961B881F7A95C9F780950C
:104B10000895EE0FFF1F881F8BBF0790F691E02DC1
:104B200019940F931F93CF93DF938230910510F464
:104B300082E090E0E0910C08F0910D0830E020E078
:104B4000B0E0A0E0309799F42115310509F44AC08E
:104B5000281B390B24303105D8F58A819B816115DA
:104B6000710589F1FB0193838283FE0111C04081AD
:104B700051810281138148175907E0F048175907FE
:104B800099F4109761F012960C93129713961C9358
:104B90003296CF01DF91CF911F910F91089500932D
:104BA0000C0810930D08F4CF2115310551F0421770
:104BB000530738F0A901DB019A01BD01DF01F801BB
:104BC000C1CFEF01F9CF90930D0880930C08CDCFA2
:104BD000FE01E20FF31F8193919322503109398333
:104BE0002883D7CF20910A0830910B08232B41F45A
:104BF00020917C0230917D0230930B0820930A08AB
:104C000020917A0230917B022115310541F42DB7B4
:104C10003EB740917E0250917F02241B350BE091FC
:104C20000A08F0910B08E217F307A0F42E1B3F0BC4
:104C30002817390778F0AC014E5F5F4F241735070E
:104C400048F04E0F5F1F50930B0840930A08819362
:104C500091939FCFF0E0E0E09CCFCF93DF9300975C
:104C6000E9F0FC01329713821282A0910C08B091F6
:104C70000D08ED0130E020E01097A1F42081318192
:104C8000820F931F20910A0830910B0828173907CB
:104C900009F061C0F0930B08E0930A08DF91CF910F
:104CA0000895EA01CE17DF07E8F54A815B819E018E
:104CB00041155105B1F7E901FB83EA834991599107
:104CC000C40FD51FEC17FD0761F480819181029616
:104CD000840F951FE90199838883828193819B8347
:104CE0008A83F0E0E0E012968D919C9113970097F3
:104CF000B9F52D913C911197CD010296820F931F2A
:104D000020910A0830910B082817390739F6309797
:104D100051F510920D0810920C08B0930B08A09357
:104D20000A08BCCFD383C28340815181840F951F71
:104D3000C817D90761F44E5F5F4F88819981480F8A
:104D4000591F518340838A819B81938382832115DC
:104D5000310509F0B0CFF0930D08E0930C089ECF19
:104D6000FD01DC01C0CF13821282D7CF4F925F9238
:104D70006F927F928F929F92AF92BF92CF92DF926B
:104D8000EF92FF920F931F93CF93DF938C010097C5
:104D900099F4CB01DF91CF911F910F91FF90EF908C
:104DA000DF90CF90BF90AF909F908F907F906F904B
:104DB0005F904F900C949125FC01E60FF71F9C012A
:104DC00022503109E217F30708F4AEC0D901CD91A2
:104DD000DC911197C617D70720F1C530D10578F0BF
:104DE000CE0104978617970750F0C61BD70B229762
:104DF000C193D1936D937C93CF010E942D26C8015E
:104E0000DF91CF911F910F91FF90EF90DF90CF90A6
:104E1000BF90AF909F908F907F906F905F904F90DA
:104E200008955B01AC1ABD0A4C018C0E9D1EA09129
:104E30000C08B0910D08512C412CF12CE12C10974D
:104E400031F580910A0890910B088815990509F0B1
:104E50005CC04616570608F058C080917A029091BF
:104E60007B02009741F48DB79EB740917E0250912E
:104E70007F02841B950BE817F90708F055C0F093E3
:104E80000B08E0930A08F90171836083B8CF8D9114
:104E90009C91119712966C90129713967C90139791
:104EA000A815B90559F56C0142E0C40ED11CCA140D
:104EB000DB0420F1AC014A195B09DA01129615975F
:104EC00080F06282738251834083D9016D937C9319
:104ED000E114F10471F0D7011396FC93EE9312974D
:104EE0008ECF22968C0F9D1FF90191838083F30151
:104EF000EFCFF0930D08E0930C0881CF48165906C8
:104F000008F42C017D01D3019ACFCB010E94912599
:104F10007C01009749F0AE01B8010E949727C801B3
:104F20000E942D2687016BCF10E000E068CFFB01C7
:104F3000DC0102C001900D9241505040D8F7089515
:104F4000FB01DC0101900D920020E1F7089511E0D2
:104F5000C0E5D1E000E006C0802FFE010E94892557
:104F60002196011DC135D10780E00807A9F7F89403
:024F7000FFCF71
:104F7200FFFFFFFFFFFFFFFFFFFFFFFFFFFFFFFF3F
:104F8200FFFFFFFFFFFFFFFFFFFFFFFFFFFFFFFF2F
:104F9200000A0A0A00110E00000103161C08000094
:104FA2000E01011F1B1B1F000E11111F1B1B1F00D7
:104FB200FFFFFFFFFFFFFFFFFFFFFFFFFFFFFFFFFF
:104FC200FFFFFFFFFFFFFFFFFFFFFFFFFFFFFFFFEF
:104FD20001FF31302F2E35343332313233553435EF
:104FE2003644373839534330484500000E088000B4
:104FF200000040001400540000000000A902130247
:105002004002F60271024F02630200000000C10971
:105012009409D80A86098D098A09870900000000C7
:10502200550B1302D80AD70A000000005C060804D8
:10503200D7035041535320544F4F204C4F4E4700FB
:10504200505245535320454E54455200434C41560D
:105052004520474552454E54450020524547495345
:105062005452414E444F2000434C415645204D4539
:105072004E4F52204445203800454E54455220415F
:1050820043455054415200444947495445205355E1
:1050920020434C4156450050415353204E4F20432C
:1050A2004F494E43494445005245494E47524553A4
:1050B2004520434C415645004249454E56454E49CE
:1050C200444F004552524F522020202000434C4171
:1050D200564520494E434F52524543544F0053497F
:1050E2005354454D4120424C4F51554541444F0088
:1050F200415649534520414C20474552454E54455F
:105102000049442000205041535320002042494589
:105112004E56454E49444F200050524553494F4E3A
:1051220045203030303000454E54455220524547DC
:1051320049535452415200494420544F4F204C4F3E
:105142004E4700494E4752455345204944002020CE
:105152004552524F52202020202000434C415645B8
:1051620020494E434F52524543544100424144204C
:1051720050415353574F52440041564953452047DB
:105182004552454E544500204249454E56454E49EA
:10519200444F3A20004D6F7669656E646F206861F6
:1051A20063696100697A71756965726461004C6155
:1051B200206D756573747261206C6C65676F006138
:1051C2006C204C414232004552524F523A206E6F8F
:1051D20020686179006D75657374726120656E2057
:1051E2004C41423100646572656368617300616CB1
:1051F200204C414231004552524F523A206E6F20AC
:1052020068617920006D75657374726120656E2026
:105212004C4142320026436F6E74726F6C506F7253
:10522200746F6E260041627269656E646F00436539
:105232007272616E646F00456E7669616E646F00B2
:1052420074656D7065726174757261006E616E0075
:10525200696E66006F766600546F646F73206C6FC0
:1052620073206C65647300656E63656E6469646F58
:1052720073006170616761646F73004C65647320D1
:105282006465204C414231004C656473204C4142BC
:1052920032004C65647320646520656E74726164CB
:1052A20061004C6564732064652073616C6964619C
:1052B200002020204F4B2041434345534F202020C4
:1052C200002020205045524D495449444F2020206F
:0252D2000000DA
:00000001FF
