:020000040000FA
:100000000C9459010C948A010C948A010C948A0175
:100010000C948A010C948A010C948A010C948A0134
:100020000C948A010C948A010C948A010C948A0124
:100030000C948A010C94630E0C948A010C948A012E
:100040000C948A010C94F70F0C948A010C948A0189
:100050000C948A010C948A010C948A010C94230F4D
:100060000C948A010C94ED0E0C94C30E0C948A012E
:100070000C948A010C948A010C948A010C948A01D4
:100080000C94C90F0C948A010C948A010C948A0177
:100090000C948A010C948A010C948A010C948A01B4
:1000A0000C948A010C948A010C949B0F0C948A0185
:1000B0000C948A010C948A010C948A010C946D0FA3
:1000C0000C948A010C948A010C948A010C948A0184
:1000D0000C948A010C948A010C948A010C948A0174
:1000E0000C948A010C94DF030C94D5040C948203C5
:1000F0000C94A8030C947B030C94DF0A0C949603D5
:100100000C94E00A0C94AE030C9473030C94050554
:100110000C94FE020C94F2040C94F0040C94DF1680
:100120000C94B1020C9414230C947F030C94BF0420
:100130000C946B020C9476070C941B020C949203A3
:100140000C9416050C94440C0C94AE040C94AD0362
:100150000C9457020C94A0030C94B2030C94F90471
:100160000C941D050C94A2040C946D030C9488034C
:100170000C94A4030C949A030C9448020C948C03E2
:100180000C9477030C9479020C9422050000210052
:10019000240027002A002D00300033000101000058
:1001A000040107010A0100002000230026002900A5
:1001B0002C002F003200000100000301060109019C
:1001C00000000A0B02090C0D0E08070304010000D1
:1001D000000000000000000000000000000000001F
:1001E00000000000000000000000000012111000DC
:1001F00000000000000000000000000000000000FF
:10020000000000000000010210202008081020401B
:1002100010204080020102010804020101020408CA
:100220001020408080402010080402018004020158
:1002300080402010080402010804020101020408A1
:10024000102040800102040810204080000022009D
:10025000250028002B002E00310034000201000090
:10026000050108010B010505050507050808080833
:10027000020202020A0A080804040404010101013E
:100280000101010103030303030303030407070739
:100290000C0C0C0C0C0C0C0C0202020206060606DE
:1002A000060606060B0B0B0B0B0B0B0B0200DF16E7
:1002B000142311241FBECFEFD1E2DEBFCDBF00E07B
:1002C0000CBF16E0A0E0B2E0E4E8F1E500E00BBF0F
:1002D00002C007900D92A834B107D9F728E0A8E42E
:1002E000B6E001C01D92A937B207E1F711E0C8E5F9
:1002F000D1E000E006C021970109802FFE010E9495
:100300007E26C735D10780E00807A9F70E9411189B
:100310000C94B0280C9400008F929F92AF92BF92E1
:10032000FF920F931F93CF93DF93F09058082FE223
:100330002F1508F44CC020915A0808E512E0021B62
:10034000110927FD1395000F111F000F111F209198
:100350005908C8E8D0E0C21BD10927FDD395CC0FBE
:10036000DD1FCC0FDD1F4E010D2E000CAA08BB08AF
:100370009801012E000C440B550B281939094A0924
:100380005B09DC010E940D2524EB30E040E050E0E9
:100390000E94E324820E931EA41EB51E8C169D0699
:1003A0002CF0E801801691060CF4E4012297CC0FA2
:1003B000DD1F2FB7F8948F2D90E0FC01EE0FFF1F8B
:1003C000E80FF91FEE5DF84FD283C1832FBFDF9195
:1003D000CF911F910F91FF90BF90AF909F908F9002
:1003E000089596E0899FD0011124A553B84F9096A7
:1003F0007C936E935F9791E091969C939197E09197
:100400003808F091390890913708992339F03097DE
:1004100051F0811108C08091E7071994309719F0C5
:100420005C968C91FACF0895DC01ED91FC910190DE
:10043000F081E02D1994AF92BF92CF92DF92EF92AC
:10044000FF920F931F93CF93DF936C017B018B017E
:10045000040F151FEB015E01AE18BF08C017D107CE
:1004600059F06991D601ED91FC910190F081E02D58
:10047000C6011995892B79F7C501DF91CF911F919D
:100480000F91FF90EF90DF90CF90BF90AF900895C5
:10049000FC01538D448D252F30E0842F90E0821B8A
:1004A000930B541710F0CF96089501970895FC010F
:1004B000918D828D981761F0A28DAE0FBF2FB11D67
:1004C0005D968C91928D9F5F9F73928F90E00895BF
:1004D0008FEF9FEF0895FC01918D828D981731F079
:1004E000828DE80FF11D858D90E008958FEF9FEFCD
:1004F0000895FC01918D228D892F90E0805C9F4FA3
:10050000821B91098F739927089585E896E00E94D0
:10051000790221E0892B09F420E0822F0895FC0163
:10052000A48DA80FB92FB11DA35ABF4F2C91848D54
:1005300090E001968F739927848FA689B7892C93B1
:10054000A089B1898C91837080648C93938D848D04
:10055000981306C00288F389E02D80818F7D808307
:100560000895EF92FF920F931F93CF93DF93EC01C7
:1005700081E0888F9B8D8C8D98131AC0E889F9894A
:10058000808185FF15C09FB7F894EE89FF8960834D
:10059000E889F98980818370806480839FBF81E0CE
:1005A00090E0DF91CF911F910F91FF90EF90089510
:1005B000F62E0B8D10E00F5F1F4F0F731127E02EEB
:1005C0008C8D8E110CC00FB607FCFACFE889F98923
:1005D000808185FFF5CFCE010E948F02F1CFEB8D98
:1005E000EC0FFD2FF11DE35AFF4FF0829FB7F894F7
:1005F0000B8FEA89FB8980818062CFCFCF93DF9315
:10060000EC01888D8823B9F0AA89BB89E889F9892A
:100610008C9185FD03C0808186FD0DC00FB607FC5F
:10062000F7CF8C9185FFF2CF808185FFEDCFCE0192
:100630000E948F02E9CFDF91CF91089580E090E092
:10064000892B29F00E94850281110E94000080E020
:1006500090E0892B49F080E090E0892B29F00E94FE
:10066000000081110E94000080E090E0892B49F099
:1006700080E090E0892B29F00E94000081110E9407
:10068000000080E090E0892B49F080E090E0892B29
:1006900029F00E94000081110C94000008958150FF
:1006A000823108F05AC0E82FF0E08827E55AFC4F65
:1006B0008F4F0C947E267B037F036D0373037703B8
:1006C000AD03820388038C03920396039A03A0036D
:1006D000A403AD03A803AE03B203809180008F771B
:1006E000809380000895809180008F7DF9CF809164
:1006F0008000877FF5CF84B58F7784BD089584B55A
:100700008F7DFBCF8091B0008F778093B0000895EC
:100710008091B0008F7DF9CF809190008F7780938A
:1007200090000895809190008F7DF9CF8091900086
:10073000877FF5CF8091A0008F778093A0000895E8
:100740008091A0008F7DF9CF8091A000877FF5CFA9
:10075000809120018F77809320010895809120015E
:100760008F7DF9CF80912001877FF5CFCF93DF93E5
:10077000282F30E0F901E054FE4F8491F901EA5F3F
:10078000FD4FD491F901EA59FD4FC491CC23A1F05A
:1007900081110E944F03EC2FF0E0EE0FFF1FEA558E
:1007A000FE4FA591B491EC91ED2381E090E009F426
:1007B00080E0DF91CF91089580E090E0FACF862F1E
:1007C0000C94B6031F93CF93DF93282F30E0F901E9
:1007D000E054FE4F8491F901EA5FFD4FD491F90195
:1007E000EA59FD4FC491CC23A9F0162F81110E9424
:1007F0004F03EC2FF0E0EE0FFF1FE45BFD4FA591E0
:10080000B4918FB7F894EC91111108C0D095DE2304
:10081000DC938FBFDF91CF911F910895DE2BF8CF2E
:10082000CF93DF93EC018091630890916408029765
:1008300049F4C130D10509F43DC07CF560E0209752
:1008400009F439C08091630890916408049749F4D1
:10085000C130D10509F45EC00CF039C0209709F40D
:1008600044C08091630890916408059709F0E7C03F
:10087000CA30D10508F0E3C0FE018827ED5BFB4FCD
:100880008F4F0C947E26A204AE04BF04D504F0045E
:10089000F204F904050516051D05C230D105A9F0BD
:1008A00060E0C330D10571F6809167080E94E203D1
:1008B00060E006C061E0809167080E94E20361E0A9
:1008C000809169080E94E203BDCF61E0EDCFC230A4
:1008D000D10539F1C330D10509F0C3CF61E0809172
:1008E00067080E94E20360E022C061E0809167082F
:1008F0000E94E20360E0809169080E94E20361E0E7
:1009000080916B080E94E20360E080916D080E9474
:10091000E203A7CF60E0809167080E94E20361E0F4
:10092000EACF60E0809167080E94E20361E0809175
:1009300069080E94E20360E080916B080E94E20374
:1009400061E0E3CF60E0809167080E94E20361E02C
:10095000809169080E94E20361E00BC060E0809131
:1009600067080E94E20361E0809169080E94E20347
:1009700060E080916B080E94E20360E010C060E0DC
:10098000809167080E94E20361E0809169080E94FB
:10099000E20360E080916B080E94E20361E08091D5
:1009A0006D080E94E20361E015C060E08091670875
:1009B0000E94E20361E0809169080E94E20360E026
:1009C00080916B080E94E20361E080916D080E94B3
:1009D000E20360E080916F08DF91CF910C94E20315
:1009E00061E0E4CF61E0809167080E94E20360E08B
:1009F000E2CF61E0809167080E94E20360E08091AD
:100A000069080E94E20361E0DBCF61E08091670842
:100A10000E94E20360E0809169080E94E20361E0C5
:100A200080916B080E94E20360E0CFCF61E080918B
:100A300067080E94E20360E08BCF60E0F8CFDF91AF
:100A4000CF910895862F642F0C94E2039091610258
:100A500089130DC0ECEAF2E0E4919FEF90936102FC
:100A6000E230E1F038F4EE2381F0E13089F060E02B
:100A70000C94E203E43049F110F1E530C1F79091B4
:100A800073009D7F90937300F2CF10926E00EFCFB2
:100A900090916F009D7F90936F00E9CF90917000CF
:100AA0009D7F9093700091E09093B0009091B10081
:100AB000987F94609093B1001092B300D8CF90913A
:100AC00071009D7F90937100D2CF909172009D7FB5
:100AD00090937200CCCFCF93DF9390E0FC01EA5F5C
:100AE000FD4F24918A599D4FFC0184918823C9F0C0
:100AF00090E0880F991FFC01E457FE4FA591B49137
:100B0000FC01E45BFD4FC591D49161110DC09FB70D
:100B1000F8948C91209582238C93888128232883B4
:100B20009FBFDF91CF910895623051F49FB7F89441
:100B30003C91822F809583238C93E8812E2BEFCFDD
:100B40008FB7F894EC912E2B2C938FBFEACF0F9395
:100B50001F93CF938C01809161028D3231F08F3FD2
:100B6000A1F1CF911F910F910895ECEAF2E0C491A9
:100B7000C7FDF7CF61E08DE20E946B05C1113FC058
:100B8000980150E040E068E478EE81E090E00E9457
:100B9000E324BA01A901415051096109710985B5E0
:100BA000887F836085BD47BD8FEF9FEFDC01809319
:100BB000810690938206A0938306B0938406809169
:100BC0006E00826080936E00CCCF8DE280936102D4
:100BD000ECEAF2E0C4918C2FCF3F09F4C2CFC230CF
:100BE00009F493C0B8F5CC2309F459C0C13009F415
:100BF0006EC087FDB6CF61E08DE20E946B05980163
:100C000050E040E0C23009F0DFC060E970ED83E001
:100C100090E00E94E324BA01A90141505109610901
:100C200071098091B100887F83608093B100409307
:100C3000B3008FEF9FEFDC018093790690937A06E3
:100C4000A0937B06B0937C068091700082608093B5
:100C5000700087CFC43009F499C008F478C0C5305B
:100C600041F61092200110922101809121018860AB
:100C70008093210180912101816080932101E3E92A
:100C8000F2E0E491F0E0EE0FFF1FE45BFD4F859191
:100C90009491E3E3F2E0E491E09365066BCF14BC3A
:100CA00015BC84B5826084BD85B5816085BDE3E9EE
:100CB000F2E0E491F0E0EE0FFF1FE45BFD4F859161
:100CC0009491E3E3F2E0E491E0936C0653CF109249
:100CD0008000109281008091810088608093810063
:100CE00080918100816080938100E3E9F2E0E491EA
:100CF000F0E0EE0FFF1FE45BFD4F85919491E3E37D
:100D0000F2E0E491E0936B0635CF1092B0001092C0
:100D1000B1008091B00082608093B0008091B100FA
:100D200081608093B100E3E9F2E0E491F0E0EE0F3E
:100D3000FF1FE45BFD4F8591949190936A06809329
:100D40006906E3E3F2E0E491E093680613CF1092C2
:100D500090001092910080919100886080939100A2
:100D600080919100816080939100E3E9F2E0E49149
:100D7000F0E0EE0FFF1FE45BFD4F85919491E3E3FC
:100D8000F2E0E491E0936706C3E0F4CE1092A00095
:100D90001092A1008091A10088608093A1008091B1
:100DA000A10081608093A100E3E9F2E0E491F0E02A
:100DB000EE0FFF1FE45BFD4F85919491E3E3F2E0BA
:100DC000E491E0936606D6CE60E072E18AE790E0B7
:100DD0000E94E324DA01C9010197A109B109AC011C
:100DE000C130D9F420918100287F216020938100B7
:100DF00090938900809388008FEF9FEFDC018093B0
:100E00007D0690937E06A0937F06B0938006809126
:100E10006F00826080936F00A4CEC330D9F420911C
:100E20009100287F216020939100909399008093F6
:100E300098008FEF9FEFDC01809375069093760604
:100E4000A0937706B09378068091710082608093BA
:100E5000710087CEC430D9F42091A100287F216091
:100E60002093A1009093A9008093A8008FEF9FEF9B
:100E7000DC018093710690937206A0937306B09381
:100E80007406809172008260809372006ACEC530D1
:100E9000D9F420912101287F216020932101909392
:100EA0002901809328018FEF9FEFDC0180936D066D
:100EB00090936E06A0936F06B093700680917300B6
:100EC0008260809373004DCEC23009F4B0CE3CF402
:100ED000CC2309F468CEC13009F043CE89CFC430A9
:100EE00009F20CF4A2CFC530D1F23BCE862F642F8D
:100EF0000C946B053FB7F89480915306909154067B
:100F0000A0915506B091560626B5A89B05C02F3F67
:100F100019F00196A11DB11D3FBFBA2FA92F982F1F
:100F20008827BC01CD01620F711D811D911D42E01A
:100F3000660F771F881F991F4A95D1F708954F9222
:100F40005F926F927F928F929F92AF92BF92EF9239
:100F5000FF920F931F93CF93DF93EC0197FF04C091
:100F6000CC27DD27C81BD90B181619060CF061C059
:100F700081E090E090935C0880935B0804E010E0CF
:100F80008AE0E82EF12C209709F46FC00E947A07BE
:100F90008090710890907208A0907308B0907408C7
:100FA0002B013C01481859086A087B0880905D08AD
:100FB00090905E08A0905F08B090600848145904B3
:100FC0006A047B0400F36093710870937208809345
:100FD0007308909374088091650890916608209139
:100FE0005B0830915C082130310559F501969093EA
:100FF0006608809365082091610830916208821725
:10100000930721F410926608109265082197809149
:101010006508909166082091630830916408B701D3
:101020002530310509F0B8010E946A260E9410049B
:10103000AACF892B09F4A2CF10925C0810925B080A
:101040009DCF892B41F48091610890916208909323
:1010500066088093650880916508909166080197FD
:101060009093660880936508D1CFDF91CF911F914F
:101070000F91FF90EF90BF90AF909F908F907F90D7
:101080006F905F904F9008958F929F92AF92BF9212
:10109000CF92DF92EF92FF924B015C010E947A07A0
:1010A0006B017C010E947A076C197D098E099F09EA
:1010B000683E734081059105A8F321E0821A9108EA
:1010C000A108B10888EEC80E83E0D81EE11CF11C0F
:1010D00081149104A104B10429F7FF90EF90DF90EF
:1010E000CF90BF90AF909F908F9008952FB7F894B6
:1010F00060914F0670915006809151069091520672
:101100002FBF08950F931F93CF93DF93C82FD62F30
:1011100086E0C89FF0011124E553F84F11A2878D96
:1011200090A181309105F1F058F082309105F1F1F4
:10113000039709F440C0DF91CF911F910F9108955B
:101140006623C9F361E070E08C2F0E94F1010E94D8
:101150007608609323087093240880932508909361
:101160002608E9CF0E9476080091230810912408F0
:101170002091250830912608AB01BC01401B510B82
:10118000620B730B8091350890913608B0E0A0E0B7
:1011900084179507A607B70748F462E070E08C2F24
:1011A000DF91CF911F910F910C94F10163E070E0FA
:1011B000D111C1CFF4CF70E060E0F1CF6F927F9298
:1011C0008F929F92AF92BF92CF92DF92EF92FF9257
:1011D0000F931F93CF93DF9381E0809337080E9492
:1011E000760800912708109128082091290830914D
:1011F0002A08AB01BC01401B510B620B730B8091A1
:10120000330890913408B0E0A0E084179507A60752
:10121000B70708F014C1C0E080913108C81760F426
:10122000E0912D08F0912E08EC0FF11D62E0808115
:101230000E946B05CF5FF0CF712C812C912C540153
:10124000839480913208781608F05FC0072D10E073
:10125000E0912F08F0913008E00FF11F61E08081EC
:101260000E946B05E0912F08F0913008E00FF11F0C
:1012700060E080810E94E203D501C401072C04C014
:10128000880F991FAA1FBB1F0A94D2F76C017C011B
:10129000E094F094612C809131086816F8F4C62D22
:1012A000D0E0E0912D08F0912E08EC0FFD1F808119
:1012B0000E94B6032496CC0FDD1FC553D84F892B4F
:1012C00041F4888199818C299D299983888363942D
:1012D000E2CF888199818E219F21F7CFE0912F085D
:1012E000F0913008E00FF11F61E080810E94E2037D
:1012F00080912F0890913008080F191F60E0F801C5
:1013000080810E946B0573949CCFCBECD7E0FE01EB
:101310008FEF9FEF278D30A1232B21F4148E968F12
:10132000858F11A2369628E0E730F20799F7F12C65
:1013300096E0D92E80913108F81608F050C0E12CC3
:101340000F2D10E0000F111F0D52184F2091320881
:10135000E21608F042C0F801608171810E2C02C0D3
:10136000769567950A94E2F7F29E900111242E0D6E
:10137000311DEBECF7E080E0458D568D24173507E5
:1013800009F461C08F5F36968A30B1F760FF23C0E1
:10139000EBECF7E090E080E0448D411117C0E09164
:1013A0002B08F0912C08E20FF31F4081D89EF0012A
:1013B000D99EF00D1124E553F84F448F368F258FB9
:1013C00010A2178E61E00E94820805C00196369631
:1013D0008A30910509F7E394B9CFF394ABCF10E0CD
:1013E00089A18111182F2696F8E0C730DF07C1F7D1
:1013F0000E94760860932708709328088093290834
:1014000090932A081123D9F08091EC078823B9F032
:101410008091EA079091EB07019789F48091E707A3
:10142000DF91CF911F910F91FF90EF90DF90CF90C0
:10143000BF90AF909F908F907F906F900895109283
:10144000370880E0EDCF6170BECFAF92BF92CF92F0
:10145000DF92EF92FF920F931F93CF93DF936B0175
:101460007A01EC01C65BD94F28813CE0389F8001AE
:10147000399F100D1124A090B207B12C27FF1FC077
:10148000FB011182108288818F5F88838881980197
:10149000280F311D87FD3A95F6012A153B051CF4EE
:1014A00088818C30C4F180819181049680349C497C
:1014B00008F473C0F60180819181049670C0888120
:1014C0009801280F311D87FD3A952A153B05DCF65A
:1014D0008881A801480F511D87FD5A95FA01EE0F2A
:1014E000FF1FE40FF51FEE5DF84F808186FFCBCF25
:1014F0008881F801E80FF11D87FDFA95CF01EE0F05
:10150000FF1FE80FF91FEE5DF84F808160E08F73D9
:101510000E94E203B8CF808191812881A801420F07
:10152000511D27FD5A959A01FA01EE0FFF1FE20F98
:10153000F31FEE5DF84F21813281820F931FF70177
:101540009183808388819801280F311D87FD3A950A
:10155000F901EE0FFF1FE20FF31FEE5DF84F8081E0
:1015600086FF22C08881080F111D87FD1A95F8019A
:10157000EE0FFF1FE00FF11FEE5DF84F808161E07D
:101580008F73DF91CF911F910F91FF90EF90DF90BC
:10159000CF90BF90AF900C94E20380E49CE9F701F8
:1015A000918380838FEF8883DF91CF911F910F917B
:1015B000FF90EF90DF90CF90BF90AF900895089587
:1015C00090E080E008959C01205F3F4F4FEF5FEF78
:1015D000FC0141935193CF01E217F307C9F7089536
:1015E000CF93DF93EC0160E08E810E94E20361E023
:1015F0008E810E94E20360E08E810E94E2038BE80C
:1016000091E00197F1F7DF91CF910895CF92DF92AA
:10161000EF92FF920F931F93CF93DF936C017C01A6
:1016200087E0E80EF11CD0E0C0E0062F10E0B80122
:101630000C2E02C0759567950A94E2F76170F70168
:1016400081917F010E94E2032196C430D10579F790
:10165000C601DF91CF911F910F91FF90EF90DF9026
:10166000CF900C94F00ACF92DF92EF92FF920F93FB
:101670001F93CF93DF93EC01F62E642F8C810E9491
:10168000E2038D818F3F19F060E00E94E2030F2D8D
:1016900010E08F8584FF25C06E0187E0C80ED11C45
:1016A000F12CE12CB8010E2C02C0759567950A94B7
:1016B000E2F76170F60181916F010E94E203FFEF92
:1016C000EF1AFF0A88E0E816F10461F7CE01DF9116
:1016D000CF911F910F91FF90EF90DF90CF900C94DE
:1016E000F00AB80184E0759567958A95E1F7CE0117
:1016F0000E94060B6F2DCE01DF91CF911F910F91AC
:10170000FF90EF90DF90CF900C94060B40E0682F95
:1017100083EB97E00C94330B81E00E94860B8BE304
:101720009FE10197F1F70895CF93DF93823029F479
:101730009091C20798609093C2078093C607109259
:10174000C70780E48093C80780E18093C90780E5DC
:101750008093CA0761E08091B7070E946B05809172
:10176000B8078F3F19F061E00E946B0561E080913E
:10177000B9070E946B05C3EBD7E09E01235B37409E
:101780008091C20784FD0BC084E090E02196281769
:10179000390744F461E08E810E946B05EECF88E04A
:1017A00090E0F4CF8BE39DE00197F1F760E080914A
:1017B000B7070E94E20360E08091B9070E94E2034C
:1017C0008091B8078F3F19F060E00E94E20380919A
:1017D000C20784FD34C063E083EB97E00E94060BF0
:1017E000CBE4D6E4CE010197F1F763E083EB97E019
:1017F0000E94060B2197F1F763E083EB97E00E94CC
:10180000060B83E592E00197F1F762E083EB97E046
:101810000E94060B8091C20780620E94860B84E0C2
:101820008093C3078CE00E94860B0E948C0B82E0A1
:101830008093C40786E0DF91CF910C94860B806281
:101840000E94860B8BE496E40197F1F78091C20722
:1018500080620E94860B83E592E00197F1F7809108
:10186000C20780620E94860BD5CF9091C607691788
:1018700010F06FEF690FE62FF0E0ED54F84F948908
:10188000890F80680C94860B41E00E94330B81E045
:1018900090E008950F931F93CF93DF938B0128E07F
:1018A000829FC001112480640E94860BE801085FBA
:1018B0001F4F699183EB97E00E94440CC017D1073A
:1018C000C1F7DF91CF911F910F910895FB01019016
:1018D0000020E9F73197AF01461B570BDC01ED9172
:1018E000FC910280F381E02D199468EA72E085E8AA
:1018F00096E00C94660CCF93DF93FC0144815581F4
:101900006081718185E896E00E941B02EC010E94D3
:10191000750C8C0F9D1FDF91CF910895CF93DF93AE
:10192000682F85E896E00E941402EC010E94750C75
:101930008C0F9D1FDF91CF9108958F929F92AF9250
:10194000BF92EF92FF920F931F93CF93DF93CDB788
:10195000DEB7A1970FB6F894DEBF0FBECDBF7C01F6
:10196000FA01CB0119A2223008F42AE08E010F5DA2
:101970001F4F822E912CB12CA12CBF01A5019401E7
:101980000E941525F901CA016A300CF5605DD80185
:101990006E938D01232B242B252B79F790E080E08B
:1019A000109721F0BD01C7010E94660CA1960FB6E9
:1019B000F894DEBF0FBECDBFDF91CF911F910F9185
:1019C000FF90EF90BF90AF909F908F900895695CCB
:1019D000DECFCF92DF92EF92FF92CF93DF936C0135
:1019E000990FEE08FF08F7FE1FC06DE285E896E04C
:1019F0000E941402EC0144275527BA014C195D09D5
:101A00006E097F092AE085E896E00E949D0CC80FC8
:101A1000D91F0E94750C8C0F9D1FDF91CF91FF90F5
:101A2000EF90DF90CF9008952AE0B701A60185E8F6
:101A300096E00E949D0CEC01ECCFCF92DF92EF92EA
:101A4000FF920F931F93CF93DF936B01770FEE08F5
:101A5000FF08F7FE1BC0EC016DE20E9414028C012E
:101A600044275527BA014C195D096E097F092AE000
:101A7000CE010E949D0C800F911FDF91CF911F918D
:101A80000F91FF90EF90DF90CF9008952AE0B7017B
:101A9000A601DF91CF911F910F91FF90EF90DF9002
:101AA000CF900C949D0CCF93DF93BC0185E896E01A
:101AB0000E94660CEC010E94750C8C0F9D1FDF913B
:101AC000CF9108950C94660C0E948C0B8091570660
:101AD000882399F160E080E00E94350C6BEA72E0A7
:101AE00083EB97E00E94620D61E083E00E94350C79
:101AF00069EB72E083EB97E00E94620D0E94DE08C2
:101B0000853421F7109262061092610610926006E9
:101B100010925F0680E592E00E94E30A0E948C0B1F
:101B200060E080E00E94350C69ED73E083EB97E0A4
:101B30000E94620D10925706C9CF0895FC01808162
:101B40009181009711F00C94462360E070E0CB0186
:101B50000895DC0114968D919C911597681779076B
:101B600050F4ED91FC911197E60FF71F15967C93B9
:101B70006E931497108208950F931F93CF93DF9362
:101B8000EC0188819981009759F02A813B812617C1
:101B9000370730F081E0DF91CF911F910F910895C9
:101BA0008B016F5F7F4F0E94BF27009759F0998389
:101BB00088831B830A832C813D81232B59F7FC01E9
:101BC0001082E8CF80E0E7CFEF92FF920F931F9350
:101BD000CF93DF931F921F92CDB7DEB78C0169833D
:101BE0001A82FC01E480F580FFEFEF1AFF0AB701CB
:101BF0000E94BC0D882381F0F8012081318184810D
:101C00009581BE016F5F7F4F820F931F0E94A928AD
:101C1000F801F582E48281E00F900F90DF91CF917F
:101C20001F910F91FF90EF900895CF93DF93EC01F8
:101C300088819981009711F00E94362719821882B5
:101C40001D821C821B821A82DF91CF910895EF9230
:101C5000FF920F931F93CF93DF93EC017B018A01D7
:101C6000BA010E94BC0D81110BC0CE010E94150E5D
:101C7000CE01DF91CF911F910F91FF90EF900895CA
:101C80001D830C83B701888199810E94A928F0CF18
:101C9000FC0111821082138212821582148250E09C
:101CA00040E06AEA72E00C94270E50E040E06AEAF5
:101CB00072E00C94270EFC0180819181009711F055
:101CC0000C94362708951F920F920FB60F9211248D
:101CD0000BB60F922F933F934F935F936F937F9326
:101CE0008F939F93AF93BF93EF93FF938091790668
:101CF00090917A06A0917B06B0917C06892B8A2B65
:101D00008B2BE1F190916806E0916906F0916A06EB
:101D10008081892780838091790690917A06A091AD
:101D20007B06B0917C06181619061A061B069CF451
:101D30008091790690917A06A0917B06B0917C06FD
:101D40000197A109B1098093790690937A06A0932F
:101D50007B06B0937C06FF91EF91BF91AF919F916D
:101D60008F917F916F915F914F913F912F910F9044
:101D70000BBE0F900FBE0F901F90189580916102BF
:101D80000E942605E8CF1F920F920FB60F921124E2
:101D90000BB60F922F933F934F935F936F937F9365
:101DA0008F939F93AF93BF93EF93FF9385E896E054
:101DB0000E948F02FF91EF91BF91AF919F918F9100
:101DC0007F916F915F914F913F912F910F900BBE3B
:101DD0000F900FBE0F901F9018951F920F920FB685
:101DE0000F9211240BB60F922F938F939F93EF9323
:101DF000FF93E0919506F09196068081E0919B0615
:101E0000F0919C0682FD1DC0908180919E068F5F9F
:101E10008F7320919F06821741F0E0919E06F0E0BB
:101E2000EB57F94F958F80939E06FF91EF919F910D
:101E30008F912F910F900BBE0F900FBE0F901F90A0
:101E400018958081F2CF1F920F920FB60F92112436
:101E50002F933F938F939F93AF93BF9380914F06A0
:101E600090915006A0915106B091520630914E06C5
:101E700023E0230F2D3758F50196A11DB11D2093A6
:101E80004E0680934F0690935006A0935106B09350
:101E900052068091530690915406A0915506B09138
:101EA00056060196A11DB11D8093530690935406CA
:101EB000A0935506B0935606BF91AF919F918F9115
:101EC0003F912F910F900FBE0F901F90189526E80D
:101ED000230F0296A11DB11DD2CF1F920F920FB6F4
:101EE0000F9211240BB60F922F933F934F935F9352
:101EF0006F937F938F939F93AF93BF93EF93FF93D2
:101F000048E251E064E271E090E080E00E94250A3E
:101F1000FF91EF91BF91AF919F918F917F916F91C1
:101F20005F914F913F912F910F900BBE0F900FBE7D
:101F30000F901F9018951F920F920FB60F921124B9
:101F40000BB60F922F933F934F935F936F937F93B3
:101F50008F939F93AF93BF93EF93FF9348EA50E023
:101F600064EA70E083E090E00E94250AFF91EF911F
:101F7000BF91AF919F918F917F916F915F914F91A1
:101F80003F912F910F900BBE0F900FBE0F901F909F
:101F900018951F920F920FB60F9211240BB60F9245
:101FA0002F933F934F935F936F937F938F939F9361
:101FB000AF93BF93EF93FF9348E950E064E970E07B
:101FC00082E090E00E94250AFF91EF91BF91AF91CE
:101FD0009F918F917F916F915F914F913F912F9141
:101FE0000F900BBE0F900FBE0F901F9018951F9271
:101FF0000F920FB60F9211240BB60F922F933F93AF
:102000004F935F936F937F938F939F93AF93BF9300
:10201000EF93FF9348E850E064E870E081E090E0DF
:102020000E94250AFF91EF91BF91AF919F918F91EF
:102030007F916F915F914F913F912F910F900BBEC8
:102040000F900FBE0F901F9018954F925F926F9256
:102050007F928F929F92AF92BF92CF92DF92EF9238
:10206000FF920F931F93CF93DF93CDB7DEB76497A3
:102070000FB6F894DEBF0FBECDBF85EC92E00E9494
:10208000530D0E948C0B60E081E00E94350C60E0F3
:1020900083EB97E00E94440C61ED72E083EB97E0E4
:1020A0000E94620D60E083EB97E00E94440C60EDBB
:1020B00077E080E090E00E9444080E948C0B109230
:1020C0006206109261061092600610925F0681E02F
:1020D00080935E06EE24EA94FE2CCC24CA94DC2C79
:1020E00080915E06882309F461C10E94DE08182FE2
:1020F000882309F4F5C080915F0661E08B5F0E9440
:10210000350C8FED92E0153521F0143429F482EE70
:1021100092E00E94530DE4CF87EE92E01335C9F3AD
:10212000133409F063C08BEE92E00E94530D80914E
:102130005F069091600618161906B4F58091610645
:1021400090916206181619067CF5880F991FFC01FC
:10215000E050FE4FF182E08260E283EB97E00E9464
:10216000140280915F0661E08B5F0E94350C60E293
:1021700083EB97E00E9414020091610610916206C1
:10218000B80180E498E00E94A90D01501109109354
:1021900062060093610680915F0690916006019748
:1021A0009093600680935F0680916106909162062D
:1021B000892B09F095CFD0920102C092000270E005
:1021C00060E080E498E00E94A90D60E283EB97E074
:1021D0000E94140280915F0661E08B5F0E94350CC3
:1021E00060E283EB97E00E9414027ACF183419F56D
:1021F00081EF92E00E94530D0E948C0B60E081E021
:102200000E94350C66EF72E083EB97E00E94620D4E
:1022100061E081E00E94350C67E073E083EB97E0BA
:102220000E94620D68EE73E080E090E00E94440836
:102230000E948C0B55CF153439F48FEB92E00E943D
:10224000530D10925E064CCF65E173E085E896E091
:102250000E94620D812F0E948E0C809161069091E8
:10226000620608970CF047C080915F069091600667
:1022700008970CF040C0612F83EB97E00E94140296
:1022800080915F0661E08B5F0E94350C612F83EBCC
:1022900097E00E941402612F80E498E00E94E40D10
:1022A00010538091610690916206FC01EE0FFF1FB2
:1022B000E050FE4F212F012E000C330B3183208381
:1022C0000196909362068093610680915F069091DB
:1022D000600601969093600680935F06111100CF0F
:1022E00060E080E00E94350C61E373E083EB97E0EF
:1022F0000E94620DF5CE8DE193E00E94530D81E0C6
:10230000809357060E948C0B80915706882399F181
:1023100060E080E00E94350C6BEA72E083EB97E0AE
:102320000E94620D61E083E00E94350C69EB72E06F
:1023300083EB97E00E94620D0E94DE08853421F74E
:1023400010926206109261061092600610925F066B
:1023500080E092E00E94E30A0E948C0B60E080E043
:102360000E94350C61E373E083EB97E00E94620DFD
:1023700010925706C9CF80E498E00E94550E81E480
:1023800093E00E94530D80916106909162060E9435
:10239000E90C81E593E00E94530D80915F069091D6
:1023A00060060E94E90C109257069ACE10926206BF
:1023B000109261061092600610925F0681E693E02B
:1023C0000E94530D0E948C0B81E080935E06F0E129
:1023D0004F2EF2E05F2E8E010F5F1F4F66246A942E
:1023E000762CAA24AA94BA2C80915E06882309F43C
:1023F0003FC20E94DE08F82E882309F4D3C18091E1
:102400005F0661E08B5F0E94350C25E58FED92E061
:10241000F21629F084E4F81205C082EE92E00E94E0
:10242000530DE2CFA3E587EE92E0FA16C1F3B3E4D1
:10243000FB1268C08BEE92E00E94530D80915F0604
:102440009091600618161906BCF58091610690916E
:1024500062061816190684F5880F991FFC01E05FC3
:10246000FD4F7182608260E283EB97E00E9414026C
:1024700080915F0661E08B5F0E94350C60E283EB28
:1024800097E00E941402E0906106F0906206B701A6
:102490008AE398E00E94A90DE1E0EE1AF108F092BB
:1024A0006206E092610680915F0690916006019756
:1024B0009093600680935F0680916106909162061A
:1024C000892B09F091CFB0921102A092100270E016
:1024D00060E08AE398E00E94A90D8AE398E00E94F8
:1024E000550E60E283EB97E00E94140280915F0634
:1024F00061E08B5F0E94350C60E283EB97E00E9405
:10250000140272CFF8E4FF1223C081EF92E00E9420
:10251000530D0E948C0B60E081E00E94350C66EF49
:1025200072E083EB97E00E94620D61E081E00E941F
:10253000350C67E073E083EB97E00E94620D68EE74
:1025400073E080E090E00E9444080E948C0B4CCF26
:1025500025E4F212D8C08FEB92E00E94530D80E484
:1025600098E00E949E0D6B018AE398E00E949E0D08
:10257000C616D70609F086C084E793E00E94530D83
:10258000CE010F960E94480E70E0E72E72E0F72E03
:10259000D7018D919D917D018F3F980709F440C02F
:1025A000CF84D8880E9428234C011A8619861C865D
:1025B0001B861E861D86C114D10439F04B895C89A7
:1025C000B601CE0109960E94270E4AE0B801C40167
:1025D0000E946D23F80101900020E9F73197E01B7C
:1025E000F10B79F0CD84DE84CE0EDF1EB601CE0174
:1025F00009960E94BC0D811134C0CE0109960E943B
:10260000150E69857A8561157105B9F14D855E856F
:10261000CE010F960E94270ECE0109960E945B0EF6
:102620004E145F0409F0B4CF8F8598890E94282347
:102630007C0183E893E00E94530DCE010F960E9427
:102640007B0C80E993E00E94530DC7010E94E90CC6
:10265000CE010F960E945B0E0E94750C10925E06D2
:10266000C3CE29853A858D859E85B801820F931F3B
:102670000E94A928DE86CD86C4CFCE010F960E9487
:10268000150ECACF0E948C0B81E080935706809173
:102690005706882309F4A8CE60E080E00E94350C3C
:1026A00067E973E083EB97E00E94620D61E083E0ED
:1026B0000E94350C69EB72E083EB97E00E94620D9B
:1026C0000E94DE08853419F71092620610926106A6
:1026D0001092600610925F068AE398E00E94550E01
:1026E00080E192E00E94E30A0E948C0B60E080E0AF
:1026F0000E94350C68EA73E083EB97E00E94620D5C
:1027000010925706C4CF65E173E085E896E00E9419
:10271000620D8F2D0E948E0C809161069091620651
:1027200008970CF04AC080915F0690916006089768
:102730000CF043C06F2D83EB97E00E941402809150
:102740005F0661E08B5F0E94350C6F2D83EB97E095
:102750000E9414026F2D8AE398E00E94E40D80ED40
:102760008F0D2091610630916206F901EE0FFF1F77
:10277000E05FFD4F482F082E000C550B518340831E
:102780002F5F3F4F309362062093610620915F06D2
:10279000309160062F5F3F4F3093600620935F06B5
:1027A000811122CE60E080E00E94350C68EA73E07F
:1027B00083EB97E00E94620D17CE88EB93E00E94B6
:1027C000530D81E0809357060E948C0B8091570631
:1027D000882399F160E080E00E94350C6BEA72E09A
:1027E00083EB97E00E94620D61E083E00E94350C6C
:1027F00069EB72E083EB97E00E94620D0E94DE08B5
:10280000853421F7109262061092610610926006DC
:1028100010925F0680E192E00E94E30A0E948C0B16
:1028200060E080E00E94350C68EA73E083EB97E09B
:102830000E94620D10925706C9CF8AE398E00E9469
:10284000550E81E493E00E94530D809161069091B2
:1028500062060E94E90C81E593E00E94530D80918D
:102860005F06909160060E94E90C10925706BCCD5D
:1028700010926206109261061092600610925F0636
:102880008FEC93E00E94530D0E948C0B81E08093AB
:102890005E06EE24EA94FE2CCC24CA94DC2C8091B3
:1028A0005E06882309F4E7C10E94DE08182F8823FA
:1028B00009F42EC180915F0661E08B5F0E94350CA8
:1028C0008FED92E0153521F0143429F482EE92E078
:1028D0000E94530DE4CF87EE92E01335C9F3133411
:1028E00009F057C08BEE92E00E94530D80915F0675
:1028F000909160061816190684F5809161069091F2
:102900006206181619064CF5880F991FFC01E05B4A
:10291000FD4FF182E08260E283EB97E00E941402B7
:1029200080915F0661E08B5F0E94350C60E283EB73
:1029300097E00E94140280916106909162060197CF
:10294000909362068093610680915F069091600685
:1029500001979093600680935F0680916106909145
:102960006206892B09F09BCFD0925102C09250028F
:1029700060E283EB97E00E94140280915F0661E0C1
:102980008B5F0E94350C60E283EB97E00E9414029B
:1029900086CF81EF92E0183409F49ACF153409F00C
:1029A00004C18FEB92E00E94530D809150029091F0
:1029B0005102892B09F065C0809152029091530217
:1029C000019709F05EC08091540290915502892BC5
:1029D00009F057C08091560290915702069709F06E
:1029E00050C08091580290915902019609F049C057
:1029F00080915A0290915B02019609F042C0809149
:102A00005C0290915D020196E1F580915E029091E9
:102A10005F020196B1F50E948C0B60E083E00E949A
:102A2000350C67EE73E083EB97E00E94620D61E086
:102A300084E00E94350C65E575E083EB97E00E9429
:102A4000620D61E08EE30E94E20368EE73E080E0D5
:102A500090E00E9444080E948C0B60E08EE30E948C
:102A6000E20310925A061092590610925E06809167
:102A7000480690914906019690934906809348062E
:102A80000ECF8091590690915A06843091050CF032
:102A90004AC0019690935A06809359060E948C0B67
:102AA00060E080E00E94350C62EF73E083EB97E01A
:102AB0000E94620D6091590670915A0683EB97E06F
:102AC0000E941D0D61E080E00E94350C6CEF73E008
:102AD00083EB97E00E94620D61E08FE30E94E203C6
:102AE0006CED75E080E090E00E94440860E08FE3C8
:102AF0000E94E20310926206109261061092600634
:102B000010925F0680E592E00E94E30A0E948C0B1F
:102B100060E080E00E94350C69ED73E083EB97E0A4
:102B20000E94620DBCCE0E948C0B81E08093570600
:102B300061E08FE30E94E20380915706882309F445
:102B4000AECE60E080E00E94350C6DE074E083EB77
:102B500097E00E94620D61E080E00E94350C6FE119
:102B600074E083EB97E00E94620D0E94DE088534DA
:102B700019F7109262061092610610926006109288
:102B80005F0680E592E00E94E30A0E948C0B60E001
:102B900080E00E94350C69ED73E083EB97E00E94C2
:102BA000620D1092570660E0C4CF65E173E085E8DE
:102BB00096E00E94620D812F0E948E0C809161062A
:102BC000909162060897BCF580915F06909160062F
:102BD00008978CF5612F83EB97E00E941402809197
:102BE0005F0661E08B5F0E94350C612F83EB97E0FD
:102BF0000E94140210538091610690916206FC01BC
:102C0000EE0FFF1FE05BFD4F212F012E000C330B59
:102C100031832083019690936206809361068091B0
:102C20005F069091600601969093600680935F0620
:102C3000111135CE6DCF88EB93E00E94530D81E0EA
:102C4000809357060E94640D81E493E00E94530D27
:102C500080916106909162060E94E90C81E593E003
:102C60000E94530D80915F06909160060E94E90CCE
:102C70001092570614CE80E394E00E94530D80E436
:102C800098E00E949E0D4B0100915B0610915C063E
:102C9000E0904806F090490688E090E00E949A266D
:102CA000FC01F182E0829382828217821682158271
:102CB0001482D8012D913C91119714968D919C917D
:102CC0001597232B09F06BC01396FC93EE93129784
:102CD0001196FC93EE93019615969C938E93149700
:102CE0000E948C0B60E082E00E94350C61E474E08D
:102CF00083EB97E00E94620D60914806709149064F
:102D000083EB97E00E941D0D61E080E00E94350C8E
:102D100065E474E083EB97E00E94620DB40183EBFD
:102D200097E00E941D0D61E080E40E94E2036CEDDB
:102D300075E080E090E00E94440860E080E40E943A
:102D4000E2038CE494E00E94530D0E94750C80E62F
:102D500094E00E94530D80914806909149060E948C
:102D6000E90C8CE694E00E94530DC4010E94E90C2A
:102D700064960FB6F894DEBF0FBECDBFDF91CF9142
:102D80001F910F91FF90EF90DF90CF90BF90AF9089
:102D90009F908F907F906F905F904F9008951296C4
:102DA0002D913C91D9011596FC93EE93149737839E
:102DB0002683D8011396FC93EE9312978CCF109232
:102DC00088061092870688EE93E0A0E0B0E080933A
:102DD000890690938A06A0938B06B0938C0684E8AC
:102DE00092E0909386068093850685EC90E0909320
:102DF00092068093910684EC90E0909394068093E1
:102E0000930680EC90E0909396068093950681EC73
:102E100090E0909398068093970682EC90E09093D0
:102E20009A068093990686EC90E090939C06809396
:102E30009B0610929E0610929F061092A00610927A
:102E4000A106109266081092650810925C08109214
:102E50005B08109271081092720810927308109219
:102E600074088CE090E090936208809361088CE194
:102E700090E090936808809367088DE190E09093CC
:102E80006A08809369088EE190E090936C088093C3
:102E90006B088FE190E090936E0880936D0861E07D
:102EA0008CE10E946B0561E0809169080E946B05CE
:102EB00061E080916B080E946B0561E080916D0874
:102EC0000E946B051092700810926F0884E090E0E9
:102ED00090936408809363088091B207803308F070
:102EE0009CC091E0980F9093B2078093580890E0AF
:102EF000FC01EE0FFF1FE80FF91FEE5DF84F88EBA6
:102F00009BE09283818382E598E00E94480E8CE4E6
:102F100098E00E94480E86E498E00E94480E80E403
:102F200098E00E94480E8AE398E00E94480E1092B2
:102F3000CD071092D1071092D0071092D20782EAE3
:102F400092E09093CC078093CB07E7EEF7E01082F6
:102F5000148213821582369688E0E332F807B9F7B7
:102F600086E692E090932E0880932D0882E692E008
:102F70009093300880932F0884E0809331088093E9
:102F800032088AE692E090932C0880932B088AE01E
:102F900090E0909334088093330884EF91E090930D
:102FA000360880933508109239081092380810922C
:102FB0002708109228081092290810922A081092C7
:102FC00037081092B6071092B50786E992E0909301
:102FD000B4078093B3078BE18093B7078FEF80939B
:102FE000B8078AE18093B90789E18093BA0788E13D
:102FF0008093BB0787E18093BC0786E18093BD0780
:103000001092BE071092BF071092C0071092C1071E
:103010001092C20781E00C94940B8FEF80935808B4
:1030200072CFCF93DF9300D01F921F92CDB7DEB740
:10303000789484B5826084BD84B5816084BD85B593
:10304000826085BD85B5816085BD80916E0081609F
:1030500080936E0010928100809181008260809345
:103060008100809181008160809381008091800047
:103070008160809380008091B10084608093B10072
:103080008091B00081608093B00080919100826057
:103090008093910080919100816080939100809154
:1030A00090008160809390008091A1008260809365
:1030B000A1008091A10081608093A1008091A00077
:1030C00081608093A0008091210182608093210122
:1030D0008091210181608093210180912001816094
:1030E0008093200180917A00846080937A0080919F
:1030F0007A00826080937A0080917A008160809368
:103100007A0080917A00806880937A001092C100E2
:10311000E0919506F091960682E08083E091910619
:10312000F09192061082E0919306F09194068FEC54
:10313000808310929D06E0919906F0919A0686E0B0
:103140008083E0919706F09198068081806180836A
:10315000E0919706F0919806808188608083E091E5
:103160009706F0919806808180688083E0919706A9
:10317000F091980680818F7D808368E372E080E023
:103180000E944A0C60E372E081E00E944A0C68E20F
:1031900072E082E00E944A0C60E272E083E00E94EA
:1031A0004A0C88E090E00E949A26FC011382128269
:1031B000118210821582148281E090E097838683C9
:1031C000F0935C06E0935B0682E00E94940B61E062
:1031D00088E30E946B0561E089E30E946B0561E072
:1031E0008AE30E946B0561E08BE30E946B0561E05E
:1031F0008EE30E946B0561E08FE30E946B0561E046
:1032000080E40E946B0561E08DE20E946B0560E046
:103210008AE00E946B0560E089E00E946B05809166
:103220005808803308F054C061E08DE00E946B05BF
:1032300080915808282F30E0F901EE0FFF1FE20FB0
:10324000F31FEE5DF84F9081907C9D60908395E731
:103250009093590894E690935A082CE0622F0E94AC
:103260005E26829FB001112430E020E0AB01420FC6
:10327000531FFA01EE0FFF1FE40FF51FEE5DF84F2D
:10328000908196FD17C02F5F3F4F2C30310571F7AD
:10329000813009F0B6C01092800082E080938100F6
:1032A0001092850010928400B19A80916F00826024
:1032B00080936F00E09158088E2F90E0FC01EE0F94
:1032C000FF1FE80FF91FEE5DF84F80818064808357
:1032D00090E080E00E948C012091610830916208AA
:1032E000032E000C440B550B60E077E883E993E074
:1032F0000E94E324CA01B90122EC31E040E050E031
:103300000E94E32420935D0830935E0840935F0899
:103310005093600860E086E30E946B0581E090E0D6
:1033200090936406809363060FEF1FEF66246A9400
:10333000762C80916306909164068130910509F4A2
:1033400021C68230910509F440C6892B09F0C6C612
:103350000E948C0B60E081E00E94350C60E083EB02
:1033600097E00E94440C63E774E083EB97E00E94CF
:10337000620D60E083EB97E00E94440C60ED77E023
:1033800080E090E00E94440880916002882309F464
:10339000A5C60E948C0B80E894E00E94530D109209
:1033A0006206109261061092600610925F0682E536
:1033B00098E00E94550E8CE498E00E94550E809192
:1033C0005E06882309F4D5C180915D068111D1C1C3
:1033D0000E94DE088B83882309F465C180915F0613
:1033E00061E08B5F0E94350C2B818FED92E02535DB
:1033F00029F03B81343489F582EE92E00E94530D2E
:10340000DECF823061F41092900080939100109290
:1034100095001092940088BB809371004BCF83304D
:1034200069F41092A00082E08093A1001092A500A0
:103430001092A40089BB809372003CCF81113ACFD7
:103440001092200182E080932101109225011092B8
:1034500024018ABB809373002DCF4B8187EE92E0CD
:10346000433561F28B81833409F06AC08BEE92E0C0
:103470000E94530D80915F06909160061816190600
:10348000CCF580916106909162061816190694F5A4
:10349000880F991FFC01E05CFD4F1183008360E2FF
:1034A00083EB97E00E94140280915F0661E08B5FDE
:1034B0000E94350C60E283EB97E00E941402209199
:1034C0006106309162063D832C83B90182E598E064
:1034D0000E94A90D8C819D81019790936206809333
:1034E000610680915F069091600601979093600657
:1034F00080935F068091610690916206892B09F0A6
:103500005ECF709241026092400270E060E082E51E
:1035100098E00E94A90D82E598E00E94550E60E2B5
:1035200083EB97E00E94140280915F0661E08B5F5D
:103530000E94350C60E283EB97E00E9414023FCFBB
:103540009B81983419F581EF92E00E94530D0E94FF
:103550008C0B60E081E00E94350C61E974E083EB44
:1035600097E00E94620D61E081E00E94350C6FE9F6
:1035700074E083EB97E00E94620D68EE73E080E0F8
:1035800090E00E9444080E948C0B19CF2B812534B7
:10359000E9F58FEB92E00E94530D809140029091EB
:1035A0004102892B81F58091420290914302892B3F
:1035B00051F58091440290914502892B21F580912B
:1035C000460290914702892BF1F480914802909134
:1035D00049020196C1F480914A0290914B020196F2
:1035E00091F480914C0290914D02019661F480918A
:1035F0004E0290914F02019631F481E080935D0676
:103600000E942510DCCE10925E06D9CE65E173E0F3
:1036100085E896E00E94620D8B810E948E0C80915D
:1036200061069091620608970CF048C080915F0691
:103630009091600608970CF041C06B8183EB97E096
:103640000E94140280915F0661E08B5F0E94350C3E
:103650006B8183EB97E00E9414026B8182E598E016
:103660000E94E40D4B814053809161069091620667
:10367000FC01EE0FFF1FE05CFD4F242F042E000C19
:10368000330B318320830196909362068093610609
:1036900080915F06909160060196909360068093FA
:1036A0005F0641118CCE60E080E00E94350C6BEB30
:1036B00074E083EB97E00E94620D81CE8DE193E090
:1036C0000E94530D81E0809357060E948C0B8091DD
:1036D0005706882399F160E080E00E94350C6FEA7C
:1036E00074E083EB97E00E94620D61E083E00E944A
:1036F000350C69EB72E083EB97E00E94620D0E944B
:10370000DE08853421F7109262061092610610924D
:10371000600610925F0680E492E00E94E30A0E9435
:103720008C0B60E080E00E94350C6BEB74E083EB67
:1037300097E00E94620D10925706C9CF82E598E08B
:103740000E94550E81E493E00E94530D8091610622
:10375000909162060E94E90C81E593E00E94530D6E
:1037600080915F06909160060E94E90C10925706C6
:1037700026CE86EC94E00E94530D82E598E00E94EC
:103780007B0C0E94750C0E948C0B89ED94E00E94CA
:10379000530D10926206109261061092600610920C
:1037A0005F0681E080935E0680915D0690915E06E3
:1037B000992309F4AAC1811124C20E94DE088B83D7
:1037C000882309F43CC180915F0661E08B5F0E9411
:1037D000350C8B81853529F48FED92E00E94530DD5
:1037E000E3CF9B81943419F482EE92E0F7CF2B81E2
:1037F00087EE92E0233591F33B81333409F06BC0BF
:103800008BEE92E00E94530D80915F0690916006CE
:1038100018161906D4F58091610690916206181663
:1038200019069CF5880F991FFC01E05BFD4F118381
:10383000008360E283EB97E00E94140280915F06B0
:1038400061E08B5F0E94350C60E283EB97E00E94A1
:10385000140280916106909162069D838C83BC0165
:103860008CE498E00E94A90D2C813D812150310902
:10387000309362062093610680915F069091600606
:1038800001979093600680935F0680916106909106
:103890006206892B09F088CF709251026092500223
:1038A00070E060E08CE498E00E94A90D8CE498E060
:1038B0000E94550E60E283EB97E00E941402809113
:1038C0005F0661E08B5F0E94350C60E283EB97E05E
:1038D0000E94140269CF3B81383419F581EF92E0E0
:1038E0000E94530D0E948C0B60E081E00E94350C19
:1038F00061E974E083EB97E00E94620D61E081E092
:103900000E94350C6FE974E083EB97E00E94620D32
:1039100068EE73E080E090E00E9444080E948C0B07
:1039200043CF4B814534E9F58FEB92E00E94530D74
:103930008091500290915102892B81F58091520221
:1039400090915302892B51F5809154029091550228
:10395000892B21F58091560290915702892BF1F421
:1039600080915802909159020196C1F480915A02B7
:1039700090915B02019691F480915C0290915D02BE
:10398000019661F480915E0290915F02019631F49C
:1039900081E080935D060E94251006CF10925E069E
:1039A00003CF65E173E085E896E00E94620D8B81AC
:1039B0000E948E0C809161069091620608970CF02F
:1039C00049C080915F069091600608970CF042C054
:1039D0006B8183EB97E00E94140280915F0661E0A7
:1039E0008B5F0E94350C6B8183EB97E00E94140281
:1039F0006B818CE498E00E94E40D3B8130533B8363
:103A00008091610690916206FC01EE0FFF1FE05B62
:103A1000FD4F232F330F330B318320830196909377
:103A200062068093610680915F0690916006019620
:103A30009093600680935F064B814111B5CE60E0A4
:103A400080E00E94350C61E373E083EB97E00E9415
:103A5000620DAACE8DE193E00E94530D81E0809328
:103A600057060E948C0B80915706882399F160E0DD
:103A700080E00E94350C6BEA72E083EB97E00E94D5
:103A8000620D61E083E00E94350C69EB72E083EB2C
:103A900097E00E94620D0E94DE08853421F71092A3
:103AA0006206109261061092600610925F0680E531
:103AB00092E00E94E30A0E948C0B60E080E00E948A
:103AC000350C61E373E083EB97E00E94620D109286
:103AD0005706C9CF8CE498E00E94550E81E493E02C
:103AE0000E94530D80916106909162060E94E90C3C
:103AF00081E593E00E94530D80915F0690916006EE
:103B00000E94E90C109257064FCE81117AC088EEC0
:103B100094E00E94530D8CE498E00E947B0C0E947C
:103B2000750C82E598E00E949E0D4B017D836C83AD
:103B30008CE498E00E949E0D6B012B0189EF94E0CC
:103B40000E94530DC4010E94E90C84E095E00E949C
:103B5000530DC6010E94E90CE0915B06F0915C06F2
:103B60000190F081E02D309789F0808191812C8146
:103B70003D812817390731F482819381481659060F
:103B800009F40DC50480F581E02DEDCF82E195E0CB
:103B90000E94530D8091590690915A060196909378
:103BA0005A0680935906049794F50E948C0B60E0A6
:103BB00080E00E94350C64E275E083EB97E00E94A0
:103BC000620D6091590670915A0683EB97E00E944E
:103BD0001D0D61E080E00E94350C61E375E083EB30
:103BE00097E00E94620D61E08FE30E94E2036CEDBA
:103BF00075E080E090E00E94440860E08FE30E945E
:103C0000E20310925D0681E080935E06BDCB81E009
:103C10008093580661E08DE20E94E20361E08FE349
:103C20000E94E20360ED77E080E090E00E944408AB
:103C300060E08DE20E94E20310926206109261063B
:103C40001092600610925F060E948C0B80915806BD
:103C5000882309F492C10E94DE088B83882309F42B
:103C600061C180915F0661E08B5F0E94350C3B81F2
:103C70008FED92E0353529F04B81443429F482EE02
:103C800092E00E94530DE2CF8B81833519F487EEC9
:103C900092E0F7CF9B81933409F057C08BEE92E00E
:103CA0000E94530D80915F069091600618161906C8
:103CB00084F58091610690916206181619064CF5FC
:103CC000880F991FFC01E05BFD4F1183008360E2C8
:103CD00083EB97E00E94140280915F0661E08B5FA6
:103CE0000E94350C60E283EB97E00E941402809101
:103CF0006106909162060197909362068093610637
:103D000080915F0690916006019790936006809382
:103D10005F068091610690916206892B09F096CF2B
:103D2000709251026092500260E283EB97E00E9431
:103D3000140280915F0661E08B5F0E94350C60E2A7
:103D400083EB97E00E94140281CF2B8181EF92E0F8
:103D5000283409F496CF3B81353409F099C08FEBB4
:103D600092E00E94530D8091500290915102892B54
:103D700009F05BC08091520290915302019709F0C3
:103D800054C08091540290915502892B09F04DC086
:103D90008091560290915702069709F046C0809193
:103DA000580290915902019609F03FC080915A0241
:103DB00090915B020196C9F580915C0290915D0241
:103DC000019699F580915E0290915F02019669F5E6
:103DD0000E948C0B60E083E00E94350C67EE73E07C
:103DE00083EB97E00E94620D61E084E00E94350C55
:103DF00065E575E083EB97E00E94620D61E08EE37C
:103E00000E94E20364EC79E080E090E00E944408C4
:103E10000E948C0B60E08EE30E94E20310925A062F
:103E2000109259061092580611CF0E948C0B60E038
:103E300082E00E94350C62E475E083EB97E00E941B
:103E4000620D61E080E00E94350C6FE475E083EB69
:103E500097E00E94620D61E08DE20E94E2036CED4A
:103E600075E080E090E00E94440860E08DE20E94EE
:103E7000E2030E948C0B109262061092610610926F
:103E8000600610925F0680E592E00E94E30ADECEB3
:103E900065E173E085E896E00E94620D8B810E94E7
:103EA0008E0C809161069091620608970CF045C0D7
:103EB00080915F069091600608970CF03EC06B8180
:103EC00083EB97E00E94140280915F0661E08B5FB4
:103ED0000E94350C6B8183EB97E00E9414028B816A
:103EE00080538B838091610690916206FC01EE0FF6
:103EF000FF1FE05BFD4F4B81242F042E000C330B82
:103F000031832083019690936206809361068091AD
:103F10005F069091600601969093600680935F061D
:103F2000411194CE60E081E00E94350C69ED73E0B0
:103F300083EB97E00E94620D89CE88EB93E00E94AC
:103F4000530D81E0809357060E94640D81E493E055
:103F50000E94530D80916106909162060E94E90CC7
:103F600081E593E00E94530D80915F069091600679
:103F70000E94E90C1092570669CE10925A061092D0
:103F800059063BCE0E948C0B60E081E00E94350C0C
:103F90006DE575E083EB97E00E94620D62E081E0E1
:103FA0000E94350C40915608509157086091520874
:103FB0007091530883EB97E00E941B0282E090E02F
:103FC000909364068093630689C085E896E00E941A
:103FD0007902181619060CF081C085E896E00E9457
:103FE00057028134910509F07CC08AE00E94B60333
:103FF000019709F051C00E948C0B60E080E00E94A4
:10400000350C6BE675E083EB97E00E94620D61E092
:1040100080E00E94350C6AE775E083EB97E00E9430
:10402000620D88EE93E00E94A70568EE73E080E0E1
:1040300090E00E9444088DE20E9426058AE00E94DA
:10404000B603019729F480E09FEF0E949F07F6CF07
:104050000E948C0B60E080E00E94350C64E875E003
:1040600083EB97E00E94620D61E080E00E94350CD6
:1040700065E975E083EB97E00E94620D8CED95E0B9
:104080000E94A70564EF71E080E090E00E94440880
:104090008DE20E9426051CC00E948C0B60E080E02F
:1040A0000E94350C6DE975E083EB97E00E94620D8C
:1040B00061E080E00E94350C6BEA75E083EB97E0ED
:1040C0000E94620D60ED77E080E090E00E9444087D
:1040D00022E030E030936406209363060E941E03C2
:1040E00028C98234910509F05FC089E00E94B603B7
:1040F000019709F046C00E948C0B60E080E00E94AE
:10410000350C6BE675E083EB97E00E94620D61E091
:1041100080E00E94350C6BEB75E083EB97E00E942A
:10412000620D88EB9BE00E94A70564EF71E080E0E0
:1041300090E00E9444088DE20E94260589E00E94DA
:10414000B603019729F480E091E00E949F07F6CF23
:104150000E948C0B60E080E00E94350C64E875E002
:1041600083EB97E00E94620D61E080E00E94350CD5
:1041700064EC75E083EB97E00E94620D84EC99E0BB
:104180007FCF0E948C0B60E080E00E94350C6CECCD
:1041900075E083EB97E00E94620D61E080E00E9491
:1041A000350C6BED75E08ACF8334910509F0BFC003
:1041B0000E948C0B60E080E00E94350C62E083EB93
:1041C00097E00E94440C6BEE75E083EB97E00E9451
:1041D000620D61E082E00E94350C61E083EB97E0C4
:1041E0000E94440C63E083EB97E00E94440C6BEF69
:1041F00075E083EB97E00E94620D63E083EB97E04C
:104200000E94440C84EB90E00E948C0168E873E10A
:1042100080E090E00E94440885E896E00E947902E0
:104220001816190634F485E896E00E9457029A831E
:1042300089830E9476080E94C4236B017C0160E0A0
:1042400070E0CB0129813A812434310521F120E04D
:1042500030E040EC50E40E94BF2387FF1CC085E89B
:1042600096E00E9479021816190634F485E896E063
:104270000E9457029A8389830E9476080E94C42371
:10428000A70196010E94462520E030E04AE754E469
:104290000E94B325D7CF61E08EE30E94E2030E9423
:1042A0008C0B60E080E00E94350C62E083EB97E0CD
:1042B0000E94440C6BEE75E083EB97E00E94620D68
:1042C00061E082E00E94350C60E083EB97E00E94A1
:1042D000440C63E083EB97E00E94440C64E076E0DA
:1042E00083EB97E00E94620D63E083EB97E00E940E
:1042F000440C90E080E00E948C0180ED97E00E94E9
:10430000A70568EE73E080E090E00E9444088DE22B
:104310000E94260568E873E180E090E00E9444086E
:1043200060E08EE30E94E20381E090E049CE8534B4
:10433000910509F0EBC085E896E00E94FE028091AD
:104340007B00877F80937B0090E490937C0080913A
:104350007A00806480937A0080917A0086FDFCCF99
:104360008091780060917900762F682F072E000CDD
:10437000880B990B0E94C62320E030E04AE754E402
:104380000E94B32520E030E44CE955E40E94252446
:1043900020E030E040E251E40E94B32520E030E02C
:1043A00040E85FE30E9446256B017C014B015C0104
:1043B00061E070E080E090E00E944408A70196016F
:1043C000C701B6010E9459266DE076E0811126C032
:1043D00016012701E89457F82FEF3FEF4FE75FE70B
:1043E000C201B1010E94592681110CC02FEF3FEF8D
:1043F0004FE75FE7C201B1010E94BF2361E176E0B0
:10440000181664F02FEF3FEF4FE75FE4C701B601E6
:104410000E94542618163CF465E176E085E896E0A3
:104420000E94660C5BCE2FEF3FEF4FE75FECC701BA
:10443000B6010E94BF2387FDEFCF20E030E0A90145
:10444000C701B6010E94BF2387FF0BC06DE285E85C
:1044500096E00E94140246015701B7FAB094B7F8EB
:10446000B0942AE037ED43EA5BE3C501B4010E9452
:1044700047254B015C010E9425266B017C010E94AF
:10448000C4239B01AC01C501B4010E9446254B0128
:104490005C012AE0B701A60185E896E00E949D0C28
:1044A0006EE285E896E00E94140220E030E040E2EF
:1044B00051E4C501B4010E9425244B015C010E9416
:1044C00025266B01F12CE12C2AE0B701A60185E835
:1044D00096E00E949D0CC701B6010E94C4239B0177
:1044E000AC01C501B4010E94462520E030E040E265
:1044F00051E40E9425240E942526AB0170E060E073
:104500002AE085E896E00E949D0CE8CD8033910575
:1045100079F461E088E30E94E20361E089E30E94AC
:10452000E20361E08AE30E94E20361E08BE31AC0E8
:104530008133910571F460E088E30E94E20360E05A
:1045400089E30E94E20360E08AE30E94E20360E004
:10455000EDCF61E08233910521F08333910529F499
:1045600060E088E30E94E203B9CD61E08433910505
:1045700021F08533910519F460E089E3F3CF61E020
:104580008633910521F08733910519F460E08AE3C1
:10459000E9CF8833910549F2C997C9F29FCD0E94AE
:1045A0008C0B60E080E00E94350C69E176E083EBE3
:1045B00097E00E94620D61E080E00E94350C69E2A4
:1045C00076E083EB97E00E94620D61E08DE20E944D
:1045D000E20361E08EE30E94E20361E088E30E946F
:1045E000E20361E089E30E94E20361E08AE30E9462
:1045F000E20361E08BE30E94E20360ED77E080E09C
:1046000090E00E94440860E08DE20E94E20389E3AA
:1046100096E00E94530D21E030E030936406209331
:10462000630610926002EDCA8AE398E00E945B0E76
:1046300080E498E00E945B0E86E498E00E945B0EA6
:104640008CE498E00E945B0E82E598E00C945B0E8F
:10465000FC0188279927E89421912032E9F3293039
:1046600010F02E30C8F32B3241F02D3239F468941B
:1046700004C00E948D23820F911D219120532A3066
:10468000C0F31EF4909581959F4F08951F93FC01F0
:1046900099278827BC01E89411911032E9F3193069
:1046A00010F01E30C8F31B3251F01D3249F46894EB
:1046B00006C00E947823610F711D811D911D11910B
:1046C00010531A30B0F33EF4909580957095619533
:1046D0007F4F8F4F9F4F1F910895BB274A3031F472
:1046E000992322F4BDE2909581959F4F0C949623D7
:1046F000592F482F372F262F660F771F881F991F96
:10470000660F771F881F991F620F731F841F951FE5
:10471000660F771F881F991F08957AE0979F902D45
:10472000879F802D910D11240895BB27FB015527EC
:10473000AA27880F991FAA1FA41710F0A41B8395FE
:104740005051B9F7A05DAA3308F0A95DA193009775
:1047500079F7B111B1931192CB010C94AF23DC0125
:10476000FC01672F71917723E1F7329704C07C91A8
:104770006D9370836291AE17BF07C8F308950E94CE
:10478000012408F481E00895E89409C097FB3EF401
:1047900090958095709561957F4F8F4F9F4F99238E
:1047A000A9F0F92F96E9BB279395F695879577950C
:1047B0006795B795F111F8CFFAF4BB0F11F460FFCC
:1047C0001BC06F5F7F4F8F4F9F4F16C0882311F024
:1047D00096E911C0772321F09EE8872F762F05C038
:1047E000662371F096E8862F70E060E02AF09A95D3
:1047F000660F771F881FDAF7880F9695879597F9C8
:104800000895990F0008550FAA0BE0E8FEEF161661
:104810001706E807F907C0F012161306E407F507B4
:1048200098F0621B730B840B950B39F40A2661F028
:10483000232B242B252B21F408950A2609F4A140CB
:10484000A6958FEF811D811D08950E9438240C9438
:10485000A9240E949B2438F00E94A22420F09523D2
:1048600011F00C9492240C94982411240C94DD24BF
:104870000E94BA2470F3959FC1F3950F50E0551F25
:10488000629FF001729FBB27F00DB11D639FAA27A5
:10489000F00DB11DAA1F649F6627B00DA11D661FF4
:1048A000829F2227B00DA11D621F739FB00DA11D15
:1048B000621F839FA00D611D221F749F3327A00DCF
:1048C000611D231F849F600D211D822F762F6A2F6B
:1048D00011249F5750409AF0F1F088234AF0EE0FD0
:1048E000FF1FBB1F661F771F881F91505040A9F7FD
:1048F0009E3F510580F00C9492240C94DD245F3F80
:10490000E4F3983ED4F3869577956795B795F79538
:10491000E7959F5FC1F7FE2B880F911D96958795B0
:1049200097F9089597F99F6780E870E060E008952F
:104930009FEF80EC089500240A94161617061806B7
:104940000906089500240A94121613061406050693
:104950000895092E0394000C11F4882352F0BB0F24
:1049600040F4BF2B11F460FF04C06F5F7F4F8F4F87
:104970009F4F089557FD9058440F551F59F05F3FC2
:1049800071F04795880F97FB991F61F09F3F79F071
:1049900087950895121613061406551FF2CF4695F3
:1049A000F1DF08C0161617061806991FF1CF869575
:1049B0007105610508940895E894BB276627772759
:1049C000CB0197F90895052E97FB1EF400940E94E1
:1049D000FA2457FD07D00E94152507FC03D04EF49A
:1049E0000C94FA2450954095309521953F4F4F4FA8
:1049F0005F4F089590958095709561957F4F8F4F8B
:104A00009F4F08950E943725A59F900DB49F900D4C
:104A1000A49F800D911D11240895B7FF0C940225C9
:104A20000E940225821B930B0895A1E21A2EAA1B55
:104A3000BB1BFD010DC0AA1FBB1FEE1FFF1FA2174E
:104A4000B307E407F50720F0A21BB30BE40BF50B4B
:104A5000661F771F881F991F1A9469F760957095D4
:104A6000809590959B01AC01BD01CF010895A29F57
:104A7000B001B39FC001A39F700D811D1124911D32
:104A8000B29F700D811D1124911D08955058BB27B0
:104A9000AA270E945E250C94A9240E949B2438F02A
:104AA0000E94A22420F039F49F3F19F426F40C94BC
:104AB00098240EF4E095E7FB0C949224E92F0E94D1
:104AC000BA2458F3BA17620773078407950720F0D2
:104AD00079F4A6F50C94DC240EF4E0950B2EBA2F95
:104AE000A02D0B01B90190010C01CA01A0011124F4
:104AF000FF27591B99F0593F50F4503E68F11A16A0
:104B0000F040A22F232F342F4427585FF3CF469530
:104B100037952795A795F0405395C9F77EF41F1652
:104B2000BA0B620B730B840BBAF09150A1F0FF0F1C
:104B3000BB1F661F771F881FC2F70EC0BA0F621F08
:104B4000731F841F48F4879577956795B795F795F8
:104B50009E3F08F0B0CF9395880F08F09927EE0F8D
:104B60009795879508950E94C7250C94A9240E94C3
:104B7000A22458F00E949B2440F029F45F3F29F0C2
:104B80000C94922451110C94DD240C9498240E94CE
:104B9000BA2468F39923B1F3552391F3951B550B70
:104BA000BB27AA2762177307840738F09F5F5F4F00
:104BB000220F331F441FAA1FA9F335D00E2E3AF03F
:104BC000E0E832D091505040E695001CCAF72BD057
:104BD000FE2F29D0660F771F881FBB1F26173707A8
:104BE0004807AB07B0E809F0BB0B802DBF01FF27DA
:104BF00093585F4F3AF09E3F510578F00C94922401
:104C00000C94DD245F3FE4F3983ED4F386957795CA
:104C10006795B795F7959F5FC9F7880F911D969592
:104C2000879597F90895E1E0660F771F881FBB1FEE
:104C3000621773078407BA0720F0621B730B840B9B
:104C4000BA0BEE1F88F7E09508950E94C22488F001
:104C50009F5798F0B92F9927B751B0F0E1F0660F40
:104C6000771F881F991F1AF0BA95C9F714C0B13081
:104C700091F00E94DC24B1E008950C94DC24672FAD
:104C8000782F8827B85F39F0B93FCCF386957795B0
:104C90006795B395D9F73EF4909580957095619599
:104CA0007F4F8F4F9F4F08950E94012408F48FEF8C
:104CB00008950E940124880B990B0895991B79E0AF
:104CC00004C0991F961708F0961B881F7A95C9F79C
:104CD0008095089597FB072E16F4009407D077FD72
:104CE00009D00E94862607FC05D03EF49095819558
:104CF0009F4F0895709561957F4F0895EE0FFF1FA8
:104D0000881F8BBF0790F691E02D1994AA1BBB1B3F
:104D100051E107C0AA1FBB1FA617B70710F0A61BBB
:104D2000B70B881F991F5A95A9F780959095BC01DC
:104D3000CD0108950F931F93CF93DF938230910598
:104D400010F482E090E0E0917708F091780830E08C
:104D500020E0B0E0A0E0309799F42115310509F486
:104D60004AC0281B390B24303105D8F58A819B8134
:104D70006115710589F1FB0193838283FE0111C0E6
:104D8000408151810281138148175907E0F048178B
:104D9000590799F4109761F012960C931297139695
:104DA0001C933296CF01DF91CF911F910F910895FF
:104DB0000093770810937808F4CF2115310551F04E
:104DC0004217530738F0A901DB019A01BD01DF0149
:104DD000F801C1CFEF01F9CF90937808809377085D
:104DE000CDCFFE01E20FF31F819391932250310941
:104DF00039832883D7CF2091750830917608232BEB
:104E000041F420917C0230917D023093760820930A
:104E1000750820917A0230917B022115310541F409
:104E20002DB73EB740917E0250917F02241B350B77
:104E3000E0917508F0917608E217F307A0F42E1BB5
:104E40003F0B2817390778F0AC014E5F5F4F2417EE
:104E5000350748F04E0F5F1F509376084093750852
:104E6000819391939FCFF0E0E0E09CCFCF93DF93CD
:104E70000097E9F0FC01329713821282A091770823
:104E8000B0917808ED0130E020E01097A1F4208186
:104E90003181820F931F2091750830917608281771
:104EA000390709F061C0F0937608E0937508DF9147
:104EB000CF910895EA01CE17DF07E8F54A815B81BB
:104EC0009E0141155105B1F7E901FB83EA83499140
:104ED0005991C40FD51FEC17FD0761F480819181B2
:104EE0000296840F951FE9019983888382819381BB
:104EF0009B838A83F0E0E0E012968D919C9113975A
:104F00000097B9F52D913C911197CD010296820F32
:104F1000931F20917508309176082817390739F6C4
:104F2000309751F51092780810927708B093760870
:104F3000A0937508BCCFD383C28340815181840F75
:104F4000951FC817D90761F44E5F5F4F888199811B
:104F5000480F591F518340838A819B8193838283A9
:104F60002115310509F0B0CFF0937808E093770868
:104F70009ECFFD01DC01C0CF13821282D7CF4F92AA
:104F80005F926F927F928F929F92AF92BF92CF92D9
:104F9000DF92EF92FF920F931F93CF93DF938C01D9
:104FA000009799F4CB01DF91CF911F910F91FF9062
:104FB000EF90DF90CF90BF90AF909F908F907F90B9
:104FC0006F905F904F900C949A26FC01E60FF71FAC
:104FD0009C0122503109E217F30708F4AEC0D90151
:104FE000CD91DC911197C617D70720F1C530D105B7
:104FF00078F0CE0104978617970750F0C61BD70BA1
:105000002297C193D1936D937C93CF010E94362751
:10501000C801DF91CF911F910F91FF90EF90DF902A
:10502000CF90BF90AF909F908F907F906F905F9048
:105030004F9008955B01AC1ABD0A4C018C0E9D1E69
:10504000A0917708B0917808512C412CF12CE12CDB
:10505000109731F58091750890917608881599051B
:1050600009F05CC04616570608F058C080917A02D5
:1050700090917B02009741F48DB79EB740917E02DC
:1050800050917F02841B950BE817F90708F055C073
:10509000F0937608E0937508F90171836083B8CFC7
:1050A0008D919C91119712966C90129713967C900B
:1050B0001397A815B90559F56C0142E0C40ED11C2F
:1050C000CA14DB0420F1AC014A195B09DA0112961B
:1050D000159780F06282738251834083D9016D936A
:1050E0007C93E114F10471F0D7011396FC93EE93D5
:1050F00012978ECF22968C0F9D1FF901918380838A
:10510000F301EFCFF0937808E093770881CF48164A
:10511000590608F42C017D01D3019ACFCB010E94DE
:105120009A267C01009749F0AE01B8010E94A028A0
:10513000C8010E94362787016BCF10E000E068CFDE
:10514000FB01DC0102C001900D9241505040D8F7A4
:105150000895FB01DC0101900D920020E1F7089514
:1051600011E0C8E5D1E000E006C0802FFE010E94FA
:105170007E262196011DC935D10780E00807A9F7D1
:10518000F894FFCFFFFFFFFFFFFFFFFFFFFFFFFFD1
:10519000FFFFFFFFFFFFFFFFFFFFFFFFFFFFFFFF1F
:1051A000FFFFFFFF000A0A0A00110E0000010316AC
:1051B0001C0800000E01011F1B1B1F000E11111FF8
:1051C0001B1B1F00FFFFFFFFFFFFFFFFFFFFFFFF96
:1051D000FFFFFFFFFFFFFFFFFFFFFFFFFFFFFFFFDF
:1051E000FFFFFFFF01FF31302F2E353433323132D4
:1051F0003355343536443738395343304845000049
:105200007908800000000000B1021B024802FE0283
:10521000790257026B0200000000440C1B02E00AF6
:10522000DF0A0000000076072205DF030D0A0050A8
:1052300041535320544F4F204C4F4E47005052453E
:10524000535320454E5445520052454749535452FA
:10525000414E444F002052454749535452414E4419
:105260004F2000555000444F574E00324E440043EB
:105270004C4541520048454C5000434C4156452056
:105280004D454E4F52204445203800454E5445521E
:105290002041434550544152005465636C613A20AB
:1052A000004552524F52204944204D5559204752F3
:1052B000414E4445004449474954452053552043F5
:1052C0004C41564500696E6469636520616374757D
:1052D000616C3A2000637572736F7220616374753C
:1052E000616C3A20005245494E53455254414E4458
:1052F0004F20434C415645005041535320434F49A2
:105300004E434944454E006461746F732076656373
:10531000746F72006E756D65726F0050415353204B
:105320004E4F20434F494E43494445005245494E54
:10533000475245534520434C415645004552524F34
:105340005220434C415645204D5559204752414E1D
:105350004445004553504552414E444F20434C4133
:10536000564520474552454E5445004249454E5604
:10537000454E49444F004552524F522020202000B4
:10538000434C41564520494E434F52524543544F9A
:105390000053495354454D4120424C4F51554541CE
:1053A000444F00415649534520414C204745524502
:1053B0004E544500435245414E444F20454D504CBC
:1053C0004541444F004944200020504153532000A0
:1053D00043524541444F20455849544F53414D4550
:1053E0004E5445004944205553554152494F2000E1
:1053F000434C4156452000204249454E56454E49B2
:10540000444F200050696469656E646F2055737560
:105410006172696F0050524553494F4E45203030FC
:10542000303000454E54455220524547495354525E
:10543000415200494420544F4F204C4F4E470049A1
:105440004E47524553452049440045535445204555
:105450005320454C205553554152494F00506964E3
:1054600069656E646F20636C6176650045535441D5
:10547000204553204C4120434C415645004944208F
:105480005553554152494F00434C415645205553C1
:10549000554152494F004441544F5320494E434FC8
:1054A00052524543544F530020204552524F5220F0
:1054B0002020202000434C41564520494E434F5266
:1054C0005245435441004241442050415353574FA9
:1054D000524400415649534520474552454E544594
:1054E00000204249454E56454E49444F3A20004D12
:1054F0006F7669656E646F20686163696100697ABF
:1055000071756965726461004C61206D75657374B5
:105510007261206C6C65676F00616C204C41423297
:10552000004552524F523A206E6F20686179006DEB
:1055300075657374726120656E204C414231006460
:105540006572656368617300616C204C4142310093
:105550004552524F523A206E6F2068617920006D9B
:1055600075657374726120656E204C41423200266D
:10557000436F6E74726F6C506F72746F6E26004161
:10558000627269656E646F0043657272616E646F0A
:10559000006E616E00696E66006F766600202020E6
:1055A0004F4B2041434345534F20202000202020D3
:1055B0005045524D495449444F20202000434C410E
:0C55C000564520434F52524543544100D1
:10E000000D9489F10D94B2F10D94B2F10D94B2F129
:10E010000D94B2F10D94B2F10D94B2F10D94B2F1F0
:10E020000D94B2F10D94B2F10D94B2F10D94B2F1E0
:10E030000D94B2F10D94B2F10D94B2F10D94B2F1D0
:10E040000D94B2F10D94B2F10D94B2F10D94B2F1C0
:10E050000D94B2F10D94B2F10D94B2F10D94B2F1B0
:10E060000D94B2F10D94B2F10D94B2F10D94B2F1A0
:10E070000D94B2F10D94B2F10D94B2F10D94B2F190
:10E080000D94B2F10D94B2F10D94B2F10D94B2F180
:10E090000D94B2F10D94B2F10D94B2F10D94B2F170
:10E0A0000D94B2F10D94B2F10D94B2F10D94B2F160
:10E0B0000D94B2F10D94B2F10D94B2F10D94B2F150
:10E0C0000D94B2F10D94B2F10D94B2F10D94B2F140
:10E0D0000D94B2F10D94B2F10D94B2F10D94B2F130
:10E0E0000D94B2F141546D656761323536300041AF
:10E0F000726475696E6F206578706C6F72657220DE
:10E1000073746B3530305632206279204D4C530099
:10E11000426F6F746C6F616465723E004875683F52
:10E1200000436F6D70696C6564206F6E203D200048
:10E130004350552054797065202020203D20005FF9
:10E140005F4156525F415243485F5F3D2000415658
:10E1500052204C696243205665723D20004743437C
:10E160002056657273696F6E203D20004350552024
:10E1700049442020202020203D20004C6F7720663D
:10E18000757365202020203D20004869676820665F
:10E190007573652020203D200045787420667573D6
:10E1A00065202020203D20004C6F636B2066757336
:10E1B000652020203D20004D617220203720323024
:10E1C000313300312E362E3800342E332E350056A2
:10E1D00023202020414444522020206F7020636F70
:10E1E00064652020202020696E73747275637469E1
:10E1F0006F6E2061646472202020496E74657272B3
:10E20000757074006E6F20766563746F7200726A49
:10E210006D702020006A6D70200057686174207056
:10E220006F72743A00506F7274206E6F7420737541
:10E2300070706F72746564004D7573742062652030
:10E2400061206C6574746572002000577269747483
:10E25000696E672045450052656164696E672045B7
:10E26000450045452065727220636E743D00504F35
:10E27000525400303D5A65726F2061646472003FF1
:10E280003D43505520737461747300403D454550C3
:10E29000524F4D207465737400423D426C696E6B41
:10E2A000204C454400453D44756D70204545505215
:10E2B0004F4D00463D44756D7020464C415348001B
:10E2C000483D48656C70004C3D4C69737420492F83
:10E2D0004F20506F72747300513D51756974005234
:10E2E0003D44756D702052414D00563D73686F7707
:10E2F00020696E7465727275707420566563746FF0
:10E30000727300593D506F727420626C696E6B00BD
:10E310002A0011241FBECFEFD1E2DEBFCDBF01E046
:10E320000CBF12E0A0E0B2E0EEE1FDEF03E00BBFB6
:10E3300002C007900D92A030B107D9F712E0A0E01B
:10E34000B2E001C01D92AE30B107E1F70F9460F367
:10E350000D948DFE01E20EBF0FEF0DBF11241FBE05
:10E360000D9460F30D9400F020E030E040ED57E0B4
:10E3700005C0FA013197F1F72F5F3F4F2817390792
:10E38000C0F308959C01260F311DC901A0E0B0E043
:10E390002F5F3F4FABBFFC018791882361F08093D3
:10E3A000C6008091C00086FFFCCF8091C0008064D1
:10E3B0008093C000EACF08958DE08093C6008091DD
:10E3C000C00086FFFCCF8091C00080648093C000B5
:10E3D0008AE08093C6008091C00086FFFCCF8091C8
:10E3E000C00080648093C00008950F94C2F10F9420
:10E3F000DCF10895FC019081992359F09093C600B7
:10E400008091C00086FFFCCF8091C0008064809323
:10E41000C0003196992379F70895282F982F929567
:10E420009F70892F805D8A3308F0895F8093C600D2
:10E430008091C00086FFFCCF8091C00080648093F3
:10E44000C000822F8F70982F905D9A3308F0995FEB
:10E450009093C6008091C00086FFFCCF8091C000E1
:10E4600080648093C00008959C01FB01853691056E
:10E470001CF46330710594F0C90164E670E00F94F8
:10E480002EFE605D7F4F6093C6008091C00086FFC6
:10E49000FCCF8091C00080648093C0002B30310598
:10E4A00014F43297B4F0C90164E670E00F942EFEC4
:10E4B0006AE070E00F942EFE605D7F4F6093C600AF
:10E4C0008091C00086FFFCCF8091C0008064809363
:10E4D000C000C9016AE070E00F942EFEC0968093E0
:10E4E000C6008091C00086FFFCCF8091C000806490
:10E4F0008093C00008951F93182F8EE692EE60E07F
:10E500000F94C2F11093C6008091C00086FFFCCF2B
