:100000000C9459010C948A010C948A010C948A0175
:100010000C948A010C948A010C948A010C948A0134
:100020000C948A010C948A010C948A010C948A0124
:100030000C948A010C94630E0C948A010C948A012E
:100040000C948A010C94F70F0C948A010C948A0189
:100050000C948A010C948A010C948A010C94230F4D
:100060000C948A010C94ED0E0C94C30E0C948A012E
:100070000C948A010C948A010C948A010C948A01D4
:100080000C94C90F0C948A010C948A010C948A0177
:100090000C948A010C948A010C948A010C948A01B4
:1000A0000C948A010C948A010C949B0F0C948A0185
:1000B0000C948A010C948A010C948A010C946D0FA3
:1000C0000C948A010C948A010C948A010C948A0184
:1000D0000C948A010C948A010C948A010C948A0174
:1000E0000C948A010C94B1020C94F9040C94440C05
:1000F0000C947F030C94E00A0C9405050C947B038C
:100100000C948C030C94A8030C94F0040C949203AC
:100110000C94A0030C94BF040C9457020C94A403F9
:100120000C9448020C94AE040C94DF030C94B203BC
:100130000C9479020C9488030C94AE030C94220561
:100140000C949A030C9477030C94A2040C94FE0272
:100150000C946D030C9496030C941D050C94D5041B
:100160000C94F2040C941B020C9473030C94DF0A9D
:100170000C9476070C946B020C94DF160C94CA2135
:100180000C9416050C94AD030C948203000021001E
:10019000240027002A002D00300033000101000058
:1001A000040107010A0100002000230026002900A5
:1001B0002C002F003200000100000301060109019C
:1001C00000000A0B02090C0D0E08070304010000D1
:1001D000000000000000000000000000000000001F
:1001E00000000000000000000000000012111000DC
:1001F00000000000000000000000000000000000FF
:10020000000000000000010210202008081020401B
:1002100010204080020102010804020101020408CA
:100220001020408080402010080402018004020158
:1002300080402010080402010804020101020408A1
:10024000102040800102040810204080000022009D
:10025000250028002B002E00310034000201000090
:10026000050108010B010505050507050808080833
:10027000020202020A0A080804040404010101013E
:100280000101010103030303030303030407070739
:100290000C0C0C0C0C0C0C0C0202020206060606DE
:1002A000060606060B0B0B0B0B0B0B0B0200DF16E7
:1002B000CA2111241FBECFEFD1E2DEBFCDBF00E0C7
:1002C0000CBF16E0A0E0B2E0E4EAFDE400E00BBF02
:1002D00002C007900D92AC35B107D9F728E0ACE524
:1002E000B6E001C01D92AD38B207E1F711E0C8E5F4
:1002F000D1E000E006C021970109802FFE010E9495
:100300008E24C735D10780E00807A9F70E9411188D
:100310000C94C0260C9400008F929F92AF92BF92D3
:10032000FF920F931F93CF93DF93F0906C082FE20F
:100330002F1508F44CC020916E0808E512E0021B4E
:10034000110927FD1395000F111F000F111F209198
:100350006D08C8E8D0E0C21BD10927FDD395CC0FAA
:10036000DD1FCC0FDD1F4E010D2E000CAA08BB08AF
:100370009801012E000C440B550B281939094A0924
:100380005B09DC010E94562324EB30E040E050E0A2
:100390000E942C23820E931EA41EB51E8C169D0651
:1003A0002CF0E801801691060CF4E4012297CC0FA2
:1003B000DD1F2FB7F8948F2D90E0FC01EE0FFF1F8B
:1003C000E80FF91FEA5CF84FD283C1832FBFDF919A
:1003D000CF911F910F91FF90BF90AF909F908F9002
:1003E000089596E0899FD0011124A152B84F9096AC
:1003F0007C936E935F9791E091969C939197E09197
:100400004C08F0914D0890914B08992339F03097A2
:1004100051F0811108C08091FB071994309719F0B1
:100420005C968C91FACF0895DC01ED91FC910190DE
:10043000F081E02D1994AF92BF92CF92DF92EF92AC
:10044000FF920F931F93CF93DF936C017B018B017E
:10045000040F151FEB015E01AE18BF08C017D107CE
:1004600059F06991D601ED91FC910190F081E02D58
:10047000C6011995892B79F7C501DF91CF911F919D
:100480000F91FF90EF90DF90CF90BF90AF900895C5
:10049000FC01538D448D252F30E0842F90E0821B8A
:1004A000930B541710F0CF96089501970895FC010F
:1004B000918D828D981761F0A28DAE0FBF2FB11D67
:1004C0005D968C91928D9F5F9F73928F90E00895BF
:1004D0008FEF9FEF0895FC01918D828D981731F079
:1004E000828DE80FF11D858D90E008958FEF9FEFCD
:1004F0000895FC01918D228D892F90E0805C9F4FA3
:10050000821B91098F739927089589E996E00E94CB
:10051000790221E0892B09F420E0822F0895FC0163
:10052000A48DA80FB92FB11DA35ABF4F2C91848D54
:1005300090E001968F739927848FA689B7892C93B1
:10054000A089B1898C91837080648C93938D848D04
:10055000981306C00288F389E02D80818F7D808307
:100560000895EF92FF920F931F93CF93DF93EC01C7
:1005700081E0888F9B8D8C8D98131AC0E889F9894A
:10058000808185FF15C09FB7F894EE89FF8960834D
:10059000E889F98980818370806480839FBF81E0CE
:1005A00090E0DF91CF911F910F91FF90EF90089510
:1005B000F62E0B8D10E00F5F1F4F0F731127E02EEB
:1005C0008C8D8E110CC00FB607FCFACFE889F98923
:1005D000808185FFF5CFCE010E948F02F1CFEB8D98
:1005E000EC0FFD2FF11DE35AFF4FF0829FB7F894F7
:1005F0000B8FEA89FB8980818062CFCFCF93DF9315
:10060000EC01888D8823B9F0AA89BB89E889F9892A
:100610008C9185FD03C0808186FD0DC00FB607FC5F
:10062000F7CF8C9185FFF2CF808185FFEDCFCE0192
:100630000E948F02E9CFDF91CF91089580E090E092
:10064000892B29F00E94850281110E94000080E020
:1006500090E0892B49F080E090E0892B29F00E94FE
:10066000000081110E94000080E090E0892B49F099
:1006700080E090E0892B29F00E94000081110E9407
:10068000000080E090E0892B49F080E090E0892B29
:1006900029F00E94000081110C94000008958150FF
:1006A000823108F05AC0E82FF0E08827E55AFC4F65
:1006B0008F4F0C948E247B037F036D0373037703AA
:1006C000AD03820388038C03920396039A03A0036D
:1006D000A403AD03A803AE03B203809180008F771B
:1006E000809380000895809180008F7DF9CF809164
:1006F0008000877FF5CF84B58F7784BD089584B55A
:100700008F7DFBCF8091B0008F778093B0000895EC
:100710008091B0008F7DF9CF809190008F7780938A
:1007200090000895809190008F7DF9CF8091900086
:10073000877FF5CF8091A0008F778093A0000895E8
:100740008091A0008F7DF9CF8091A000877FF5CFA9
:10075000809120018F77809320010895809120015E
:100760008F7DF9CF80912001877FF5CFCF93DF93E5
:10077000282F30E0F901E054FE4F8491F901EA5F3F
:10078000FD4FD491F901EA59FD4FC491CC23A1F05A
:1007900081110E944F03EC2FF0E0EE0FFF1FEA558E
:1007A000FE4FA591B491EC91ED2381E090E009F426
:1007B00080E0DF91CF91089580E090E0FACF862F1E
:1007C0000C94B6031F93CF93DF93282F30E0F901E9
:1007D000E054FE4F8491F901EA5FFD4FD491F90195
:1007E000EA59FD4FC491CC23A9F0162F81110E9424
:1007F0004F03EC2FF0E0EE0FFF1FE45BFD4FA591E0
:10080000B4918FB7F894EC91111108C0D095DE2304
:10081000DC938FBFDF91CF911F910895DE2BF8CF2E
:10082000CF93DF93EC01809177089091780802973D
:1008300049F4C130D10509F43DC07CF560E0209752
:1008400009F439C08091770890917808049749F4A9
:10085000C130D10509F45EC00CF039C0209709F40D
:1008600044C08091770890917808059709F0E7C017
:10087000CA30D10508F0E3C0FE018827ED5BFB4FCD
:100880008F4F0C948E24A204AE04BF04D504F00450
:10089000F204F904050516051D05C230D105A9F0BD
:1008A00060E0C330D10571F680917B080E94E203BD
:1008B00060E006C061E080917B080E94E20361E095
:1008C00080917D080E94E203BDCF61E0EDCFC23090
:1008D000D10539F1C330D10509F0C3CF61E0809172
:1008E0007B080E94E20360E022C061E080917B0807
:1008F0000E94E20360E080917D080E94E20361E0D3
:1009000080917F080E94E20360E0809181080E944C
:10091000E203A7CF60E080917B080E94E20361E0E0
:10092000EACF60E080917B080E94E20361E0809161
:100930007D080E94E20360E080917F080E94E2034C
:1009400061E0E3CF60E080917B080E94E20361E018
:1009500080917D080E94E20361E00BC060E080911D
:100960007B080E94E20361E080917D080E94E2031F
:1009700060E080917F080E94E20360E010C060E0C8
:1009800080917B080E94E20361E080917D080E94D3
:10099000E20360E080917F080E94E20361E08091C1
:1009A00081080E94E20361E015C060E080917B084D
:1009B0000E94E20361E080917D080E94E20360E012
:1009C00080917F080E94E20361E0809181080E948B
:1009D000E20360E080918308DF91CF910C94E20301
:1009E00061E0E4CF61E080917B080E94E20360E077
:1009F000E2CF61E080917B080E94E20360E0809199
:100A00007D080E94E20361E0DBCF61E080917B081A
:100A10000E94E20360E080917D080E94E20361E0B1
:100A200080917F080E94E20360E0CFCF61E0809177
:100A30007B080E94E20360E08BCF60E0F8CFDF919B
:100A4000CF910895862F642F0C94E2039091610258
:100A500089130DC0ECEAF2E0E4919FEF90936102FC
:100A6000E230E1F038F4EE2381F0E13089F060E02B
:100A70000C94E203E43049F110F1E530C1F79091B4
:100A800073009D7F90937300F2CF10926E00EFCFB2
:100A900090916F009D7F90936F00E9CF90917000CF
:100AA0009D7F9093700091E09093B0009091B10081
:100AB000987F94609093B1001092B300D8CF90913A
:100AC00071009D7F90937100D2CF909172009D7FB5
:100AD00090937200CCCFCF93DF9390E0FC01EA5F5C
:100AE000FD4F24918A599D4FFC0184918823C9F0C0
:100AF00090E0880F991FFC01E457FE4FA591B49137
:100B0000FC01E45BFD4FC591D49161110DC09FB70D
:100B1000F8948C91209582238C93888128232883B4
:100B20009FBFDF91CF910895623051F49FB7F89441
:100B30003C91822F809583238C93E8812E2BEFCFDD
:100B40008FB7F894EC912E2B2C938FBFEACF0F9395
:100B50001F93CF938C01809161028D3231F08F3FD2
:100B6000A1F1CF911F910F910895ECEAF2E0C491A9
:100B7000C7FDF7CF61E08DE20E946B05C1113FC058
:100B8000980150E040E068E478EE81E090E00E9457
:100B90002C23BA01A901415051096109710985B598
:100BA000887F836085BD47BD8FEF9FEFDC01809319
:100BB000950690939606A0939706B0939806809119
:100BC0006E00826080936E00CCCF8DE280936102D4
:100BD000ECEAF2E0C4918C2FCF3F09F4C2CFC230CF
:100BE00009F493C0B8F5CC2309F459C0C13009F415
:100BF0006EC087FDB6CF61E08DE20E946B05980163
:100C000050E040E0C23009F0DFC060E970ED83E001
:100C100090E00E942C23BA01A901415051096109B9
:100C200071098091B100887F83608093B100409307
:100C3000B3008FEF9FEFDC0180938D0690938E06BB
:100C4000A0938F06B093900680917000826080938D
:100C5000700087CFC43009F499C008F478C0C5305B
:100C600041F61092200110922101809121018860AB
:100C70008093210180912101816080932101E3E92A
:100C8000F2E0E491F0E0EE0FFF1FE45BFD4F859191
:100C90009491E3E3F2E0E491E09379066BCF14BC26
:100CA00015BC84B5826084BD85B5816085BDE3E9EE
:100CB000F2E0E491F0E0EE0FFF1FE45BFD4F859161
:100CC0009491E3E3F2E0E491E093800653CF109235
:100CD0008000109281008091810088608093810063
:100CE00080918100816080938100E3E9F2E0E491EA
:100CF000F0E0EE0FFF1FE45BFD4F85919491E3E37D
:100D0000F2E0E491E0937F0635CF1092B0001092AC
:100D1000B1008091B00082608093B0008091B100FA
:100D200081608093B100E3E9F2E0E491F0E0EE0F3E
:100D3000FF1FE45BFD4F8591949190937E06809315
:100D40007D06E3E3F2E0E491E0937C0613CF10929A
:100D500090001092910080919100886080939100A2
:100D600080919100816080939100E3E9F2E0E49149
:100D7000F0E0EE0FFF1FE45BFD4F85919491E3E3FC
:100D8000F2E0E491E0937B06C3E0F4CE1092A00081
:100D90001092A1008091A10088608093A1008091B1
:100DA000A10081608093A100E3E9F2E0E491F0E02A
:100DB000EE0FFF1FE45BFD4F85919491E3E3F2E0BA
:100DC000E491E0937A06D6CE60E072E18AE790E0A3
:100DD0000E942C23DA01C9010197A109B109AC01D4
:100DE000C130D9F420918100287F216020938100B7
:100DF00090938900809388008FEF9FEFDC018093B0
:100E0000910690939206A0939306B09394068091D6
:100E10006F00826080936F00A4CEC330D9F420911C
:100E20009100287F216020939100909399008093F6
:100E300098008FEF9FEFDC018093890690938A06DC
:100E4000A0938B06B0938C06809171008260809392
:100E5000710087CEC430D9F42091A100287F216091
:100E60002093A1009093A9008093A8008FEF9FEF9B
:100E7000DC018093850690938606A0938706B09345
:100E80008806809172008260809372006ACEC530BD
:100E9000D9F420912101287F216020932101909392
:100EA0002901809328018FEF9FEFDC018093810659
:100EB00090938206A0938306B0938406809173007A
:100EC0008260809373004DCEC23009F4B0CE3CF402
:100ED000CC2309F468CEC13009F043CE89CFC430A9
:100EE00009F20CF4A2CFC530D1F23BCE862F642F8D
:100EF0000C946B053FB7F894809167069091680653
:100F0000A0916906B0916A0626B5A89B05C02F3F3F
:100F100019F00196A11DB11D3FBFBA2FA92F982F1F
:100F20008827BC01CD01620F711D811D911D42E01A
:100F3000660F771F881F991F4A95D1F708954F9222
:100F40005F926F927F928F929F92AF92BF92EF9239
:100F5000FF920F931F93CF93DF93EC0197FF04C091
:100F6000CC27DD27C81BD90B181619060CF061C059
:100F700081E090E09093700880936F0804E010E0A7
:100F80008AE0E82EF12C209709F46FC00E947A07BE
:100F90008090850890908608A0908708B090880877
:100FA0002B013C01481859086A087B088090710899
:100FB00090907208A0907308B09074084814590477
:100FC0006A047B0400F3609385087093860880931D
:100FD0008708909388088091790890917A082091E9
:100FE0006F08309170082130310559F501969093C2
:100FF0007A088093790820917508309176088217D5
:10100000930721F410927A08109279082197809121
:10101000790890917A082091770830917808B70183
:101020002530310509F0B8010E947A240E9410048D
:10103000AACF892B09F4A2CF1092700810926F08E2
:101040009DCF892B41F480917508909176089093FB
:101050007A08809379088091790890917A080197AD
:1010600090937A0880937908D1CFDF91CF911F9127
:101070000F91FF90EF90BF90AF909F908F907F90D7
:101080006F905F904F9008958F929F92AF92BF9212
:10109000CF92DF92EF92FF924B015C010E947A07A0
:1010A0006B017C010E947A076C197D098E099F09EA
:1010B000683E734081059105A8F321E0821A9108EA
:1010C000A108B10888EEC80E83E0D81EE11CF11C0F
:1010D00081149104A104B10429F7FF90EF90DF90EF
:1010E000CF90BF90AF909F908F9008952FB7F894B6
:1010F0006091630670916406809165069091660622
:101100002FBF08950F931F93CF93DF93C82FD62F30
:1011100086E0C89FF0011124E152F84F11A2878D9B
:1011200090A181309105F1F058F082309105F1F1F4
:10113000039709F440C0DF91CF911F910F9108955B
:101140006623C9F361E070E08C2F0E94F1010E94D8
:101150007608609337087093380880933908909325
:101160003A08E9CF0E9476080091370810913808B4
:101170002091390830913A08AB01BC01401B510B5A
:10118000620B730B8091490890914A08B0E0A0E08F
:1011900084179507A607B70748F462E070E08C2F24
:1011A000DF91CF911F910F910C94F10163E070E0FA
:1011B000D111C1CFF4CF70E060E0F1CF6F927F9298
:1011C0008F929F92AF92BF92CF92DF92EF92FF9257
:1011D0000F931F93CF93DF9381E080934B080E947E
:1011E000760800913B0810913C0820913D08309111
:1011F0003E08AB01BC01401B510B620B730B80918D
:10120000470890914808B0E0A0E084179507A6072A
:10121000B70708F014C1C0E080914508C81760F412
:10122000E0914108F0914208EC0FF11D62E08081ED
:101230000E946B05CF5FF0CF712C812C912C540153
:10124000839480914608781608F05FC0072D10E05F
:10125000E0914308F0914408E00FF11F61E08081C4
:101260000E946B05E0914308F0914408E00FF11FE4
:1012700060E080810E94E203D501C401072C04C014
:10128000880F991FAA1FBB1F0A94D2F76C017C011B
:10129000E094F094612C809145086816F8F4C62D0E
:1012A000D0E0E0914108F0914208EC0FFD1F8081F1
:1012B0000E94B6032496CC0FDD1FC152D84F892B54
:1012C00041F4888199818C299D299983888363942D
:1012D000E2CF888199818E219F21F7CFE091430849
:1012E000F0914408E00FF11F61E080810E94E20369
:1012F0008091430890914408080F191F60E0F8019D
:1013000080810E946B0573949CCFCFEDD7E0FE01E6
:101310008FEF9FEF278D30A1232B21F4148E968F12
:10132000858F11A2369628E0EB31F20799F7F12C60
:1013300096E0D92E80914508F81608F050C0E12CAF
:101340000F2D10E0000F111F0951184F2091460872
:10135000E21608F042C0F801608171810E2C02C0D3
:10136000769567950A94E2F7F29E900111242E0D6E
:10137000311DEFEDF7E080E0458D568D24173507E0
:1013800009F461C08F5F36968A30B1F760FF23C0E1
:10139000EFEDF7E090E080E0448D411117C0E0915F
:1013A0003F08F0914008E20FF31F4081D89EF00102
:1013B000D99EF00D1124E152F84F448F368F258FBE
:1013C00010A2178E61E00E94820805C00196369631
:1013D0008A30910509F7E394B9CFF394ABCF10E0CD
:1013E00089A18111182F2696F8E0CB31DF07C1F7CC
:1013F0000E94760860933B0870933C0880933D08F8
:1014000090933E081123D9F0809100088823B9F009
:101410008091FE079091FF07019789F48091FB0767
:10142000DF91CF911F910F91FF90EF90DF90CF90C0
:10143000BF90AF909F908F907F906F900895109283
:101440004B0880E0EDCF6170BECFAF92BF92CF92DC
:10145000DF92EF92FF920F931F93CF93DF936B0175
:101460007A01EC01C25AD94F28813CE0389F8001B3
:10147000399F100D1124A090C607B12C27FF1FC063
:10148000FB011182108288818F5F88838881980197
:10149000280F311D87FD3A95F6012A153B051CF4EE
:1014A00088818C30C4F180819181049680349C497C
:1014B00008F473C0F60180819181049670C0888120
:1014C0009801280F311D87FD3A952A153B05DCF65A
:1014D0008881A801480F511D87FD5A95FA01EE0F2A
:1014E000FF1FE40FF51FEA5CF84F808186FFCBCF2A
:1014F0008881F801E80FF11D87FDFA95CF01EE0F05
:10150000FF1FE80FF91FEA5CF84F808160E08F73DE
:101510000E94E203B8CF808191812881A801420F07
:10152000511D27FD5A959A01FA01EE0FFF1FE20F98
:10153000F31FEA5CF84F21813281820F931FF7017C
:101540009183808388819801280F311D87FD3A950A
:10155000F901EE0FFF1FE20FF31FEA5CF84F8081E5
:1015600086FF22C08881080F111D87FD1A95F8019A
:10157000EE0FFF1FE00FF11FEA5CF84F808161E082
:101580008F73DF91CF911F910F91FF90EF90DF90BC
:10159000CF90BF90AF900C94E20380E49CE9F701F8
:1015A000918380838FEF8883DF91CF911F910F917B
:1015B000FF90EF90DF90CF90BF90AF900895089587
:1015C00090E080E008959C01205F3F4F4FEF5FEF78
:1015D000FC0141935193CF01E217F307C9F7089536
:1015E000CF93DF93EC0160E08E810E94E20361E023
:1015F0008E810E94E20360E08E810E94E2038BE80C
:1016000091E00197F1F7DF91CF910895CF92DF92AA
:10161000EF92FF920F931F93CF93DF936C017C01A6
:1016200087E0E80EF11CD0E0C0E0062F10E0B80122
:101630000C2E02C0759567950A94E2F76170F70168
:1016400081917F010E94E2032196C430D10579F790
:10165000C601DF91CF911F910F91FF90EF90DF9026
:10166000CF900C94F00ACF92DF92EF92FF920F93FB
:101670001F93CF93DF93EC01F62E642F8C810E9491
:10168000E2038D818F3F19F060E00E94E2030F2D8D
:1016900010E08F8584FF25C06E0187E0C80ED11C45
:1016A000F12CE12CB8010E2C02C0759567950A94B7
:1016B000E2F76170F60181916F010E94E203FFEF92
:1016C000EF1AFF0A88E0E816F10461F7CE01DF9116
:1016D000CF911F910F91FF90EF90DF90CF900C94DE
:1016E000F00AB80184E0759567958A95E1F7CE0117
:1016F0000E94060B6F2DCE01DF91CF911F910F91AC
:10170000FF90EF90DF90CF900C94060B40E0682F95
:1017100087EC97E00C94330B81E00E94860B8BE3FF
:101720009FE10197F1F70895CF93DF93823029F479
:101730009091D60798609093D6078093DA0710921D
:10174000DB0780E48093DC0780E18093DD0780E5A0
:101750008093DE0761E08091CB070E946B0580914A
:10176000CC078F3F19F061E00E946B0561E080912A
:10177000CD070E946B05C7ECD7E09E01275C374080
:101780008091D60784FD0BC084E090E02196281755
:10179000390744F461E08E810E946B05EECF88E04A
:1017A00090E0F4CF8BE39DE00197F1F760E080914A
:1017B000CB070E94E20360E08091CD070E94E20324
:1017C0008091CC078F3F19F060E00E94E203809186
:1017D000D60784FD34C063E087EC97E00E94060BD7
:1017E000CBE4D6E4CE010197F1F763E087EC97E014
:1017F0000E94060B2197F1F763E087EC97E00E94C7
:10180000060B83E592E00197F1F762E087EC97E041
:101810000E94060B8091D60780620E94860B84E0AE
:101820008093D7078CE00E94860B0E948C0B82E08D
:101830008093D80786E0DF91CF910C94860B80626D
:101840000E94860B8BE496E40197F1F78091D6070E
:1018500080620E94860B83E592E00197F1F7809108
:10186000D60780620E94860BD5CF9091DA07691760
:1018700010F06FEF690FE62FF0E0E953F84F94890D
:10188000890F80680C94860B41E00E94330B81E045
:1018900090E008950F931F93CF93DF938B0128E07F
:1018A000829FC001112480640E94860BE801085FBA
:1018B0001F4F699187EC97E00E94440CC017D10735
:1018C000C1F7DF91CF911F910F910895FB01019016
:1018D0000020E9F73197AF01461B570BDC01ED9172
:1018E000FC910280F381E02D199468EA72E089E9A5
:1018F00096E00C94660CCF93DF93FC0144815581F4
:101900006081718189E996E00E941B02EC010E94CE
:10191000750C8C0F9D1FDF91CF910895CF93DF93AE
:10192000682F89E996E00E941402EC010E94750C70
:101930008C0F9D1FDF91CF9108958F929F92AF9250
:10194000BF92EF92FF920F931F93CF93DF93CDB788
:10195000DEB7A1970FB6F894DEBF0FBECDBF7C01F6
:10196000FA01CB0119A2223008F42AE08E010F5DA2
:101970001F4F822E912CB12CA12CBF01A5019401E7
:101980000E945E23F901CA016A300CF5605DD8013E
:101990006E938D01232B242B252B79F790E080E08B
:1019A000109721F0BD01C7010E94660CA1960FB6E9
:1019B000F894DEBF0FBECDBFDF91CF911F910F9185
:1019C000FF90EF90BF90AF909F908F900895695CCB
:1019D000DECFCF92DF92EF92FF92CF93DF936C0135
:1019E000990FEE08FF08F7FE1FC06DE289E996E047
:1019F0000E941402EC0144275527BA014C195D09D5
:101A00006E097F092AE089E996E00E949D0CC80FC3
:101A1000D91F0E94750C8C0F9D1FDF91CF91FF90F5
:101A2000EF90DF90CF9008952AE0B701A60189E9F1
:101A300096E00E949D0CEC01ECCFCF92DF92EF92EA
:101A4000FF920F931F93CF93DF936B01770FEE08F5
:101A5000FF08F7FE1BC0EC016DE20E9414028C012E
:101A600044275527BA014C195D096E097F092AE000
:101A7000CE010E949D0C800F911FDF91CF911F918D
:101A80000F91FF90EF90DF90CF9008952AE0B7017B
:101A9000A601DF91CF911F910F91FF90EF90DF9002
:101AA000CF900C949D0CCF93DF93BC0189E996E015
:101AB0000E94660CEC010E94750C8C0F9D1FDF913B
:101AC000CF9108950C94660C0E948C0B80916B064C
:101AD000882399F160E080E00E94350C6BEA72E0A7
:101AE00087EC97E00E94620D61E083E00E94350C74
:101AF00069EB72E087EC97E00E94620D0E94DE08BD
:101B0000853421F7109276061092750610927406AD
:101B10001092730680E592E00E94E30A0E948C0B0B
:101B200060E080E00E94350C69ED73E087EC97E09F
:101B30000E94620D10926B06C9CF0895FC0180814E
:101B40009181009711F00C94FC2160E070E0CB01D2
:101B50000895DC0114968D919C911597681779076B
:101B600050F4ED91FC911197E60FF71F15967C93B9
:101B70006E931497108208950F931F93CF93DF9362
:101B8000EC0188819981009759F02A813B812617C1
:101B9000370730F081E0DF91CF911F910F910895C9
:101BA0008B016F5F7F4F0E94CF25009759F099837B
:101BB00088831B830A832C813D81232B59F7FC01E9
:101BC0001082E8CF80E0E7CFEF92FF920F931F9350
:101BD000CF93DF931F921F92CDB7DEB78C0169833D
:101BE0001A82FC01E480F580FFEFEF1AFF0AB701CB
:101BF0000E94BC0D882381F0F8012081318184810D
:101C00009581BE016F5F7F4F820F931F0E94B9269F
:101C1000F801F582E48281E00F900F90DF91CF917F
:101C20001F910F91FF90EF900895CF93DF93EC01F8
:101C300088819981009711F00E94462519821882A7
:101C40001D821C821B821A82DF91CF910895EF9230
:101C5000FF920F931F93CF93DF93EC017B018A01D7
:101C6000BA010E94BC0D81110BC0CE010E94150E5D
:101C7000CE01DF91CF911F910F91FF90EF900895CA
:101C80001D830C83B701888199810E94B926F0CF0A
:101C9000FC0111821082138212821582148250E09C
:101CA00040E06AEA72E00C94270E50E040E06AEAF5
:101CB00072E00C94270EFC0180819181009711F055
:101CC0000C94462508951F920F920FB60F9211247F
:101CD0000BB60F922F933F934F935F936F937F9326
:101CE0008F939F93AF93BF93EF93FF9380918D0654
:101CF00090918E06A0918F06B0919006892B8A2B29
:101D00008B2BE1F190917C06E0917D06F0917E06AF
:101D100080818927808380918D0690918E06A09185
:101D20008F06B0919006181619061A061B069CF429
:101D300080918D0690918E06A0918F06B0919006AD
:101D40000197A109B10980938D0690938E06A09307
:101D50008F06B0939006FF91EF91BF91AF919F9145
:101D60008F917F916F915F914F913F912F910F9044
:101D70000BBE0F900FBE0F901F90189580916102BF
:101D80000E942605E8CF1F920F920FB60F921124E2
:101D90000BB60F922F933F934F935F936F937F9365
:101DA0008F939F93AF93BF93EF93FF9389E996E04F
:101DB0000E948F02FF91EF91BF91AF919F918F9100
:101DC0007F916F915F914F913F912F910F900BBE3B
:101DD0000F900FBE0F901F9018951F920F920FB685
:101DE0000F9211240BB60F922F938F939F93EF9323
:101DF000FF93E091A906F091AA068081E091AF06D9
:101E0000F091B00682FD1DC090818091B2068F5F77
:101E10008F732091B306821741F0E091B206F0E093
:101E2000E756F94F958F8093B206FF91EF919F91FE
:101E30008F912F910F900BBE0F900FBE0F901F90A0
:101E400018958081F2CF1F920F920FB60F92112436
:101E50002F933F938F939F93AF93BF93809163068C
:101E600090916406A0916506B09166063091620675
:101E700023E0230F2D3758F50196A11DB11D2093A6
:101E800062068093630690936406A0936506B09300
:101E900066068091670690916806A0916906B091E8
:101EA0006A060196A11DB11D80936706909368068E
:101EB000A0936906B0936A06BF91AF919F918F91ED
:101EC0003F912F910F900FBE0F901F90189526E80D
:101ED000230F0296A11DB11DD2CF1F920F920FB6F4
:101EE0000F9211240BB60F922F933F934F935F9352
:101EF0006F937F938F939F93AF93BF93EF93FF93D2
:101F000048E251E064E271E090E080E00E94250A3E
:101F1000FF91EF91BF91AF919F918F917F916F91C1
:101F20005F914F913F912F910F900BBE0F900FBE7D
:101F30000F901F9018951F920F920FB60F921124B9
:101F40000BB60F922F933F934F935F936F937F93B3
:101F50008F939F93AF93BF93EF93FF9348EA50E023
:101F600064EA70E083E090E00E94250AFF91EF911F
:101F7000BF91AF919F918F917F916F915F914F91A1
:101F80003F912F910F900BBE0F900FBE0F901F909F
:101F900018951F920F920FB60F9211240BB60F9245
:101FA0002F933F934F935F936F937F938F939F9361
:101FB000AF93BF93EF93FF9348E950E064E970E07B
:101FC00082E090E00E94250AFF91EF91BF91AF91CE
:101FD0009F918F917F916F915F914F913F912F9141
:101FE0000F900BBE0F900FBE0F901F9018951F9271
:101FF0000F920FB60F9211240BB60F922F933F93AF
:102000004F935F936F937F938F939F93AF93BF9300
:10201000EF93FF9348E850E064E870E081E090E0DF
:102020000E94250AFF91EF91BF91AF919F918F91EF
:102030007F916F915F914F913F912F910F900BBEC8
:102040000F900FBE0F901F9018954F925F926F9256
:102050007F928F929F92AF92BF92CF92DF92EF9238
:10206000FF920F931F93CF93DF93CDB7DEB76497A3
:102070000FB6F894DEBF0FBECDBF85EC92E00E9494
:10208000530D0E948C0B60E081E00E94350C60E0F3
:1020900087EC97E00E94440C61ED72E087EC97E0DA
:1020A0000E94620D60E087EC97E00E94440C60EDB6
:1020B00077E080E090E00E9444080E948C0B109230
:1020C000760610927506109274061092730681E0DF
:1020D00080937206EE24EA94FE2CCC24CA94DC2C65
:1020E00080917206882309F461C10E94DE08182FCE
:1020F000882309F4F5C08091730661E08B5F0E942C
:10210000350C8FED92E0153521F0143429F482EE70
:1021100092E00E94530DE4CF87EE92E01335C9F3AD
:10212000133409F063C08BEE92E00E94530D80914E
:1021300073069091740618161906B4F58091750609
:1021400090917606181619067CF5880F991FFC01E8
:10215000E050FE4FF182E08260E287EC97E00E945F
:1021600014028091730661E08B5F0E94350C60E27F
:1021700087EC97E00E941402009175061091760694
:10218000B80184E598E00E94A90D0150110910934F
:1021900076060093750680917306909174060197F8
:1021A00090937406809373068091750690917606DD
:1021B000892B09F095CFD0920102C092000270E005
:1021C00060E084E598E00E94A90D60E287EC97E06A
:1021D0000E9414028091730661E08B5F0E94350CAF
:1021E00060E287EC97E00E9414027ACF183419F568
:1021F00081EF92E00E94530D0E948C0B60E081E021
:102200000E94350C66EF72E087EC97E00E94620D49
:1022100061E081E00E94350C67E073E087EC97E0B5
:102220000E94620D68EE73E080E090E00E94440836
:102230000E948C0B55CF153439F48FEB92E00E943D
:10224000530D109272064CCF65E173E089E996E078
:102250000E94620D812F0E948E0C809175069091D4
:10226000760608970CF047C080917306909174062B
:1022700008970CF040C0612F87EC97E00E94140291
:102280008091730661E08B5F0E94350C612F87ECB3
:1022900097E00E941402612F84E598E00E94E40D0B
:1022A00010538091750690917606FC01EE0FFF1F8A
:1022B000E050FE4F212F012E000C330B3183208381
:1022C000019690937606809375068091730690919F
:1022D000740601969093740680937306111100CFD3
:1022E00060E080E00E94350C61E373E087EC97E0EA
:1022F0000E94620DF5CE8DE193E00E94530D81E0C6
:1023000080936B060E948C0B80916B06882399F159
:1023100060E080E00E94350C6BEA72E087EC97E0A9
:102320000E94620D61E083E00E94350C69EB72E06F
:1023300087EC97E00E94620D0E94DE08853421F749
:10234000109276061092750610927406109273061B
:1023500080E092E00E94E30A0E948C0B60E080E043
:102360000E94350C61E373E087EC97E00E94620DF8
:1023700010926B06C9CF84E598E00E94550E81E467
:1023800093E00E94530D80917506909176060E940D
:10239000E90C81E593E00E94530D809173069091C2
:1023A00074060E94E90C10926B069ACE1092760683
:1023B00010927506109274061092730681E693E0EF
:1023C0000E94530D0E948C0B81E080937206F0E115
:1023D0004F2EF2E05F2E8E010F5F1F4F66246A942E
:1023E000762CAA24AA94BA2C80917206882309F428
:1023F0003FC20E94DE08F82E882309F4D3C18091E1
:10240000730661E08B5F0E94350C25E58FED92E04D
:10241000F21629F084E4F81205C082EE92E00E94E0
:10242000530DE2CFA3E587EE92E0FA16C1F3B3E4D1
:10243000FB1268C08BEE92E00E94530D80917306F0
:102440009091740618161906BCF580917506909146
:1024500076061816190684F5880F991FFC01E05FAF
:10246000FD4F7182608260E287EC97E00E94140267
:102470008091730661E08B5F0E94350C60E287EC0F
:1024800097E00E941402E0907506F0907606B7017E
:102490008EE498E00E94A90DE1E0EE1AF108F092B6
:1024A0007606E09275068091730690917406019706
:1024B00090937406809373068091750690917606CA
:1024C000892B09F091CFB0921102A092100270E016
:1024D00060E08EE498E00E94A90D8EE498E00E94EE
:1024E000550E60E287EC97E00E941402809173061B
:1024F00061E08B5F0E94350C60E287EC97E00E9400
:10250000140272CFF8E4FF1223C081EF92E00E9420
:10251000530D0E948C0B60E081E00E94350C66EF49
:1025200072E087EC97E00E94620D61E081E00E941A
:10253000350C67E073E087EC97E00E94620D68EE6F
:1025400073E080E090E00E9444080E948C0B4CCF26
:1025500025E4F212D8C08FEB92E00E94530D84E57F
:1025600098E00E949E0D6B018EE498E00E949E0D03
:10257000C616D70609F086C084E793E00E94530D83
:10258000CE010F960E94480E70E0E72E72E0F72E03
:10259000D7018D919D917D018F3F980709F440C02F
:1025A000CF84D8880E94DE214C011A8619861C86A9
:1025B0001B861E861D86C114D10439F04B895C89A7
:1025C000B601CE0109960E94270E4AE0B801C40167
:1025D0000E942322F80101900020E9F73197E01BC7
:1025E000F10B79F0CD84DE84CE0EDF1EB601CE0174
:1025F00009960E94BC0D811134C0CE0109960E943B
:10260000150E69857A8561157105B9F14D855E856F
:10261000CE010F960E94270ECE0109960E945B0EF6
:102620004E145F0409F0B4CF8F8598890E94DE2193
:102630007C0183E893E00E94530DCE010F960E9427
:102640007B0C80E993E00E94530DC7010E94E90CC6
:10265000CE010F960E945B0E0E94750C10927206BE
:10266000C3CE29853A858D859E85B801820F931F3B
:102670000E94B926DE86CD86C4CFCE010F960E9479
:10268000150ECACF0E948C0B81E080936B0680915F
:102690006B06882309F4A8CE60E080E00E94350C28
:1026A00067E973E087EC97E00E94620D61E083E0E8
:1026B0000E94350C69EB72E087EC97E00E94620D96
:1026C0000E94DE08853419F710927606109275067E
:1026D00010927406109273068EE498E00E94550ED4
:1026E00080E192E00E94E30A0E948C0B60E080E0AF
:1026F0000E94350C68EA73E087EC97E00E94620D57
:1027000010926B06C4CF65E173E089E996E00E9400
:10271000620D8F2D0E948E0C809175069091760629
:1027200008970CF04AC08091730690917406089740
:102730000CF043C06F2D87EC97E00E94140280914B
:10274000730661E08B5F0E94350C6F2D87EC97E07C
:102750000E9414026F2D8EE498E00E94E40D80ED3B
:102760008F0D2091750630917606F901EE0FFF1F4F
:10277000E05FFD4F482F082E000C550B518340831E
:102780002F5F3F4F30937606209375062091730696
:10279000309174062F5F3F4F309374062093730679
:1027A000811122CE60E080E00E94350C68EA73E07F
:1027B00087EC97E00E94620D17CE88EB93E00E94B1
:1027C000530D81E080936B060E948C0B80916B0609
:1027D000882399F160E080E00E94350C6BEA72E09A
:1027E00087EC97E00E94620D61E083E00E94350C67
:1027F00069EB72E087EC97E00E94620D0E94DE08B0
:10280000853421F7109276061092750610927406A0
:102810001092730680E192E00E94E30A0E948C0B02
:1028200060E080E00E94350C68EA73E087EC97E096
:102830000E94620D10926B06C9CF8EE498E00E9450
:10284000550E81E493E00E94530D8091750690919E
:1028500076060E94E90C81E593E00E94530D809179
:102860007306909174060E94E90C10926B06BCCD21
:1028700010927606109275061092740610927306E6
:102880008FEC93E00E94530D0E948C0B81E08093AB
:102890007206EE24EA94FE2CCC24CA94DC2C80919F
:1028A0007206882309F4E7C10E94DE08182F8823E6
:1028B00009F42EC18091730661E08B5F0E94350C94
:1028C0008FED92E0153521F0143429F482EE92E078
:1028D0000E94530DE4CF87EE92E01335C9F3133411
:1028E00009F057C08BEE92E00E94530D8091730661
:1028F000909174061816190684F5809175069091CA
:102900007606181619064CF5880F991FFC01E05B36
:10291000FD4FF182E08260E287EC97E00E941402B2
:102920008091730661E08B5F0E94350C60E287EC5A
:1029300097E00E94140280917506909176060197A7
:102940009093760680937506809173069091740635
:102950000197909374068093730680917506909109
:102960007606892B09F09BCFD0925102C09250027B
:1029700060E287EC97E00E9414028091730661E0A8
:102980008B5F0E94350C60E287EC97E00E94140296
:1029900086CF81EF92E0183409F49ACF153409F00C
:1029A00004C18FEB92E00E94530D809150029091F0
:1029B0005102892B09F065C0809152029091530217
:1029C000019709F05EC08091540290915502892BC5
:1029D00009F057C08091560290915702069709F06E
:1029E00050C08091580290915902019609F049C057
:1029F00080915A0290915B02019609F042C0809149
:102A00005C0290915D020196E1F580915E029091E9
:102A10005F020196B1F50E948C0B60E083E00E949A
:102A2000350C67EE73E087EC97E00E94620D61E081
:102A300084E00E94350C65E575E087EC97E00E9424
:102A4000620D61E08EE30E94E20368EE73E080E0D5
:102A500090E00E9444080E948C0B60E08EE30E948C
:102A6000E20310926E0610926D061092720680912B
:102A70005C0690915D06019690935D0680935C06DE
:102A80000ECF80916D0690916E06843091050CF00A
:102A90004AC0019690936E0680936D060E948C0B3F
:102AA00060E080E00E94350C62EF73E087EC97E015
:102AB0000E94620D60916D0670916E0687EC97E042
:102AC0000E941D0D61E080E00E94350C6CEF73E008
:102AD00087EC97E00E94620D61E08FE30E94E203C1
:102AE0006CED75E080E090E00E94440860E08FE3C8
:102AF0000E94E203109276061092750610927406F8
:102B00001092730680E592E00E94E30A0E948C0B0B
:102B100060E080E00E94350C69ED73E087EC97E09F
:102B20000E94620DBCCE0E948C0B81E080936B06EC
:102B300061E08FE30E94E20380916B06882309F431
:102B4000AECE60E080E00E94350C6DE074E087EC72
:102B500097E00E94620D61E080E00E94350C6FE119
:102B600074E087EC97E00E94620D0E94DE088534D5
:102B700019F710927606109275061092740610924C
:102B8000730680E592E00E94E30A0E948C0B60E0ED
:102B900080E00E94350C69ED73E087EC97E00E94BD
:102BA000620D10926B0660E0C4CF65E173E089E9C5
:102BB00096E00E94620D812F0E948E0C8091750616
:102BC000909176060897BCF58091730690917406F3
:102BD00008978CF5612F87EC97E00E941402809192
:102BE000730661E08B5F0E94350C612F87EC97E0E4
:102BF0000E94140210538091750690917606FC0194
:102C0000EE0FFF1FE05BFD4F212F012E000C330B59
:102C10003183208301969093760680937506809188
:102C200073069091740601969093740680937306D0
:102C3000111135CE6DCF88EB93E00E94530D81E0EA
:102C400080936B060E94640D81E493E00E94530D13
:102C500080917506909176060E94E90C81E593E0DB
:102C60000E94530D80917306909174060E94E90CA6
:102C700010926B0614CE80E394E00E94530D84E51D
:102C800098E00E949E0D4B0100916F061091700616
:102C9000E0905C06F0905D0688E090E00E94AA2437
:102CA000FC01F182E0829382828217821682158271
:102CB0001482D8012D913C91119714968D919C917D
:102CC0001597232B09F06BC01396FC93EE93129784
:102CD0001196FC93EE93019615969C938E93149700
:102CE0000E948C0B60E082E00E94350C61E474E08D
:102CF00087EC97E00E94620D60915C0670915D0622
:102D000087EC97E00E941D0D61E080E00E94350C89
:102D100065E474E087EC97E00E94620DB40187ECF3
:102D200097E00E941D0D61E080E40E94E2036CEDDB
:102D300075E080E090E00E94440860E080E40E943A
:102D4000E2038CE494E00E94530D0E94750C80E62F
:102D500094E00E94530D80915C0690915D060E9464
:102D6000E90C8CE694E00E94530DC4010E94E90C2A
:102D700064960FB6F894DEBF0FBECDBFDF91CF9142
:102D80001F910F91FF90EF90DF90CF90BF90AF9089
:102D90009F908F907F906F905F904F9008951296C4
:102DA0002D913C91D9011596FC93EE93149737839E
:102DB0002683D8011396FC93EE9312978CCF109232
:102DC0009C0610929B0688EE93E0A0E0B0E0809312
:102DD0009D0690939E06A0939F06B093A00684E85C
:102DE00092E090939A068093990685EC90E09093F8
:102DF000A6068093A50684EC90E09093A8068093A5
:102E0000A70680EC90E09093AA068093A90681EC37
:102E100090E09093AC068093AB0682EC90E09093A8
:102E2000AE068093AD0686EC90E09093B00680935A
:102E3000AF061092B2061092B3061092B40610922A
:102E4000B50610927A0810927908109270081092C4
:102E50006F081092850810928608109287081092C9
:102E600088088CE090E090937608809375088CE158
:102E700090E090937C0880937B088DE190E09093A4
:102E80007E0880937D088EE190E090938008809387
:102E90007F088FE190E0909382088093810861E041
:102EA0008CE10E946B0561E080917D080E946B05BA
:102EB00061E080917F080E946B0561E0809181084C
:102EC0000E946B05109284081092830884E090E0C1
:102ED00090937808809377088091C607803308F034
:102EE0009CC091E0980F9093C60780936C0890E087
:102EF000FC01EE0FFF1FE80FF91FEA5CF84F88EBAB
:102F00009BE09283818386E698E00E94480E80E6EB
:102F100098E00E94480E8AE598E00E94480E84E5F9
:102F200098E00E94480E8EE498E00E94480E1092AD
:102F3000E1071092E5071092E4071092E60782EA93
:102F400092E09093E0078093DF07EBEFF7E01082C9
:102F5000148213821582369688E0E733F807B9F7B2
:102F600086E692E0909342088093410882E692E0E0
:102F7000909344088093430884E0809345088093AD
:102F800046088AE692E09093400880933F088AE0E2
:102F900090E0909348088093470884EF91E09093E5
:102FA0004A088093490810924D0810924C081092DC
:102FB0003B0810923C0810923D0810923E08109277
:102FC0004B081092CA071092C90786E992E09093C5
:102FD000C8078093C7078BE18093CB078FEF80935F
:102FE000CC078AE18093CD0789E18093CE0788E101
:102FF0008093CF0787E18093D00786E18093D10744
:103000001092D2071092D3071092D4071092D507CE
:103010001092D60781E00C94940B8FEF80936C088C
:1030200072CFCF93DF9300D01F92CDB7DEB77894E5
:1030300084B5826084BD84B5816084BD85B58260BD
:1030400085BD85B5816085BD80916E00816080936E
:103050006E001092810080918100826080938100D7
:1030600080918100816080938100809180008160E7
:10307000809380008091B10084608093B100809142
:10308000B00081608093B000809191008260809355
:1030900091008091910081608093910080919000D7
:1030A0008160809390008091A10082608093A10054
:1030B0008091A10081608093A1008091A000816037
:1030C0008093A000809121018260809321018091F2
:1030D0002101816080932101809120018160809392
:1030E000200180917A00846080937A0080917A0038
:1030F000826080937A0080917A00816080937A0068
:1031000080917A00806880937A001092C100E091EB
:10311000A906F091AA0682E08083E091A506F091CD
:10312000A6061082E091A706F091A8068FEC808396
:103130001092B106E091AD06F091AE0686E0808374
:10314000E091AB06F091AC06808180618083E091D4
:10315000AB06F091AC06808188608083E091AB067D
:10316000F091AC06808180688083E091AB06F0919D
:10317000AC0680818F7D808368E372E080E00E94EE
:103180004A0C60E372E081E00E944A0C68E272E05F
:1031900082E00E944A0C60E272E083E00E944A0CE6
:1031A00088E090E00E94AA24FC011382128211821E
:1031B00010821582148281E090E097838683F093D9
:1031C0007006E0936F0682E00E94940B61E088E352
:1031D0000E946B0561E089E30E946B0561E08AE370
:1031E0000E946B0561E08BE30E946B0561E08EE35A
:1031F0000E946B0561E08FE30E946B0561E080E453
:103200000E946B0561E08DE20E946B0560E08AE040
:103210000E946B0560E089E00E946B0580916C085C
:10322000803308F054C061E08DE00E946B0580910E
:103230006C08282F30E0F901EE0FFF1FE20FF31F9B
:10324000EA5CF84F9081907C9D60908395E7909325
:103250006D0894E690936E082CE0622F0E946E2415
:10326000829FB001112430E020E0AB01420F531FD8
:10327000FA01EE0FFF1FE40FF51FEA5CF84F908193
:1032800096FD17C02F5F3F4F2C30310571F781300D
:1032900009F0B4C01092800082E080938100109207
:1032A000850010928400B19A80916F0082608093B3
:1032B0006F00E0916C088E2F90E0FC01EE0FFF1F75
:1032C000E80FF91FEA5CF84F80818064808390E00A
:1032D00080E00E948C012091750830917608032EC1
:1032E000000C440B550B60E077E883E993E00E9403
:1032F0002C23CA01B90122EC31E040E050E00E94E9
:103300002C232093710830937208409373085093D4
:10331000740881E090E09093780680937706E2E06D
:103320004E2E512C22242394312C66246A94762C20
:1033300080917706909178068130910509F411C645
:103340008230910509F434C6892B09F02EC60E94FB
:103350008C0B60E081E00E94350C60E087EC97E028
:103360000E94440C63E774E087EC97E00E94620DD2
:1033700060E087EC97E00E94440C60ED77E080E02D
:1033800090E00E94440880916002882309F40DC6F1
:103390000E948C0B80E894E00E94530D10927606F8
:1033A00010927506109274061092730686E698E0E5
:1033B0000E94550E80E698E00E94550E809172069C
:1033C000882309F4D1C1809171068111CDC10E9479
:1033D000DE08182F882309F461C18091730661E02B
:1033E0008B5F0E94350C8FED92E0153521F014347F
:1033F00089F582EE92E00E94530DE0CF823061F4B5
:103400001092900080939100109295001092940079
:1034100088BB809371004DCF833069F41092A00077
:1034200082E08093A1001092A5001092A40089BBB5
:10343000809372003ECF81113CCF1092200182E038
:103440008093210110922501109224018ABB809360
:1034500073002FCF87EE92E0133569F2133409F031
:103460006AC08BEE92E00E94530D8091730690919A
:10347000740618161906BCF58091750690917606AB
:103480001816190684F5880F991FFC01E05CFD4FA2
:103490007182608260E287EC97E00E941402809162
:1034A000730661E08B5F0E94350C60E287EC97E069
:1034B0000E941402E0907506F0907606B70186E649
:1034C00098E00E94A90D21E0E21AF108F092760638
:1034D000E09275068091730690917406019790931F
:1034E0007406809373068091750690917606892BF9
:1034F00009F064CF8FEF9FEF9093410280934002D9
:1035000070E060E086E698E00E94A90D86E698E00B
:103510000E94550E60E287EC97E00E9414028091B1
:10352000730661E08B5F0E94350C60E287EC97E0E8
:103530000E94140243CF183419F581EF92E00E94E3
:10354000530D0E948C0B60E081E00E94350C61E914
:1035500074E087EC97E00E94620D61E081E00E94D8
:10356000350C6FE974E087EC97E00E94620D68EE1D
:1035700073E080E090E00E9444080E948C0B1ECF14
:103580001534E9F58FEB92E00E94530D80914002D3
:1035900090914102892B81F58091420290914302E2
:1035A000892B51F58091440290914502892B21F598
:1035B0008091460290914702892BF1F48091480254
:1035C000909149020196C1F480914A0290914B0278
:1035D000019691F480914C0290914D02019661F414
:1035E00080914E0290914F02019631F481E08093D8
:1035F00071060E942510E2CE10927206DFCE65E1C0
:1036000073E089E996E00E94620D812F0E948E0C82
:10361000809175069091760608970CF04AC08091CB
:1036200073069091740608970CF043C0612F87ECE5
:1036300097E00E9414028091730661E08B5F0E9404
:10364000350C612F87EC97E00E941402612F86E60B
:1036500098E00E94E40D80ED810F20917506309175
:103660007606F901EE0FFF1FE05CFD4F482F082E94
:10367000000C550B518340832F5F3F4F30937606EC
:103680002093750620917306309174062F5F3F4F8B
:103690003093740620937306811190CE60E080E031
:1036A0000E94350C6BEB74E087EC97E00E94620D92
:1036B00085CE8DE193E00E94530D81E080936B06EF
:1036C0000E948C0B80916B06882399F160E080E06A
:1036D0000E94350C6FEA74E087EC97E00E94620D5F
:1036E00061E083E00E94350C69EB72E087EC97E0C3
:1036F0000E94620D0E94DE08853421F71092760642
:1037000010927506109274061092730680E492E08F
:103710000E94E30A0E948C0B60E080E00E94350C5E
:103720006BEB74E087EC97E00E94620D10926B06E1
:10373000C9CF86E698E00E94550E81E493E00E948E
:10374000530D80917506909176060E94E90C81E5F3
:1037500093E00E94530D80917306909174060E942D
:10376000E90C10926B062ACE86EC94E00E94530D71
:1037700086E698E00E947B0C0E94750C0E948C0BE0
:1037800089ED94E00E94530D109276061092750612
:10379000109274061092730681E0809372068091F5
:1037A000710690917206992309F4A3C181111DC27B
:1037B0000E94DE08182F882309F435C18091730612
:1037C00061E08B5F0E94350C8FED92E0153521F0A2
:1037D000143429F482EE92E00E94530DE0CF87EE7C
:1037E00092E01335C9F3133409F06AC08BEE92E00E
:1037F0000E94530D80917306909174061816190655
:10380000BCF580917506909176061816190684F518
:10381000880F991FFC01E05BFD4F7182608260E2BE
:1038200087EC97E00E9414028091730661E08B5F41
:103830000E94350C60E287EC97E00E941402E09051
:103840007506F0907606B70180E698E00E94A90D13
:1038500081E0E81AF108F0927606E0927506809110
:103860007306909174060197909374068093730683
:103870008091750690917606892B09F090CF2FEFF5
:103880003FEF309351022093500270E060E080E6F9
:1038900098E00E94A90D80E698E00E94550E60E233
:1038A00087EC97E00E9414028091730661E08B5FC1
:1038B0000E94350C60E287EC97E00E9414026FCF03
:1038C000183419F581EF92E00E94530D0E948C0B81
:1038D00060E081E00E94350C61E974E087EC97E0DC
:1038E0000E94620D61E081E00E94350C6FE974E096
:1038F00087EC97E00E94620D68EE73E080E090E054
:103900000E9444080E948C0B4ACF1534E9F58FEBD6
:1039100092E00E94530D8091500290915102892BA8
:1039200081F58091520290915302892B51F580913B
:10393000540290915502892B21F580915602909165
:103940005702892BF1F48091580290915902019607
:10395000C1F480915A0290915B02019691F480919A
:103960005C0290915D02019661F480915E029091FB
:103970005F02019631F481E0809371060E94251068
:103980000ECF109272060BCF65E173E089E996E0E5
:103990000E94620D812F0E948E0C8091750690917D
:1039A000760608970CF04AC08091730690917406D1
:1039B00008970CF043C0612F87EC97E00E94140237
:1039C0008091730661E08B5F0E94350C612F87EC5C
:1039D00097E00E941402612F80E698E00E94E40DB7
:1039E00080ED810F2091750630917606F901EE0F7A
:1039F000FF1FE05BFD4F482F082E000C550B518335
:103A000040832F5F3F4F30937606209375062091B9
:103A10007306309174062F5F3F4F309374062093E6
:103A200073068111BCCE60E080E00E94350C61E33A
:103A300073E087EC97E00E94620DB1CE8DE193E0D8
:103A40000E94530D81E080936B060E948C0B809145
:103A50006B06882399F160E080E00E94350C6BEAE8
:103A600072E087EC97E00E94620D61E083E00E94C3
:103A7000350C69EB72E087EC97E00E94620D0E94C2
:103A8000DE08853421F710927606109275061092A2
:103A900074061092730680E592E00E94E30A0E9489
:103AA0008C0B60E080E00E94350C61E373E087ECF2
:103AB00097E00E94620D10926B06C9CF80E698E0F5
:103AC0000E94550E81E493E00E94530D809175068B
:103AD000909176060E94E90C81E593E00E94530DD7
:103AE00080917306909174060E94E90C10926B0607
:103AF00056CE81117AC088EE94E00E94530D80E684
:103B000098E00E947B0C0E94750C86E698E00E946B
:103B10009E0D4B018B0180E698E00E949E0D6B018B
:103B20007C836B8389EF94E00E94530DC4010E9453
:103B3000E90C84E095E00E94530DC6010E94E90C57
:103B4000E0916F06F09170060190F081E02D3097C2
:103B500089F0808191810817190741F4828193814E
:103B60002B813C812817390709F4D1C30480F581E2
:103B7000E02DEDCF82E195E00E94530D80916D061E
:103B800090916E06019690936E0680936D06049751
:103B900094F50E948C0B60E080E00E94350C64E29A
:103BA00075E087EC97E00E94620D60916D06709160
:103BB0006E0687EC97E00E941D0D61E080E00E9498
:103BC000350C61E375E087EC97E00E94620D61E0DF
:103BD0008FE30E94E2036CED75E080E090E00E94CC
:103BE000440860E08FE30E94E2031092710681E0D6
:103BF00080937206C8CB81E080936C0661E08DE211
:103C00000E94E20361E08FE30E94E20360ED77E04F
:103C100080E090E00E94440860E08DE20E94E203B0
:103C20001092760610927506109274061092730622
:103C30000E948C0B80916C06882309F48DC10E9430
:103C4000DE08182F882309F45CC18091730661E0B7
:103C50008B5F0E94350C8FED92E0153521F0143406
:103C600029F482EE92E00E94530DE4CF87EE92E0B9
:103C70001335C9F3133409F059C08BEE92E00E945A
:103C8000530D80917306909174061816190684F5E9
:103C90008091750690917606181619064CF5880FD6
:103CA000991FFC01E05BFD4F7182608260E287EC4E
:103CB00097E00E9414028091730661E08B5F0E947E
:103CC000350C60E287EC97E00E9414028091750643
:103CD0009091760601979093760680937506809171
:103CE00073069091740601979093740680937306FF
:103CF0008091750690917606892B09F09BCF8FEF06
:103D00009FEF909351028093500260E287EC97E01E
:103D10000E9414028091730661E08B5F0E94350C53
:103D200060E287EC97E00E94140284CF81EF92E07A
:103D3000183409F498CF153409F099C08FEB92E04C
:103D40000E94530D8091500290915102892B09F0ED
:103D50005BC08091520290915302019709F054C0C8
:103D60008091540290915502892B09F04DC08091A9
:103D7000560290915702069709F046C0809158026A
:103D800090915902019609F03FC080915A0290919A
:103D90005B020196C9F580915C0290915D020196EB
:103DA00099F580915E0290915F02019669F50E94FB
:103DB0008C0B60E083E00E94350C67EE73E087ECCB
:103DC00097E00E94620D61E084E00E94350C65E599
:103DD00075E087EC97E00E94620D61E08EE30E943F
:103DE000E20364EC79E080E090E00E9444080E94E5
:103DF0008C0B60E08EE30E94E20310926E0610923C
:103E00006D0610926C0616CF0E948C0B60E082E06B
:103E10000E94350C62E475E087EC97E00E94620D29
:103E200061E080E00E94350C6FE475E087EC97E07C
:103E30000E94620D61E08DE20E94E2036CED75E08C
:103E400080E090E00E94440860E08DE20E94E2037E
:103E50000E948C0B109276061092750610927406D2
:103E60001092730680E592E00E94E30AE3CE65E1DA
:103E700073E089E996E00E94620D812F0E948E0C0A
:103E8000809175069091760608970CF045C0809158
:103E900073069091740608970CF03EC0612F87EC72
:103EA00097E00E9414028091730661E08B5F0E948C
:103EB000350C612F87EC97E00E94140280ED810F92
:103EC0002091750630917606F901EE0FFF1FE05B39
:103ED000FD4F482F082E000C550B518340832F5F58
:103EE0003F4F3093760620937506209173063091EC
:103EF00074062F5F3F4F3093740620937306811131
:103F000099CE60E081E00E94350C69ED73E087ECAA
:103F100097E00E94620D8ECE88EB93E00E94530DD5
:103F200081E080936B060E94640D81E493E00E941F
:103F3000530D80917506909176060E94E90C81E5FB
:103F400093E00E94530D80917306909174060E9435
:103F5000E90C10926B066ECE10926E0610926D06F2
:103F600040CE0E948C0B60E081E00E94350C6DE534
:103F700075E087EC97E00E94620D62E081E00E94AC
:103F8000350C40916A0850916B08609166087091F9
:103F9000670887EC97E00E941B028BE695E00E9481
:103FA000530D50927806409277060E941E03C0C9B6
:103FB00089E996E00E94790218161906B4F789E992
:103FC00096E00E9457028134910509F074C08AE09E
:103FD0000E94B603019709F051C00E948C0B60E06B
:103FE00080E00E94350C62E875E087EC97E00E9463
:103FF000620D61E080E00E94350C61E975E087ECBC
:1040000097E00E94620D88EE93E00E94A70568EE9B
:1040100073E080E090E00E9444088DE20E94260553
:104020008AE00E94B603019729F480E09FEF0E9486
:104030009F07F6CF0E948C0B60E080E00E94350C59
:104040006BE975E087EC97E00E94620D61E080E02B
:104050000E94350C6CEA75E087EC97E00E94620DD7
:104060008CED95E00E94A70564EF71E080E090E0A0
:104070000E9444088DE20E94260593CF0E948C0B7B
:1040800060E080E00E94350C64EB75E087EC97E01F
:104090000E94620D61E080E00E94350C62EC75E0E8
:1040A00087EC97E00E94620D60ED77E080E090E0A1
:1040B0000E94440876CF8234910509F05FC089E000
:1040C0000E94B603019709F046C00E948C0B60E085
:1040D00080E00E94350C62E875E087EC97E00E9472
:1040E000620D61E080E00E94350C62ED75E087ECC6
:1040F00097E00E94620D88EB9BE00E94A70564EFA9
:1041000071E080E090E00E9444088DE20E94260564
:1041100089E00E94B603019729F480E091E00E94B3
:104120009F07F6CF0E948C0B60E080E00E94350C68
:104130006BE975E087EC97E00E94620D61E080E03A
:104140000E94350C6BED75E087EC97E00E94620DE4
:1041500084EC99E087CF0E948C0B60E080E00E94A5
:10416000350C63EE75E087EC97E00E94620D61E02C
:1041700080E00E94350C62EF75E092CF83349105A8
:1041800009F013CF0E948C0B60E080E00E94350C98
:1041900062E087EC97E00E94440C62E076E087ECF6
:1041A00097E00E94620D61E082E00E94350C61E0C0
:1041B00087EC97E00E94440C63E087EC97E00E9454
:1041C000440C62E176E087EC97E00E94620D63E0C8
:1041D00087EC97E00E94440C84EB90E00E948C01F5
:1041E00068E873E180E090E00E94440889E996E085
:1041F0000E9479021816190634F489E996E00E94A3
:1042000057029A8389830E9476080E947A226B0162
:104210007C018BE196E00E94530D60E070E0CB01E1
:1042200029813A812434310521F120E030E040EC4D
:1042300050E40E94752287FF1CC089E996E00E9425
:1042400079021816190634F489E996E00E9457029B
:104250009A8389830E9476080E947A22A701960198
:104260000E948F2320E030E04AE754E40E94FC23C0
:10427000D7CF61E08EE30E94E2030E948C0B60E0E6
:1042800080E00E94350C62E087EC97E00E94440CCD
:1042900062E076E087EC97E00E94620D61E082E0E8
:1042A0000E94350C60E087EC97E00E94440C63E0CC
:1042B00087EC97E00E94440C64E276E087EC97E09C
:1042C0000E94620D63E087EC97E00E94440C90E04E
:1042D00080E00E948C0180ED97E00E94A70568EEC7
:1042E00073E080E090E00E9444088DE20E94260581
:1042F00068E873E180E090E00E94440860E08EE3AB
:104300000E94E20330927806209277064ECE0E94F9
:104310008C0B60E080E00E94350C6DE276E087EC6B
:1043200097E00E94620D61E080E00E94350C6DE331
:1043300076E087EC97E00E94620D61E08DE20E94DA
:10434000E20361E08EE30E94E20361E088E30E9401
:10435000E20361E089E30E94E20361E08AE30E94F4
:10436000E20361E08BE30E94E20360ED77E080E02E
:1043700090E00E94440860E08DE20E94E2038DE438
:1043800096E00E94530D30927806209277061092A4
:1043900060022BCC8EE498E00E945B0E84E598E0EE
:1043A0000E945B0E8AE598E00E945B0E80E698E032
:1043B0000E945B0E86E698E00C945B0EFC01882759
:1043C0009927E89421912032E9F3293010F02E301A
:1043D000C8F32B3241F02D3239F4689404C00E94A6
:1043E0004322820F911D219120532A30C0F31EF4E5
:1043F000909581959F4F08951F93FC0199278827D9
:10440000BC01E89411911032E9F3193010F01E301C
:10441000C8F31B3251F01D3249F4689406C00E9463
:104420002E22610F711D811D911D119110531A30A3
:10443000B0F33EF490958095709561957F4F8F4FC6
:104440009F4F1F910895BB274A3031F4992322F4DE
:10445000BDE2909581959F4F0C944C22592F482F87
:10446000372F262F660F771F881F991F660F771F1C
:10447000881F991F620F731F841F951F660F771F78
:10448000881F991F08957AE0979F902D879F802D10
:10449000910D11240895BB27FB015527AA27880FEA
:1044A000991FAA1FA41710F0A41B83955051B9F7A8
:1044B000A05DAA3308F0A95DA193009779F7B11127
:1044C000B1931192CB010C946522DC01FC01672FA2
:1044D00071917723E1F7329704C07C916D937083DB
:1044E0006291AE17BF07C8F308950E94B72208F47F
:1044F00081E00895E89409C097FB3EF4909580957B
:10450000709561957F4F8F4F9F4F9923A9F0F92F99
:1045100096E9BB279395F695879577956795B79517
:10452000F111F8CFFAF4BB0F11F460FF1BC06F5FFD
:104530007F4F8F4F9F4F16C0882311F096E911C00F
:10454000772321F09EE8872F762F05C0662371F030
:1045500096E8862F70E060E02AF09A95660F771F44
:10456000881FDAF7880F9695879597F90895990F20
:104570000008550FAA0BE0E8FEEF16161706E8072D
:10458000F907C0F012161306E407F50798F0621B4E
:10459000730B840B950B39F40A2661F0232B242B23
:1045A000252B21F408950A2609F4A140A6958FEF42
:1045B000811D811D089597F99F6780E870E060E094
:1045C00008959FEF80EC089500240A9416161706AC
:1045D00018060906089500240A94121613061406F4
:1045E00005060895092E0394000C11F4882352F057
:1045F000BB0F40F4BF2B11F460FF04C06F5F7F4F0F
:104600008F4F9F4F089557FD9058440F551F59F0F5
:104610005F3F71F04795880F97FB991F61F09F3FAF
:1046200079F087950895121613061406551FF2CFD8
:104630004695F1DF08C0161617061806991FF1CF28
:1046400086957105610508940895E894BB2766274F
:104650007727CB0197F90895052E97FB1EF4009458
:104660000E94432357FD07D00E945E2307FC03D01E
:104670004EF40C94432350954095309521953F4F2F
:104680004F4F5F4F089590958095709561957F4F3E
:104690008F4F9F4F08950E948023A59F900DB49F38
:1046A000900DA49F800D911D11240895B7FF0C94C7
:1046B0004B230E944B23821B930B0895A1E21A2ED9
:1046C000AA1BBB1BFD010DC0AA1FBB1FEE1FFF1FB6
:1046D000A217B307E407F50720F0A21BB30BE40B06
:1046E000F50B661F771F881F991F1A9469F760954D
:1046F0007095809590959B01AC01BD01CF01089507
:10470000A29FB001B39FC001A39F700D811D112412
:10471000911DB29F700D811D1124911D0895505857
:10472000BB27AA270E94A7230C94F2220E94E4220E
:1047300038F00E94EB2220F039F49F3F19F426F460
:104740000C94E1220EF4E095E7FB0C94DB22E92FB8
:104750000E94032358F3BA1762077307840795076B
:1047600020F079F4A6F50C9425230EF4E0950B2E99
:10477000BA2FA02D0B01B90190010C01CA01A001B3
:104780001124FF27591B99F0593F50F4503E68F10E
:104790001A16F040A22F232F342F4427585FF3CF4F
:1047A000469537952795A795F0405395C9F77EF420
:1047B0001F16BA0B620B730B840BBAF09150A1F069
:1047C000FF0FBB1F661F771F881FC2F70EC0BA0FEF
:1047D000621F731F841F48F4879577956795B79577
:1047E000F7959E3F08F0B0CF9395880F08F0992772
:1047F000EE0F9795879508950E9410240C94F2224D
:104800000E94EB2258F00E94E42240F029F45F3F1E
:1048100029F00C94DB2251110C9426230C94E122F4
:104820000E94032368F39923B1F3552391F3951B59
:10483000550BBB27AA2762177307840738F09F5FC1
:104840005F4F220F331F441FAA1FA9F335D00E2E2E
:104850003AF0E0E832D091505040E695001CCAF79B
:104860002BD0FE2F29D0660F771F881FBB1F26175E
:1048700037074807AB07B0E809F0BB0B802DBF0135
:10488000FF2793585F4F3AF09E3F510578F00C9404
:10489000DB220C9426235F3FE4F3983ED4F3869505
:1048A00077956795B795F7959F5FC9F7880F911D25
:1048B0009695879597F90895E1E0660F771F881F11
:1048C000BB1F621773078407BA0720F0621B730BC4
:1048D000840BBA0BEE1F88F7E0950895991B79E0D9
:1048E00004C0991F961708F0961B881F7A95C9F780
:1048F0008095089597FB072E16F4009407D077FD56
:1049000009D00E94962407FC05D03EF4909581952D
:104910009F4F0895709561957F4F0895EE0FFF1F8B
:10492000881F8BBF0790F691E02D1994AA1BBB1B23
:1049300051E107C0AA1FBB1FA617B70710F0A61B9F
:10494000B70B881F991F5A95A9F780959095BC01C0
:10495000CD0108950F931F93CF93DF93823091057C
:1049600010F482E090E0E0918B08F0918C0830E048
:1049700020E0B0E0A0E0309799F42115310509F46A
:104980004AC0281B390B24303105D8F58A819B8118
:104990006115710589F1FB0193838283FE0111C0CA
:1049A000408151810281138148175907E0F048176F
:1049B000590799F4109761F012960C931297139679
:1049C0001C933296CF01DF91CF911F910F910895E3
:1049D00000938B0810938C08F4CF2115310551F00A
:1049E0004217530738F0A901DB019A01BD01DF012D
:1049F000F801C1CFEF01F9CF90938C0880938B0819
:104A0000CDCFFE01E20FF31F819391932250310924
:104A100039832883D7CF2091890830918A08232BA6
:104A200041F420917C0230917D0230938A082093DA
:104A3000890820917A0230917B022115310541F4D9
:104A40002DB73EB740917E0250917F02241B350B5B
:104A5000E0918908F0918A08E217F307A0F42E1B71
:104A60003F0B2817390778F0AC014E5F5F4F2417D2
:104A7000350748F04E0F5F1F50938A08409389080E
:104A8000819391939FCFF0E0E0E09CCFCF93DF93B1
:104A90000097E9F0FC01329713821282A0918B08F3
:104AA000B0918C08ED0130E020E01097A1F4208156
:104AB0003181820F931F2091890830918A0828172D
:104AC000390709F061C0F0938A08E0938908DF9103
:104AD000CF910895EA01CE17DF07E8F54A815B819F
:104AE0009E0141155105B1F7E901FB83EA83499124
:104AF0005991C40FD51FEC17FD0761F48081918196
:104B00000296840F951FE90199838883828193819E
:104B10009B838A83F0E0E0E012968D919C9113973D
:104B20000097B9F52D913C911197CD010296820F16
:104B3000931F2091890830918A082817390739F680
:104B4000309751F510928C0810928B08B0938A0818
:104B5000A0938908BCCFD383C28340815181840F45
:104B6000951FC817D90761F44E5F5F4F88819981FF
:104B7000480F591F518340838A819B81938382838D
:104B80002115310509F0B0CFF0938C08E0938B0824
:104B90009ECFFD01DC01C0CF13821282D7CF4F928E
:104BA0005F926F927F928F929F92AF92BF92CF92BD
:104BB000DF92EF92FF920F931F93CF93DF938C01BD
:104BC000009799F4CB01DF91CF911F910F91FF9046
:104BD000EF90DF90CF90BF90AF909F908F907F909D
:104BE0006F905F904F900C94AA24FC01E60FF71F82
:104BF0009C0122503109E217F30708F4AEC0D90135
:104C0000CD91DC911197C617D70720F1C530D1059A
:104C100078F0CE0104978617970750F0C61BD70B84
:104C20002297C193D1936D937C93CF010E94462527
:104C3000C801DF91CF911F910F91FF90EF90DF900E
:104C4000CF90BF90AF909F908F907F906F905F902C
:104C50004F9008955B01AC1ABD0A4C018C0E9D1E4D
:104C6000A0918B08B0918C08512C412CF12CE12C97
:104C7000109731F58091890890918A0888159905D7
:104C800009F05CC04616570608F058C080917A02B9
:104C900090917B02009741F48DB79EB740917E02C0
:104CA00050917F02841B950BE817F90708F055C057
:104CB000F0938A08E0938908F90171836083B8CF83
:104CC0008D919C91119712966C90129713967C90EF
:104CD0001397A815B90559F56C0142E0C40ED11C13
:104CE000CA14DB0420F1AC014A195B09DA011296FF
:104CF000159780F06282738251834083D9016D934E
:104D00007C93E114F10471F0D7011396FC93EE93B8
:104D100012978ECF22968C0F9D1FF901918380836D
:104D2000F301EFCFF0938C08E0938B0881CF481606
:104D3000590608F42C017D01D3019ACFCB010E94C2
:104D4000AA247C01009749F0AE01B8010E94B02668
:104D5000C8010E94462587016BCF10E000E068CFB4
:104D6000FB01DC0102C001900D9241505040D8F788
:104D70000895FB01DC0101900D920020E1F70895F8
:104D800011E0C8E5D1E000E006C0802FFE010E94DE
:104D90008E242196011DC935D10780E00807A9F7A7
:044DA000F894FFCFB5
:104DA400FFFFFFFFFFFFFFFFFFFFFFFFFFFFFFFF0F
:104DB400FFFFFFFFFFFFFFFFFFFFFFFFFFFFFFFFFF
:104DC400000A0A0A00110E00000103161C08000064
:104DD4000E01011F1B1B1F000E11111F1B1B1F00A7
:104DE400FFFFFFFFFFFFFFFFFFFFFFFFFFFFFFFFCF
:104DF400FFFFFFFFFFFFFFFFFFFFFFFFFFFFFFFFBF
:104E040001FF31302F2E35343332313233553435BE
:104E14003644373839534330484500008D08800004
:104E240000000000B1021B024802FE027902570290
:104E34006B0200000000440C1B02E00ADF0A0000C1
:104E4400000076072205DF030D0A0050415353206A
:104E5400544F4F204C4F4E4700505245535320451A
:104E64004E5445520052454749535452414E444FC3
:104E7400002052454749535452414E444F20005557
:104E84005000444F574E00324E4400434C4541526B
:104E94000048454C5000434C415645204D454E4F2B
:104EA40052204445203800454E5445522041434544
:104EB40050544152005465636C613A20004552528B
:104EC4004F52204944204D5559204752414E4445A4
:104ED4000044494749544520535520434C415645C5
:104EE40000696E646963652061637475616C3A205E
:104EF40000637572736F722061637475616C3A201C
:104F0400005245494E53455254414E444F20434C60
:104F1400415645005041535320434F494E43494461
:104F2400454E006461746F7320766563746F72001C
:104F34006E756D65726F0050415353204E4F204380
:104F44004F494E43494445005245494E4752455303
:104F54004520434C415645004552524F5220434C44
:104F6400415645204D5559204752414E4445004530
:104F740053504552414E444F20434C4156452047DF
:104F84004552454E5445004249454E56454E4944C6
:104F94004F004552524F522020202000434C41568E
:104FA4004520494E434F52524543544F00534953B1
:104FB40054454D4120424C4F51554541444F0041C9
:104FC4005649534520414C20474552454E544500CF
:104FD400435245414E444F20454D504C4541444F6A
:104FE400004944200020504153532000435245417E
:104FF400444F20455849544F53414D454E54450064
:105004004944205553554152494F2000434C415681
:10501400452000204249454E56454E49444F200004
:1050240050696469656E646F205573756172696F48
:105034000050524553494F4E4520303030300045E2
:105044004E54455220524547495354524152004907
:105054004420544F4F204C4F4E4700494E47524531
:105064005345204944004553544520455320454C5D
:10507400205553554152494F0050696469656E6427
:105084006F20636C6176650045535441204553207D
:105094004C4120434C415645004944205553554109
:1050A40052494F00434C41564520555355415249AE
:1050B4004F004441544F5320494E434F52524543AD
:1050C400544F530020204552524F5220202020207C
:1050D40000434C41564520494E434F525245435498
:1050E40041004241442050415353574F52440041E0
:1050F4005649534520474552454E544500204249A0
:10510400454E56454E49444F3A200070746F206511
:105114006C20717565206C6F206C6561206A656A0E
:1051240065004D6F7669656E646F206861636961BF
:1051340000697A71756965726461004C61206D75EE
:105144006573747261206C6C65676F00616C204CD0
:10515400414232004552524F523A206E6F206861EC
:1051640079006D75657374726120656E204C4142DF
:105174003100646572656368617300616C204C4141
:105184004231004552524F523A206E6F2068617985
:1051940020006D75657374726120656E204C414208
:1051A400320026436F6E74726F6C506F72746F6E40
:1051B400260041627269656E646F00636F6D696594
:1051C4006E7A610043657272616E646F0020202004
:1051D4004F4B2041434345534F20202000202020A3
:1051E4005045524D495449444F20202000434C41DE
:0C51F400564520434F52524543544100A1
:00000001FF
