:020000040000FA
:100000000C9465010C9496010C9496010C94960145
:100010000C9496010C9496010C9496010C94960104
:100020000C9496010C9496010C9496010C949601F4
:100030000C9496010C947A0F0C9496010C949601F2
:100040000C9496010C940E110C9496010C9496014C
:100050000C9496010C9496010C9496010C943A1011
:100060000C9496010C9404100C94DA0F0C949601E5
:100070000C9496010C9496010C9496010C949601A4
:100080000C94E0100C9496010C9496010C9496013B
:100090000C9496010C9496010C9496010C943C11CE
:1000A0000C9496010C9496010C94B2100C94960149
:1000B0000C9496010C9496010C9496010C94841067
:1000C0000C9496010C9496010C9496010C94960154
:1000D0000C9496010C9496010C9496010C94960144
:1000E0000C9496010C94A6030C94A30C0C9463023C
:1000F0000C9498030C94B0030C94200D0C949E0364
:100100000C94520B0C9416190C94550B0C948207FA
:100110000C9479030C94AE040C9485020C94E104C5
:100120000C94BA040C948B030C94A20C0C949403BE
:100130000C94FC040C940A030C9454020C94B40325
:100140000C945F0B0C9405050C94CB040C94580B89
:100150000C9422050C94FE040C942E050C94B90307
:100160000C947F030C94EB030C9483030C94932660
:100170000C948C0B0C9411050C948E030C94870337
:100180000C94A2030C94BE030C94510B0C94BA0370
:100190000C94BD020C9427020C9429050C94AC031A
:1001A0000C94770200002100240027002A002D0073
:1001B0003000330001010000040107010A010000C2
:1001C00020002300260029002C002F00320000010F
:1001D000000003010601090100000A0B02090C0DD1
:1001E0000E080703040100000000000000000000EA
:1001F00000000000000000000000000000000000FF
:1002000000000000121110000000000000000000BB
:1002100000000000000000000000000000000102DB
:100220001020200808102040102040800201020108
:1002300008040201010204081020408080402010C0
:100240000804020180040201804020100804020119
:100250000804020101020408102040800102040881
:100260001020408000002200250028002B002E00D6
:100270003100340002010000050108010B010505F1
:100280000505070508080808020202020A0A08080C
:10029000040404040101010101010101030303033A
:1002A00003030303040707070C0C0C0C0C0C0C0CC9
:1002B0000202020206060606060606060B0B0B0BDA
:1002C0000B0B0B0B02001619932611241FBECFEF48
:1002D000D1E2DEBFCDBF00E00CBF16E0A0E0B2E08F
:1002E000E2E8F8E500E00BBF02C007900D92AA3DDE
:1002F000B107D9F729E0AAEDB6E001C01D92A03AF6
:10030000B207E1F711E0C4E6D1E000E006C02197B2
:100310000109802FFE010E94FD29C336D10780E02C
:100320000807A9F70E94441A0C942F2C0C94000083
:100330008F929F92AF92BF92FF920F931F93CF9392
:10034000DF93F0907F092FE22F1508F44CC0209125
:10035000810908E512E0021B110927FD1395000F22
:10036000111F000F111F20918009C8E8D0E0C21BA7
:10037000D10927FDD395CC0FDD1FCC0FDD1F4E011A
:100380000D2E000CAA08BB089801012E000C440B8E
:10039000550B281939094A095B09DC010E948C2890
:1003A00024EB30E040E050E00E946228820E931E71
:1003B000A41EB51E8C169D062CF0E8018016910631
:1003C0000CF4E4012297CC0FDD1F2FB7F8948F2D8A
:1003D00090E0FC01EE0FFF1FE80FF91FEB5AF74FFB
:1003E000D283C1832FBFDF91CF911F910F91FF90D7
:1003F000BF90AF909F908F90089596E0899FD00115
:100400001124AE50B74F90967C936E935F9791E016
:1004100091969C939197E0915F09F091600990917A
:100420005E09992339F0309751F0811108C080910D
:100430000E091994309719F05C968C91FACF0895B3
:10044000DC01ED91FC910190F081E02D1994AF92C7
:10045000BF92CF92DF92EF92FF920F931F93CF93B1
:10046000DF936C017B018B01040F151FEB015E0113
:10047000AE18BF08C017D10759F06991D601ED91A8
:10048000FC910190F081E02DC6011995892B79F737
:10049000C501DF91CF911F910F91FF90EF90DF90F9
:1004A000CF90BF90AF900895FC01538D448D252FC0
:1004B00030E0842F90E0821B930B541710F0CF96FE
:1004C000089501970895FC01918D828D981761F030
:1004D000A28DAE0FBF2FB11D5D968C91928D9F5F47
:1004E0009F73928F90E008958FEF9FEF0895FC0126
:1004F000918D828D981731F0828DE80FF11D858DD9
:1005000090E008958FEF9FEF0895FC01918D228D6B
:10051000892F90E0805C9F4F821B91098F739927F0
:1005200008958CEA97E00E94850221E0892B09F466
:1005300020E0822F0895FC01A48DA80FB92FB11DD2
:10054000A35ABF4F2C91848D90E001968F73992709
:10055000848FA689B7892C93A089B1898C918370E7
:1005600080648C93938D848D981306C00288F389E0
:10057000E02D80818F7D80830895EF92FF920F930D
:100580001F93CF93DF93EC0181E0888F9B8D8C8D3F
:1005900098131AC0E889F989808185FF15C09FB733
:1005A000F894EE89FF896083E889F98980818370F6
:1005B000806480839FBF81E090E0DF91CF911F91A5
:1005C0000F91FF90EF900895F62E0B8D10E00F5FC6
:1005D0001F4F0F731127E02E8C8D8E110CC00FB69C
:1005E00007FCFACFE889F989808185FFF5CFCE0134
:1005F0000E949B02F1CFEB8DEC0FFD2FF11DE35A12
:10060000FF4FF0829FB7F8940B8FEA89FB898081B6
:100610008062CFCFCF93DF93EC01888D8823B9F030
:10062000AA89BB89E889F9898C9185FD03C08081FD
:1006300086FD0DC00FB607FCF7CF8C9185FFF2CF7A
:10064000808185FFEDCFCE010E949B02E9CFDF9133
:10065000CF91089580E090E0892B29F00E949102CB
:1006600081110E94000080E090E0892B49F080E039
:1006700090E0892B29F00E94000081110E94000067
:1006800080E090E0892B49F080E090E0892B29F010
:100690000E94000081110E94000080E090E0892B00
:1006A00049F080E090E0892B29F00E940000811140
:1006B0000C94000008958150823108F05AC0E82F50
:1006C000F0E08827E959FC4F8F4F0C94FD298703F0
:1006D0008B0379037F038303B9038E039403980389
:1006E0009E03A203A603AC03B003B903B403BA0389
:1006F000BE03809180008F77809380000895809161
:1007000080008F7DF9CF80918000877FF5CF84B501
:100710008F7784BD089584B58F7DFBCF8091B00025
:100720008F778093B00008958091B0008F7DF9CFCE
:10073000809190008F778093900008958091900031
:100740008F7DF9CF80919000877FF5CF8091A000B9
:100750008F778093A00008958091A0008F7DF9CFBE
:100760008091A000877FF5CF809120018F778093C3
:1007700020010895809120018F7DF9CF8091200183
:10078000877FF5CFCF93DF93282F30E0F901E85230
:10079000FE4F8491F901E25EFD4FD491F901E258D8
:1007A000FD4FC491CC23A1F081110E945B03EC2F7B
:1007B000F0E0EE0FFF1FE254FE4FA591B491EC91D3
:1007C000ED2381E090E009F480E0DF91CF9108957E
:1007D00080E090E0FACF862F0C94C2031F93CF9352
:1007E000DF93282F30E0F901E852FE4F8491F901A0
:1007F000E25EFD4FD491F901E258FD4FC491CC2344
:10080000A9F0162F81110E945B03EC2FF0E0EE0F90
:10081000FF1FEC59FD4FA591B4918FB7F894EC915F
:10082000111108C0D095DE23DC938FBFDF91CF91EB
:100830001F910895DE2BF8CFCF93DF93EC018091C9
:100840008A0990918B09029749F4C130D10509F4C6
:100850003DC07CF560E0209709F439C080918A0999
:1008600090918B09049749F4C130D10509F45EC019
:100870000CF039C0209709F444C080918A09909106
:100880008B09059709F0E7C0CA30D10508F0E3C02D
:10089000FE018827E15BFB4F8F4F0C94FD29AE04CE
:1008A000BA04CB04E104FC04FE040505110522058D
:1008B0002905C230D105A9F060E0C330D10571F639
:1008C00080918E090E94EE0360E006C061E0809195
:1008D0008E090E94EE0361E0809190090E94EE0370
:1008E000BDCF61E0EDCFC230D10539F1C330D105C4
:1008F00009F0C3CF61E080918E090E94EE0360E0B1
:1009000022C061E080918E090E94EE0360E0809138
:1009100090090E94EE0361E0809192090E94EE032B
:1009200060E0809194090E94EE03A7CF60E080917F
:100930008E090E94EE0361E0EACF60E080918E09AB
:100940000E94EE0361E0809190090E94EE0360E056
:10095000809192090E94EE0361E0E3CF60E0809114
:100960008E090E94EE0361E0809190090E94EE03DF
:1009700061E00BC060E080918E090E94EE0361E0AF
:10098000809190090E94EE0360E0809192090E949C
:10099000EE0360E010C060E080918E090E94EE03DB
:1009A00061E0809190090E94EE0360E080919209DD
:1009B0000E94EE0361E0809194090E94EE0361E0E1
:1009C00015C060E080918E090E94EE0361E0809185
:1009D00090090E94EE0360E0809192090E94EE036C
:1009E00061E0809194090E94EE0360E08091960995
:1009F000DF91CF910C94EE0361E0E4CF61E0809150
:100A00008E090E94EE0360E0E2CF61E080918E09E2
:100A10000E94EE0360E0809190090E94EE0361E085
:100A2000DBCF61E080918E090E94EE0360E080914F
:100A300090090E94EE0361E0809192090E94EE030A
:100A400060E0CFCF61E080918E090E94EE0360E00C
:100A50008BCF60E0F8CFDF91CF910895862F642F80
:100A60000C94EE039091610289130DC0E4ECF2E066
:100A7000E4919FEF90936102E230E1F038F4EE23CD
:100A800081F0E13089F060E00C94EE03E43049F14C
:100A900010F1E530C1F7909173009D7F9093730042
:100AA000F2CF10926E00EFCF90916F009D7F9093E8
:100AB0006F00E9CF909170009D7F9093700091E05E
:100AC0009093B0009091B100987F94609093B100A2
:100AD0001092B300D8CF909171009D7F90937100D8
:100AE000D2CF909172009D7F90937200CCCFCF9324
:100AF000DF9390E0FC01E25EFD4F249182589D4F10
:100B0000FC0184918823C9F090E0880F991FFC01B3
:100B1000EC55FE4FA591B491FC01EC59FD4FC591E8
:100B2000D49161110DC09FB7F8948C9120958223C8
:100B30008C938881282328839FBFDF91CF910895CC
:100B4000623051F49FB7F8943C91822F80958323B3
:100B50008C93E8812E2BEFCF8FB7F894EC912E2B4E
:100B60002C938FBFEACF0F931F93CF938C0180916B
:100B700061028D3231F08F3FA1F1CF911F910F9122
:100B80000895E4ECF2E0C491C7FDF7CF61E08DE297
:100B90000E947705C1113FC0980150E040E068E431
:100BA00078EE81E090E00E946228BA01A9014150EC
:100BB00051096109710985B5887F836085BD47BD8D
:100BC0008FEF9FEFDC018093A8079093A907A09374
:100BD000AA07B093AB0780916E00826080936E008D
:100BE000CCCF8DE280936102E4ECF2E0C4918C2FD3
:100BF000CF3F09F4C2CFC23009F493C0B8F5CC237B
:100C000009F459C0C13009F46EC087FDB6CF61E068
:100C10008DE20E947705980150E040E0C23009F073
:100C2000DFC060E970ED83E090E00E946228BA01C5
:100C3000A90141505109610971098091B100887F72
:100C400083608093B1004093B3008FEF9FEFDC018E
:100C50008093A0079093A107A093A207B093A30746
:100C60008091700082608093700087CFC43009F457
:100C700099C008F478C0C53041F610922001109256
:100C800021018091210188608093210180912101BF
:100C9000816080932101EBEAF2E0E491F0E0EE0F55
:100CA000FF1FEC59FD4F85919491EBE4F2E0E49144
:100CB000E0938C076BCF14BC15BC84B5826084BDF7
:100CC00085B5816085BDEBEAF2E0E491F0E0EE0FDE
:100CD000FF1FEC59FD4F85919491EBE4F2E0E49114
:100CE000E093930753CF109280001092810080917F
:100CF0008100886080938100809181008160809371
:100D00008100EBEAF2E0E491F0E0EE0FFF1FEC5916
:100D1000FD4F85919491EBE4F2E0E491E09392072A
:100D200035CF1092B0001092B1008091B000826077
:100D30008093B0008091B10081608093B100EBEAB4
:100D4000F2E0E491F0E0EE0FFF1FEC59FD4F8591CA
:100D500094919093910780939007EBE4F2E0E491F3
:100D6000E0938F0713CF1092900010929100809122
:100D700091008860809391008091910081608093C0
:100D80009100EBEAF2E0E491F0E0EE0FFF1FEC5986
:100D9000FD4F85919491EBE4F2E0E491E0938E07AE
:100DA000C3E0F4CE1092A0001092A1008091A100A7
:100DB00088608093A1008091A10081608093A10050
:100DC000EBEAF2E0E491F0E0EE0FFF1FEC59FD4F8B
:100DD00085919491EBE4F2E0E491E0938D07D6CE17
:100DE00060E072E18AE790E00E946228DA01C901BE
:100DF0000197A109B109AC01C130D9F4209181005A
:100E0000287F21602093810090938900809388003F
:100E10008FEF9FEFDC018093A4079093A507A09329
:100E2000A607B093A70780916F00826080936F0040
:100E3000A4CEC330D9F420919100287F2160209363
:100E4000910090939900809398008FEF9FEFDC01C1
:100E500080939C0790939D07A0939E07B0939F0754
:100E60008091710082608093710087CEC430D9F484
:100E70002091A100287F21602093A1009093A900D8
:100E80008093A8008FEF9FEFDC01809398079093E9
:100E90009907A0939A07B0939B0780917200826094
:100EA000809372006ACEC530D9F420912101287F49
:100EB00021602093210190932901809328018FEFD5
:100EC0009FEFDC018093940790939507A09396077A
:100ED000B0939707809173008260809373004DCE2A
:100EE000C23009F4B0CE3CF4CC2309F468CEC13052
:100EF00009F043CE89CFC43009F20CF4A2CFC5303B
:100F0000D1F23BCE862F642F0C9477053FB7F8942F
:100F100080917A0790917B07A0917C07B0917D0723
:100F200026B5A89B05C02F3F19F00196A11DB11D44
:100F30003FBFBA2FA92F982F8827BC01CD01620F80
:100F4000711D811D911D42E0660F771F881F991F3B
:100F50004A95D1F708954F925F926F927F928F9248
:100F60009F92AF92BF92EF92FF920F931F93CF93F6
:100F7000DF93EC0197FF04C0CC27DD27C81BD90BFA
:100F8000181619060CF061C081E090E09093830977
:100F90008093820904E010E08AE0E82EF12C20978B
:100FA00009F46FC00E948607809098099090990973
:100FB000A0909A09B0909B092B013C014818590850
:100FC0006A087B088090840990908509A090860922
:100FD000B0908709481459046A047B0400F36093B5
:100FE00098097093990980939A0990939B0980912D
:100FF0008C0990918D0920918209309183092130CB
:10100000310559F5019690938D0980938C092091B3
:101010008809309189098217930721F410928D096C
:1010200010928C09219780918C0990918D092091C3
:101030008A0930918B09B7012530310509F0B801D3
:101040000E94E9290E941C04AACF892B09F4A2CF8F
:1010500010928309109282099DCF892B41F48091CF
:1010600088099091890990938D0980938C098091CA
:101070008C0990918D09019790938D0980938C092B
:10108000D1CFDF91CF911F910F91FF90EF90BF9043
:10109000AF909F908F907F906F905F904F9008954A
:1010A0008F929F92AF92BF92CF92DF92EF92FF9278
:1010B0004B015C010E9486076B017C010E94860740
:1010C0006C197D098E099F09683E73408105910561
:1010D000A8F321E0821A9108A108B10888EEC80E91
:1010E00083E0D81EE11CF11C81149104A104B10419
:1010F00029F7FF90EF90DF90CF90BF90AF909F9037
:101100008F9008952FB7F8946091760770917707C4
:1011100080917807909179072FBF08950F931F93BF
:10112000CF93DF93C82FD62F86E0C89FF0011124FC
:10113000EE50F74F11A2878D90A181309105F1F00B
:1011400058F082309105F1F1039709F440C0DF9126
:10115000CF911F910F9108956623C9F361E070E06C
:101160008C2F0E94FD010E94820860934A097093AF
:101170004B0980934C0990934D09E9CF0E94820856
:1011800000914A0910914B0920914C0930914D0969
:10119000AB01BC01401B510B620B730B80915C09CE
:1011A00090915D09B0E0A0E084179507A607B70706
:1011B00048F462E070E08C2FDF91CF911F910F9186
:1011C0000C94FD0163E070E0D111C1CFF4CF70E069
:1011D00060E0F1CF6F927F928F929F92AF92BF9219
:1011E000CF92DF92EF92FF920F931F93CF93DF93F3
:1011F00081E080935E090E94820800914E0910915F
:101200004F092091500930915109AB01BC01401B9D
:10121000510B620B730B80915A0990915B09B0E0FE
:10122000A0E084179507A607B70708F014C1C0E02F
:1012300080915809C81760F4E0915409F09155095C
:10124000EC0FF11D62E080810E947705CF5FF0CF47
:10125000712C812C912C540183948091590978161A
:1012600008F05FC0072D10E0E0915609F091570992
:10127000E00FF11F61E080810E947705E09156093F
:10128000F0915709E00FF11F60E080810E94EE03AA
:10129000D501C401072C04C0880F991FAA1FBB1FCA
:1012A0000A94D2F76C017C01E094F094612C809157
:1012B00058096816F8F4C62DD0E0E0915409F09171
:1012C0005509EC0FFD1F80810E94C2032496CC0FAC
:1012D000DD1FCE50D74F892B41F4888199818C290D
:1012E0009D29998388836394E2CF888199818E2197
:1012F0009F21F7CFE0915609F0915709E00FF11FB8
:1013000061E080810E94EE03809156099091570917
:10131000080F191F60E0F80180810E94770573941F
:101320009CCFC2EFD8E0FE018FEF9FEF278D30A159
:10133000232B21F4148E968F858F11A2369629E0E7
:10134000EE32F20799F7F12C96E0D92E80915809E8
:10135000F81608F050C0E12C0F2D10E0000F111FFF
:101360000650174F20915909E21608F042C0F801C3
:10137000608171810E2C02C0769567950A94E2F720
:10138000F29E900111242E0D311DE2EFF8E080E075
:10139000458D568D2417350709F461C08F5F369649
:1013A0008A30B1F760FF23C0E2EFF8E090E080E020
:1013B000448D411117C0E0915209F0915309E20F99
:1013C000F31F4081D89EF001D99EF00D1124EE50FC
:1013D000F74F448F368F258F10A2178E61E00E9441
:1013E0008E0805C0019636968A30910509F7E39478
:1013F000B9CFF394ABCF10E089A18111182F2696B5
:10140000F9E0CE32DF07C1F70E94820860934E09EF
:1014100070934F0980935009909351091123D9F08B
:10142000809113098823B9F08091110990911209D4
:10143000019789F480910E09DF91CF911F910F914F
:10144000FF90EF90DF90CF90BF90AF909F908F90E4
:101450007F906F90089510925E0980E0EDCF6170EB
:10146000BECFAF92BF92CF92DF92EF92FF920F93D7
:101470001F93CF93DF936B017A01EC01CF58D84FC4
:1014800028813CE0389F8001399F100D1124A090E5
:10149000E508B12C27FF1FC0FB0111821082888153
:1014A0008F5F888388819801280F311D87FD3A95C9
:1014B000F6012A153B051CF488818C30C4F180812B
:1014C0009181049680349C4908F473C0F6018081B0
:1014D0009181049670C088819801280F311D87FD85
:1014E0003A952A153B05DCF68881A801480F511D65
:1014F00087FD5A95FA01EE0FFF1FE40FF51FEB5A17
:10150000F74F808186FFCBCF8881F801E80FF11D6E
:1015100087FDFA95CF01EE0FFF1FE80FF91FEB5A79
:10152000F74F808160E08F730E94EE03B8CF808117
:1015300091812881A801420F511D27FD5A959A01DA
:10154000FA01EE0FFF1FE20FF31FEB5AF74F218155
:101550003281820F931FF7019183808388819801E4
:10156000280F311D87FD3A95F901EE0FFF1FE20F9D
:10157000F31FEB5AF74F808186FF22C08881080F46
:10158000111D87FD1A95F801EE0FFF1FE00FF11FE7
:10159000EB5AF74F808161E08F73DF91CF911F91FC
:1015A0000F91FF90EF90DF90CF90BF90AF900C9491
:1015B000EE0380E49CE9F701918380838FEF8883B9
:1015C000DF91CF911F910F91FF90EF90DF90CF901F
:1015D000BF90AF9008951F93CF93DF93C1E0C09366
:1015E0000607882399F1D091B8001091BA00809134
:1015F000BC008A7B8093BC0060E084E10E94EE0323
:1016000060E085E10E94EE0310924B07C0934D0706
:1016100010924C0761E084E10E94EE0361E085E1F5
:101620000E94EE038091B9008E7F8093B900809173
:10163000B9008D7F8093B90088E48093B80085E479
:101640008093BC001093BA00D093B800DF91CF9183
:101650001F91089520912707260F3327331F21322A
:101660003105ECF420914B07FC0190E080E0243040
:1016700069F082E00895A09127072191AC01495FAC
:10168000584FA40FB52FB11D2C930196861798F3D0
:1016900080912707680F6093270780E0089581E015
:1016A000089508958FEF9FEF08958FEF9FEF0895AE
:1016B0008091000790E09195819591090895CF92CE
:1016C000DF92EF92FF920F931F93CF93DF937C01F2
:1016D000CB018A012091FF06222389F0EB016B01E7
:1016E000C40ED51ECC15DD0569F06991D701ED91C9
:1016F000FC910190F081E02DC7011995F3CF642F83
:101700000E942A0BC801DF91CF911F910F91FF908A
:10171000EF90DF90CF900895CF93DF931F92CDB7D6
:10172000DEB769832091FF062223F9F02091FE069F
:10173000203258F021E030E0FC013383228390E036
:1017400080E00F90DF91CF9108958091FD06E82F02
:10175000F0E0E352F94F998190838F5F8093FD060B
:101760008093FE0681E090E0ECCF61E0CE0101962F
:101770000E942A0BF7CFCF92DF92EF92FF920F9346
:101780001F93CF93DF93FC01C48121E02093FF06D8
:10179000C093DC061092FD061092FE068385682B2E
:1017A00089E498E00E948C0BD091FE06D13208F0BB
:1017B00092C00E9486076B017C0180914B078111CA
:1017C00065C082E080934B0781E080934D078FEFE7
:1017D00080934A0710926F07D0936E07ADEDB6E085
:1017E000EEE4F7E080E0D81385C010927007809196
:1017F0007007CC0FC82BC093700780914C078130C5
:1018000009F07CC010924C070E9486076B017C0196
:10181000809170078093BB0080910207909103072D
:10182000A0910407B0910507892B8A2B8B2B99F087
:101830000E94860700910207109103072091040778
:10184000309105076C197D098E099F090617170746
:1018500028073907E0F18091BC0083FDD9CF85ECE2
:101860008093BC000E9486076B017C0180914B072E
:10187000823009F445C080914A078F3F61F1809121
:101880004A07803241F180914A0725C080910207C2
:1018900090910307A0910407B0910507892B8A2B2B
:1018A0008B2B09F48ACF0E948607009102071091C2
:1018B000030720910407309105076C197D098E09F3
:1018C0009F09061717072807390708F076CF809178
:1018D00001070E94EB0A1092FD061092FE0610927C
:1018E000FF06DF91CF911F910F91FF90EF90DF9056
:1018F000CF9008959D9191938F5F75CF85EEB0CF76
:101900008091020790910307A0910407B091050709
:10191000892B8A2B8B2B09F4A9CF0E948607009173
:1019200002071091030720910407309105076C19F5
:101930007D098E099F09061717072807390708F040
:1019400095CFC5CF089590E080E008959C01205F79
:101950003F4F4FEF5FEFFC0141935193CF01E217EF
:10196000F307C9F708950F931F93CF938C01C62FE8
:101970000E94BB0B6C2F6460C8010E94BB0B6C2FD4
:101980006B7FC8010E94BB0B83EC90E00197F1F7DD
:10199000CF911F910F9108950F931F93CF93DF93D2
:1019A0008C01D62FC42F607F642B0E94B30C80E182
:1019B000D89FB00111246C2BC801DF91CF911F91EA
:1019C0000F910C94B30C40E061E086EE98E00E9429
:1019D000CC0C8BE39FE10197F1F70895CF93DF9350
:1019E00000D000D01F921F92CDB7DEB798E0E0E89C
:1019F000F2E0DE01119601900D929A95E1F7909137
:101A0000EE08961710F46FEF690F262F30E0220FC3
:101A1000331F41E050E04C0F5D1F240F351FF901CB
:101A20006081680F606840E086EE98E028960FB607
:101A3000F894DEBF0FBECDBFDF91CF910C94CC0CDC
:101A400041E00E94CC0C81E090E008950F931F9339
:101A5000CF93DF938B0198E0899FB00111246064DC
:101A600040E086EE98E00E94CC0CE801085F1F4F32
:101A7000699186EE98E00E94200DC017D107C1F74A
:101A8000DF91CF911F910F910895FB0101900020EC
:101A9000E9F73197AF01461B570BDC01ED91FC9143
:101AA0000280F381E02D199462EC72E08CEA97E0F9
:101AB0000C94450DCF93DF93FC01448155816081E7
:101AC00071818CEA97E00E942702EC010E94540D7C
:101AD0008C0F9D1FDF91CF910895CF93DF93682FD7
:101AE0008CEA97E00E942002EC010E94540D8C0FBA
:101AF0009D1FDF91CF9108958F929F92AF92BF92D9
:101B0000EF92FF920F931F93CF93DF93CDB7DEB782
:101B1000A1970FB6F894DEBF0FBECDBF7C01FA01CE
:101B2000CB0119A2223008F42AE08E010F5D1F4F6D
:101B3000822E912CB12CA12CBF01A50194010E94F1
:101B40009428F901CA016A300CF5605DD8016E93E2
:101B50008D01232B242B252B79F790E080E0109723
:101B600021F0BD01C7010E94450DA1960FB6F89462
:101B7000DEBF0FBECDBFDF91CF911F910F91FF90C0
:101B8000EF90BF90AF909F908F900895695CDECFEB
:101B9000CF92DF92EF92FF92CF93DF936C01990F78
:101BA000EE08FF08F7FE1FC06DE28CEA97E00E9486
:101BB0002002EC0144275527BA014C195D096E0932
:101BC0007F092AE08CEA97E00E947C0DC80FD91F9C
:101BD0000E94540D8C0F9D1FDF91CF91FF90EF90CD
:101BE000DF90CF9008952AE0B701A6018CEA97E034
:101BF0000E947C0DEC01ECCFCF92DF92EF92FF922E
:101C00000F931F93CF93DF936B01770FEE08FF08BD
:101C1000F7FE1BC0EC016DE20E9420028C014427FC
:101C20005527BA014C195D096E097F092AE0CE01DA
:101C30000E947C0D800F911FDF91CF911F910F911A
:101C4000FF90EF90DF90CF9008952AE0B701A601B2
:101C5000DF91CF911F910F91FF90EF90DF90CF9088
:101C60000C947C0DCF93DF93BC018CEA97E00E942B
:101C7000450DEC010E94540D8C0F9D1FDF91CF91FB
:101C800008950C94450D0E94E30C80917E078823F3
:101C900099F160E080E00E94EE0C65EC72E086EE67
:101CA00098E00E94410E61E083E00E94EE0C63ED3B
:101CB00072E086EE98E00E94410E0E94EA088534A8
:101CC00021F71092890710928807109287071092C7
:101CD000860780E592E00E94A60C0E94E30C60E07B
:101CE00080E00E94EE0C63EF73E086EE98E00E94C5
:101CF000410E10927E07C9CF0895FC018081918129
:101D0000009711F00C94C52660E070E0CB010895B7
:101D1000DC0114968D919C9115976817790750F402
:101D2000ED91FC911197E60FF71F15967C936E933A
:101D30001497108208950F931F93CF93DF93EC01B4
:101D400088819981009759F02A813B8126173707AE
:101D500030F081E0DF91CF911F910F9108958B01B9
:101D60006F5F7F4F0E943E2B009759F099838883C5
:101D70001B830A832C813D81232B59F7FC011082A0
:101D8000E8CF80E0E7CFEF92FF920F931F93CF93BE
:101D9000DF931F921F92CDB7DEB78C0169831A8241
:101DA000FC01E480F580FFEFEF1AFF0AB7010E9403
:101DB0009B0E882381F0F8012081318184819581F7
:101DC000BE016F5F7F4F820F931F0E94282CF80186
:101DD000F582E48281E00F900F90DF91CF911F9107
:101DE0000F91FF90EF900895CF93DF93EC018881DE
:101DF0009981009711F00E94B52A198218821D82DC
:101E00001C821B821A82DF91CF910895EF92FF927C
:101E10000F931F93CF93DF93EC017B018A01BA01EB
:101E20000E949B0E81110BC0CE010E94F40ECE01C8
:101E3000DF91CF911F910F91FF90EF9008951D8337
:101E40000C83B701888199810E94282CF0CFFC0176
:101E500011821082138212821582148250E040E0B7
:101E600064EC72E00C94060F50E040E064EC72E029
:101E70000C94060FFC0180819181009711F00C9465
:101E8000B52A089585ED8093BC008091020790915A
:101E90000307A0910407B09105070796A11DB11D86
:101EA00023E0B695A795979587952A95D1F7209128
:101EB000BC0024FD03C010924B0708954091020717
:101EC000509103076091040770910507452B462B3D
:101ED000472B69F30097A105B10541F025E32A9549
:101EE000F1F700000197A109B109E1CF8091010745
:101EF0000C94EB0A1F920F920FB60F9211240BB69F
:101F00000F922F933F934F935F936F937F938F9392
:101F10009F93AF93BF93EF93FF938091A00790910E
:101F2000A107A091A207B091A307892B8A2B8B2B25
:101F3000E1F190918F07E0919007F09191078081F6
:101F4000892780838091A0079091A107A091A20783
:101F5000B091A307181619061A061B069CF4809167
:101F6000A0079091A107A091A207B091A3070197A4
:101F7000A109B1098093A0079093A107A093A2079C
:101F8000B093A307FF91EF91BF91AF919F918F9174
:101F90007F916F915F914F913F912F910F900BBE69
:101FA0000F900FBE0F901F901895809161020E94B4
:101FB0003205E8CF1F920F920FB60F9211240BB685
:101FC0000F922F933F934F935F936F937F938F93D2
:101FD0009F93AF93BF93EF93FF938CEA97E00E9498
:101FE0009B02FF91EF91BF91AF919F918F917F9154
:101FF0006F915F914F913F912F910F900BBE0F907A
:102000000FBE0F901F9018951F920F920FB60F9250
:1020100011240BB60F922F938F939F93EF93FF93FF
:10202000E091BC07F091BD078081E091C207F0917B
:10203000C30782FD1DC090818091C5078F5F8F739C
:102040002091C607821741F0E091C507F0E0E45502
:10205000F84F958F8093C507FF91EF919F918F91D6
:102060002F910F900BBE0F900FBE0F901F901895E1
:102070008081F2CF1F920F920FB60F9211242F93EF
:102080003F938F939F93AF93BF93809176079091E7
:102090007707A0917807B09179073091750723E011
:1020A000230F2D3758F50196A11DB11D20937507FB
:1020B0008093760790937707A0937807B09379077A
:1020C00080917A0790917B07A0917C07B0917D0762
:1020D0000196A11DB11D80937A0790937B07A09371
:1020E0007C07B0937D07BF91AF919F918F913F91F6
:1020F0002F910F900FBE0F901F90189526E8230F79
:102100000296A11DB11DD2CF1F920F920FB60F9252
:1021100011240BB60F922F933F934F935F936F93BE
:102120007F938F939F93AF93BF93EF93FF9348E277
:1021300051E064E271E090E080E00E94310AFF919A
:10214000EF91BF91AF919F918F917F916F915F912F
:102150004F913F912F910F900BBE0F900FBE0F909C
:102160001F9018951F920F920FB60F9211240BB665
:102170000F922F933F934F935F936F937F938F9320
:102180009F93AF93BF93EF93FF9348EA50E064EAC5
:1021900070E083E090E00E94310AFF91EF91BF91DF
:1021A000AF919F918F917F916F915F914F913F91EF
:1021B0002F910F900BBE0F900FBE0F901F90189590
:1021C0001F920F920FB60F9211240BB60F922F93FE
:1021D0003F934F935F936F937F938F939F93AF93AF
:1021E000BF93EF93FF9348E950E064E970E082E029
:1021F00090E00E94310AFF91EF91BF91AF919F91C2
:102200008F917F916F915F914F913F912F910F909F
:102210000BBE0F900FBE0F901F9018951F920F923C
:102220000FB60F9211240BB60F922F933F934F933B
:102230005F936F937F938F939F93AF93BF93EF932E
:10224000FF9348E850E064E870E081E090E00E948D
:10225000310AFF91EF91BF91AF919F918F917F9143
:102260006F915F914F913F912F910F900BBE0F9007
:102270000FBE0F901F9018951F920F920FB60F92DE
:1022800011240BB60F922F933F934F935F936F934D
:102290007F938F939F93AF93BF93EF93FF9380911F
:1022A000B900887F803609F44DC008F040C08832FC
:1022B00009F4A7C028F5803109F49BC0C8F488232D
:1022C00009F4F7C0883009F494C0FF91EF91BF91F1
:1022D000AF919F918F917F916F915F914F913F91BE
:1022E0002F910F900BBE0F900FBE0F901F9018955F
:1022F000883109F486C0803241F780934A0714C0C0
:10230000803409F49BC040F48033B9F38833E9F694
:1023100080934A0785ECAEC0803509F483C08835C8
:1023200009F494C0883489F60E94420FCECF8839D0
:1023300009F48AC038F5883729F050F4883611F04E
:10234000803719F683E080934B071092490755C0F8
:10235000883809F479C0803919F0803809F0B5CF90
:1023600080914907803208F06FC0E091490781E011
:102370008E0F809349078091BB00F0E0E75DF84F36
:1023800080833BC0803B39F0D0F4803A09F477C0B9
:10239000883A09F09ACF84E080934B07109228077F
:1023A00010922707F0E0E0E019958091270781114E
:1023B0000FC081E0809327071092070709C0803C77
:1023C00009F4A8CF883C09F4A5CF883B09F07DCF5C
:1023D000E091280781E08E0F80932807F0E0E95F05
:1023E000F84F80818093BB00909128078091270748
:1023F00029C0809170078093BB0085EC8093BC005E
:1024000064CF90916F0780916E07981758F5E0910F
:102410006F0781E08E0F80936F07F0E0E25BF84F6B
:102420008081E9CFE0916F0781E08E0F80936F0785
:102430008091BB00F0E0E25BF84F808390916F07E2
:1024400080916E079817C8F285E8D8CFE0916F07A2
:1024500081E08E0F80936F078091BB00F0E0E25B1C
:10246000F84F808380914D0781115ECF81E080938A
:102470004C0784EA8093BC0010924B0726CF85EC72
:102480008093BC0010924B0780914907803230F452
:10249000E0914907F0E0E75DF84F1082609149074D
:1024A00070E089E297E0F0E0E0E0199510924907CA
:1024B0000CCF10924A0738CF4F925F926F927F9263
:1024C0008F929F92AF92BF92CF92DF92EF92FF9244
:1024D0000F931F93CF93DF93CDB7DEB764970FB6FB
:1024E000F894DEBF0FBECDBF8FED92E00E94320E9A
:1024F0000E94E30C60E081E00E94EE0C60E086EE5A
:1025000098E00E94200D6BEE72E086EE98E00E944B
:10251000410E60E086EE98E00E94200D60ED77E0CD
:1025200080E090E00E9450080E94E30C109289071E
:1025300010928807109287071092860781E0809397
:102540008507EE24EA94FE2CCC24CA94DC2C8091DE
:102550008507882309F461C10E94EA08182F88239F
:1025600009F4F5C08091860761E08B5F0E94EE0C54
:1025700089EF92E0153521F0143429F48CEF92E0C4
:102580000E94320EE4CF81E093E01335C9F3133497
:1025900009F063C085E093E00E94320E80918607C7
:1025A0009091870718161906B4F5809188079091C5
:1025B0008907181619067CF5880F991FFC01E05051
:1025C000FE4FF182E08260E286EE98E00E942002F7
:1025D0008091860761E08B5F0E94EE0C60E286EEE0
:1025E00098E00E9420020091880710918907B801A5
:1025F00087E699E00E94880E01501109109389071F
:1026000000938807809186079091870701979093A0
:102610008707809386078091880790918907892B87
:1026200009F095CFD0920102C092000270E060E004
:1026300087E699E00E94880E60E286EE98E00E94AC
:1026400020028091860761E08B5F0E94EE0C60E2C1
:1026500086EE98E00E9420027ACF183419F58BE0BC
:1026600093E00E94320E0E94E30C60E081E00E9441
:10267000EE0C60E173E086EE98E00E94410E61E0AE
:1026800081E00E94EE0C61E273E086EE98E00E9429
:10269000410E68EE73E080E090E00E9450080E94D6
:1026A000E30C55CF153439F489ED92E00E94320ED7
:1026B000109285074CCF6FE273E08CEA97E00E949E
:1026C000410E812F0E946D0D80918807909189079E
:1026D00008970CF047C0809186079091870708976C
:1026E0000CF040C0612F86EE98E00E94200280919D
:1026F000860761E08B5F0E94EE0C612F86EE98E00A
:102700000E942002612F87E699E00E94C30E1053B9
:102710008091880790918907FC01EE0FFF1FE05020
:10272000FE4F212F012E000C330B318320830196A5
:1027300090938907809388078091860790918707F7
:1027400001969093870780938607111100CF60E070
:1027500080E00E94EE0C6BE473E086EE98E00E944D
:10276000410EF5CE87E393E00E94320E81E0809324
:102770007E070E94E30C80917E07882399F160E038
:1027800080E00E94EE0C65EC72E086EE98E00E941C
:10279000410E61E083E00E94EE0C63ED72E086EE94
:1027A00098E00E94410E0E94EA08853421F71092B9
:1027B000890710928807109287071092860780E099
:1027C00092E00E94A60C0E94E30C60E080E00E9470
:1027D000EE0C6BE473E086EE98E00E94410E1092DE
:1027E0007E07C9CF87E699E00E94340F8BE593E01E
:1027F0000E94320E80918807909189070E94C80D2F
:102800008BE693E00E94320E8091860790918707B5
:102810000E94C80D10927E079ACE109289071092DE
:10282000880710928707109286078BE793E00E9433
:10283000320E0E94E30C81E080938507F0E14F2E79
:10284000F2E05F2E8E010F5F1F4F66246A94762C94
:10285000AA24AA94BA2C80918507882309F43FC240
:102860000E94EA08F82E882309F4D3C180918607D4
:1028700061E08B5F0E94EE0C25E589EF92E0F21695
:1028800029F084E4F81205C08CEF92E00E94320E29
:10289000E2CFA3E581E093E0FA16C1F3B3E4FB12C3
:1028A00068C085E093E00E94320E80918607909187
:1028B000870718161906BCF580918807909189073B
:1028C0001816190684F5880F991FFC01E05FFD4F6B
:1028D0007182608260E286EE98E00E942002809120
:1028E000860761E08B5F0E94EE0C60E286EE98E066
:1028F0000E942002E0908807F0908907B70181E6E6
:1029000099E00E94880EE1E0EE1AF108F092890742
:10291000E0928807809186079091870701979093AE
:102920008707809386078091880790918907892B74
:1029300009F091CFB0921102A092100270E060E015
:1029400081E699E00E94880E81E699E00E94340FAA
:1029500060E286EE98E00E9420028091860761E0A6
:102960008B5F0E94EE0C60E286EE98E00E942002EF
:1029700072CFF8E4FF1223C08BE093E00E94320E86
:102980000E94E30C60E081E00E94EE0C60E173E0E5
:1029900086EE98E00E94410E61E081E00E94EE0C1C
:1029A00061E273E086EE98E00E94410E68EE73E00B
:1029B00080E090E00E9450080E94E30C4CCF25E498
:1029C000F212D8C089ED92E00E94320E87E699E0BB
:1029D0000E947D0E6B0181E699E00E947D0EC61675
:1029E000D70609F086C08EE893E00E94320ECE0131
:1029F0000F960E94270F70E0E72E72E0F72ED701A6
:102A00008D919D917D018F3F980709F440C0CF843F
:102A1000D8880E94A7264C011A8619861C861B8618
:102A20001E861D86C114D10439F04B895C89B6011C
:102A3000CE0109960E94060F4AE0B801C4010E9427
:102A4000EC26F80101900020E9F73197E01BF10B2B
:102A500079F0CD84DE84CE0EDF1EB601CE0109965C
:102A60000E949B0E811134C0CE0109960E94F40E83
:102A700069857A8561157105B9F14D855E85CE014F
:102A80000F960E94060FCE0109960E943A0F4E142F
:102A90005F0409F0B4CF8F8598890E94A7267C0136
:102AA0008DE993E00E94320ECE010F960E945A0DDE
:102AB0008AEA93E00E94320EC7010E94C80DCE013F
:102AC0000F960E943A0F0E94540D10928507C3CEB4
:102AD00029853A858D859E85B801820F931F0E94B6
:102AE000282CDE86CD86C4CFCE010F960E94F40E30
:102AF000CACF0E94E30C81E080937E0780917E071D
:102B0000882309F4A8CE60E080E00E94EE0C61EB1F
:102B100073E086EE98E00E94410E61E083E00E943F
:102B2000EE0C63ED72E086EE98E00E94410E0E948A
:102B3000EA08853419F710928907109288071092D5
:102B400087071092860781E699E00E94340F80E1A2
:102B500092E00E94A60C0E94E30C60E080E00E94DC
:102B6000EE0C62EC73E086EE98E00E94410E10924B
:102B70007E07C4CF6FE273E08CEA97E00E94410EBB
:102B80008F2D0E946D0D809188079091890708977D
:102B90000CF04AC0809186079091870708970CF047
:102BA00043C06F2D86EE98E00E9420028091860738
:102BB00061E08B5F0E94EE0C6F2D86EE98E00E9424
:102BC00020026F2D81E699E00E94C30E80ED8F0DEB
:102BD0002091880730918907F901EE0FFF1FE05F10
:102BE000FD4F482F082E000C550B518340832F5F5B
:102BF0003F4F3093890720938807209186073091B3
:102C000087072F5F3F4F30938707209386078111F7
:102C100022CE60E080E00E94EE0C62EC73E086EE73
:102C200098E00E94410E17CE82ED93E00E94320E92
:102C300081E080937E070E94E30C80917E078823C9
:102C400099F160E080E00E94EE0C65EC72E086EEA7
:102C500098E00E94410E61E083E00E94EE0C63ED7B
:102C600072E086EE98E00E94410E0E94EA088534E8
:102C700021F7109289071092880710928707109207
:102C8000860780E192E00E94A60C0E94E30C60E0BF
:102C900080E00E94EE0C62EC73E086EE98E00E9409
:102CA000410E10927E07C9CF81E699E00E94340F51
:102CB0008BE593E00E94320E8091880790918907FE
:102CC0000E94C80D8BE693E00E94320E8091860729
:102CD000909187070E94C80D10927E07BCCD10927C
:102CE000890710928807109287071092860789EE4D
:102CF00093E00E94320E0E94E30C81E080938507EE
:102D0000EE24EA94FE2CCC24CA94DC2C8091850716
:102D1000882309F4E7C10E94EA08182F882309F4E0
:102D20002EC18091860761E08B5F0E94EE0C89EFD7
:102D300092E0153521F0143429F48CEF92E00E94D2
:102D4000320EE4CF81E093E01335C9F3133409F078
:102D500057C085E093E00E94320E809186079091E3
:102D600087071816190684F58091880790918907BE
:102D7000181619064CF5880F991FFC01E05BFD4FF2
:102D8000F182E08260E286EE98E00E94200280916B
:102D9000860761E08B5F0E94EE0C60E286EE98E0B1
:102DA0000E94200280918807909189070197909353
:102DB00089078093880780918607909187070197FC
:102DC0009093870780938607809188079091890761
:102DD000892B09F09BCFD0925102C092500260E241
:102DE00086EE98E00E9420028091860761E08B5F6A
:102DF0000E94EE0C60E286EE98E00E94200286CFF0
:102E00008BE093E0183409F49ACF153409F004C12B
:102E100089ED92E00E94320E809150029091510211
:102E2000892B09F065C0809152029091530201975D
:102E300009F05EC08091540290915502892B09F0EF
:102E400057C08091560290915702069709F050C0E2
:102E50008091580290915902019609F049C08091E1
:102E60005A0290915B02019609F042C080915C0287
:102E700090915D020196E1F580915E0290915F0272
:102E80000196B1F50E94E30C60E083E00E94EE0C35
:102E900061E074E086EE98E00E94410E61E084E01B
:102EA0000E94EE0C6FE675E086EE98E00E94410EFF
:102EB00061E08EE30E94EE0368EE73E080E090E054
:102EC0000E9450080E94E30C60E08EE30E94EE0333
:102ED0001092810710928007109285078091DA0680
:102EE0009091DB0601969093DB068093DA060ECF75
:102EF0008091800790918107843091050CF04AC041
:102F0000019690938107809380070E94E30C60E014
:102F100080E00E94EE0C6CE074E086EE98E00E9487
:102F2000410E609180077091810786EE98E00E94C3
:102F3000FC0D61E080E00E94EE0C66E174E086EE3C
:102F400098E00E94410E61E08FE30E94EE036CED79
:102F500075E080E090E00E94500860E08FE30E94FE
:102F6000EE0310928907109288071092870710923B
:102F7000860780E592E00E94A60C0E94E30C60E0C8
:102F800080E00E94EE0C63EF73E086EE98E00E9412
:102F9000410EBCCE0E94E30C81E080937E0761E08D
:102FA0008FE30E94EE0380917E07882309F4AECE62
:102FB00060E080E00E94EE0C67E274E086EE98E04C
:102FC0000E94410E61E080E00E94EE0C69E374E033
:102FD00086EE98E00E94410E0E94EA08853419F7B7
:102FE000109289071092880710928707109286071F
:102FF00080E592E00E94A60C0E94E30C60E080E075
:103000000E94EE0C63EF73E086EE98E00E94410EA2
:1030100010927E0760E0C4CF6FE273E08CEA97E025
:103020000E94410E812F0E946D0D80918807909122
:1030300089070897BCF580918607909187070897C4
:103040008CF5612F86EE98E00E9420028091860721
:1030500061E08B5F0E94EE0C612F86EE98E00E948B
:10306000200210538091880790918907FC01EE0F90
:10307000FF1FE05BFD4F212F012E000C330B31832E
:103080002083019690938907809388078091860713
:103090009091870701969093870780938607111177
:1030A00035CE6DCF82ED93E00E94320E81E08093A9
:1030B0007E070E94430E8BE593E00E94320E8091C2
:1030C0008807909189070E94C80D8BE693E00E94C3
:1030D000320E80918607909187070E94C80D10924A
:1030E0007E0714CE8AE494E00E94320E87E699E0CF
:1030F0000E947D0E4B010091820710918307E090A2
:10310000DA06F090DB0688E090E00E94192AFC01C4
:10311000F182E08293828282178216821582148263
:10312000D8012D913C91119714968D919C911597F2
:10313000232B09F06BC01396FC93EE931297119614
:10314000FC93EE93019615969C938E9314970E9490
:10315000E30C60E082E00E94EE0C6BE574E086EE2A
:1031600098E00E94410E6091DA067091DB0686EECF
:1031700098E00E94FC0D61E080E00E94EE0C6FE59B
:1031800074E086EE98E00E94410EB40186EE98E06D
:103190000E94FC0D61E080E40E94EE036CED75E09E
:1031A00080E090E00E94500860E080E40E94EE031E
:1031B00086E694E00E94320E0E94540D8AE794E065
:1031C0000E94320E8091DA069091DB060E94C80DB3
:1031D00086E894E00E94320EC4010E94C80D6496F5
:1031E0000FB6F894DEBF0FBECDBFDF91CF911F9118
:1031F0000F91FF90EF90DF90CF90BF90AF909F9096
:103200008F907F906F905F904F90089512962D91C0
:103210003C91D9011596FC93EE931497378326833E
:10322000D8011396FC93EE9312978CCF1092AF07B0
:103230001092AE0788EE93E0A0E0B0E08093B00774
:103240009093B107A093B207B093B3072CE832E094
:103250003093AD072093AC0725EC30E03093B907ED
:103260002093B80724EC30E03093BB072093BA07D3
:1032700020EC30E03093BD072093BC0721EC30E018
:103280003093BF072093BE0722EC30E03093C10794
:103290002093C00726EC30E03093C3072093C20789
:1032A0001092C5071092C6071092C7071092C80760
:1032B00010924C0810924B0880934D0890934E0842
:1032C000A0934F08B09350088EE992E090934A087B
:1032D0008093490810928D0910928C0910928309ED
:1032E00010928209109298091092990910929A09E5
:1032F00010929B098CE090E0909389098093880953
:103300008CE190E090938F0980938E098DE190E09D
:1033100090939109809390098EE190E090939309A6
:10332000809392098FE190E090939509809394099E
:1033300061E08CE10E94770561E0809190090E9434
:10334000770561E0809192090E94770561E08091A4
:1033500094090E947705109297091092960984E0CB
:1033600090E090938B0980938A098091E5088033DF
:1033700008F086C091E0980F9093E50880937F094C
:1033800090E0FC01EE0FFF1FE80FF91FEB5AF74F1B
:1033900088EB9BE09283818389E799E00E94270F65
:1033A00083E799E00E94270F8DE699E00E94270F9E
:1033B00087E699E00E94270F81E699E00E94270F97
:1033C0001092F4081092F8081092F7081092F90879
:1033D0008CEB92E09093F3088093F208EEE0F9E032
:1033E0001082148213821582369689E0EA34F80737
:1033F000B9F786E692E0909355098093540982E6E6
:1034000092E0909357098093560984E0809358097D
:10341000809359098AE692E0909353098093520968
:103420008AE090E090935B0980935A0984EF91E0E1
:1034300090935D0980935C091092600910925F0976
:1034400010924E0910924F09109250091092510992
:1034500010925E091092E9081092E80880EB92E061
:103460009093E7088093E60887E28093EA0880E17A
:103470008093EF0882E08093F0081092F10808959D
:103480008FEF80937F0988CFCF93DF9300D01F9277
:103490001F92CDB7DEB7789484B5826084BD84B5C1
:1034A000816084BD85B5826085BD85B5816085BD3F
:1034B00080916E00816080936E00109281008091F7
:1034C000810082608093810080918100816080937F
:1034D0008100809180008160809380008091B100A4
:1034E00084608093B1008091B00081608093B000CF
:1034F0008091910082608093910080919100816021
:1035000080939100809190008160809390008091E1
:10351000A10082608093A1008091A10081608093CE
:10352000A1008091A00081608093A0008091210182
:10353000826080932101809121018160809321012B
:103540008091200181608093200180917A008460C5
:1035500080937A0080917A00826080937A008091D3
:103560007A00816080937A0080917A0080688093ED
:103570007A001092C100E091BC07F091BD0712E003
:103580001083E091B807F091B9071082E091BA0773
:10359000F091BB078FEC80831092C407E091C007C5
:1035A000F091C10786E08083E091BE07F091BF07EC
:1035B000808180618083E091BE07F091BF078081A8
:1035C00088608083E091BE07F091BF0780818068AA
:1035D0008083E091BE07F091BF0780818F7D80835B
:1035E0008091EB0888608093EB081093EE0862E30B
:1035F00070E080E090E00E9450086091F10886EE53
:1036000098E00E94BB0B68EE73E080E090E00E94BF
:10361000500860E386EE98E00E94B30C8BE496E4D9
:103620000197F1F760E386EE98E00E94B30C2BE47B
:1036300036E4C9010197F1F760E386EE98E00E9455
:10364000B30C83E592E00197F1F760E286EE98E033
:103650000E94B30C6091EB08606240E086EE98E057
:103660000E94CC0C84E08093EC0840E06CE086EE95
:1036700098E00E94CC0C0E94E30C1093ED0840E00F
:1036800066E086EE98E00E94CC0C40E062E086EEB8
:1036900098E00E94CC0C8BE39FE10197F1F768E37F
:1036A00072E080E00E94260D60E372E081E00E94FB
:1036B000260D68E272E082E00E94260D60E272E070
:1036C00083E00E94260D88E090E00E94192AFC0108
:1036D00013821282118210821582148281E090E09E
:1036E00097838683F0938307E093820761E088E302
:1036F0000E94770561E089E30E94770561E08AE333
:103700000E94770561E08BE30E94770561E08EE31C
:103710000E94770561E08FE30E94770561E080E415
:103720000E94770561E08DE20E94770560E08AE003
:103730000E94770560E089E00E94770580917F090B
:10374000803308F054C061E08DE00E9477058091DD
:103750007F09282F30E0F901EE0FFF1FE20FF31F62
:10376000EB5AF74F9081907C9D60908395E7909302
:10377000800994E6909381092CE0622F0E94DD2954
:10378000829FB001112430E020E0AB01420F531FB3
:10379000FA01EE0FFF1FE40FF51FEB5AF74F908170
:1037A00096FD17C02F5F3F4F2C30310571F78130E8
:1037B00009F0AFC01092800082E0809381001092E7
:1037C000850010928400B19A80916F00826080938E
:1037D0006F00E0917F098E2F90E0FC01EE0FFF1F3C
:1037E000E80FF91FEB5AF74F80818064808390E0E7
:1037F00080E00E9498012091880930918909032E68
:10380000000C440B550B60E077E883E993E00E94DD
:103810006228CA01B90122EC31E040E050E00E9488
:103820006228209384093093850940938609509338
:10383000870960E086E30E94770510928B0710925B
:103840008A070FEF1FEF66246A94762C80918A070F
:1038500090918B078130910509F424C6823091053F
:1038600009F443C6892B09F0C9C60E94E30C60E045
:1038700081E00E94EE0C60E086EE98E00E94200D50
:103880006DE874E086EE98E00E94410E60E086EEFE
:1038900098E00E94200D60ED77E080E090E00E94CB
:1038A000500880916002882309F4A8C60E94E30CA6
:1038B0008AE994E00E94320E1092890710928807DC
:1038C000109287071092860789E799E00E94340FCB
:1038D00083E799E00E94340F80918507882309F4DB
:1038E000D8C1809184078111D4C10E94EA088B83DA
:1038F000882309F468C18091860761E08B5F0E948C
:10390000EE0C9B81953589F589EF92E00E94320E8D
:10391000E3CF823061F41092900080939100109276
:1039200095001092940088BB8093710052CF833031
:1039300069F41092A00082E08093A1001092A5008B
:103940001092A40089BB8093720043CF811141CFB4
:103950001092200182E080932101109225011092A3
:1039600024018ABB8093730034CF2B81243419F453
:103970008CEF92E0CBCF3B8181E093E0333531F2A5
:103980004B81433409F06BC085E093E00E94320E16
:10399000809186079091870718161906D4F58091B3
:1039A000880790918907181619069CF5880F991FAA
:1039B000FC01E05CFD4F1183008360E286EE98E03D
:1039C0000E9420028091860761E08B5F0E94EE0CCE
:1039D00060E286EE98E00E94200280918807909134
:1039E00089079D838C83BC0189E799E00E94880E3A
:1039F0002C813D812150310930938907209388071C
:103A0000809186079091870701979093870780930D
:103A100086078091880790918907892B09F05CCFF0
:103A2000709241026092400270E060E089E799E0A4
:103A30000E94880E89E799E00E94340F60E286EECA
:103A400098E00E9420028091860761E08B5F0E94CF
:103A5000EE0C60E286EE98E00E9420023DCF3B81B2
:103A6000383419F58BE093E00E94320E0E94E30C8B
:103A700060E081E00E94EE0C6BEA74E086EE98E074
:103A80000E94410E61E081E00E94EE0C69EB74E05F
:103A900086EE98E00E94410E68EE73E080E090E0D0
:103AA0000E9450080E94E30C17CF4B814534E9F582
:103AB00089ED92E00E94320E809140029091410285
:103AC000892B81F58091420290914302892B51F517
:103AD0008091440290914502892B21F58091460204
:103AE00090914702892BF1F480914802909149020C
:103AF0000196C1F480914A0290914B02019691F493
:103B000080914C0290914D02019661F480914E0299
:103B100090914F02019631F481E0809384070E94D6
:103B20005C12DACE10928507D7CE6FE273E08CEA92
:103B300097E00E94410E8B810E946D0D8091880755
:103B40009091890708970CF049C080918607909161
:103B5000870708970CF042C06B8186EE98E00E94C0
:103B600020028091860761E08B5F0E94EE0C6B81E2
:103B700086EE98E00E9420026B8189E799E00E941E
:103B8000C30E3B8130533B83809188079091890716
:103B9000FC01EE0FFF1FE05CFD4F232F330F330BB3
:103BA00031832083019690938907809388078091C1
:103BB00086079091870701969093870780938607E1
:103BC0004B81411189CE60E080E00E94EE0C65EDF2
:103BD00074E086EE98E00E94410E7ECE87E393E08B
:103BE0000E94320E81E080937E070E94E30C809158
:103BF0007E07882399F160E080E00E94EE0C69EC7A
:103C000074E086EE98E00E94410E61E083E00E943D
:103C1000EE0C63ED72E086EE98E00E94410E0E9489
:103C2000EA08853421F710928907109288071092CC
:103C300087071092860780E492E00E94A60C0E94FB
:103C4000E30C60E080E00E94EE0C65ED74E086EE2F
:103C500098E00E94410E10927E07C9CF89E799E053
:103C60000E94340F8BE593E00E94320E809188070A
:103C7000909189070E94C80D8BE693E00E94320E56
:103C800080918607909187070E94C80D10927E0749
:103C900023CE80EE94E00E94320E89E799E00E94E4
:103CA0005A0D0E94540D0E94E30C83EF94E00E9491
:103CB000320E10928907109288071092870710928F
:103CC000860781E08093850780918407909185071E
:103CD000992309F4AAC1811124C20E94EA088B83A6
:103CE000882309F43CC18091860761E08B5F0E94C4
:103CF000EE0C8B81853529F489EF92E00E94320E1B
:103D0000E3CF9B81943419F48CEF92E0F7CF2B81B1
:103D100081E093E0233591F33B81333409F06BC0AC
:103D200085E093E00E94320E80918607909187078C
:103D300018161906D4F580918807909189071816EE
:103D400019069CF5880F991FFC01E05BFD4F11835C
:103D5000008360E286EE98E00E9420028091860750
:103D600061E08B5F0E94EE0C60E286EE98E00E94BC
:103D7000200280918807909189079D838C83BC01E4
:103D800083E799E00E94880E2C813D812150310902
:103D90003093890720938807809186079091870741
:103DA0000197909387078093860780918807909169
:103DB0008907892B09F088CF7092510260925002D6
:103DC00070E060E083E799E00E94880E83E799E065
:103DD0000E94340F60E286EE98E00E9420028091FB
:103DE000860761E08B5F0E94EE0C60E286EE98E051
:103DF0000E94200269CF3B81383419F58BE093E0B3
:103E00000E94320E0E94E30C60E081E00E94EE0C02
:103E10006BEA74E086EE98E00E94410E61E081E07A
:103E20000E94EE0C69EB74E086EE98E00E94410E71
:103E300068EE73E080E090E00E9450080E94E30C7E
:103E400043CF4B814534E9F589ED92E00E94320E73
:103E50008091500290915102892B81F580915202FC
:103E600090915302892B51F5809154029091550203
:103E7000892B21F58091560290915702892BF1F4FC
:103E800080915802909159020196C1F480915A0292
:103E900090915B02019691F480915C0290915D0299
:103EA000019661F480915E0290915F02019631F477
:103EB00081E0809384070E945C1206CF10928507F0
:103EC00003CF6FE273E08CEA97E00E94410E8B8192
:103ED0000E946D0D809188079091890708970CF0DA
:103EE00049C0809186079091870708970CF042C0DF
:103EF0006B8186EE98E00E9420028091860761E047
:103F00008B5F0E94EE0C6B8186EE98E00E9420028F
:103F10006B8183E799E00E94C30E3B8130533B8362
:103F20008091880790918907FC01EE0FFF1FE05BED
:103F3000FD4F232F330F330B318320830196909352
:103F4000890780938807809186079091870701965B
:103F500090938707809386074B814111B5CE60E02F
:103F600080E00E94EE0C6BE473E086EE98E00E9425
:103F7000410EAACE87E393E00E94320E81E0809347
:103F80007E070E94E30C80917E07882399F160E010
:103F900080E00E94EE0C65EC72E086EE98E00E94F4
:103FA000410E61E083E00E94EE0C63ED72E086EE6C
:103FB00098E00E94410E0E94EA08853421F7109291
:103FC000890710928807109287071092860780E56C
:103FD00092E00E94A60C0E94E30C60E080E00E9448
:103FE000EE0C6BE473E086EE98E00E94410E1092B6
:103FF0007E07C9CF83E799E00E94340F8BE593E0F9
:104000000E94320E80918807909189070E94C80D06
:104010008BE693E00E94320E80918607909187078D
:104020000E94C80D10927E074FCE81117AC082E0A7
:1040300095E00E94320E83E799E00E945A0D0E949B
:10404000540D89E799E00E947D0E4B017D836C83BE
:1040500083E799E00E947D0E6B012B0183E195E0DF
:104060000E94320EC4010E94C80D8EE195E00E94AC
:10407000320EC6010E94C80DE0918207F0918307BD
:104080000190F081E02D309789F0808191812C8121
:104090003D812817390731F48281938148165906EA
:1040A00009F4FCC50480F581E02DEDCF8CE295E0AC
:1040B0000E94320E80918007909181070196909323
:1040C000810780938007049794F50E94E30C60E0D9
:1040D00080E00E94EE0C6EE375E086EE98E00E94B0
:1040E000410E609180077091810786EE98E00E94F2
:1040F000FC0D61E080E00E94EE0C6BE475E086EE62
:1041000098E00E94410E61E08FE30E94EE036CEDA7
:1041100075E080E090E00E94500860E08FE30E942C
:10412000EE031092840781E080938507BACB81E08B
:1041300080937F0761E08DE20E94EE0361E08FE3F0
:104140000E94EE0360ED77E080E090E00E9450086E
:1041500060E08DE20E94EE031092890710928807BA
:1041600010928707109286070E94E30C80917F07C8
:10417000882309F492C10E94EA088B83882309F4FA
:1041800061C18091860761E08B5F0E94EE0C3B81EC
:1041900089EF92E0353529F04B81443429F48CEFD6
:1041A00092E00E94320EE2CF8B81833519F481E0D8
:1041B00093E0F7CF9B81933409F057C085E093E0FB
:1041C0000E94320E80918607909187071816190673
:1041D00084F58091880790918907181619064CF587
:1041E000880F991FFC01E05BFD4F1183008360E2A3
:1041F00086EE98E00E9420028091860761E08B5F46
:104200000E94EE0C60E286EE98E00E94200280910F
:104210008807909189070197909389078093880771
:1042200080918607909187070197909387078093E5
:1042300086078091880790918907892B09F096CF8E
:10424000709251026092500260E286EE98E00E9405
:1042500020028091860761E08B5F0E94EE0C60E295
:1042600086EE98E00E94200281CF2B818BE093E0C4
:10427000283409F496CF3B81353409F099C089ED93
:1042800092E00E94320E8091500290915102892B4F
:1042900009F05BC08091520290915302019709F09E
:1042A00054C08091540290915502892B09F04DC061
:1042B0008091560290915702069709F046C080916E
:1042C000580290915902019609F03FC080915A021C
:1042D00090915B020196C9F580915C0290915D021C
:1042E000019699F580915E0290915F02019669F5C1
:1042F0000E94E30C60E083E00E94EE0C61E074E059
:1043000086EE98E00E94410E61E084E00E94EE0C8F
:104310006FE675E086EE98E00E94410E61E08EE364
:104320000E94EE0364EC79E080E090E00E94500887
:104330000E94E30C60E08EE30E94EE03109281077E
:104340001092800710927F0711CF0E94E30C60E06B
:1043500082E00E94EE0C6CE575E086EE98E00E942B
:10436000410E61E080E00E94EE0C69E675E086EEA9
:1043700098E00E94410E61E08DE20E94EE036CED38
:1043800075E080E090E00E94500860E08DE20E94BD
:10439000EE030E94E30C1092890710928807109296
:1043A00087071092860780E592E00E94A60CDECE79
:1043B0006FE273E08CEA97E00E94410E8B810E94CD
:1043C0006D0D809188079091890708970CF045C082
:1043D000809186079091870708970CF03EC06B810B
:1043E00086EE98E00E9420028091860761E08B5F54
:1043F0000E94EE0C6B8186EE98E00E9420028B8179
:1044000080538B838091880790918907FC01EE0F80
:10441000FF1FE05BFD4F4B81242F042E000C330B5C
:104420003183208301969093890780938807809138
:104430008607909187070196909387078093860758
:10444000411194CE60E081E00E94EE0C63EF73E0D6
:1044500086EE98E00E94410E89CE82ED93E00E94A4
:10446000320E81E080937E070E94430E8BE593E03D
:104470000E94320E80918807909189070E94C80D92
:104480008BE693E00E94320E809186079091870719
:104490000E94C80D10927E0769CE1092810710927B
:1044A00080073BCE0E94E30C60E081E00E94EE0CAE
:1044B00067E775E086EE98E00E94410E62E081E0D9
:1044C0000E94EE0C40917D0950917E09609179091E
:1044D00070917A0986EE98E00E94270282E090E0CF
:1044E00090938B0780938A0789C08CEA97E00E949B
:1044F0008502181619060CF081C08CEA97E00E941C
:1045000063028134910509F07CC08AE00E94C203F5
:10451000019709F051C00E94E30C60E080E00E9426
:10452000EE0C65E875E086EE98E00E94410E61E0D1
:1045300080E00E94EE0C64E975E086EE98E00E944F
:10454000410E88EE93E00E94B30568EE73E080E0D0
:1045500090E00E9450088DE20E9432058AE00E949D
:10456000C203019729F480E09FEF0E94AB07F6CFCA
:104570000E94E30C60E080E00E94EE0C6EE975E0C2
:1045800086EE98E00E94410E61E080E00E94EE0C11
:104590006FEA75E086EE98E00E94410E8CED95E0A2
:1045A0000E94B30564EF71E080E090E00E94500843
:1045B0008DE20E9432051CC00E94E30C60E080E0A6
:1045C0000E94EE0C67EB75E086EE98E00E94410ECB
:1045D00061E080E00E94EE0C65EC75E086EE98E00C
:1045E0000E94410E60ED77E080E090E00E9450086C
:1045F00022E030E030938B0720938A070E942A0341
:1046000025C98234910509F05FC089E00E94C20388
:10461000019709F046C00E94E30C60E080E00E9430
:10462000EE0C65E875E086EE98E00E94410E61E0D0
:1046300080E00E94EE0C65ED75E086EE98E00E9449
:10464000410E88EB9BE00E94B30564EF71E080E0CF
:1046500090E00E9450088DE20E94320589E00E949D
:10466000C203019729F480E091E00E94AB07F6CFE6
:104670000E94E30C60E080E00E94EE0C6EE975E0C1
:1046800086EE98E00E94410E61E080E00E94EE0C10
:104690006EED75E086EE98E00E94410E84EC99E0A4
:1046A0007FCF0E94E30C60E080E00E94EE0C66EE9B
:1046B00075E086EE98E00E94410E61E080E00E9485
:1046C000EE0C65EF75E08ACF8334910509F0C3C025
:1046D0000E94E30C60E080E00E94EE0C62E086EE57
:1046E00098E00E94200D65E076E086EE98E00E945A
:1046F000410E61E082E00E94EE0C61E086EE98E0FF
:104700000E94200D63E086EE98E00E94200D65E196
:1047100076E086EE98E00E94410E63E086EE98E037
:104720000E94200D84EB90E00E94980168E873E1FC
:1047300080E090E00E9450088CEA97E00E94850299
:104740001816190634F48CEA97E00E9463029A83E3
:1047500089830E9482080E9443276B017C018EE1BD
:1047600096E00E94320E60E070E0CB0129813A8130
:104770002434310521F120E030E040EC50E40E9487
:104780003E2787FF1CC08CEA97E00E94850218161E
:10479000190634F48CEA97E00E9463029A838983B5
:1047A0000E9482080E944327A70196010E94C52803
:1047B00020E030E04AE754E40E943229D7CF61E09C
:1047C0008EE30E94EE030E94E30C60E080E00E9412
:1047D000EE0C62E086EE98E00E94200D65E076E047
:1047E00086EE98E00E94410E61E082E00E94EE0CAD
:1047F00060E086EE98E00E94200D63E086EE98E08F
:104800000E94200D67E276E086EE98E00E94410E5D
:1048100063E086EE98E00E94200D90E080E00E9428
:10482000980180ED97E00E94B30568EE73E080E0A8
:1048300090E00E9450088DE20E94320568E873E122
:1048400080E090E00E94500860E08EE30E94EE035A
:1048500081E090E045CE8534910509F0F5C00E94D5
:10486000E30C60E080E00E94EE0C60E376E086EE10
:1048700098E00E94410E61E082E00E94EE0C69E344
:1048800076E086EE98E00E94410E80917B00877F63
:1048900080937B0090E490937C0080917A00806408
:1048A00080937A0080917A0086FDFCCF8091780019
:1048B00060917900762F682F072E000C880B990BDA
:1048C0000E94452720E030E04AE754E40E94322964
:1048D00020E030E44CE955E40E94A42720E030E0D9
:1048E00040E251E40E94322920E030E040E85FE3FA
:1048F0000E94C5286B017C014B015C01AC019B014E
:104900000E94D82965E476E0811126C016012701AE
:10491000E89457F82FEF3FEF4FE75FE7C201B1018F
:104920000E94D82981110CC02FEF3FEF4FE75FE7BE
:10493000C201B1010E943E2769E476E0181664F0D6
:104940002FEF3FEF4FE75FE4C701B6010E94D32985
:1049500018163CF46DE476E08CEA97E00E94450D71
:104960004DCE2FEF3FEF4FE75FECC701B6010E943E
:104970003E2787FDEFCF20E030E0A901C701B60157
:104980000E943E2787FF0BC06DE28CEA97E00E94F1
:10499000200246015701B7FAB094B7F8B0942AE064
:1049A00037ED43EA5BE3C501B4010E94C6284B0121
:1049B0005C010E94A4296B017C010E9443279B019A
:1049C000AC01C501B4010E94C5284B015C012AE07D
:1049D000B701A6018CEA97E00E947C0D6EE28CEA9A
:1049E00097E00E94200220E030E040E251E4C5015F
:1049F000B4010E94A4274B015C010E94A4296B0111
:104A0000F12CE12C2AE0B701A6018CEA97E00E9484
:104A10007C0DC701B6010E9443279B01AC01C50173
:104A2000B4010E94C52820E030E040E251E40E9439
:104A3000A4270E94A429AB0170E060E02AE08CEA80
:104A400097E00E947C0DDACD8033910529F50E9414
:104A5000E30C60E080E00E94EE0C61E576E086EE1B
:104A600098E00E94410E61E082E00E94EE0C60E658
:104A700076E086EE98E00E94410E61E088E30E94B5
:104A8000EE0361E089E30E94EE0361E08AE30E94A5
:104A9000EE0361E08BE342C08133910521F50E9472
:104AA000E30C60E080E00E94EE0C61E576E086EECB
:104AB00098E00E94410E61E082E00E94EE0C6BE6FD
:104AC00076E086EE98E00E94410E60E088E30E9466
:104AD000EE0360E089E30E94EE0360E08AE30E9457
:104AE000EE0360E0D7CF82339105D9F40E94E30C46
:104AF00060E080E00E94EE0C64E776E086EE98E0ED
:104B00000E94410E61E082E00E94EE0C60E676E0D9
:104B100086EE98E00E94410E61E088E30E94EE0379
:104B20006DCD83339105C1F40E94E30C60E080E019
:104B30000E94EE0C64E776E086EE98E00E94410E5B
:104B400061E082E00E94EE0C6BE676E086EE98E093
:104B50000E94410E60E0E1CF84339105C9F40E94C8
:104B6000E30C60E080E00E94EE0C61E876E086EE07
:104B700098E00E94410E61E082E00E94EE0C60E647
:104B800076E086EE98E00E94410E61E089E3C6CFB0
:104B900085339105C1F40E94E30C60E080E00E943F
:104BA000EE0C61E876E086EE98E00E94410E61E04E
:104BB00082E00E94EE0C6BE676E086EE98E00E94C2
:104BC000410E60E0E3CF86339105C9F40E94E30C07
:104BD00060E080E00E94EE0C6BE876E086EE98E004
:104BE0000E94410E61E082E00E94EE0C60E676E0F9
:104BF00086EE98E00E94410E61E08AE38FCF873312
:104C00009105C1F40E94E30C60E080E00E94EE0C8C
:104C10006BE876E086EE98E00E94410E61E082E06B
:104C20000E94EE0C6BE676E086EE98E00E94410E64
:104C300060E0E3CF88339105B9F40E94E30C60E0B3
:104C400080E00E94EE0C6BE976E086EE98E00E9430
:104C5000410E61E082E00E94EE0C60E676E086EEB6
:104C600098E00E94410E15CFC99709F0C7CC0E9469
:104C7000E30C60E080E00E94EE0C6BE976E086EEEB
:104C800098E00E94410E61E082E00E94EE0C6BE62B
:104C900076E086EE98E00E94410E23CF0E94E30C5E
:104CA00060E080E00E94EE0C6AEA76E086EE98E032
:104CB0000E94410E61E080E00E94EE0C6AEB76E01B
:104CC00086EE98E00E94410E61E08DE20E94EE03C4
:104CD00061E08EE30E94EE0361E088E30E94EE0350
:104CE00061E089E30E94EE0361E08AE30E94EE0343
:104CF00061E08BE30E94EE0360ED77E080E090E0FE
:104D00000E94500860E08DE20E94EE038AEC96E07B
:104D10000E94320E21E030E030938B0720938A0707
:104D200010926002FEC981E699E00E943A0F87E680
:104D300099E00E943A0F8DE699E00E943A0F83E7CE
:104D400099E00E943A0F89E799E00C943A0FFC0130
:104D500088279927E89421912032E9F3293010F02F
:104D60002E30C8F32B3241F02D3239F4689404C050
:104D70000E940C27820F911D219120532A30C0F3ED
:104D80001EF4909581959F4F08951F93FC019927DC
:104D90008827BC01E89411911032E9F3193010F022
:104DA0001E30C8F31B3251F01D3249F4689406C01E
:104DB0000E94F726610F711D811D911D11911053E5
:104DC0001A30B0F33EF490958095709561957F4FC1
:104DD0008F4F9F4F1F910895BB274A3031F499237D
:104DE00022F4BDE2909581959F4F0C941527592F81
:104DF000482F372F262F660F771F881F991F660FA2
:104E0000771F881F991F620F731F841F951F660FDE
:104E1000771F881F991F08957AE0979F902D879F8D
:104E2000802D910D11240895BB27FB015527AA273A
:104E3000880F991FAA1FA41710F0A41B8395505127
:104E4000B9F7A05DAA3308F0A95DA193009779F79F
:104E5000B111B1931192CB010C942E27DC01FC010E
:104E6000672F71917723E1F7329704C07C916D939E
:104E700070836291AE17BF07C8F308950E94802720
:104E800008F481E00895E89409C097FB3EF49095FA
:104E90008095709561957F4F8F4F9F4F9923A9F013
:104EA000F92F96E9BB279395F695879577956795A2
:104EB000B795F111F8CFFAF4BB0F11F460FF1BC0E6
:104EC0006F5F7F4F8F4F9F4F16C0882311F096E979
:104ED00011C0772321F09EE8872F762F05C0662327
:104EE00071F096E8862F70E060E02AF09A95660FE0
:104EF000771F881FDAF7880F9695879597F9089599
:104F0000990F0008550FAA0BE0E8FEEF16161706DA
:104F1000E807F907C0F012161306E407F50798F042
:104F2000621B730B840B950B39F40A2661F0232B5B
:104F3000242B252B21F408950A2609F4A140A695D7
:104F40008FEF811D811D08950E94B7270C9428289A
:104F50000E941A2838F00E94212820F0952311F091
:104F60000C9411280C94172811240C945C280E948E
:104F7000392870F3959FC1F3950F50E0551F629F3C
:104F8000F001729FBB27F00DB11D639FAA27F00DA2
:104F9000B11DAA1F649F6627B00DA11D661F829FC9
:104FA0002227B00DA11D621F739FB00DA11D621FAE
:104FB000839FA00D611D221F749F3327A00D611DCB
:104FC000231F849F600D211D822F762F6A2F1124AD
:104FD0009F5750409AF0F1F088234AF0EE0FFF1FE0
:104FE000BB1F661F771F881F91505040A9F79E3F37
:104FF000510580F00C9411280C945C285F3FE4F379
:10500000983ED4F3869577956795B795F795E7958C
:105010009F5FC1F7FE2B880F911D9695879597F995
:10502000089597F99F6780E870E060E008959FEF2A
:1050300080EC089500240A9416161706180609062F
:10504000089500240A9412161306140605060895FE
:10505000092E0394000C11F4882352F0BB0F40F486
:10506000BF2B11F460FF04C06F5F7F4F8F4F9F4FC6
:10507000089557FD9058440F551F59F05F3F71F048
:105080004795880F97FB991F61F09F3F79F08795AF
:105090000895121613061406551FF2CF4695F1DF38
:1050A00008C0161617061806991FF1CF86957105C8
:1050B000610508940895E894BB2766277727CB01FC
:1050C00097F90895052E97FB1EF400940E94792805
:1050D00057FD07D00E94942807FC03D04EF40C948F
:1050E000792850954095309521953F4F4F4F5F4F10
:1050F000089590958095709561957F4F8F4F9F4F44
:1051000008950E94B628A59F900DB49F900DA49F6E
:10511000800D911D11240895B7FF0C9481280E94E1
:105120008128821B930B0895A1E21A2EAA1BBB1B98
:10513000FD010DC0AA1FBB1FEE1FFF1FA217B30763
:10514000E407F50720F0A21BB30BE40BF50B661F79
:10515000771F881F991F1A9469F76095709580953D
:1051600090959B01AC01BD01CF010895A29FB001B4
:10517000B39FC001A39F700D811D1124911DB29F8B
:10518000700D811D1124911D08955058BB27AA2729
:105190000E94DD280C9428280E941A2838F00E94CA
:1051A000212820F039F49F3F19F426F40C94172895
:1051B0000EF4E095E7FB0C941128E92F0E943928A2
:1051C00058F3BA17620773078407950720F079F43C
:1051D000A6F50C945B280EF4E0950B2EBA2FA02DAB
:1051E0000B01B90190010C01CA01A0011124FF2794
:1051F000591B99F0593F50F4503E68F11A16F0408F
:10520000A22F232F342F4427585FF3CF469537958D
:105210002795A795F0405395C9F77EF41F16BA0B52
:10522000620B730B840BBAF09150A1F0FF0FBB1F00
:10523000661F771F881FC2F70EC0BA0F621F731F49
:10524000841F48F4879577956795B795F7959E3FA6
:1052500008F0B0CF9395880F08F09927EE0F979537
:10526000879508950E9446290C9428280E94212899
:1052700058F00E941A2840F029F45F3F29F00C945E
:10528000112851110C945C280C9417280E9439287D
:1052900068F39923B1F3552391F3951B550BBB2765
:1052A000AA2762177307840738F09F5F5F4F220FAA
:1052B000331F441FAA1FA9F335D00E2E3AF0E0E8A1
:1052C00032D091505040E695001CCAF72BD0FE2FEB
:1052D00029D0660F771F881FBB1F2617370748077F
:1052E000AB07B0E809F0BB0B802DBF01FF27935837
:1052F0005F4F3AF09E3F510578F00C9411280C94C2
:105300005C285F3FE4F3983ED4F3869577956795E4
:10531000B795F7959F5FC9F7880F911D969587956B
:1053200097F90895E1E0660F771F881FBB1F62178A
:1053300073078407BA0720F0621B730B840BBA0B48
:10534000EE1F88F7E09508950E94412888F09F5746
:1053500098F0B92F9927B751B0F0E1F0660F771F99
:10536000881F991F1AF0BA95C9F714C0B13091F08F
:105370000E945B28B1E008950C945B28672F782F7A
:105380008827B85F39F0B93FCCF386957795679554
:10539000B395D9F73EF490958095709561957F4FC0
:1053A0008F4F9F4F08950E94802708F48FEF089534
:1053B0000E948027880B990B0895991B79E004C0FF
:1053C000991F961708F0961B881F7A95C9F7809544
:1053D000089597FB072E16F4009407D077FD09D0A7
:1053E0000E94052A07FC05D03EF4909581959F4FB9
:1053F0000895709561957F4F0895EE0FFF1F881FE8
:105400008BBF0790F691E02D1994AA1BBB1B51E1AD
:1054100007C0AA1FBB1FA617B70710F0A61BB70B24
:10542000881F991F5A95A9F780959095BC01CD01C9
:1054300008950F931F93CF93DF938230910510F45B
:1054400082E090E0E0919E09F0919F0930E020E039
:10545000B0E0A0E0309799F42115310509F44AC075
:10546000281B390B24303105D8F58A819B816115C1
:10547000710589F1FB0193838283FE0111C0408194
:1054800051810281138148175907E0F048175907E5
:1054900099F4109761F012960C93129713961C933F
:1054A0003296CF01DF91CF911F910F910895009314
:1054B0009E0910939F09F4CF2115310551F0421731
:1054C000530738F0A901DB019A01BD01DF01F801A2
:1054D000C1CFEF01F9CF90939F0980939E09CDCF63
:1054E000FE01E20FF31F819391932250310939831A
:1054F0002883D7CF20919C0930919D09232B41F41B
:1055000020917C0230917D0230939D0920939C096B
:1055100020917A0230917B022115310541F42DB79B
:105520003EB740917E0250917F02241B350BE091E3
:105530009C09F0919D09E217F307A0F42E1B3F0B85
:105540002817390778F0AC014E5F5F4F24173507F5
:1055500048F04E0F5F1F50939D0940939C09819323
:1055600091939FCFF0E0E0E09CCFCF93DF93009743
:10557000E9F0FC01329713821282A0919E09B0914A
:105580009F09ED0130E020E01097A1F420813181E6
:10559000820F931F20919C0930919D09281739078C
:1055A00009F061C0F0939D09E0939C09DF91CF91D0
:1055B0000895EA01CE17DF07E8F54A815B819E0175
:1055C00041155105B1F7E901FB83EA8349915991EE
:1055D000C40FD51FEC17FD0761F4808191810296FD
:1055E000840F951FE90199838883828193819B832E
:1055F0008A83F0E0E0E012968D919C9113970097DA
:10560000B9F52D913C911197CD010296820F931F10
:1056100020919C0930919D092817390739F6309758
:1056200051F510929F0910929E09B0939D09A09385
:105630009C09BCCFD383C28340815181840F951FC5
:10564000C817D90761F44E5F5F4F88819981480F71
:10565000591F518340838A819B81938382832115C3
:10566000310509F0B0CFF0939F09E0939E099ECFDA
:10567000FD01DC01C0CF13821282D7CF4F925F921F
:105680006F927F928F929F92AF92BF92CF92DF9252
:10569000EF92FF920F931F93CF93DF938C010097AC
:1056A00099F4CB01DF91CF911F910F91FF90EF9073
:1056B000DF90CF90BF90AF909F908F907F906F9032
:1056C0005F904F900C94192AFC01E60FF71F9C0184
:1056D00022503109E217F30708F4AEC0D901CD9189
:1056E000DC911197C617D70720F1C530D10578F0A6
:1056F000CE0104978617970750F0C61BD70B229749
:10570000C193D1936D937C93CF010E94B52AC801B8
:10571000DF91CF911F910F91FF90EF90DF90CF908D
:10572000BF90AF909F908F907F906F905F904F90C1
:1057300008955B01AC1ABD0A4C018C0E9D1EA09110
:105740009E09B0919F09512C412CF12CE12C10970E
:1057500031F580919C0990919D098815990509F072
:105760005CC04616570608F058C080917A029091A6
:105770007B02009741F48DB79EB740917E02509115
:105780007F02841B950BE817F90708F055C0F093CA
:105790009D09E0939C09F90171836083B8CF8D91D5
:1057A0009C91119712966C90129713967C90139778
:1057B000A815B90559F56C0142E0C40ED11CCA14F4
:1057C000DB0420F1AC014A195B09DA011296159746
:1057D00080F06282738251834083D9016D937C9300
:1057E000E114F10471F0D7011396FC93EE93129734
:1057F0008ECF22968C0F9D1FF90191838083F30138
:10580000EFCFF0939F09E0939E0981CF4816590688
:1058100008F42C017D01D3019ACFCB010E94192AF3
:105820007C01009749F0AE01B8010E941F2CC8010D
:105830000E94B52A87016BCF10E000E068CFFB0122
:10584000DC0102C001900D9241505040D8F70895FC
:10585000FB01DC0101900D920020E1F7089511E0B9
:10586000C4E6D1E000E006C0802FFE010E94FD29C1
:105870002196011DC536D10780E00807A9F7F894E5
:10588000FFCFFFFFFFFFFFFFFFFFFFFFFFFFFFFF58
:10589000FFFFFFFFFFFFFFFFFFFFFFFFFFFFFFFF18
:1058A000FFFF000A0A0A00110E00000103161C087F
:1058B00000000E01011F1B1B1F000E11111F1B1BDF
:1058C0001F00FFFFFFFFFFFFFFFFFFFFFFFFFFFFC7
:1058D000FFFFFFFFFFFFFFFFFFFFFFFFFFFFFFFFD8
:1058E000FFFF01FF31302F2E353433323132335543
:1058F0003435364437383953433048450000A00921
:105900008000000040001400540000000000BD02B0
:10591000270254020A038502630277020000000096
:105920008C0B5F0BA30C510B580B550B520B00004B
:105930000000200D2702A30CA20C0000000082072B
:105940002E05EB030D0A005041535320544F4F20B6
:105950004C4F4E4700505245535320454E544552EC
:105960000052454749535452414E444F002052453E
:105970004749535452414E444F2000555000444F24
:10598000574E00324E4400434C4541520048454C6E
:105990005000434C415645204D454E4F5220444502
:1059A000203800454E544552204143455054415201
:1059B000005465636C613A20004552524F522049B1
:1059C00044204D5559204752414E444500444947D3
:1059D00049544520535520434C41564500696E6457
:1059E0006963652061637475616C3A200063757248
:1059F000736F722061637475616C3A20005245497F
:105A00004E53455254414E444F20434C415645005D
:105A10005041535320434F494E434944454E00643F
:105A200061746F7320766563746F72006E756D6557
:105A3000726F0050415353204E4F20434F494E4305
:105A4000494445005245494E475245534520434C31
:105A5000415645004552524F5220434C4156452035
:105A60004D5559204752414E4445004553504552EB
:105A7000414E444F20434C41564520474552454EE8
:105A80005445004249454E56454E49444F00455203
:105A9000524F522020202000434C41564520494E71
:105AA000434F52524543544F0053495354454D417F
:105AB00020424C4F51554541444F004156495345B2
:105AC00020414C20474552454E54450043524541E4
:105AD0004E444F20454D504C4541444F00494420D1
