:100000000C9465010C9496010C9496010C94960145
:100010000C9496010C9496010C9496010C94960104
:100020000C9496010C9496010C9496010C949601F4
:100030000C9496010C947A0F0C9496010C949601F2
:100040000C9496010C940E110C9496010C9496014C
:100050000C9496010C9496010C9496010C943A1011
:100060000C9496010C9404100C94DA0F0C949601E5
:100070000C9496010C9496010C9496010C949601A4
:100080000C94E0100C9496010C9496010C9496013B
:100090000C9496010C9496010C9496010C943C11CE
:1000A0000C9496010C9496010C94B2100C94960149
:1000B0000C9496010C9496010C9496010C94841067
:1000C0000C9496010C9496010C9496010C94960154
:1000D0000C9496010C9496010C9496010C94960144
:1000E0000C9496010C94A6030C94A30C0C9463023C
:1000F0000C9498030C94B0030C94200D0C949E0364
:100100000C94520B0C9416190C94550B0C948207FA
:100110000C9479030C94AE040C9485020C94E104C5
:100120000C94BA040C948B030C94A20C0C949403BE
:100130000C94FC040C940A030C9454020C94B40325
:100140000C945F0B0C9405050C94CB040C94580B89
:100150000C9422050C94FE040C942E050C94B90307
:100160000C947F030C94EB030C9483030C949C2558
:100170000C948C0B0C9411050C948E030C94870337
:100180000C94A2030C94BE030C94510B0C94BA0370
:100190000C94BD020C9427020C9429050C94AC031A
:1001A0000C94770200002100240027002A002D0073
:1001B0003000330001010000040107010A010000C2
:1001C00020002300260029002C002F00320000010F
:1001D000000003010601090100000A0B02090C0DD1
:1001E0000E080703040100000000000000000000EA
:1001F00000000000000000000000000000000000FF
:1002000000000000121110000000000000000000BB
:1002100000000000000000000000000000000102DB
:100220001020200808102040102040800201020108
:1002300008040201010204081020408080402010C0
:100240000804020180040201804020100804020119
:100250000804020101020408102040800102040881
:100260001020408000002200250028002B002E00D6
:100270003100340002010000050108010B010505F1
:100280000505070508080808020202020A0A08080C
:10029000040404040101010101010101030303033A
:1002A00003030303040707070C0C0C0C0C0C0C0CC9
:1002B0000202020206060606060606060B0B0B0BDA
:1002C0000B0B0B0B020016199C2511241FBECFEF40
:1002D000D1E2DEBFCDBF00E00CBF16E0A0E0B2E08F
:1002E000E4E9F6E500E00BBF02C007900D92AC36E2
:1002F000B107D9F729E0ACE6B6E001C01D92A23300
:10030000B207E1F711E0C4E6D1E000E006C02197B2
:100310000109802FFE010E940629C336D10780E023
:100320000807A9F70E94441A0C94382B0C9400007B
:100330008F929F92AF92BF92FF920F931F93CF9392
:10034000DF93F09011092FE22F1508F44CC0209193
:10035000130908E512E0021B110927FD1395000F90
:10036000111F000F111F20911209C8E8D0E0C21B15
:10037000D10927FDD395CC0FDD1FCC0FDD1F4E011A
:100380000D2E000CAA08BB089801012E000C440B8E
:10039000550B281939094A095B09DC010E94952788
:1003A00024EB30E040E050E00E946B27820E931E69
:1003B000A41EB51E8C169D062CF0E8018016910631
:1003C0000CF4E4012297CC0FDD1F2FB7F8948F2D8A
:1003D00090E0FC01EE0FFF1FE80FF91FE951F84F05
:1003E000D283C1832FBFDF91CF911F910F91FF90D7
:1003F000BF90AF909F908F90089596E0899FD00115
:100400001124AC57B74F90967C936E935F9791E011
:1004100091969C939197E091F108F091F208909158
:10042000F008992339F0309751F0811108C080917C
:10043000A0081994309719F05C968C91FACF089522
:10044000DC01ED91FC910190F081E02D1994AF92C7
:10045000BF92CF92DF92EF92FF920F931F93CF93B1
:10046000DF936C017B018B01040F151FEB015E0113
:10047000AE18BF08C017D10759F06991D601ED91A8
:10048000FC910190F081E02DC6011995892B79F737
:10049000C501DF91CF911F910F91FF90EF90DF90F9
:1004A000CF90BF90AF900895FC01538D448D252FC0
:1004B00030E0842F90E0821B930B541710F0CF96FE
:1004C000089501970895FC01918D828D981761F030
:1004D000A28DAE0FBF2FB11D5D968C91928D9F5F47
:1004E0009F73928F90E008958FEF9FEF0895FC0126
:1004F000918D828D981731F0828DE80FF11D858DD9
:1005000090E008958FEF9FEF0895FC01918D228D6B
:10051000892F90E0805C9F4F821B91098F739927F0
:1005200008958EE397E00E94850221E0892B09F46B
:1005300020E0822F0895FC01A48DA80FB92FB11DD2
:10054000A35ABF4F2C91848D90E001968F73992709
:10055000848FA689B7892C93A089B1898C918370E7
:1005600080648C93938D848D981306C00288F389E0
:10057000E02D80818F7D80830895EF92FF920F930D
:100580001F93CF93DF93EC0181E0888F9B8D8C8D3F
:1005900098131AC0E889F989808185FF15C09FB733
:1005A000F894EE89FF896083E889F98980818370F6
:1005B000806480839FBF81E090E0DF91CF911F91A5
:1005C0000F91FF90EF900895F62E0B8D10E00F5FC6
:1005D0001F4F0F731127E02E8C8D8E110CC00FB69C
:1005E00007FCFACFE889F989808185FFF5CFCE0134
:1005F0000E949B02F1CFEB8DEC0FFD2FF11DE35A12
:10060000FF4FF0829FB7F8940B8FEA89FB898081B6
:100610008062CFCFCF93DF93EC01888D8823B9F030
:10062000AA89BB89E889F9898C9185FD03C08081FD
:1006300086FD0DC00FB607FCF7CF8C9185FFF2CF7A
:10064000808185FFEDCFCE010E949B02E9CFDF9133
:10065000CF91089580E090E0892B29F00E949102CB
:1006600081110E94000080E090E0892B49F080E039
:1006700090E0892B29F00E94000081110E94000067
:1006800080E090E0892B49F080E090E0892B29F010
:100690000E94000081110E94000080E090E0892B00
:1006A00049F080E090E0892B29F00E940000811140
:1006B0000C94000008958150823108F05AC0E82F50
:1006C000F0E08827E959FC4F8F4F0C9406298703E7
:1006D0008B0379037F038303B9038E039403980389
:1006E0009E03A203A603AC03B003B903B403BA0389
:1006F000BE03809180008F77809380000895809161
:1007000080008F7DF9CF80918000877FF5CF84B501
:100710008F7784BD089584B58F7DFBCF8091B00025
:100720008F778093B00008958091B0008F7DF9CFCE
:10073000809190008F778093900008958091900031
:100740008F7DF9CF80919000877FF5CF8091A000B9
:100750008F778093A00008958091A0008F7DF9CFBE
:100760008091A000877FF5CF809120018F778093C3
:1007700020010895809120018F7DF9CF8091200183
:10078000877FF5CFCF93DF93282F30E0F901E85230
:10079000FE4F8491F901E25EFD4FD491F901E258D8
:1007A000FD4FC491CC23A1F081110E945B03EC2F7B
:1007B000F0E0EE0FFF1FE254FE4FA591B491EC91D3
:1007C000ED2381E090E009F480E0DF91CF9108957E
:1007D00080E090E0FACF862F0C94C2031F93CF9352
:1007E000DF93282F30E0F901E852FE4F8491F901A0
:1007F000E25EFD4FD491F901E258FD4FC491CC2344
:10080000A9F0162F81110E945B03EC2FF0E0EE0F90
:10081000FF1FEC59FD4FA591B4918FB7F894EC915F
:10082000111108C0D095DE23DC938FBFDF91CF91EB
:100830001F910895DE2BF8CFCF93DF93EC018091C9
:100840001C0990911D09029749F4C130D10509F4A2
:100850003DC07CF560E0209709F439C080911C0907
:1008600090911D09049749F4C130D10509F45EC087
:100870000CF039C0209709F444C080911C09909174
:100880001D09059709F0E7C0CA30D10508F0E3C09B
:10089000FE018827E15BFB4F8F4F0C940629AE04C5
:1008A000BA04CB04E104FC04FE040505110522058D
:1008B0002905C230D105A9F060E0C330D10571F639
:1008C000809120090E94EE0360E006C061E0809103
:1008D00020090E94EE0361E0809122090E94EE034C
:1008E000BDCF61E0EDCFC230D10539F1C330D105C4
:1008F00009F0C3CF61E0809120090E94EE0360E01F
:1009000022C061E0809120090E94EE0360E08091A6
:1009100022090E94EE0361E0809124090E94EE0307
:1009200060E0809126090E94EE03A7CF60E08091ED
:1009300020090E94EE0361E0EACF60E08091200987
:100940000E94EE0361E0809122090E94EE0360E0C4
:10095000809124090E94EE0361E0E3CF60E0809182
:1009600020090E94EE0361E0809122090E94EE03BB
:1009700061E00BC060E0809120090E94EE0361E01D
:10098000809122090E94EE0360E0809124090E9478
:10099000EE0360E010C060E0809120090E94EE0349
:1009A00061E0809122090E94EE0360E080912409B9
:1009B0000E94EE0361E0809126090E94EE0361E04F
:1009C00015C060E0809120090E94EE0361E08091F3
:1009D00022090E94EE0360E0809124090E94EE0348
:1009E00061E0809126090E94EE0360E08091280971
:1009F000DF91CF910C94EE0361E0E4CF61E0809150
:100A000020090E94EE0360E0E2CF61E080912009BE
:100A10000E94EE0360E0809122090E94EE0361E0F3
:100A2000DBCF61E0809120090E94EE0360E08091BD
:100A300022090E94EE0361E0809124090E94EE03E6
:100A400060E0CFCF61E0809120090E94EE0360E07A
:100A50008BCF60E0F8CFDF91CF910895862F642F80
:100A60000C94EE039091610289130DC0E4ECF2E066
:100A7000E4919FEF90936102E230E1F038F4EE23CD
:100A800081F0E13089F060E00C94EE03E43049F14C
:100A900010F1E530C1F7909173009D7F9093730042
:100AA000F2CF10926E00EFCF90916F009D7F9093E8
:100AB0006F00E9CF909170009D7F9093700091E05E
:100AC0009093B0009091B100987F94609093B100A2
:100AD0001092B300D8CF909171009D7F90937100D8
:100AE000D2CF909172009D7F90937200CCCFCF9324
:100AF000DF9390E0FC01E25EFD4F249182589D4F10
:100B0000FC0184918823C9F090E0880F991FFC01B3
:100B1000EC55FE4FA591B491FC01EC59FD4FC591E8
:100B2000D49161110DC09FB7F8948C9120958223C8
:100B30008C938881282328839FBFDF91CF910895CC
:100B4000623051F49FB7F8943C91822F80958323B3
:100B50008C93E8812E2BEFCF8FB7F894EC912E2B4E
:100B60002C938FBFEACF0F931F93CF938C0180916B
:100B700061028D3231F08F3FA1F1CF911F910F9122
:100B80000895E4ECF2E0C491C7FDF7CF61E08DE297
:100B90000E947705C1113FC0980150E040E068E431
:100BA00078EE81E090E00E946B27BA01A9014150E4
:100BB00051096109710985B5887F836085BD47BD8D
:100BC0008FEF9FEFDC0180933A0790933B07A09350
:100BD0003C07B0933D0780916E00826080936E0069
:100BE000CCCF8DE280936102E4ECF2E0C4918C2FD3
:100BF000CF3F09F4C2CFC23009F493C0B8F5CC237B
:100C000009F459C0C13009F46EC087FDB6CF61E068
:100C10008DE20E947705980150E040E0C23009F073
:100C2000DFC060E970ED83E090E00E946B27BA01BD
:100C3000A90141505109610971098091B100887F72
:100C400083608093B1004093B3008FEF9FEFDC018E
:100C50008093320790933307A0933407B0933507FE
:100C60008091700082608093700087CFC43009F457
:100C700099C008F478C0C53041F610922001109256
:100C800021018091210188608093210180912101BF
:100C9000816080932101EBEAF2E0E491F0E0EE0F55
:100CA000FF1FEC59FD4F85919491EBE4F2E0E49144
:100CB000E0931E076BCF14BC15BC84B5826084BD65
:100CC00085B5816085BDEBEAF2E0E491F0E0EE0FDE
:100CD000FF1FEC59FD4F85919491EBE4F2E0E49114
:100CE000E093250753CF10928000109281008091ED
:100CF0008100886080938100809181008160809371
:100D00008100EBEAF2E0E491F0E0EE0FFF1FEC5916
:100D1000FD4F85919491EBE4F2E0E491E093240798
:100D200035CF1092B0001092B1008091B000826077
:100D30008093B0008091B10081608093B100EBEAB4
:100D4000F2E0E491F0E0EE0FFF1FEC59FD4F8591CA
:100D500094919093230780932207EBE4F2E0E491CF
:100D6000E093210713CF1092900010929100809190
:100D700091008860809391008091910081608093C0
:100D80009100EBEAF2E0E491F0E0EE0FFF1FEC5986
:100D9000FD4F85919491EBE4F2E0E491E09320071C
:100DA000C3E0F4CE1092A0001092A1008091A100A7
:100DB00088608093A1008091A10081608093A10050
:100DC000EBEAF2E0E491F0E0EE0FFF1FEC59FD4F8B
:100DD00085919491EBE4F2E0E491E0931F07D6CE85
:100DE00060E072E18AE790E00E946B27DA01C901B6
:100DF0000197A109B109AC01C130D9F4209181005A
:100E0000287F21602093810090938900809388003F
:100E10008FEF9FEFDC018093360790933707A09305
:100E20003807B093390780916F00826080936F001C
:100E3000A4CEC330D9F420919100287F2160209363
:100E4000910090939900809398008FEF9FEFDC01C1
:100E500080932E0790932F07A0933007B09331070C
:100E60008091710082608093710087CEC430D9F484
:100E70002091A100287F21602093A1009093A900D8
:100E80008093A8008FEF9FEFDC0180932A07909357
:100E90002B07A0932C07B0932D07809172008260DE
:100EA000809372006ACEC530D9F420912101287F49
:100EB00021602093210190932901809328018FEFD5
:100EC0009FEFDC018093260790932707A0932807C4
:100ED000B0932907809173008260809373004DCE98
:100EE000C23009F4B0CE3CF4CC2309F468CEC13052
:100EF00009F043CE89CFC43009F20CF4A2CFC5303B
:100F0000D1F23BCE862F642F0C9477053FB7F8942F
:100F100080910C0790910D07A0910E07B0910F07DB
:100F200026B5A89B05C02F3F19F00196A11DB11D44
:100F30003FBFBA2FA92F982F8827BC01CD01620F80
:100F4000711D811D911D42E0660F771F881F991F3B
:100F50004A95D1F708954F925F926F927F928F9248
:100F60009F92AF92BF92EF92FF920F931F93CF93F6
:100F7000DF93EC0197FF04C0CC27DD27C81BD90BFA
:100F8000181619060CF061C081E090E090931509E5
:100F90008093140904E010E08AE0E82EF12C2097F9
:100FA00009F46FC00E94860780902A0990902B094F
:100FB000A0902C09B0902D092B013C01481859082C
:100FC0006A087B088090160990901709A09018096C
:100FD000B0901909481459046A047B0400F3609323
:100FE0002A0970932B0980932C0990932D098091E5
:100FF0001E0990911F092091140930911509213083
:10100000310559F5019690931F0980931E0920918F
:101010001A0930911B098217930721F410921F09B6
:1010200010921E09219780911E0990911F0920910D
:101030001C0930911D09B7012530310509F0B801AF
:101040000E94F2280E941C04AACF892B09F4A2CF87
:1010500010921509109214099DCF892B41F48091AB
:101060001A0990911B0990931F0980931E09809182
:101070001E0990911F09019790931F0980931E09E3
:10108000D1CFDF91CF911F910F91FF90EF90BF9043
:10109000AF909F908F907F906F905F904F9008954A
:1010A0008F929F92AF92BF92CF92DF92EF92FF9278
:1010B0004B015C010E9486076B017C010E94860740
:1010C0006C197D098E099F09683E73408105910561
:1010D000A8F321E0821A9108A108B10888EEC80E91
:1010E00083E0D81EE11CF11C81149104A104B10419
:1010F00029F7FF90EF90DF90CF90BF90AF909F9037
:101100008F9008952FB7F8946091080770910907A0
:1011100080910A0790910B072FBF08950F931F939B
:10112000CF93DF93C82FD62F86E0C89FF0011124FC
:10113000EC57F74F11A2878D90A181309105F1F006
:1011400058F082309105F1F1039709F440C0DF9126
:10115000CF911F910F9108956623C9F361E070E06C
:101160008C2F0E94FD010E9482086093DC0870931E
:10117000DD088093DE089093DF08E9CF0E948208A3
:101180000091DC081091DD082091DE083091DF0825
:10119000AB01BC01401B510B620B730B8091EE083D
:1011A0009091EF08B0E0A0E084179507A607B70775
:1011B00048F462E070E08C2FDF91CF911F910F9186
:1011C0000C94FD0163E070E0D111C1CFF4CF70E069
:1011D00060E0F1CF6F927F928F929F92AF92BF9219
:1011E000CF92DF92EF92FF920F931F93CF93DF93F3
:1011F00081E08093F0080E9482080091E00810913D
:10120000E1082091E2083091E308AB01BC01401BEA
:10121000510B620B730B8091EC089091ED08B0E0DC
:10122000A0E084179507A607B70708F014C1C0E02F
:101230008091EA08C81760F4E091E608F091E708A9
:10124000EC0FF11D62E080810E947705CF5FF0CF47
:10125000712C812C912C540183948091EB08781689
:1012600008F05FC0072D10E0E091E808F091E90870
:10127000E00FF11F61E080810E947705E091E808AE
:10128000F091E908E00FF11F60E080810E94EE0319
:10129000D501C401072C04C0880F991FAA1FBB1FCA
:1012A0000A94D2F76C017C01E094F094612C809157
:1012B000EA086816F8F4C62DD0E0E091E608F0914F
:1012C000E708EC0FFD1F80810E94C2032496CC0F1B
:1012D000DD1FCC57D74F892B41F4888199818C2908
:1012E0009D29998388836394E2CF888199818E2197
:1012F0009F21F7CFE091E808F091E908E00FF11F96
:1013000061E080810E94EE038091E8089091E908F5
:10131000080F191F60E0F80180810E94770573941F
:101320009CCFC4E8D8E0FE018FEF9FEF278D30A15E
:10133000232B21F4148E968F858F11A2369628E0E8
:10134000E03CF20799F7F12C96E0D92E8091EA085B
:10135000F81608F050C0E12C0F2D10E0000F111FFF
:101360000457174F2091EB08E21608F042C0F8012D
:10137000608171810E2C02C0769567950A94E2F720
:10138000F29E900111242E0D311DE4E8F8E080E07A
:10139000458D568D2417350709F461C08F5F369649
:1013A0008A30B1F760FF23C0E4E8F8E090E080E025
:1013B000448D411117C0E091E408F091E508E20F77
:1013C000F31F4081D89EF001D99EF00D1124EC57F7
:1013D000F74F448F368F258F10A2178E61E00E9441
:1013E0008E0805C0019636968A30910509F7E39478
:1013F000B9CFF394ABCF10E089A18111182F2696B5
:10140000F8E0C03CDF07C1F70E9482086093E00863
:101410007093E1088093E2089093E3081123D9F0D8
:101420008091A5088823B9F08091A3089091A40821
:10143000019789F48091A008DF91CF911F910F91BE
:10144000FF90EF90DF90CF90BF90AF909F908F90E4
:101450007F906F9008951092F00880E0EDCF61705A
:10146000BECFAF92BF92CF92DF92EF92FF920F93D7
:101470001F93CF93DF936B017A01EC01CD5FD84FBF
:1014800028813CE0389F8001399F100D1124A090E5
:101490007708B12C27FF1FC0FB01118210828881C1
:1014A0008F5F888388819801280F311D87FD3A95C9
:1014B000F6012A153B051CF488818C30C4F180812B
:1014C0009181049680349C4908F473C0F6018081B0
:1014D0009181049670C088819801280F311D87FD85
:1014E0003A952A153B05DCF68881A801480F511D65
:1014F00087FD5A95FA01EE0FFF1FE40FF51FE95122
:10150000F84F808186FFCBCF8881F801E80FF11D6D
:1015100087FDFA95CF01EE0FFF1FE80FF91FE95184
:10152000F84F808160E08F730E94EE03B8CF808116
:1015300091812881A801420F511D27FD5A959A01DA
:10154000FA01EE0FFF1FE20FF31FE951F84F21815F
:101550003281820F931FF7019183808388819801E4
:10156000280F311D87FD3A95F901EE0FFF1FE20F9D
:10157000F31FE951F84F808186FF22C08881080F50
:10158000111D87FD1A95F801EE0FFF1FE00FF11FE7
:10159000E951F84F808161E08F73DF91CF911F9106
:1015A0000F91FF90EF90DF90CF90BF90AF900C9491
:1015B000EE0380E49CE9F701918380838FEF8883B9
:1015C000DF91CF911F910F91FF90EF90DF90CF901F
:1015D000BF90AF9008951F93CF93DF93C1E0C09366
:1015E0009806882399F1D091B8001091BA008091A3
:1015F000BC008A7B8093BC0060E084E10E94EE0323
:1016000060E085E10E94EE031092DD06C093DF06E4
:101610001092DE0661E084E10E94EE0361E085E164
:101620000E94EE038091B9008E7F8093B900809173
:10163000B9008D7F8093B90088E48093B80085E479
:101640008093BC001093BA00D093B800DF91CF9183
:101650001F9108952091B906260F3327331F213299
:101660003105ECF42091DD06FC0190E080E02430AF
:1016700069F082E00895A091B9062191AC01475626
:10168000594FA40FB52FB11D2C930196861798F3CF
:101690008091B906680F6093B90680E0089581E0F3
:1016A000089508958FEF9FEF08958FEF9FEF0895AE
:1016B0008091920690E09195819591090895CF923D
:1016C000DF92EF92FF920F931F93CF93DF937C01F2
:1016D000CB018A0120919106222389F0EB016B0155
:1016E000C40ED51ECC15DD0569F06991D701ED91C9
:1016F000FC910190F081E02DC7011995F3CF642F83
:101700000E942A0BC801DF91CF911F910F91FF908A
:10171000EF90DF90CF900895CF93DF931F92CDB7D6
:10172000DEB76983209191062223F9F0209190067B
:10173000203258F021E030E0FC013383228390E036
:1017400080E00F90DF91CF91089580918F06E82F70
:10175000F0E0E159F94F998190838F5F80938F0674
:101760008093900681E090E0ECCF61E0CE0101969D
:101770000E942A0BF7CFCF92DF92EF92FF920F9346
:101780001F93CF93DF93FC01C48121E02093910646
:10179000C0936E0610928F06109290068385682B78
:1017A0008BED97E00E948C0BD0919006D13208F01F
:1017B00092C00E9486076B017C018091DD06811139
:1017C00065C082E08093DD0681E08093DF068FEFC5
:1017D0008093DC0610920107D0930007AFE6B6E0D5
:1017E000E0EEF6E080E0D81385C010920207809109
:1017F0000207CC0FC82BC09302078091DE06813010
:1018000009F07CC01092DE060E9486076B017C0105
:10181000809102078093BB00809194069091950679
:10182000A0919606B0919706892B8A2B8B2B99F065
:101830000E948607009194061091950620919606C5
:10184000309197066C197D098E099F0906171707B5
:1018500028073907E0F18091BC0083FDD9CF85ECE2
:101860008093BC000E9486076B017C018091DD069D
:10187000823009F445C08091DC068F3F61F1809190
:10188000DC06803241F18091DC0625C0809194060F
:1018900090919506A0919606B0919706892B8A2B78
:1018A0008B2B09F48ACF0E94860700919406109131
:1018B000950620919606309197066C197D098E0940
:1018C0009F09061717072807390708F076CF809178
:1018D00093060E94EB0A10928F06109290061092C7
:1018E0009106DF91CF911F910F91FF90EF90DF90C4
:1018F000CF9008959D9191938F5F75CF85EEB0CF76
:101900008091940690919506A0919606B0919706C5
:10191000892B8A2B8B2B09F4A9CF0E948607009173
:1019200094061091950620919606309197066C19B1
:101930007D098E099F09061717072807390708F040
:1019400095CFC5CF089590E080E008959C01205F79
:101950003F4F4FEF5FEFFC0141935193CF01E217EF
:10196000F307C9F708950F931F93CF938C01C62FE8
:101970000E94BB0B6C2F6460C8010E94BB0B6C2FD4
:101980006B7FC8010E94BB0B83EC90E00197F1F7DD
:10199000CF911F910F9108950F931F93CF93DF93D2
:1019A0008C01D62FC42F607F642B0E94B30C80E182
:1019B000D89FB00111246C2BC801DF91CF911F91EA
:1019C0000F910C94B30C40E061E088E798E00E942E
:1019D000CC0C8BE39FE10197F1F70895CF93DF9350
:1019E00000D000D01F921F92CDB7DEB798E0E0E89C
:1019F000F2E0DE01119601900D929A95E1F7909137
:101A00008008961710F46FEF690F262F30E0220F31
:101A1000331F41E050E04C0F5D1F240F351FF901CB
:101A20006081680F606840E088E798E028960FB60C
:101A3000F894DEBF0FBECDBFDF91CF910C94CC0CDC
:101A400041E00E94CC0C81E090E008950F931F9339
:101A5000CF93DF938B0198E0899FB00111246064DC
:101A600040E088E798E00E94CC0CE801085F1F4F37
:101A7000699188E798E00E94200DC017D107C1F74F
:101A8000DF91CF911F910F910895FB0101900020EC
:101A9000E9F73197AF01461B570BDC01ED91FC9143
:101AA0000280F381E02D199462EC72E08EE397E0FE
:101AB0000C94450DCF93DF93FC01448155816081E7
:101AC00071818EE397E00E942702EC010E94540D81
:101AD0008C0F9D1FDF91CF910895CF93DF93682FD7
:101AE0008EE397E00E942002EC010E94540D8C0FBF
:101AF0009D1FDF91CF9108958F929F92AF92BF92D9
:101B0000EF92FF920F931F93CF93DF93CDB7DEB782
:101B1000A1970FB6F894DEBF0FBECDBF7C01FA01CE
:101B2000CB0119A2223008F42AE08E010F5D1F4F6D
:101B3000822E912CB12CA12CBF01A50194010E94F1
:101B40009D27F901CA016A300CF5605DD8016E93DA
:101B50008D01232B242B252B79F790E080E0109723
:101B600021F0BD01C7010E94450DA1960FB6F89462
:101B7000DEBF0FBECDBFDF91CF911F910F91FF90C0
:101B8000EF90BF90AF909F908F900895695CDECFEB
:101B9000CF92DF92EF92FF92CF93DF936C01990F78
:101BA000EE08FF08F7FE1FC06DE28EE397E00E948B
:101BB0002002EC0144275527BA014C195D096E0932
:101BC0007F092AE08EE397E00E947C0DC80FD91FA1
:101BD0000E94540D8C0F9D1FDF91CF91FF90EF90CD
:101BE000DF90CF9008952AE0B701A6018EE397E039
:101BF0000E947C0DEC01ECCFCF92DF92EF92FF922E
:101C00000F931F93CF93DF936B01770FEE08FF08BD
:101C1000F7FE1BC0EC016DE20E9420028C014427FC
:101C20005527BA014C195D096E097F092AE0CE01DA
:101C30000E947C0D800F911FDF91CF911F910F911A
:101C4000FF90EF90DF90CF9008952AE0B701A601B2
:101C5000DF91CF911F910F91FF90EF90DF90CF9088
:101C60000C947C0DCF93DF93BC018EE397E00E9430
:101C7000450DEC010E94540D8C0F9D1FDF91CF91FB
:101C800008950C94450D0E94E30C80911007882361
:101C900099F160E080E00E94EE0C65EC72E088E76C
:101CA00098E00E94410E61E083E00E94EE0C63ED3B
:101CB00072E088E798E00E94410E0E94EA088534AD
:101CC00021F710921B0710921A0710921907109211
:101CD000180780E592E00E94A60C0E94E30C60E0E9
:101CE00080E00E94EE0C63EF73E088E798E00E94CA
:101CF000410E10921007C9CF0895FC018081918197
:101D0000009711F00C94CE2560E070E0CB010895AF
:101D1000DC0114968D919C9115976817790750F402
:101D2000ED91FC911197E60FF71F15967C936E933A
:101D30001497108208950F931F93CF93DF93EC01B4
:101D400088819981009759F02A813B8126173707AE
:101D500030F081E0DF91CF911F910F9108958B01B9
:101D60006F5F7F4F0E94472A009759F099838883BD
:101D70001B830A832C813D81232B59F7FC011082A0
:101D8000E8CF80E0E7CFEF92FF920F931F93CF93BE
:101D9000DF931F921F92CDB7DEB78C0169831A8241
:101DA000FC01E480F580FFEFEF1AFF0AB7010E9403
:101DB0009B0E882381F0F8012081318184819581F7
:101DC000BE016F5F7F4F820F931F0E94312BF8017E
:101DD000F582E48281E00F900F90DF91CF911F9107
:101DE0000F91FF90EF900895CF93DF93EC018881DE
:101DF0009981009711F00E94BE29198218821D82D4
:101E00001C821B821A82DF91CF910895EF92FF927C
:101E10000F931F93CF93DF93EC017B018A01BA01EB
:101E20000E949B0E81110BC0CE010E94F40ECE01C8
:101E3000DF91CF911F910F91FF90EF9008951D8337
:101E40000C83B701888199810E94312BF0CFFC016E
:101E500011821082138212821582148250E040E0B7
:101E600064EC72E00C94060F50E040E064EC72E029
:101E70000C94060FFC0180819181009711F00C9465
:101E8000BE29089585ED8093BC00809194069091C1
:101E90009506A0919606B09197060796A11DB11DD3
:101EA00023E0B695A795979587952A95D1F7209128
:101EB000BC0024FD03C01092DD06089540919406F5
:101EC000509195066091960670919706452B462B8A
:101ED000472B69F30097A105B10541F025E32A9549
:101EE000F1F700000197A109B109E1CF80919306B4
:101EF0000C94EB0A1F920F920FB60F9211240BB69F
:101F00000F922F933F934F935F936F937F938F9392
:101F10009F93AF93BF93EF93FF938091320790917C
:101F20003307A0913407B0913507892B8A2B8B2B6F
:101F3000E1F190912107E0912207F0912307808140
:101F4000892780838091320790913307A0913407CD
:101F5000B0913507181619061A061B069CF48091D5
:101F6000320790913307A0913407B091350701975C
:101F7000A109B1098093320790933307A0933407E6
:101F8000B0933507FF91EF91BF91AF919F918F91E2
:101F90007F916F915F914F913F912F910F900BBE69
:101FA0000F900FBE0F901F901895809161020E94B4
:101FB0003205E8CF1F920F920FB60F9211240BB685
:101FC0000F922F933F934F935F936F937F938F93D2
:101FD0009F93AF93BF93EF93FF938EE397E00E949D
:101FE0009B02FF91EF91BF91AF919F918F917F9154
:101FF0006F915F914F913F912F910F900BBE0F907A
:102000000FBE0F901F9018951F920F920FB60F9250
:1020100011240BB60F922F938F939F93EF93FF93FF
:10202000E0914E07F0914F078081E0915407F091C5
:10203000550782FD1DC09081809157078F5F8F7378
:1020400020915807821741F0E0915707F0E0E25CD9
:10205000F84F958F80935707FF91EF919F918F9144
:102060002F910F900BBE0F900FBE0F901F901895E1
:102070008081F2CF1F920F920FB60F9211242F93EF
:102080003F938F939F93AF93BF9380910807909155
:102090000907A0910A07B0910B073091070723E0C9
:1020A000230F2D3758F50196A11DB11D2093070769
:1020B0008093080790930907A0930A07B0930B0732
:1020C00080910C0790910D07A0910E07B0910F071A
:1020D0000196A11DB11D80930C0790930D07A0934D
:1020E0000E07B0930F07BF91AF919F918F913F91D2
:1020F0002F910F900FBE0F901F90189526E8230F79
:102100000296A11DB11DD2CF1F920F920FB60F9252
:1021100011240BB60F922F933F934F935F936F93BE
:102120007F938F939F93AF93BF93EF93FF9348E277
:1021300051E064E271E090E080E00E94310AFF919A
:10214000EF91BF91AF919F918F917F916F915F912F
:102150004F913F912F910F900BBE0F900FBE0F909C
:102160001F9018951F920F920FB60F9211240BB665
:102170000F922F933F934F935F936F937F938F9320
:102180009F93AF93BF93EF93FF9348EA50E064EAC5
:1021900070E083E090E00E94310AFF91EF91BF91DF
:1021A000AF919F918F917F916F915F914F913F91EF
:1021B0002F910F900BBE0F900FBE0F901F90189590
:1021C0001F920F920FB60F9211240BB60F922F93FE
:1021D0003F934F935F936F937F938F939F93AF93AF
:1021E000BF93EF93FF9348E950E064E970E082E029
:1021F00090E00E94310AFF91EF91BF91AF919F91C2
:102200008F917F916F915F914F913F912F910F909F
:102210000BBE0F900FBE0F901F9018951F920F923C
:102220000FB60F9211240BB60F922F933F934F933B
:102230005F936F937F938F939F93AF93BF93EF932E
:10224000FF9348E850E064E870E081E090E00E948D
:10225000310AFF91EF91BF91AF919F918F917F9143
:102260006F915F914F913F912F910F900BBE0F9007
:102270000FBE0F901F9018951F920F920FB60F92DE
:1022800011240BB60F922F933F934F935F936F934D
:102290007F938F939F93AF93BF93EF93FF9380911F
:1022A000B900887F803609F44DC008F040C08832FC
:1022B00009F4A7C028F5803109F49BC0C8F488232D
:1022C00009F4F7C0883009F494C0FF91EF91BF91F1
:1022D000AF919F918F917F916F915F914F913F91BE
:1022E0002F910F900BBE0F900FBE0F901F9018955F
:1022F000883109F486C0803241F78093DC0614C02F
:10230000803409F49BC040F48033B9F38833E9F694
:102310008093DC0685ECAEC0803509F483C0883537
:1023200009F494C0883489F60E94420FCECF8839D0
:1023300009F48AC038F5883729F050F4883611F04E
:10234000803719F683E08093DD061092DB0655C0D6
:10235000883809F479C0803919F0803809F0B5CF90
:102360008091DB06803208F06FC0E091DB0681E0EF
:102370008E0F8093DB068091BB00F0E0E554F94FAF
:1023800080833BC0803B39F0D0F4803A09F477C0B9
:10239000883A09F09ACF84E08093DD061092BA065D
:1023A0001092B906F0E0E0E019958091B90681112C
:1023B0000FC081E08093B9061092990609C0803C55
:1023C00009F4A8CF883C09F4A5CF883B09F07DCF5C
:1023D000E091BA0681E08E0F8093BA06F0E0E756EE
:1023E000F94F80818093BB009091BA068091B90625
:1023F00029C0809102078093BB0085EC8093BC00CC
:1024000064CF9091010780910007981758F5E091EB
:10241000010781E08E0F80930107F0E0E052F94F51
:102420008081E9CFE091010781E08E0F8093010761
:102430008091BB00F0E0E052F94F8083909101075A
:10244000809100079817C8F285E8D8CFE09101077E
:1024500081E08E0F809301078091BB00F0E0E05295
:10246000F94F80838091DF0681115ECF81E08093F8
:10247000DE0684EA8093BC001092DD0626CF85EC50
:102480008093BC001092DD068091DB06803230F430
:10249000E091DB06F0E0E554F94F10826091DB0635
:1024A00070E08BEB96E0F0E0E0E019951092DB062F
:1024B0000CCF1092DC0638CF4F925F926F927F92D2
:1024C0008F929F92AF92BF92CF92DF92EF92FF9244
:1024D0000F931F93CF93DF93CDB7DEB764970FB6FB
:1024E000F894DEBF0FBECDBF8FED92E00E94320E9A
:1024F0000E94E30C60E081E00E94EE0C60E088E75F
:1025000098E00E94200D6BEE72E088E798E00E9450
:10251000410E60E088E798E00E94200D60ED77E0D2
:1025200080E090E00E9450080E94E30C10921B078C
:1025300010921A07109219071092180781E08093E1
:102540001707EE24EA94FE2CCC24CA94DC2C80914C
:102550001707882309F461C10E94EA08182F88230D
:1025600009F4F5C08091180761E08B5F0E94EE0CC2
:1025700089EF92E0153521F0143429F48CEF92E0C4
:102580000E94320EE4CF81E093E01335C9F3133497
:1025900009F063C085E093E00E94320E8091180735
:1025A0009091190718161906B4F580911A079091A1
:1025B0001B07181619067CF5880F991FFC01E050BF
:1025C000FE4FF182E08260E288E798E00E942002FC
:1025D0008091180761E08B5F0E94EE0C60E288E753
:1025E00098E00E94200200911A0710911B07B80181
:1025F00089EF98E00E94880E0150110910931B0783
:1026000000931A07809118079091190701979093EA
:1026100019078093180780911A0790911B07892B3F
:1026200009F095CFD0920102C092000270E060E004
:1026300089EF98E00E94880E60E288E798E00E94A7
:1026400020028091180761E08B5F0E94EE0C60E22F
:1026500088E798E00E9420027ACF183419F58BE0C1
:1026600093E00E94320E0E94E30C60E081E00E9441
:10267000EE0C60E173E088E798E00E94410E61E0B3
:1026800081E00E94EE0C61E273E088E798E00E942E
:10269000410E68EE73E080E090E00E9450080E94D6
:1026A000E30C55CF153439F489ED92E00E94320ED7
:1026B000109217074CCF6FE273E08EE397E00E9411
:1026C000410E812F0E946D0D80911A0790911B077A
:1026D00008970CF047C08091180790911907089748
:1026E0000CF040C0612F88E798E00E9420028091A2
:1026F000180761E08B5F0E94EE0C612F88E798E07D
:102700000E942002612F89EF98E00E94C30E1053AF
:1027100080911A0790911B07FC01EE0FFF1FE050FC
:10272000FE4F212F012E000C330B318320830196A5
:1027300090931B0780931A078091180790911907AF
:1027400001969093190780931807111100CF60E04C
:1027500080E00E94EE0C6BE473E088E798E00E9452
:10276000410EF5CE87E393E00E94320E81E0809324
:1027700010070E94E30C80911007882399F160E014
:1027800080E00E94EE0C65EC72E088E798E00E9421
:10279000410E61E083E00E94EE0C63ED72E088E799
:1027A00098E00E94410E0E94EA08853421F71092B9
:1027B0001B0710921A07109219071092180780E051
:1027C00092E00E94A60C0E94E30C60E080E00E9470
:1027D000EE0C6BE473E088E798E00E94410E1092E3
:1027E0001007C9CF89EF98E00E94340F8BE593E082
:1027F0000E94320E80911A0790911B070E94C80D0B
:102800008BE693E00E94320E809118079091190791
:102810000E94C80D109210079ACE10921B071092BA
:102820001A0710921907109218078BE793E00E947D
:10283000320E0E94E30C81E080931707F0E14F2EE7
:10284000F2E05F2E8E010F5F1F4F66246A94762C94
:10285000AA24AA94BA2C80911707882309F43FC2AE
:102860000E94EA08F82E882309F4D3C18091180742
:1028700061E08B5F0E94EE0C25E589EF92E0F21695
:1028800029F084E4F81205C08CEF92E00E94320E29
:10289000E2CFA3E581E093E0FA16C1F3B3E4FB12C3
:1028A00068C085E093E00E94320E809118079091F5
:1028B000190718161906BCF580911A0790911B0785
:1028C0001816190684F5880F991FFC01E05FFD4F6B
:1028D0007182608260E288E798E00E942002809125
:1028E000180761E08B5F0E94EE0C60E288E798E0D9
:1028F0000E942002E0901A07F0901B07B70183EFB7
:1029000098E00E94880EE1E0EE1AF108F0921B07B1
:10291000E0921A07809118079091190701979093F8
:1029200019078093180780911A0790911B07892B2C
:1029300009F091CFB0921102A092100270E060E015
:1029400083EF98E00E94880E83EF98E00E94340F96
:1029500060E288E798E00E9420028091180761E019
:102960008B5F0E94EE0C60E288E798E00E942002F4
:1029700072CFF8E4FF1223C08BE093E00E94320E86
:102980000E94E30C60E081E00E94EE0C60E173E0E5
:1029900088E798E00E94410E61E081E00E94EE0C21
:1029A00061E273E088E798E00E94410E68EE73E010
:1029B00080E090E00E9450080E94E30C4CCF25E498
:1029C000F212D8C089ED92E00E94320E89EF98E0B1
:1029D0000E947D0E6B0183EF98E00E947D0EC6166B
:1029E000D70609F086C08EE893E00E94320ECE0131
:1029F0000F960E94270F70E0E72E72E0F72ED701A6
:102A00008D919D917D018F3F980709F440C0CF843F
:102A1000D8880E94B0254C011A8619861C861B8610
:102A20001E861D86C114D10439F04B895C89B6011C
:102A3000CE0109960E94060F4AE0B801C4010E9427
:102A4000F525F80101900020E9F73197E01BF10B23
:102A500079F0CD84DE84CE0EDF1EB601CE0109965C
:102A60000E949B0E811134C0CE0109960E94F40E83
:102A700069857A8561157105B9F14D855E85CE014F
:102A80000F960E94060FCE0109960E943A0F4E142F
:102A90005F0409F0B4CF8F8598890E94B0257C012E
:102AA0008DE993E00E94320ECE010F960E945A0DDE
:102AB0008AEA93E00E94320EC7010E94C80DCE013F
:102AC0000F960E943A0F0E94540D10921707C3CE22
:102AD00029853A858D859E85B801820F931F0E94B6
:102AE000312BDE86CD86C4CFCE010F960E94F40E28
:102AF000CACF0E94E30C81E08093100780911007F9
:102B0000882309F4A8CE60E080E00E94EE0C61EB1F
:102B100073E088E798E00E94410E61E083E00E9444
:102B2000EE0C63ED72E088E798E00E94410E0E948F
:102B3000EA08853419F710921B0710921A071092B1
:102B400019071092180783EF98E00E94340F80E174
:102B500092E00E94A60C0E94E30C60E080E00E94DC
:102B6000EE0C62EC73E088E798E00E94410E109250
:102B70001007C4CF6FE273E08EE397E00E94410E2E
:102B80008F2D0E946D0D80911A0790911B07089759
:102B90000CF04AC0809118079091190708970CF023
:102BA00043C06F2D88E798E00E94200280911807AB
:102BB00061E08B5F0E94EE0C6F2D88E798E00E9429
:102BC00020026F2D83EF98E00E94C30E80ED8F0DE1
:102BD00020911A0730911B07F901EE0FFF1FE05FEC
:102BE000FD4F482F082E000C550B518340832F5F5B
:102BF0003F4F30931B0720931A07209118073091FD
:102C000019072F5F3F4F3093190720931807811141
:102C100022CE60E080E00E94EE0C62EC73E088E778
:102C200098E00E94410E17CE82ED93E00E94320E92
:102C300081E0809310070E94E30C809110078823A5
:102C400099F160E080E00E94EE0C65EC72E088E7AC
:102C500098E00E94410E61E083E00E94EE0C63ED7B
:102C600072E088E798E00E94410E0E94EA088534ED
:102C700021F710921B0710921A0710921907109251
:102C8000180780E192E00E94A60C0E94E30C60E02D
:102C900080E00E94EE0C62EC73E088E798E00E940E
:102CA000410E10921007C9CF83EF98E00E94340FB5
:102CB0008BE593E00E94320E80911A0790911B07DA
:102CC0000E94C80D8BE693E00E94320E8091180797
:102CD000909119070E94C80D10921007BCCD109258
:102CE0001B0710921A07109219071092180789EE05
:102CF00093E00E94320E0E94E30C81E0809317075C
:102D0000EE24EA94FE2CCC24CA94DC2C8091170784
:102D1000882309F4E7C10E94EA08182F882309F4E0
:102D20002EC18091180761E08B5F0E94EE0C89EF45
:102D300092E0153521F0143429F48CEF92E00E94D2
:102D4000320EE4CF81E093E01335C9F3133409F078
:102D500057C085E093E00E94320E80911807909151
:102D600019071816190684F580911A0790911B0708
:102D7000181619064CF5880F991FFC01E05BFD4FF2
:102D8000F182E08260E288E798E00E942002809170
:102D9000180761E08B5F0E94EE0C60E288E798E024
:102DA0000E94200280911A0790911B07019790932F
:102DB0001B0780931A0780911807909119070197B4
:102DC000909319078093180780911A0790911B0719
:102DD000892B09F09BCFD0925102C092500260E241
:102DE00088E798E00E9420028091180761E08B5FDD
:102DF0000E94EE0C60E288E798E00E94200286CFF5
:102E00008BE093E0183409F49ACF153409F004C12B
:102E100089ED92E00E94320E809150029091510211
:102E2000892B09F065C0809152029091530201975D
:102E300009F05EC08091540290915502892B09F0EF
:102E400057C08091560290915702069709F050C0E2
:102E50008091580290915902019609F049C08091E1
:102E60005A0290915B02019609F042C080915C0287
:102E700090915D020196E1F580915E0290915F0272
:102E80000196B1F50E94E30C60E083E00E94EE0C35
:102E900061E074E088E798E00E94410E61E084E020
:102EA0000E94EE0C6FE675E088E798E00E94410E04
:102EB00061E08EE30E94EE0368EE73E080E090E054
:102EC0000E9450080E94E30C60E08EE30E94EE0333
:102ED00010921307109212071092170780916C0638
:102EE00090916D06019690936D0680936C060ECFBF
:102EF0008091120790911307843091050CF04AC01D
:102F0000019690931307809312070E94E30C60E0F0
:102F100080E00E94EE0C6CE074E088E798E00E948C
:102F2000410E609112077091130788E798E00E94A4
:102F3000FC0D61E080E00E94EE0C66E174E088E741
:102F400098E00E94410E61E08FE30E94EE036CED79
:102F500075E080E090E00E94500860E08FE30E94FE
:102F6000EE0310921B0710921A0710921907109285
:102F7000180780E592E00E94A60C0E94E30C60E036
:102F800080E00E94EE0C63EF73E088E798E00E9417
:102F9000410EBCCE0E94E30C81E08093100761E0FB
:102FA0008FE30E94EE0380911007882309F4AECED0
:102FB00060E080E00E94EE0C67E274E088E798E051
:102FC0000E94410E61E080E00E94EE0C69E374E033
:102FD00088E798E00E94410E0E94EA08853419F7BC
:102FE00010921B0710921A071092190710921807D7
:102FF00080E592E00E94A60C0E94E30C60E080E075
:103000000E94EE0C63EF73E088E798E00E94410EA7
:103010001092100760E0C4CF6FE273E08EE397E098
:103020000E94410E812F0E946D0D80911A07909190
:103030001B070897BCF5809118079091190708970E
:103040008CF5612F88E798E00E9420028091180794
:1030500061E08B5F0E94EE0C612F88E798E00E9490
:103060002002105380911A0790911B07FC01EE0F6C
:10307000FF1FE05BFD4F212F012E000C330B31832E
:103080002083019690931B0780931A07809118075D
:1030900090911907019690931907809318071111C1
:1030A00035CE6DCF82ED93E00E94320E81E08093A9
:1030B00010070E94430E8BE593E00E94320E809130
:1030C0001A0790911B070E94C80D8BE693E00E949F
:1030D000320E80911807909119070E94C80D109226
:1030E000100714CE8AE494E00E94320E89EF98E033
:1030F0000E947D0E4B010091140710911507E0907E
:103100006C06F0906D0688E090E00E942229FC0198
:10311000F182E08293828282178216821582148263
:10312000D8012D913C91119714968D919C911597F2
:10313000232B09F06BC01396FC93EE931297119614
:10314000FC93EE93019615969C938E9314970E9490
:10315000E30C60E082E00E94EE0C6BE574E088E72F
:1031600098E00E94410E60916C0670916D0688E7B0
:1031700098E00E94FC0D61E080E00E94EE0C6FE59B
:1031800074E088E798E00E94410EB40188E798E077
:103190000E94FC0D61E080E40E94EE036CED75E09E
:1031A00080E090E00E94500860E080E40E94EE031E
:1031B00086E694E00E94320E0E94540D8AE794E065
:1031C0000E94320E80916C0690916D060E94C80D8F
:1031D00086E894E00E94320EC4010E94C80D6496F5
:1031E0000FB6F894DEBF0FBECDBFDF91CF911F9118
:1031F0000F91FF90EF90DF90CF90BF90AF909F9096
:103200008F907F906F905F904F90089512962D91C0
:103210003C91D9011596FC93EE931497378326833E
:10322000D8011396FC93EE9312978CCF109241071E
:103230001092400788EE93E0A0E0B0E08093420750
:1032400090934307A0934407B09345072CE832E0DE
:1032500030933F0720933E0725EC30E030934B0737
:1032600020934A0724EC30E030934D0720934C071D
:1032700020EC30E030934F0720934E0721EC30E0F4
:10328000309351072093500722EC30E030935307DE
:103290002093520726EC30E03093550720935407D3
:1032A00010925707109258071092590710925A0718
:1032B0001092DE071092DD078093DF079093E007FE
:1032C000A093E107B093E2078EE992E09093DC07C8
:1032D0008093DB0710921F0910921E0910921509A6
:1032E0001092140910922A0910922B0910922C099D
:1032F00010922D098CE090E090931B0980931A099D
:103300008CE190E090932109809320098DE190E079
:1033100090932309809322098EE190E090932509F0
:10332000809324098FE190E09093270980932609E8
:1033300061E08CE10E94770561E0809122090E94A2
:10334000770561E0809124090E94770561E0809112
:1033500026090E947705109229091092280984E015
:1033600090E090931D0980931C0980917708803329
:1033700008F086C091E0980F909377088093110928
:1033800090E0FC01EE0FFF1FE80FF91FE951F84F25
:1033900088EB9BE0928381838BE099E00E94270F6A
:1033A00085E099E00E94270F8FEF98E00E94270F99
:1033B00089EF98E00E94270F83EF98E00E94270F83
:1033C0001092860810928A081092890810928B0831
:1033D0008CEB92E09093850880938408E0EAF8E013
:1033E0001082148213821582369688E0EC3DF8072D
:1033F000B9F786E692E09093E7088093E60882E6C4
:1034000092E09093E9088093E80884E08093EA08CA
:103410008093EB088AE692E09093E5088093E408B5
:103420008AE090E09093ED088093EC0884EF91E0BF
:103430009093EF088093EE081092F2081092F10832
:103440001092E0081092E1081092E2081092E3084E
:103450001092F00810927B0810927A0880EB92E0AC
:10346000909379088093780887E280937C0880E1C4
:103470008093810882E080938208109283080895E7
:103480008FEF8093110988CFCF93DF9300D01F92E5
:103490001F92CDB7DEB7789484B5826084BD84B5C1
:1034A000816084BD85B5826085BD85B5816085BD3F
:1034B00080916E00816080936E00109281008091F7
:1034C000810082608093810080918100816080937F
:1034D0008100809180008160809380008091B100A4
:1034E00084608093B1008091B00081608093B000CF
:1034F0008091910082608093910080919100816021
:1035000080939100809190008160809390008091E1
:10351000A10082608093A1008091A10081608093CE
:10352000A1008091A00081608093A0008091210182
:10353000826080932101809121018160809321012B
:103540008091200181608093200180917A008460C5
:1035500080937A0080917A00826080937A008091D3
:103560007A00816080937A0080917A0080688093ED
:103570007A001092C100E0914E07F0914F0712E0DF
:103580001083E0914A07F0914B071082E0914C07BD
:10359000F0914D078FEC808310925607E09152070F
:1035A000F091530786E08083E0915007F091510736
:1035B000808180618083E0915007F0915107808184
:1035C00088608083E0915007F09151078081806886
:1035D0008083E0915007F091510780818F7D808337
:1035E00080917D08886080937D081093800862E355
:1035F00070E080E090E00E9450086091830888E7C6
:1036000098E00E94BB0B68EE73E080E090E00E94BF
:10361000500860E388E798E00E94B30C8BE496E4DE
:103620000197F1F760E388E798E00E94B30C2BE480
:1036300036E4C9010197F1F760E388E798E00E945A
:10364000B30C83E592E00197F1F760E288E798E038
:103650000E94B30C60917D08606240E088E798E0CA
:103660000E94CC0C84E080937E0840E06CE088E708
:1036700098E00E94CC0C0E94E30C10937F0840E07D
:1036800066E088E798E00E94CC0C40E062E088E7C2
:1036900098E00E94CC0C8BE39FE10197F1F768E37F
:1036A00072E080E00E94260D60E372E081E00E94FB
:1036B000260D68E272E082E00E94260D60E272E070
:1036C00083E00E94260D88E090E00E942229FC0100
:1036D00013821282118210821582148281E090E09E
:1036E00097838683F0931507E093140761E088E3DE
:1036F0000E94770561E089E30E94770561E08AE333
:103700000E94770561E08BE30E94770561E08EE31C
:103710000E94770561E08FE30E94770561E080E415
:103720000E94770561E08DE20E94770560E08AE003
:103730000E94770560E089E00E9477058091110979
:10374000803308F054C061E08DE00E9477058091DD
:103750001109282F30E0F901EE0FFF1FE20FF31FD0
:10376000E951F84F9081907C9D60908395E790930C
:10377000120994E6909313092CE0622F0E94E62828
:10378000829FB001112430E020E0AB01420F531FB3
:10379000FA01EE0FFF1FE40FF51FE951F84F90817A
:1037A00096FD17C02F5F3F4F2C30310571F78130E8
:1037B00009F0AFC01092800082E0809381001092E7
:1037C000850010928400B19A80916F00826080938E
:1037D0006F00E09111098E2F90E0FC01EE0FFF1FAA
:1037E000E80FF91FE951F84F80818064808390E0F1
:1037F00080E00E94980120911A0930911B09032E44
:10380000000C440B550B60E077E883E993E00E94DD
:103810006B27CA01B90122EC31E040E050E00E9480
:103820006B2720931609309317094093180950937A
:10383000190960E086E30E94770510921D07109237
:103840001C070FEF1FEF66246A94762C80911C07EB
:1038500090911D078130910509F424C682309105AD
:1038600009F443C6892B09F0C9C60E94E30C60E045
:1038700081E00E94EE0C60E088E798E00E94200D55
:103880006DE874E088E798E00E94410E60E088E708
:1038900098E00E94200D60ED77E080E090E00E94CB
:1038A000500880916002882309F4A8C60E94E30CA6
:1038B0008AE994E00E94320E10921B0710921A07B8
:1038C00010921907109218078BE099E00E94340FAC
:1038D00085E099E00E94340F80911707882309F44E
:1038E000D8C1809116078111D4C10E94EA088B8348
:1038F000882309F468C18091180761E08B5F0E94FA
:10390000EE0C9B81953589F589EF92E00E94320E8D
:10391000E3CF823061F41092900080939100109276
:1039200095001092940088BB8093710052CF833031
:1039300069F41092A00082E08093A1001092A5008B
:103940001092A40089BB8093720043CF811141CFB4
:103950001092200182E080932101109225011092A3
:1039600024018ABB8093730034CF2B81243419F453
:103970008CEF92E0CBCF3B8181E093E0333531F2A5
:103980004B81433409F06BC085E093E00E94320E16
:10399000809118079091190718161906D4F580918F
:1039A0001A0790911B07181619069CF5880F991F86
:1039B000FC01E05CFD4F1183008360E288E798E042
:1039C0000E9420028091180761E08B5F0E94EE0C3C
:1039D00060E288E798E00E94200280911A079091A7
:1039E0001B079D838C83BC018BE099E00E94880EAD
:1039F0002C813D812150310930931B0720931A07F8
:103A00008091180790911907019790931907809357
:103A1000180780911A0790911B07892B09F05CCF3A
:103A2000709241026092400270E060E08BE099E0A9
:103A30000E94880E8BE099E00E94340F60E288E7D4
:103A400098E00E9420028091180761E08B5F0E943D
:103A5000EE0C60E288E798E00E9420023DCF3B81B7
:103A6000383419F58BE093E00E94320E0E94E30C8B
:103A700060E081E00E94EE0C6BEA74E088E798E079
:103A80000E94410E61E081E00E94EE0C69EB74E05F
:103A900088E798E00E94410E68EE73E080E090E0D5
:103AA0000E9450080E94E30C17CF4B814534E9F582
:103AB00089ED92E00E94320E809140029091410285
:103AC000892B81F58091420290914302892B51F517
:103AD0008091440290914502892B21F58091460204
:103AE00090914702892BF1F480914802909149020C
:103AF0000196C1F480914A0290914B02019691F493
:103B000080914C0290914D02019661F480914E0299
:103B100090914F02019631F481E0809316070E9444
:103B20005C12DACE10921707D7CE6FE273E08EE305
:103B300097E00E94410E8B810E946D0D80911A07C3
:103B400090911B0708970CF049C08091180790913D
:103B5000190708970CF042C06B8188E798E00E9433
:103B600020028091180761E08B5F0E94EE0C6B8150
:103B700088E798E00E9420026B818BE099E00E9428
:103B8000C30E3B8130533B8380911A0790911B07F2
:103B9000FC01EE0FFF1FE05CFD4F232F330F330BB3
:103BA00031832083019690931B0780931A0780919D
:103BB0001807909119070196909319078093180799
:103BC0004B81411189CE60E080E00E94EE0C65EDF2
:103BD00074E088E798E00E94410E7ECE87E393E090
:103BE0000E94320E81E0809310070E94E30C8091C6
:103BF0001007882399F160E080E00E94EE0C69ECE8
:103C000074E088E798E00E94410E61E083E00E9442
:103C1000EE0C63ED72E088E798E00E94410E0E948E
:103C2000EA08853421F710921B0710921A071092A8
:103C300019071092180780E492E00E94A60C0E94D7
:103C4000E30C60E080E00E94EE0C65ED74E088E734
:103C500098E00E94410E10921007C9CF8BE099E0C6
:103C60000E94340F8BE593E00E94320E80911A0778
:103C700090911B070E94C80D8BE693E00E94320EC4
:103C800080911807909119070E94C80D1092100793
:103C900023CE80EE94E00E94320E8BE099E00E94E9
:103CA0005A0D0E94540D0E94E30C83EF94E00E9491
:103CB000320E10921B0710921A07109219071092D9
:103CC000180781E0809317078091160790911707D6
:103CD000992309F4AAC1811124C20E94EA088B83A6
:103CE000882309F43CC18091180761E08B5F0E9432
:103CF000EE0C8B81853529F489EF92E00E94320E1B
:103D0000E3CF9B81943419F48CEF92E0F7CF2B81B1
:103D100081E093E0233591F33B81333409F06BC0AC
:103D200085E093E00E94320E809118079091190768
:103D300018161906D4F580911A0790911B071816CA
:103D400019069CF5880F991FFC01E05BFD4F11835C
:103D5000008360E288E798E00E94200280911807C3
:103D600061E08B5F0E94EE0C60E288E798E00E94C1
:103D7000200280911A0790911B079D838C83BC01C0
:103D800085E099E00E94880E2C813D812150310907
:103D900030931B0720931A078091180790911907F9
:103DA0000197909319078093180780911A079091B3
:103DB0001B07892B09F088CF709251026092500244
:103DC00070E060E085E099E00E94880E85E099E06F
:103DD0000E94340F60E288E798E00E942002809100
:103DE000180761E08B5F0E94EE0C60E288E798E0C4
:103DF0000E94200269CF3B81383419F58BE093E0B3
:103E00000E94320E0E94E30C60E081E00E94EE0C02
:103E10006BEA74E088E798E00E94410E61E081E07F
:103E20000E94EE0C69EB74E088E798E00E94410E76
:103E300068EE73E080E090E00E9450080E94E30C7E
:103E400043CF4B814534E9F589ED92E00E94320E73
:103E50008091500290915102892B81F580915202FC
:103E600090915302892B51F5809154029091550203
:103E7000892B21F58091560290915702892BF1F4FC
:103E800080915802909159020196C1F480915A0292
:103E900090915B02019691F480915C0290915D0299
:103EA000019661F480915E0290915F02019631F477
:103EB00081E0809316070E945C1206CF10921707CC
:103EC00003CF6FE273E08EE397E00E94410E8B8197
:103ED0000E946D0D80911A0790911B0708970CF0B6
:103EE00049C0809118079091190708970CF042C0BB
:103EF0006B8188E798E00E9420028091180761E0BA
:103F00008B5F0E94EE0C6B8188E798E00E94200294
:103F10006B8185E099E00E94C30E3B8130533B8367
:103F200080911A0790911B07FC01EE0FFF1FE05BC9
:103F3000FD4F232F330F330B318320830196909352
:103F40001B0780931A078091180790911907019613
:103F500090931907809318074B814111B5CE60E00B
:103F600080E00E94EE0C6BE473E088E798E00E942A
:103F7000410EAACE87E393E00E94320E81E0809347
:103F800010070E94E30C80911007882399F160E0EC
:103F900080E00E94EE0C65EC72E088E798E00E94F9
:103FA000410E61E083E00E94EE0C63ED72E088E771
:103FB00098E00E94410E0E94EA08853421F7109291
:103FC0001B0710921A07109219071092180780E524
:103FD00092E00E94A60C0E94E30C60E080E00E9448
:103FE000EE0C6BE473E088E798E00E94410E1092BB
:103FF0001007C9CF85E099E00E94340F8BE593E06C
:104000000E94320E80911A0790911B070E94C80DE2
:104010008BE693E00E94320E809118079091190769
:104020000E94C80D109210074FCE81117AC082E015
:1040300095E00E94320E85E099E00E945A0D0E94A0
:10404000540D8BE099E00E947D0E4B017D836C83C3
:1040500085E099E00E947D0E6B012B0183E195E0E4
:104060000E94320EC4010E94C80D8EE195E00E94AC
:10407000320EC6010E94C80DE0911407F091150799
:104080000190F081E02D309789F0808191812C8121
:104090003D812817390731F48281938148165906EA
:1040A00009F405C50480F581E02DEDCF8CE295E0A3
:1040B0000E94320E809112079091130701969093FF
:1040C000130780931207049794F50E94E30C60E0B5
:1040D00080E00E94EE0C6EE375E088E798E00E94B5
:1040E000410E609112077091130788E798E00E94D3
:1040F000FC0D61E080E00E94EE0C6BE475E088E767
:1041000098E00E94410E61E08FE30E94EE036CEDA7
:1041100075E080E090E00E94500860E08FE30E942C
:10412000EE031092160781E080931707BACB81E067
:104130008093110761E08DE20E94EE0361E08FE35E
:104140000E94EE0360ED77E080E090E00E9450086E
:1041500060E08DE20E94EE0310921B0710921A0796
:1041600010921907109218070E94E30C8091110712
:10417000882309F492C10E94EA088B83882309F4FA
:1041800061C18091180761E08B5F0E94EE0C3B815A
:1041900089EF92E0353529F04B81443429F48CEFD6
:1041A00092E00E94320EE2CF8B81833519F481E0D8
:1041B00093E0F7CF9B81933409F057C085E093E0FB
:1041C0000E94320E8091180790911907181619064F
:1041D00084F580911A0790911B07181619064CF563
:1041E000880F991FFC01E05BFD4F1183008360E2A3
:1041F00088E798E00E9420028091180761E08B5FB9
:104200000E94EE0C60E288E798E00E942002809114
:104210001A0790911B07019790931B0780931A0729
:10422000809118079091190701979093190780932F
:10423000180780911A0790911B07892B09F096CFD8
:10424000709251026092500260E288E798E00E940A
:1042500020028091180761E08B5F0E94EE0C60E203
:1042600088E798E00E94200281CF2B818BE093E0C9
:10427000283409F496CF3B81353409F099C089ED93
:1042800092E00E94320E8091500290915102892B4F
:1042900009F05BC08091520290915302019709F09E
:1042A00054C08091540290915502892B09F04DC061
:1042B0008091560290915702069709F046C080916E
:1042C000580290915902019609F03FC080915A021C
:1042D00090915B020196C9F580915C0290915D021C
:1042E000019699F580915E0290915F02019669F5C1
:1042F0000E94E30C60E083E00E94EE0C61E074E059
:1043000088E798E00E94410E61E084E00E94EE0C94
:104310006FE675E088E798E00E94410E61E08EE369
:104320000E94EE0364EC79E080E090E00E94500887
:104330000E94E30C60E08EE30E94EE0310921307EC
:10434000109212071092110711CF0E94E30C60E047
:1043500082E00E94EE0C6CE575E088E798E00E9430
:10436000410E61E080E00E94EE0C69E675E088E7AE
:1043700098E00E94410E61E08DE20E94EE036CED38
:1043800075E080E090E00E94500860E08DE20E94BD
:10439000EE030E94E30C10921B0710921A07109272
:1043A00019071092180780E592E00E94A60CDECE55
:1043B0006FE273E08EE397E00E94410E8B810E94D2
:1043C0006D0D80911A0790911B0708970CF045C05E
:1043D000809118079091190708970CF03EC06B81E7
:1043E00088E798E00E9420028091180761E08B5FC7
:1043F0000E94EE0C6B8188E798E00E9420028B817E
:1044000080538B8380911A0790911B07FC01EE0F5C
:10441000FF1FE05BFD4F4B81242F042E000C330B5C
:1044200031832083019690931B0780931A07809114
:104430001807909119070196909319078093180710
:10444000411194CE60E081E00E94EE0C63EF73E0D6
:1044500088E798E00E94410E89CE82ED93E00E94A9
:10446000320E81E0809310070E94430E8BE593E0AB
:104470000E94320E80911A0790911B070E94C80D6E
:104480008BE693E00E94320E8091180790911907F5
:104490000E94C80D1092100769CE10921307109257
:1044A00012073BCE0E94E30C60E081E00E94EE0C1C
:1044B00067E775E088E798E00E94410E62E081E0DE
:1044C0000E94EE0C40910F095091100960910B0968
:1044D00070910C0988E798E00E94270282E090E042
:1044E00090931D0780931C0789C08EE397E00E947C
:1044F0008502181619060CF081C08EE397E00E9421
:1045000063028134910509F07CC08AE00E94C203F5
:10451000019709F051C00E94E30C60E080E00E9426
:10452000EE0C65E875E088E798E00E94410E61E0D6
:1045300080E00E94EE0C64E975E088E798E00E9454
:10454000410E88EE93E00E94B30568EE73E080E0D0
:1045500090E00E9450088DE20E9432058AE00E949D
:10456000C203019729F480E09FEF0E94AB07F6CFCA
:104570000E94E30C60E080E00E94EE0C6EE975E0C2
:1045800088E798E00E94410E61E080E00E94EE0C16
:104590006FEA75E088E798E00E94410E8CED95E0A7
:1045A0000E94B30564EF71E080E090E00E94500843
:1045B0008DE20E9432051CC00E94E30C60E080E0A6
:1045C0000E94EE0C67EB75E088E798E00E94410ED0
:1045D00061E080E00E94EE0C65EC75E088E798E011
:1045E0000E94410E60ED77E080E090E00E9450086C
:1045F00022E030E030931D0720931C070E942A031D
:1046000025C98234910509F05FC089E00E94C20388
:10461000019709F046C00E94E30C60E080E00E9430
:10462000EE0C65E875E088E798E00E94410E61E0D5
:1046300080E00E94EE0C65ED75E088E798E00E944E
:10464000410E88EB9BE00E94B30564EF71E080E0CF
:1046500090E00E9450088DE20E94320589E00E949D
:10466000C203019729F480E091E00E94AB07F6CFE6
:104670000E94E30C60E080E00E94EE0C6EE975E0C1
:1046800088E798E00E94410E61E080E00E94EE0C15
:104690006EED75E088E798E00E94410E84EC99E0A9
:1046A0007FCF0E94E30C60E080E00E94EE0C66EE9B
:1046B00075E088E798E00E94410E61E080E00E948A
:1046C000EE0C65EF75E08ACF8334910509F0C3C025
:1046D0000E94E30C60E080E00E94EE0C62E088E75C
:1046E00098E00E94200D65E076E088E798E00E945F
:1046F000410E61E082E00E94EE0C61E088E798E004
:104700000E94200D63E088E798E00E94200D65E19B
:1047100076E088E798E00E94410E63E088E798E041
:104720000E94200D84EB90E00E94980168E873E1FC
:1047300080E090E00E9450088EE397E00E9485029E
:104740001816190634F48EE397E00E9463029A83E8
:1047500089830E9482080E944C266B017C018EE1B5
:1047600096E00E94320E60E070E0CB0129813A8130
:104770002434310521F120E030E040EC50E40E9487
:10478000472687FF1CC08EE397E00E94850218161B
:10479000190634F48EE397E00E9463029A838983BA
:1047A0000E9482080E944C26A70196010E94CE27F3
:1047B00020E030E04AE754E40E943B28D7CF61E094
:1047C0008EE30E94EE030E94E30C60E080E00E9412
:1047D000EE0C62E088E798E00E94200D65E076E04C
:1047E00088E798E00E94410E61E082E00E94EE0CB2
:1047F00060E088E798E00E94200D63E088E798E099
:104800000E94200D67E276E088E798E00E94410E62
:1048100063E088E798E00E94200D90E080E00E942D
:10482000980180ED97E00E94B30568EE73E080E0A8
:1048300090E00E9450088DE20E94320568E873E122
:1048400080E090E00E94500860E08EE30E94EE035A
:1048500081E090E045CE8534910509F0DFC080917C
:104860007B00877F80937B0090E490937C00809115
:104870007A00806480937A0080917A0086FDFCCF74
:104880008091780060917900762F682F072E000CB8
:10489000880B990B0E944E2620E030E04AE754E452
:1048A0000E943B2820E030E44CE955E40E94AD260C
:1048B00020E030E040E251E40E943B2820E030E07C
:1048C00040E85FE30E94CE276B017C014B015C0155
:1048D000AC019B010E94E12860E376E0811126C0D3
:1048E00016012701E89457F82FEF3FEF4FE75FE7F6
:1048F000C201B1010E94E12881110CC02FEF3FEFEE
:104900004FE75FE7C201B1010E94472664E376E00A
:10491000181664F02FEF3FEF4FE75FE4C701B601D1
:104920000E94DC2818163CF468E376E08EE397E0FA
:104930000E94450D63CE2FEF3FEF4FE75FECC701BD
:10494000B6010E94472687FDEFCF20E030E0A901A5
:10495000C701B6010E94472687FF0BC06DE28EE3B8
:1049600097E00E94200246015701B7FAB094B7F8C9
:10497000B0942AE037ED43EA5BE3C501B4010E943D
:10498000CF274B015C010E94AD286B017C010E9486
:104990004C269B01AC01C501B4010E94CE274B01FE
:1049A0005C012AE0B701A6018EE397E00E947C0D2E
:1049B0006EE28EE397E00E94200220E030E040E2C9
:1049C00051E4C501B4010E94AD264B015C010E9477
:1049D000AD286B01F12CE12C2AE0B701A6018EE392
:1049E00097E00E947C0DC701B6010E944C269B01F6
:1049F000AC01C501B4010E94CE2720E030E040E2C6
:104A000051E40E94AD260E94AD28AB0170E060E049
:104A10002AE08EE397E00E947C0DF0CD8033910573
:104A200079F461E088E30E94EE0361E089E30E948B
:104A3000EE0361E08AE30E94EE0361E08BE31AC0BB
:104A40008133910571F460E088E30E94EE0360E039
:104A500089E30E94EE0360E08AE30E94EE0360E0D7
:104A6000EDCF61E08233910521F08333910529F484
:104A700060E088E30E94EE03C1CD61E084339105DC
:104A800021F08533910519F460E089E3F3CF61E00B
:104A90008633910521F08733910519F460E08AE3AC
:104AA000E9CF8833910549F2C997C9F2A7CD0E9491
:104AB000E30C60E080E00E94EE0C6CE376E088E7B7
:104AC00098E00E94410E61E080E00E94EE0C6CE4F0
:104AD00076E088E798E00E94410E61E08DE20E9456
:104AE000EE0361E08EE30E94EE0361E088E30E9442
:104AF000EE0361E089E30E94EE0361E08AE30E9435
:104B0000EE0361E08BE30E94EE0360ED77E080E06E
:104B100090E00E94500860E08DE20E94EE038CE578
:104B200096E00E94320E21E030E030931D07209382
:104B30001C0710926002F5CA83EF98E00E943A0FBA
:104B400089EF98E00E943A0F8FEF98E00E943A0FA9
:104B500085E099E00E943A0F8BE099E00C943A0FBF
:104B6000FC0188279927E89421912032E9F3293024
:104B700010F02E30C8F32B3241F02D3239F4689406
:104B800004C00E941526820F911D219120532A30C6
:104B9000C0F31EF4909581959F4F08951F93FC01DB
:104BA00099278827BC01E89411911032E9F3193054
:104BB00010F01E30C8F31B3251F01D3249F46894D6
:104BC00006C00E940026610F711D811D911D11916B
:104BD00010531A30B0F33EF490958095709561951E
:104BE0007F4F8F4F9F4F1F910895BB274A3031F45D
:104BF000992322F4BDE2909581959F4F0C941E2637
:104C0000592F482F372F262F660F771F881F991F80
:104C1000660F771F881F991F620F731F841F951FD0
:104C2000660F771F881F991F08957AE0979F902D30
:104C3000879F802D910D11240895BB27FB015527D7
:104C4000AA27880F991FAA1FA41710F0A41B8395E9
:104C50005051B9F7A05DAA3308F0A95DA193009760
:104C600079F7B111B1931192CB010C943726DC0185
:104C7000FC01672F71917723E1F7329704C07C9193
:104C80006D9370836291AE17BF07C8F308950E94B9
:104C9000892608F481E00895E89409C097FB3EF462
:104CA00090958095709561957F4F8F4F9F4F992379
:104CB000A9F0F92F96E9BB279395F69587957795F7
:104CC0006795B795F111F8CFFAF4BB0F11F460FFB7
:104CD0001BC06F5F7F4F8F4F9F4F16C0882311F00F
:104CE00096E911C0772321F09EE8872F762F05C023
:104CF000662371F096E8862F70E060E02AF09A95BE
:104D0000660F771F881FDAF7880F9695879597F9B2
:104D10000895990F0008550FAA0BE0E8FEEF16164C
:104D20001706E807F907C0F012161306E407F5079F
:104D300098F0621B730B840B950B39F40A2661F013
:104D4000232B242B252B21F408950A2609F4A140B6
:104D5000A6958FEF811D811D08950E94C0260C9499
:104D600031270E94232738F00E942A2720F095231C
:104D700011F00C941A270C94202711240C94652709
:104D80000E94422770F3959FC1F3950F50E0551F85
:104D9000629FF001729FBB27F00DB11D639FAA2790
:104DA000F00DB11DAA1F649F6627B00DA11D661FDF
:104DB000829F2227B00DA11D621F739FB00DA11D00
:104DC000621F839FA00D611D221F749F3327A00DBA
:104DD000611D231F849F600D211D822F762F6A2F56
:104DE00011249F5750409AF0F1F088234AF0EE0FBB
:104DF000FF1FBB1F661F771F881F91505040A9F7E8
:104E00009E3F510580F00C941A270C9465275F3F54
:104E1000E4F3983ED4F3869577956795B795F79523
:104E2000E7959F5FC1F7FE2B880F911D969587959B
:104E300097F9089597F99F6780E870E060E008951A
:104E40009FEF80EC089500240A94161617061806A2
:104E50000906089500240A9412161306140605067E
:104E60000895092E0394000C11F4882352F0BB0F0F
:104E700040F4BF2B11F460FF04C06F5F7F4F8F4F72
:104E80009F4F089557FD9058440F551F59F05F3FAD
:104E900071F04795880F97FB991F61F09F3F79F05C
:104EA00087950895121613061406551FF2CF4695DE
:104EB000F1DF08C0161617061806991FF1CF869560
:104EC0007105610508940895E894BB276627772744
:104ED000CB0197F90895052E97FB1EF400940E94CC
:104EE000822757FD07D00E949D2707FC03D04EF470
:104EF0000C94822750954095309521953F4F4F4F08
:104F00005F4F089590958095709561957F4F8F4F75
:104F10009F4F08950E94BF27A59F900DB49F900DAD
:104F2000A49F800D911D11240895B7FF0C948A272A
:104F30000E948A27821B930B0895A1E21A2EAA1BB6
:104F4000BB1BFD010DC0AA1FBB1FEE1FFF1FA21739
:104F5000B307E407F50720F0A21BB30BE40BF50B36
:104F6000661F771F881F991F1A9469F760957095BF
:104F7000809590959B01AC01BD01CF010895A29F42
:104F8000B001B39FC001A39F700D811D1124911D1D
:104F9000B29F700D811D1124911D08955058BB279B
:104FA000AA270E94E6270C9431270E94232738F075
:104FB0000E942A2720F039F49F3F19F426F40C941C
:104FC00020270EF4E095E7FB0C941A27E92F0E94A6
:104FD000422758F3BA17620773078407950720F032
:104FE00079F4A6F50C9464270EF4E0950B2EBA2FF5
:104FF000A02D0B01B90190010C01CA01A0011124DF
:10500000FF27591B99F0593F50F4503E68F11A168A
:10501000F040A22F232F342F4427585FF3CF46951B
:1050200037952795A795F0405395C9F77EF41F163D
:10503000BA0B620B730B840BBAF09150A1F0FF0F07
:10504000BB1F661F771F881FC2F70EC0BA0F621FF3
:10505000731F841F48F4879577956795B795F795E3
:105060009E3F08F0B0CF9395880F08F09927EE0F78
:105070009795879508950E944F280C9431270E9498
:105080002A2758F00E94232740F029F45F3F29F097
:105090000C941A2751110C9465270C9420270E9418
:1050A000422768F39923B1F3552391F3951B550BD0
:1050B000BB27AA2762177307840738F09F5F5F4FEB
:1050C000220F331F441FAA1FA9F335D00E2E3AF02A
:1050D000E0E832D091505040E695001CCAF72BD042
:1050E000FE2F29D0660F771F881FBB1F2617370793
:1050F0004807AB07B0E809F0BB0B802DBF01FF27C5
:1051000093585F4F3AF09E3F510578F00C941A2760
:105110000C9465275F3FE4F3983ED4F3869577952A
:105120006795B795F7959F5FC9F7880F911D96957D
:10513000879597F90895E1E0660F771F881FBB1FD9
:10514000621773078407BA0720F0621B730B840B86
:10515000BA0BEE1F88F7E09508950E944A2788F061
:105160009F5798F0B92F9927B751B0F0E1F0660F2B
:10517000771F881F991F1AF0BA95C9F714C0B1306C
:1051800091F00E946427B1E008950C946427672F82
:10519000782F8827B85F39F0B93FCCF3869577959B
:1051A0006795B395D9F73EF4909580957095619584
:1051B0007F4F8F4F9F4F08950E94892608F48FEFED
:1051C00008950E948926880B990B0895991B79E010
:1051D00004C0991F961708F0961B881F7A95C9F787
:1051E0008095089597FB072E16F4009407D077FD5D
:1051F00009D00E940E2907FC05D03EF490958195B8
:105200009F4F0895709561957F4F0895EE0FFF1F92
:10521000881F8BBF0790F691E02D1994AA1BBB1B2A
:1052200051E107C0AA1FBB1FA617B70710F0A61BA6
:10523000B70B881F991F5A95A9F780959095BC01C7
:10524000CD0108950F931F93CF93DF938230910583
:1052500010F482E090E0E0913009F091310930E003
:1052600020E0B0E0A0E0309799F42115310509F471
:105270004AC0281B390B24303105D8F58A819B811F
:105280006115710589F1FB0193838283FE0111C0D1
:10529000408151810281138148175907E0F0481776
:1052A000590799F4109761F012960C931297139680
:1052B0001C933296CF01DF91CF911F910F910895EA
:1052C0000093300910933109F4CF2115310551F0C5
:1052D0004217530738F0A901DB019A01BD01DF0134
:1052E000F801C1CFEF01F9CF9093310980933009D4
:1052F000CDCFFE01E20FF31F81939193225031092C
:1053000039832883D7CF20912E0930912F09232B61
:1053100041F420917C0230917D0230932F0920933B
:105320002E0920917A0230917B022115310541F43A
:105330002DB73EB740917E0250917F02241B350B62
:10534000E0912E09F0912F09E217F307A0F42E1B2C
:105350003F0B2817390778F0AC014E5F5F4F2417D9
:10536000350748F04E0F5F1F50932F0940932E09C9
:10537000819391939FCFF0E0E0E09CCFCF93DF93B8
:105380000097E9F0FC01329713821282A091300954
:10539000B0913109ED0130E020E01097A1F42081B7
:1053A0003181820F931F20912E0930912F092817E8
:1053B000390709F061C0F0932F09E0932E09DF91BE
:1053C000CF910895EA01CE17DF07E8F54A815B81A6
:1053D0009E0141155105B1F7E901FB83EA8349912B
:1053E0005991C40FD51FEC17FD0761F4808191819D
:1053F0000296840F951FE9019983888382819381A6
:105400009B838A83F0E0E0E012968D919C91139744
:105410000097B9F52D913C911197CD010296820F1D
:10542000931F20912E0930912F092817390739F63B
:10543000309751F51092310910923009B0932F092D
:10544000A0932E09BCCFD383C28340815181840FA6
:10545000951FC817D90761F44E5F5F4F8881998106
:10546000480F591F518340838A819B819383828394
:105470002115310509F0B0CFF0933109E0933009DF
:105480009ECFFD01DC01C0CF13821282D7CF4F9295
:105490005F926F927F928F929F92AF92BF92CF92C4
:1054A000DF92EF92FF920F931F93CF93DF938C01C4
:1054B000009799F4CB01DF91CF911F910F91FF904D
:1054C000EF90DF90CF90BF90AF909F908F907F90A4
:1054D0006F905F904F900C942229FC01E60FF71F0C
:1054E0009C0122503109E217F30708F4AEC0D9013C
:1054F000CD91DC911197C617D70720F1C530D105A2
:1055000078F0CE0104978617970750F0C61BD70B8B
:105510002297C193D1936D937C93CF010E94BE29B2
:10552000C801DF91CF911F910F91FF90EF90DF9015
:10553000CF90BF90AF909F908F907F906F905F9033
:105540004F9008955B01AC1ABD0A4C018C0E9D1E54
:10555000A0913009B0913109512C412CF12CE12C52
:10556000109731F580912E0990912F098815990592
:1055700009F05CC04616570608F058C080917A02C0
:1055800090917B02009741F48DB79EB740917E02C7
:1055900050917F02841B950BE817F90708F055C05E
:1055A000F0932F09E0932E09F90171836083B8CF3E
:1055B0008D919C91119712966C90129713967C90F6
:1055C0001397A815B90559F56C0142E0C40ED11C1A
:1055D000CA14DB0420F1AC014A195B09DA01129606
:1055E000159780F06282738251834083D9016D9355
:1055F0007C93E114F10471F0D7011396FC93EE93C0
:1056000012978ECF22968C0F9D1FF9019183808374
:10561000F301EFCFF0933109E093300981CF4816C1
:10562000590608F42C017D01D3019ACFCB010E94C9
:1056300022297C01009749F0AE01B8010E94282B75
:10564000C8010E94BE2987016BCF10E000E068CF3F
:10565000FB01DC0102C001900D9241505040D8F78F
:105660000895FB01DC0101900D920020E1F70895FF
:1056700011E0C4E6D1E000E006C0802FFE010E94E8
:1056800006292196011DC536D10780E00807A9F734
:04569000F894FFCFBC
:10569400FFFFFFFFFFFFFFFFFFFFFFFFFFFFFFFF16
:1056A400FFFFFFFFFFFFFFFFFFFFFFFFFFFFFFFF06
:1056B400000A0A0A00110E00000103161C0800006B
:1056C4000E01011F1B1B1F000E11111F1B1B1F00AE
:1056D400FFFFFFFFFFFFFFFFFFFFFFFFFFFFFFFFD6
:1056E400FFFFFFFFFFFFFFFFFFFFFFFFFFFFFFFFC6
:1056F40001FF31302F2E35343332313233553435C6
:105704003644373839534330484500003209800065
:10571400000040001400540000000000BD022702F5
:1057240054020A03850263027702000000008C0B16
:105734005F0BA30C510B580B550B520B00000000D0
:10574400200D2702A30CA20C0000000082072E05E6
:10575400EB030D0A005041535320544F4F204C4F3C
:105764004E4700505245535320454E544552005223
:10577400454749535452414E444F002052454749EE
:10578400535452414E444F2000555000444F574EFD
:1057940000324E4400434C4541520048454C5000B1
:1057A400434C415645204D454E4F522044452038E8
:1057B40000454E54455220414345505441520054F3
:1057C40065636C613A20004552524F52204944208F
:1057D4004D5559204752414E444500444947495488
:1057E4004520535520434C41564500696E64696316
:1057F400652061637475616C3A2000637572736F20
:10580400722061637475616C3A20005245494E53AD
:10581400455254414E444F20434C4156450050415B
:10582400535320434F494E434944454E00646174E9
:105834006F7320766563746F72006E756D65726F39
:105844000050415353204E4F20434F494E43494447
:1058540045005245494E475245534520434C415615
:1058640045004552524F5220434C415645204D5518
:1058740059204752414E4445004553504552414EEC
:10588400444F20434C41564520474552454E5445CC
:10589400004249454E56454E49444F004552524FE9
:1058A400522020202000434C41564520494E434F6E
:1058B40052524543544F0053495354454D4120429D
:1058C4004C4F51554541444F0041564953452041A1
:1058D4004C20474552454E544500435245414E44A1
:1058E4004F20454D504C4541444F00494420002031
:1058F40050415353200043524541444F2045584999
:10590400544F53414D454E54450049442055535539
:105914004152494F2000434C415645200020424902
:10592400454E56454E49444F200050696469656EA2
:10593400646F205573756172696F00505245534905
:105944004F4E45203030303000454E5445522052A1
:10595400454749535452415200494420544F4F2023
:105964004C4F4E4700494E47524553452049440049
:105974004553544520455320454C205553554152D9
:10598400494F0050696469656E646F20636C617689
:10599400650045535441204553204C4120434C411C
:1059A4005645004944205553554152494F00434CF4
:1059B400415645205553554152494F004441544F97
:1059C4005320494E434F52524543544F53002020D5
:1059D4004552524F52202020202000434C4156452E
:1059E40020494E434F5252454354410042414420C2
:1059F40050415353574F5244004156495345204751
:105A04004552454E544500204249454E56454E495F
:105A1400444F3A20004D6F7669656E646F2068616B
:105A240063696100697A71756965726461004C61CA
:105A3400206D756573747261206C6C65676F0061AD
:105A44006C204C414232004552524F523A206E6F04
:105A540020686179006D75657374726120656E20CC
:105A64004C41423100646572656368617300616C26
:105A7400204C414231004552524F523A206E6F2021
:105A840068617920006D75657374726120656E209C
:105A94004C4142320026436F6E74726F6C506F72C9
:105AA400746F6E260041627269656E646F00636F85
:105AB4006D69656E7A610043657272616E646F0030
:105AC4006E616E00696E66006F7666002020204F5E
:105AD4004B2041434345534F202020002020205099
