:020000040000FA
:100000000C9459010C948A010C948A010C948A0175
:100010000C948A010C948A010C948A010C948A0134
:100020000C948A010C948A010C948A010C948A0124
:100030000C948A010C94160E0C948A010C948A017B
:100040000C948A010C94AA0F0C948A010C948A01D6
:100050000C948A010C948A010C948A010C94D60E9B
:100060000C948A010C94A00E0C94760E0C948A01C8
:100070000C948A010C948A010C948A010C948A01D4
:100080000C947C0F0C948A010C948A010C948A01C4
:100090000C948A010C948A010C948A010C948A01B4
:1000A0000C948A010C948A010C944E0F0C948A01D2
:1000B0000C948A010C948A010C948A010C94200FF0
:1000C0000C948A010C948A010C948A010C948A0184
:1000D0000C948A010C948A010C948A010C948A0174
:1000E0000C948A010C9482030C94A1030C94930A3F
:1000F0000C949D200C94E0040C948D030C9410053A
:100100000C94EA030C9492160C9453020C94AF03D3
:100110000C94AB030C9493030C94F70B0C942105F3
:100120000C949D030C9462020C9409030C947803C4
:100130000C9404050C942D050C94FD040C9481077B
:100140000C947E030C9476020C9486030C948A0320
:100150000C94920A0C94B9040C9428050C94CA04CB
:100160000C94AD040C94BC020C94B3030C94FB04EB
:100170000C9426020C94B9030C9484020C94A503ED
:100180000C94BD030C9497030C94B8030000210059
:10019000240027002A002D00300033000101000058
:1001A000040107010A0100002000230026002900A5
:1001B0002C002F003200000100000301060109019C
:1001C00000000A0B02090C0D0E08070304010000D1
:1001D000000000000000000000000000000000001F
:1001E00000000000000000000000000012111000DC
:1001F00000000000000000000000000000000000FF
:10020000000000000000010210202008081020401B
:1002100010204080020102010804020101020408CA
:100220001020408080402010080402018004020158
:1002300080402010080402010804020101020408A1
:10024000102040800102040810204080000022009D
:10025000250028002B002E00310034000201000090
:10026000050108010B010505050507050808080833
:10027000020202020A0A080804040404010101013E
:100280000101010103030303030303030407070739
:100290000C0C0C0C0C0C0C0C0202020206060606DE
:1002A000060606060B0B0B0B0B0B0B0B0200921634
:1002B0009D2011241FBECFEFD1E2DEBFCDBF00E0F5
:1002C0000CBF15E0A0E0B2E0EAEDF7E400E00BBF00
:1002D00002C007900D92AA3FB107D9F728E0AAEF14
:1002E000B5E001C01D92AB32B207E1F711E0C8E5FD
:1002F000D1E000E006C021970109802FFE010E9495
:10030000A921C735D10780E00807A9F70E94C417C3
:100310000C94DB230C94000096E0899FD0011124FB
:10032000A358B84F90967C936E935F9791E0919607
:100330009C939197E091EA07F091EB079091E90780
:10034000992339F0309751F0811108C080919907B5
:100350001994309719F05C968C91FACF0895CF924A
:10036000DF92EF92FF920F931F9396E0899FF00127
:100370001124E358F84F11A2278D30A12130310507
:1003800051F178F02230310509F451C023303105A4
:1003900009F452C01F910F91FF90EF90DF90CF9022
:1003A00008956623B9F361E070E00E948C012FB7D5
:1003B000F8948091130690911406A0911506B091BF
:1003C00016062FBF8093D5079093D607A093D70723
:1003D000B093D807DFCF9FB7F894C0901306D090A2
:1003E0001406E0901506F09016069FBF0091D50701
:1003F0001091D6072091D7073091D807C01AD10A9B
:10040000E20AF30A0091E7071091E80730E020E0E4
:100410000C151D052E053F0550F462E070E01F919C
:100420000F91FF90EF90DF90CF900C948C016111B1
:10043000B1CF63E070E0F3CF70E060E0F0CFDC01BB
:10044000ED91FC910190F081E02D1994AF92BF9253
:10045000CF92DF92EF92FF920F931F93CF93DF9390
:100460006C017B018B01040F151FEB015E01AE18BF
:10047000BF08C017D10759F06991D601ED91FC91E1
:100480000190F081E02DC6011995892B79F7C501FE
:10049000DF91CF911F910F91FF90EF90DF90CF9060
:1004A000BF90AF900895FC01538D448D252F30E00F
:1004B000842F90E0821B930B541710F0CF96089571
:1004C00001970895FC01918D828D981761F0A28D9E
:1004D000AE0FBF2FB11D5D968C91928D9F5F9F7364
:1004E000928F90E008958FEF9FEF0895FC01918D1A
:1004F000828D981731F0828DE80FF11D858D90E087
:1005000008958FEF9FEF0895FC01918D228D892F23
:1005100090E0805C9F4F821B91098F73992708950B
:1005200087E396E00E94840221E0892B09F420E011
:10053000822F0895FC01A48DA80FB92FB11DA35AD5
:10054000BF4F2C91848D90E001968F739927848FF3
:10055000A689B7892C93A089B1898C918370806416
:100560008C93938D848D981306C00288F389E02DB7
:1005700080818F7D80830895EF92FF920F931F9368
:10058000CF93DF93EC0181E0888F9B8D8C8D981346
:100590001AC0E889F989808185FF15C09FB7F89452
:1005A000EE89FF896083E889F9898081837080649E
:1005B00080839FBF81E090E0DF91CF911F910F91E9
:1005C000FF90EF900895F62E0B8D10E00F5F1F4FF8
:1005D0000F731127E02E8C8D8E110CC00FB607FC07
:1005E000FACFE889F989808185FFF5CFCE010E9495
:1005F0009A02F1CFEB8DEC0FFD2FF11DE35AFF4F67
:10060000F0829FB7F8940B8FEA89FB898081806222
:10061000CFCFCF93DF93EC01888D8823B9F0AA89DF
:10062000BB89E889F9898C9185FD03C0808186FDAD
:100630000DC00FB607FCF7CF8C9185FFF2CF8081FC
:1006400085FFEDCFCE010E949A02E9CFDF91CF91D5
:10065000089580E090E0892B29F00E94900281119A
:100660000E94000080E090E0892B49F080E090E05B
:10067000892B29F00E94000081110E94000080E077
:1006800090E0892B49F080E090E0892B29F00E94CE
:10069000000081110E94000080E090E0892B49F069
:1006A00080E090E0892B29F00E94000081110C94D9
:1006B000000008958150823108F05AC0E82FF0E020
:1006C0008827EA59FC4F8F4F0C94A92186038A038F
:1006D00078037E038203B8038D03930397039D037E
:1006E000A103A503AB03AF03B803B303B903BD0371
:1006F000809180008F7780938000089580918000A2
:100700008F7DF9CF80918000877FF5CF84B58F777B
:1007100084BD089584B58F7DFBCF8091B0008F7725
:100720008093B00008958091B0008F7DF9CF8091C3
:1007300090008F77809390000895809190008F7D36
:10074000F9CF80919000877FF5CF8091A0008F77BF
:100750008093A00008958091A0008F7DF9CF8091B3
:10076000A000877FF5CF809120018F7780932001B3
:100770000895809120018F7DF9CF80912001877F9E
:10078000F5CFCF93DF93282F30E0F901E054FE4FEF
:100790008491F901EA5FFD4FD491F901EA59FD4FC7
:1007A000C491CC23A1F081110E945A03EC2FF0E0F8
:1007B000EE0FFF1FEA55FE4FA591B491EC91ED238A
:1007C00081E090E009F480E0DF91CF91089580E02E
:1007D00090E0FACF862F0C94C1031F93CF93DF9341
:1007E000282F30E0F901E054FE4F8491F901EA5FCF
:1007F000FD4FD491F901EA59FD4FC491CC23A9F0E2
:10080000162F81110E945A03EC2FF0E0EE0FFF1F0C
:10081000E45BFD4FA591B4918FB7F894EC91111161
:1008200008C0D095DE23DC938FBFDF91CF911F915D
:100830000895DE2BF8CFCF93DF93EC01809115085C
:1008400090911608029749F4C130D10509F43DC0D2
:100850007CF560E0209709F439C0809115089091EB
:100860001608049749F4C130D10509F45EC00CF0B4
:1008700039C0209709F444C080911508909116085A
:10088000059709F0E7C0CA30D10508F0E3C0FE01C2
:100890008827E25BFB4F8F4F0C94A921AD04B9046C
:1008A000CA04E004FB04FD04040510052105280525
:1008B000C230D105A9F060E0C330D10571F6809156
:1008C00019080E94ED0360E006C061E080911908FC
:1008D0000E94ED0361E080911B080E94ED03BDCFF3
:1008E00061E0EDCFC230D10539F1C330D10509F057
:1008F000C3CF61E0809119080E94ED0360E022C03F
:1009000061E0809119080E94ED0360E080911B086E
:100910000E94ED0361E080911D080E94ED0360E0FC
:1009200080911F080E94ED03A7CF60E08091190815
:100930000E94ED0361E0EACF60E0809119080E9417
:10094000ED0361E080911B080E94ED0360E080915F
:100950001D080E94ED0361E0E3CF60E0809119087B
:100960000E94ED0361E080911B080E94ED0361E0AD
:100970000BC060E0809119080E94ED0361E0809156
:100980001B080E94ED0360E080911D080E94ED03AA
:1009900060E010C060E0809119080E94ED0361E002
:1009A00080911B080E94ED0360E080911D080E9469
:1009B000ED0361E080911F080E94ED0361E015C026
:1009C00060E0809119080E94ED0361E080911B08AE
:1009D0000E94ED0360E080911D080E94ED0361E03C
:1009E00080911F080E94ED0360E080912108DF9153
:1009F000CF910C94ED0361E0E4CF61E080911908A0
:100A00000E94ED0360E0E2CF61E0809119080E944E
:100A1000ED0360E080911B080E94ED0361E0DBCFF5
:100A200061E0809119080E94ED0360E080911B084D
:100A30000E94ED0361E080911D080E94ED0360E0DB
:100A4000CFCF61E0809119080E94ED0360E08BCF69
:100A500060E0F8CFDF91CF910895862F642F0C943A
:100A6000ED039091610289130DC0ECEAF2E0E4918C
:100A70009FEF90936102E230E1F038F4EE2381F0D1
:100A8000E13089F060E00C94ED03E43049F110F1BD
:100A9000E530C1F7909173009D7F90937300F2CF82
:100AA00010926E00EFCF90916F009D7F90936F003A
:100AB000E9CF909170009D7F9093700091E09093AA
:100AC000B0009091B100987F94609093B100109223
:100AD000B300D8CF909171009D7F90937100D2CFD9
:100AE000909172009D7F90937200CCCFCF93DF9353
:100AF00090E0FC01EA5FFD4F24918A599D4FFC0173
:100B000084918823C9F090E0880F991FFC01E45775
:100B1000FE4FA591B491FC01E45BFD4FC591D491CA
:100B200061110DC09FB7F8948C91209582238C930E
:100B30008881282328839FBFDF91CF910895623059
:100B400051F49FB7F8943C91822F809583238C9326
:100B5000E8812E2BEFCF8FB7F894EC912E2B2C93AE
:100B60008FBFEACF0F931F93CF938C0180916102C7
:100B70008D3231F08F3FA1F1CF911F910F910895E8
:100B8000ECEAF2E0C491C7FDF7CF61E08DE20E948C
:100B90007605C1113FC0980150E040E068E478EE6E
:100BA00081E090E00E944821BA01A9014150510919
:100BB0006109710985B5887F836085BD47BD8FEF69
:100BC0009FEFDC018093330690933406A0933506A3
:100BD000B093360680916E00826080936E00CCCF19
:100BE0008DE280936102ECEAF2E0C4918C2FCF3F5A
:100BF00009F4C2CFC23009F493C0B8F5CC2309F48C
:100C000059C0C13009F46EC087FDB6CF61E08DE2F6
:100C10000E947605980150E040E0C23009F0DFC044
:100C200060E970ED83E090E00E944821BA01A901DB
:100C300041505109610971098091B100887F836039
:100C40008093B1004093B3008FEF9FEFDC0180935E
:100C50002B0690932C06A0932D06B0932E06809120
:100C6000700082608093700087CFC43009F499C00F
:100C700008F478C0C53041F610922001109221018D
:100C80008091210188608093210180912101816000
:100C900080932101E3E9F2E0E491F0E0EE0FFF1F21
:100CA000E45BFD4F85919491E3E3F2E0E491E093FE
:100CB00017066BCF14BC15BC84B5826084BD85B5A6
:100CC000816085BDE3E9F2E0E491F0E0EE0FFF1F03
:100CD000E45BFD4F85919491E3E3F2E0E491E093CE
:100CE0001E0653CF109280001092810080918100E7
:100CF0008860809381008091810081608093810071
:100D0000E3E9F2E0E491F0E0EE0FFF1FE45BFD4F5A
:100D100085919491E3E3F2E0E491E0931D0635CFF1
:100D20001092B0001092B1008091B0008260809368
:100D3000B0008091B10081608093B100E3E9F2E0FE
:100D4000E491F0E0EE0FFF1FE45BFD4F859194917D
:100D500090931C0680931B06E3E3F2E0E491E0939A
:100D60001A0613CF1092900010929100809191007A
:100D700088608093910080919100816080939100C0
:100D8000E3E9F2E0E491F0E0EE0FFF1FE45BFD4FDA
:100D900085919491E3E3F2E0E491E0931906C3E0D6
:100DA000F4CE1092A0001092A1008091A100886062
:100DB0008093A1008091A10081608093A100E3E96C
:100DC000F2E0E491F0E0EE0FFF1FE45BFD4F859150
:100DD0009491E3E3F2E0E491E0931806D6CE60E06C
:100DE00072E18AE790E00E944821DA01C901019787
:100DF000A109B109AC01C130D9F420918100287F4B
:100E000021602093810090938900809388008FEF68
:100E10009FEFDC0180932F0690933006A09331065C
:100E2000B093320680916F00826080936F00A4CEF1
:100E3000C330D9F420919100287F21602093910044
:100E400090939900809398008FEF9FEFDC0180933F
:100E5000270690932806A0932906B0932A0680912E
:100E6000710082608093710087CEC430D9F42091E4
:100E7000A100287F21602093A1009093A900809376
:100E8000A8008FEF9FEFDC01809323069093240648
:100E9000A0932506B093260680917200826080930D
:100EA00072006ACEC530D9F420912101287F2160DB
:100EB0002093210190932901809328018FEF9FEFC8
:100EC000DC0180931F0690932006A0932106B09327
:100ED0002206809173008260809373004DCEC230F1
:100EE00009F4B0CE3CF4CC2309F468CEC13009F04B
:100EF00043CE89CFC43009F20CF4A2CFC530D1F271
:100F00003BCE862F642F0C9476056F927F928F9242
:100F10009F92AF92BF92CF92DF92EF92FF920F9388
:100F20001F93CF93DF9381E08093E9078FB7F89405
:100F300040911306509114066091150670911606A3
:100F40008FBF8091D9079091DA07A091DB07B0910C
:100F5000DC07481B590B6A0B7B0B8091E5079091CE
:100F6000E607B0E0A0E084179507A607B70708F0EA
:100F70001DC1C0E08091E307C81760F4E091DF076E
:100F8000F091E007EC0FF11D62E080810E94760590
:100F9000CF5FF0CF712C812C912C540183948091E0
:100FA000E407781608F05FC0072D10E0E091E10734
:100FB000F091E207E00FF11F61E080810E94760569
:100FC000E091E107F091E207E00FF11F60E080811E
:100FD0000E94ED03D501C401072C04C0880F991F9E
:100FE000AA1FBB1F0A94D2F76C017C01E094F09415
:100FF000612C8091E3076816F8F4C62DD0E0E091EB
:10100000DF07F091E007EC0FFD1F80810E94C10314
:101010002496CC0FDD1FC358D84F892B41F488810B
:1010200099818C299D29998388836394E2CF888153
:1010300099818E219F21F7CFE091E107F091E2079E
:10104000E00FF11F61E080810E94ED038091E107D4
:101050009091E207080F191F60E0F80180810E945B
:10106000760573949CCFCDE7D7E0FE018FEF9FEF1D
:10107000278D30A1232B21F4148E968F858F11A2FA
:10108000369627E0E93BF20799F7F12C96E0D92E46
:101090008091E307F81608F050C0E12C0F2D10E006
:1010A000000F111F0B57184F2091E407E21608F0AC
:1010B00042C0F801608171810E2C02C0769567955F
:1010C0000A94E2F7F29E900111242E0D311DEDE7F6
:1010D000F7E080E0458D568D2417350709F46AC086
:1010E0008F5F36968A30B1F760FF23C0EDE7F7E0F7
:1010F00090E080E0448D411117C0E091DD07F09150
:10110000DE07E20FF31F4081D89EF001D99EF00D5B
:101110001124E358F84F448F368F258F10A2178E75
:1011200061E00E94AF0105C0019636968A309105B4
:1011300009F7E394B9CFF394ABCF80E099A1911173
:10114000892F2696F7E0C93BDF07C1F79FB7F894D0
:101150004091130650911406609115067091160681
:101160009FBF4093D9075093DA076093DB077093D2
:10117000DC078823D9F080919E078823B9F08091FD
:101180009C0790919D07019789F480919907DF91C1
:10119000CF911F910F91FF90EF90DF90CF90BF9074
:1011A000AF909F908F907F906F9008951092E90775
:1011B00080E0EDCF6170B5CF3FB7F8948091010624
:1011C00090910206A0910306B091040626B5A89B53
:1011D00005C02F3F19F00196A11DB11D3FBFBA2FC9
:1011E000A92F982F8827BC01CD01620F711D811D89
:1011F000911D42E0660F771F881F991F4A95D1F70E
:1012000008954F925F926F927F928F929F92AF92CA
:10121000BF92EF92FF920F931F93CF93DF93EC0156
:1012200097FF04C0CC27DD27C81BD90B1816190659
:101230000CF061C081E090E090930E0880930D085F
:1012400004E010E08AE0E82EF12C209709F46FC04A
:101250000E94DC088090230890902408A090250824
:10126000B09026082B013C01481859086A087B08F1
:1012700080900F0890901008A0901108B09012086C
:10128000481459046A047B0400F3609323087093A4
:101290002408809325089093260880911708909140
:1012A000180820910D0830910E082130310559F5AC
:1012B0000196909318088093170820911308309195
:1012C00014088217930721F4109218081092170837
:1012D0002197809117089091180820911508309156
:1012E0001608B7012530310509F0B8010E94952193
:1012F0000E941B04AACF892B09F4A2CF10920E08DA
:1013000010920D089DCF892B41F480911308909184
:1013100014089093180880931708809117089091EB
:10132000180801979093180880931708D1CFDF9180
:10133000CF911F910F91FF90EF90BF90AF909F9032
:101340008F907F906F905F904F9008958F929F92B3
:10135000AF92BF92CF92DF92EF92FF924B015C016E
:101360000E94DC086B017C010E94DC086C197D097D
:101370008E099F09683E734081059105A8F321E01D
:10138000821A9108A108B10888EEC80E83E0D81E21
:10139000E11CF11C81149104A104B10429F7FF9010
:1013A000EF90DF90CF90BF90AF909F908F90089577
:1013B000AF92BF92CF92DF92EF92FF920F931F9363
:1013C000CF93DF936B017A01EC01C450DA4F28818F
:1013D0003CE0389F8001399F100D1124A0906407D4
:1013E000B12C27FF1FC0FB011182108288818F5F03
:1013F000888388819801280F311D87FD3A95F60171
:101400002A153B051CF488818C30C4F180819181C0
:10141000049680349C4908F473C0F6018081918160
:10142000049670C088819801280F311D87FD3A9578
:101430002A153B05DCF68881A801480F511D87FD60
:101440005A95FA01EE0FFF1FE40FF51FEC52F94F0A
:10145000808186FFCBCF8881F801E80FF11D87FDE1
:10146000FA95CF01EE0FFF1FE80FF91FEC52F94F6D
:10147000808160E08F730E94ED03B8CF80819181FD
:101480002881A801420F511D27FD5A959A01FA01A2
:10149000EE0FFF1FE20FF31FEC52F94F2181328153
:1014A000820F931FF7019183808388819801280F11
:1014B000311D87FD3A95F901EE0FFF1FE20FF31F73
:1014C000EC52F94F808186FF22C08881080F111DE0
:1014D00087FD1A95F801EE0FFF1FE00FF11FEC5288
:1014E000F94F808161E08F73DF91CF911F910F9150
:1014F000FF90EF90DF90CF90BF90AF900C94ED03F2
:1015000080E49CE9F701918380838FEF8883DF91EA
:10151000CF911F910F91FF90EF90DF90CF90BF90F0
:10152000AF900895089590E080E008959C01205FB9
:101530003F4F4FEF5FEFFC0141935193CF01E21713
:10154000F307C9F70895CF93DF93EC0160E08E8134
:101550000E94ED0361E08E810E94ED0360E08E81C8
:101560000E94ED038BE891E00197F1F7DF91CF91B5
:101570000895CF92DF92EF92FF920F931F93CF9334
:10158000DF936C017C0187E0E80EF11CD0E0C0E045
:10159000062F10E0B8010C2E02C0759567950A94CD
:1015A000E2F76170F70181917F010E94ED032196BE
:1015B000C430D10579F7C601DF91CF911F910F910A
:1015C000FF90EF90DF90CF900C94A30ACF92DF9220
:1015D000EF92FF920F931F93CF93DF93EC01F62EC0
:1015E000642F8C810E94ED038D818F3F19F060E0A4
:1015F0000E94ED030F2D10E08F8584FF25C06E0142
:1016000087E0C80ED11CF12CE12CB8010E2C02C0D1
:10161000759567950A94E2F76170F60181916F0103
:101620000E94ED03FFEFEF1AFF0A88E0E816F104CD
:1016300061F7CE01DF91CF911F910F91FF90EF9055
:10164000DF90CF900C94A30AB80184E0759567955C
:101650008A95E1F7CE010E94B90A6F2DCE01DF9184
:10166000CF911F910F91FF90EF90DF90CF900C944E
:10167000B90A40E0682F85E697E00C94E60A81E01D
:101680000E94390B8BE39FE10197F1F70895CF9307
:10169000DF93823029F490917407986090937407D7
:1016A000809378071092790780E480937A0780E12D
:1016B00080937B0780E580937C0761E080916907D8
:1016C0000E94760580916A078F3F19F061E00E94C1
:1016D000760561E080916B070E947605C5E6D7E04C
:1016E0009E01255637408091740784FD0BC084E02D
:1016F00090E021962817390744F461E08E810E941A
:101700007605EECF88E090E0F4CF8BE39DE0019783
:10171000F1F760E0809169070E94ED0360E080913D
:101720006B070E94ED0380916A078F3F19F060E01C
:101730000E94ED038091740784FD34C063E085E668
:1017400097E00E94B90ACBE4D6E4CE010197F1F705
:1017500063E085E697E00E94B90A2197F1F763E01C
:1017600085E697E00E94B90A83E592E00197F1F7D8
:1017700062E085E697E00E94B90A80917407806272
:101780000E94390B84E0809375078CE00E94390B2E
:101790000E943F0B82E08093760786E0DF91CF9135
:1017A0000C94390B80620E94390B8BE496E401970C
:1017B000F1F78091740780620E94390B83E592E013
:1017C0000197F1F78091740780620E94390BD5CFA1
:1017D00090917807691710F06FEF690FE62FF0E02E
:1017E000EB59F84F9489890F80680C94390B41E0CC
:1017F0000E94E60A81E090E008950F931F93CF9333
:10180000DF938B0128E0829FC001112480640E9435
:10181000390BE801085F1F4F699185E697E00E9448
:10182000F70BC017D107C1F7DF91CF911F910F912F
:101830000895FB0101900020E9F73197AF01461BA5
:10184000570BDC01ED91FC910280F381E02D19949E
:1018500068EA72E087E396E00C94190CCF93DF936B
:10186000FC01448155816081718187E396E00E948B
:101870002602EC010E94280C8C0F9D1FDF91CF9156
:101880000895CF93DF93682F87E396E00E941F02AD
:10189000EC010E94280C8C0F9D1FDF91CF910895C1
:1018A0008F929F92AF92BF92EF92FF920F931F93EE
:1018B000CF93DF93CDB7DEB7A1970FB6F894DEBF15
:1018C0000FBECDBF7C01FA01CB0119A2223008F472
:1018D0002AE08E010F5D1F4F822E912CB12CA12C7E
:1018E000BF01A50194010E946721F901CA016A3074
:1018F0000CF5605DD8016E938D01232B242B252BD5
:1019000079F790E080E0109721F0BD01C7010E94B7
:10191000190CA1960FB6F894DEBF0FBECDBFDF91B4
:10192000CF911F910F91FF90EF90BF90AF909F903C
:101930008F900895695CDECFCF92DF92EF92FF9295
:10194000CF93DF936C01990FEE08FF08F7FE1FC0DD
:101950006DE287E396E00E941F02EC0144275527C1
:10196000BA014C195D096E097F092AE087E396E008
:101970000E94500CC80FD91F0E94280C8C0F9D1F6D
:10198000DF91CF91FF90EF90DF90CF9008952AE004
:10199000B701A60187E396E00E94500CEC01ECCF62
:1019A000CF92DF92EF92FF920F931F93CF93DF932B
:1019B0006B01770FEE08FF08F7FE1BC0EC016DE22C
:1019C0000E941F028C0144275527BA014C195D095A
:1019D0006E097F092AE0CE010E94500C800F911FF2
:1019E000DF91CF911F910F91FF90EF90DF90CF90FB
:1019F00008952AE0B701A601DF91CF911F910F91C1
:101A0000FF90EF90DF90CF900C94500CCF93DF932A
:101A1000BC0187E396E00E94190CEC010E94280C9F
:101A20008C0F9D1FDF91CF9108950C94190C0E948B
:101A30003F0B80910506882399F160E080E00E94C9
:101A4000E80B6BEA72E085E697E00E94150D61E015
:101A500083E00E94E80B69EB72E085E697E00E9464
:101A6000150D0E948507853421F7109210061092FB
:101A70000F0610920E0610920D0680E592E00E946D
:101A8000960A0E943F0B60E080E00E94E80B69ED3F
:101A900073E085E697E00E94150D10920506C9CF08
:101AA0000895FC0180819181009711F00C94CF2062
:101AB00060E070E0CB010895DC0114968D919C915B
:101AC00015976817790750F4ED91FC911197E60F7F
:101AD000F71F15967C936E931497108208950F93B9
:101AE0001F93CF93DF93EC0188819981009759F080
:101AF0002A813B812617370730F081E0DF91CF91B3
:101B00001F910F9108958B016F5F7F4F0E94EA2212
:101B1000009759F0998388831B830A832C813D8128
:101B2000232B59F7FC011082E8CF80E0E7CFEF923A
:101B3000FF920F931F93CF93DF931F921F92CDB706
:101B4000DEB78C0169831A82FC01E480F580FFEF27
:101B5000EF1AFF0AB7010E946F0D882381F0F80188
:101B60002081318184819581BE016F5F7F4F820F1B
:101B7000931F0E94D423F801F582E48281E00F9044
:101B80000F90DF91CF911F910F91FF90EF900895EB
:101B9000CF93DF93EC0188819981009711F00E9427
:101BA0006122198218821D821C821B821A82DF9197
:101BB000CF910895EF92FF920F931F93CF93DF93EE
:101BC000EC017B018A01BA010E946F0D81110BC0EB
:101BD000CE010E94C80DCE01DF91CF911F910F91D0
:101BE000FF90EF9008951D830C83B7018881998140
:101BF0000E94D423F0CFFC01118210821382128242
:101C00001582148250E040E06AEA72E00C94DA0D2A
:101C100050E040E06AEA72E00C94DA0DFC01808149
:101C20009181009711F00C94612208951F920F92F8
:101C30000FB60F9211240BB60F922F933F934F9331
:101C40005F936F937F938F939F93AF93BF93EF9324
:101C5000FF9380912B0690912C06A0912D06B091B8
:101C60002E06892B8A2B8B2BE1F190911A06E0919D
:101C70001B06F0911C0680818927808380912B06AA
:101C800090912C06A0912D06B0912E0618161906DB
:101C90001A061B069CF480912B0690912C06A091AD
:101CA0002D06B0912E060197A109B10980932B064C
:101CB00090932C06A0932D06B0932E06FF91EF91E2
:101CC000BF91AF919F918F917F916F915F914F9154
:101CD0003F912F910F900BBE0F900FBE0F901F9052
:101CE0001895809161020E943105E8CF1F920F92F2
:101CF0000FB60F9211240BB60F922F933F934F9371
:101D00005F936F937F938F939F93AF93BF93EF9363
:101D1000FF9387E396E00E949A02FF91EF91BF91B3
:101D2000AF919F918F917F916F915F914F913F9173
:101D30002F910F900BBE0F900FBE0F901F90189514
:101D40001F920F920FB60F9211240BB60F922F9382
:101D50008F939F93EF93FF93E0914706F09148068E
:101D60008081E0914D06F0914E0682FD1DC090816C
:101D7000809150068F5F8F7320915106821741F03A
:101D8000E0915006F0E0E95CF94F958F80935006A2
:101D9000FF91EF919F918F912F910F900BBE0F901C
:101DA0000FBE0F901F9018958081F2CF1F920F9257
:101DB0000FB60F9211242F933F938F939F93AF935E
:101DC000BF938091130690911406A0911506B091CF
:101DD00016063091000623E0230F2D3758F50196A3
:101DE000A11DB11D20930006809313069093140645
:101DF000A0931506B09316068091010690910206F5
:101E0000A0910306B09104060196A11DB11D809317
:101E1000010690930206A0930306B0930406BF91B7
:101E2000AF919F918F913F912F910F900FBE0F9087
:101E30001F90189526E8230F0296A11DB11DD2CF41
:101E40001F920F920FB60F9211240BB60F922F9381
:101E50003F934F935F936F937F938F939F93AF9332
:101E6000BF93EF93FF9348E251E064E271E090E0AA
:101E700080E00E94D809FF91EF91BF91AF919F91AF
:101E80008F917F916F915F914F913F912F910F9023
:101E90000BBE0F900FBE0F901F9018951F920F92C0
:101EA0000FB60F9211240BB60F922F933F934F93BF
:101EB0005F936F937F938F939F93AF93BF93EF93B2
:101EC000FF9348EA50E064EA70E083E090E00E940B
:101ED000D809FF91EF91BF91AF919F918F917F9121
:101EE0006F915F914F913F912F910F900BBE0F908B
:101EF0000FBE0F901F9018951F920F920FB60F9262
:101F000011240BB60F922F933F934F935F936F93D0
:101F10007F938F939F93AF93BF93EF93FF9348E982
:101F200050E064E970E082E090E00E94D809FF91FF
:101F3000EF91BF91AF919F918F917F916F915F9141
:101F40004F913F912F910F900BBE0F900FBE0F90AE
:101F50001F9018951F920F920FB60F9211240BB677
:101F60000F922F933F934F935F936F937F938F9332
:101F70009F93AF93BF93EF93FF9348E850E064E8DB
:101F800070E081E090E00E94D809FF91EF91BF914D
:101F9000AF919F918F917F916F915F914F913F9101
:101FA0002F910F900BBE0F900FBE0F901F901895A2
:101FB0004F925F926F927F928F929F92AF92BF9259
:101FC000CF92DF92EF92FF920F931F93CF93DF9305
:101FD000CDB7DEB764970FB6F894DEBF0FBECDBFA6
:101FE00085EC92E00E94060D0E943F0B60E081E0CC
:101FF0000E94E80B60E085E697E00E94F70B61ED38
:1020000072E085E697E00E94150D60E085E697E0B6
:102010000E94F70B60ED77E080E090E00E94A60957
:102020000E943F0B1092100610920F0610920E069F
:1020300010920D0681E080930C06EE24EA94FE2CAB
:10204000CC24CA94DC2C80910C06882309F461C14D
:102050000E948507182F882309F4F5C080910D068A
:1020600061E08B5F0E94E80B8FED92E0153521F067
:10207000143429F482EE92E00E94060DE4CF87EE3C
:1020800092E01335C9F3133409F063C08BEE92E08C
:102090000E94060D80910D0690910E0618161906E5
:1020A000B4F580910F0690911006181619067CF56C
:1020B000880F991FFC01E050FE4FF182E08260E240
:1020C00085E697E00E941F0280910D0661E08B5F1C
:1020D0000E94E80B60E285E697E00E941F020091F3
:1020E0000F0610911006B80182EF97E00E945C0D78
:1020F000015011091093100600930F0680910D06F0
:1021000090910E06019790930E0680930D06809194
:102110000F0690911006892B09F095CFD0920102FD
:10212000C092000270E060E082EF97E00E945C0DD8
:1021300060E285E697E00E941F0280910D0661E053
:102140008B5F0E94E80B60E285E697E00E941F0229
:102150007ACF183419F581EF92E00E94060D0E94A3
:102160003F0B60E081E00E94E80B66EF72E085E6DD
:1021700097E00E94150D61E081E00E94E80B67E0A6
:1021800073E085E697E00E94150D68EE73E080E04D
:1021900090E00E94A6090E943F0B55CF153439F4F8
:1021A0008FEB92E00E94060D10920C064CCF65E179
:1021B00073E087E396E00E94150D812F0E94410C89
:1021C00080910F069091100608970CF047C08091FF
:1021D0000D0690910E0608970CF040C0612F85E621
:1021E00097E00E941F0280910D0661E08B5F0E94C4
:1021F000E80B612F85E697E00E941F02612F82EFB6
:1022000097E00E94970D105380910F069091100651
:10221000FC01EE0FFF1FE050FE4F212F012E000C9E
:10222000330B3183208301969093100680930F0621
:1022300080910D0690910E06019690930E06809364
:102240000D06111100CF60E080E00E94E80B61E311
:1022500073E085E697E00E94150DF5CE8DE193E0E1
:102260000E94060D81E0809305060E943F0B80913D
:102270000506882399F160E080E00E94E80B6BEA94
:1022800072E085E697E00E94150D61E083E00E9410
:10229000E80B69EB72E085E697E00E94150D0E945D
:1022A0008507853421F71092100610920F061092C0
:1022B0000E0610920D0680E092E00E94960A0E949F
:1022C0003F0B60E080E00E94E80B61E373E085E68D
:1022D00097E00E94150D10920506C9CF82EF97E096
:1022E0000E94080E81E493E00E94060D80910F0683
:1022F000909110060E949C0C81E593E00E94060DCF
:1023000080910D0690910E060E949C0C109205067D
:102310009ACE1092100610920F0610920E0610928E
:102320000D0681E693E00E94060D0E943F0B81E0BE
:1023300080930C06F0E14F2EF2E05F2E8E010F5FCE
:102340001F4F66246A94762CAA24AA94BA2C8091F2
:102350000C06882309F43FC20E948507F82E8823C3
:1023600009F4D3C180910D0661E08B5F0E94E80BF8
:1023700025E58FED92E0F21629F084E4F81205C00D
:1023800082EE92E00E94060DE2CFA3E587EE92E096
:10239000FA16C1F3B3E4FB1268C08BEE92E00E9420
:1023A000060D80910D0690910E0618161906BCF5C3
:1023B00080910F06909110061816190684F5880F63
:1023C000991FFC01E05FFD4F7182608260E285E64B
:1023D00097E00E941F0280910D0661E08B5F0E94D2
:1023E000E80B60E285E697E00E941F02E0900F068E
:1023F000F0901006B7018CEE97E00E945C0DE1E0D2
:10240000EE1AF108F0921006E0920F0680910D0688
:1024100090910E06019790930E0680930D06809181
:102420000F0690911006892B09F091CFB0921102FE
:10243000A092100270E060E08CEE97E00E945C0DCC
:102440008CEE97E00E94080E60E285E697E00E941D
:102450001F0280910D0661E08B5F0E94E80B60E235
:1024600085E697E00E941F0272CFF8E4FF1223C0B6
:1024700081EF92E00E94060D0E943F0B60E081E038
:102480000E94E80B66EF72E085E697E00E94150D6A
:1024900061E081E00E94E80B67E073E085E697E089
:1024A0000E94150D68EE73E080E090E00E94A6099E
:1024B0000E943F0B4CCF25E4F212D8C08FEB92E084
:1024C0000E94060D82EF97E00E94510D6B018CEE89
:1024D00097E00E94510DC616D70609F086C084E722
:1024E00093E00E94060DCE010F960E94FB0D70E056
:1024F000E72E72E0F72ED7018D919D917D018F3FE0
:10250000980709F440C0CF84D8880E94B1204C01BC
:102510001A8619861C861B861E861D86C114D10448
:1025200039F04B895C89B601CE0109960E94DA0D1B
:102530004AE0B801C4010E94F620F8010190002091
:10254000E9F73197E01BF10B79F0CD84DE84CE0EF4
:10255000DF1EB601CE0109960E946F0D811134C0B5
:10256000CE0109960E94C80D69857A8561157105AD
:10257000B9F14D855E85CE010F960E94DA0DCE0130
:1025800009960E940E0E4E145F0409F0B4CF8F8599
:1025900098890E94B1207C0183E893E00E94060D97
:1025A000CE010F960E942E0C80E993E00E94060D4A
:1025B000C7010E949C0CCE010F960E940E0E0E9435
:1025C000280C10920C06C3CE29853A858D859E85F0
:1025D000B801820F931F0E94D423DE86CD86C4CF1C
:1025E000CE010F960E94C80DCACF0E943F0B81E01A
:1025F0008093050680910506882309F4A8CE60E043
:1026000080E00E94E80B67E973E085E697E00E94AE
:10261000150D61E083E00E94E80B69EB72E085E64E
:1026200097E00E94150D0E948507853419F71092D6
:10263000100610920F0610920E0610920D068CEEE8
:1026400097E00E94080E80E192E00E94960A0E94A4
:102650003F0B60E080E00E94E80B68EA73E085E6EB
:1026600097E00E94150D10920506C4CF65E173E056
:1026700087E396E00E94150D8F2D0E94410C8091FA
:102680000F069091100608970CF04AC080910D0635
:1026900090910E0608970CF043C06F2D85E697E0E9
:1026A0000E941F0280910D0661E08B5F0E94E80B83
:1026B0006F2D85E697E00E941F026F2D8CEE97E04C
:1026C0000E94970D80ED8F0D20910F06309110061E
:1026D000F901EE0FFF1FE05FFD4F482F082E000CA1
:1026E000550B518340832F5F3F4F3093100620934B
:1026F0000F0620910D0630910E062F5F3F4F30934D
:102700000E0620930D06811122CE60E080E00E942B
:10271000E80B68EA73E085E697E00E94150D17CE96
:1027200088EB93E00E94060D81E0809305060E94ED
:102730003F0B80910506882399F160E080E00E94BC
:10274000E80B6BEA72E085E697E00E94150D61E008
:1027500083E00E94E80B69EB72E085E697E00E9457
:10276000150D0E948507853421F7109210061092EE
:102770000F0610920E0610920D0680E192E00E9464
:10278000960A0E943F0B60E080E00E94E80B68EA36
:1027900073E085E697E00E94150D10920506C9CFFB
:1027A0008CEE97E00E94080E81E493E00E94060DF3
:1027B00080910F06909110060E949C0C81E593E099
:1027C0000E94060D80910D0690910E060E949C0CB1
:1027D00010920506BCCD1092100610920F061092B2
:1027E0000E0610920D068FEC93E00E94060D0E94DB
:1027F0003F0B81E080930C06EE24EA94FE2CCC245F
:10280000CA94DC2C80910C06882309F4E7C10E944D
:102810008507182F882309F42EC180910D0661E0E9
:102820008B5F0E94E80B8FED92E0153521F0143498
:1028300029F482EE92E00E94060DE4CF87EE92E04A
:102840001335C9F3133409F057C08BEE92E00E94A0
:10285000060D80910D0690910E061816190684F546
:1028600080910F0690911006181619064CF5880FE6
:10287000991FFC01E05BFD4FF182E08260E285E69A
:1028800097E00E941F0280910D0661E08B5F0E941D
:10289000E80B60E285E697E00E941F0280910F0638
:1028A0009091100601979093100680930F068091E7
:1028B0000D0690910E06019790930E0680930D06DB
:1028C00080910F0690911006892B09F09BCFD09232
:1028D0005102C092500260E285E697E00E941F021A
:1028E00080910D0661E08B5F0E94E80B60E285E657
:1028F00097E00E941F0286CF81EF92E0183409F41E
:102900009ACF153409F004C18FEB92E00E94060DB6
:102910008091500290915102892B09F065C08091FD
:10292000520290915302019709F05EC080915402C7
:1029300090915502892B09F057C0809156029091D1
:102940005702069709F050C08091580290915902A1
:10295000019609F049C080915A0290915B0201965C
:1029600009F042C080915C0290915D020196E1F510
:1029700080915E0290915F020196B1F50E943F0B3B
:1029800060E083E00E94E80B67EE73E085E697E085
:102990000E94150D61E084E00E94E80B65E575E09A
:1029A00085E697E00E94150D61E08EE30E94ED033D
:1029B00068EE73E080E090E00E94A6090E943F0B61
:1029C00060E08EE30E94ED03109208061092070665
:1029D00010920C068091FA059091FB050196909358
:1029E000FB058093FA050ECF8091070690910806AB
:1029F000843091050CF04AC00196909308068093AC
:102A000007060E943F0B60E080E00E94E80B62EF47
:102A100073E085E697E00E94150D609107067091BE
:102A2000080685E697E00E94D00C61E080E00E94F5
:102A3000E80B6CEF73E085E697E00E94150D61E00E
:102A40008FE30E94ED036CED75E080E090E00E9462
:102A5000A60960E08FE30E94ED0310921006109229
:102A60000F0610920E0610920D0680E592E00E946D
:102A7000960A0E943F0B60E080E00E94E80B69ED3F
:102A800073E085E697E00E94150DBCCE0E943F0BD7
:102A900081E08093050661E08FE30E94ED03809161
:102AA0000506882309F4AECE60E080E00E94E80BC2
:102AB0006DE074E085E697E00E94150D61E080E02E
:102AC0000E94E80B6FE174E085E697E00E94150D27
:102AD0000E948507853419F71092100610920F0690
:102AE00010920E0610920D0680E592E00E94960A62
:102AF0000E943F0B60E080E00E94E80B69ED73E00C
:102B000085E697E00E94150D1092050660E0C4CF9F
:102B100065E173E087E396E00E94150D812F0E9426
:102B2000410C80910F06909110060897BCF580919A
:102B30000D0690910E0608978CF5612F85E697E0BB
:102B40000E941F0280910D0661E08B5F0E94E80BDE
:102B5000612F85E697E00E941F02105380910F06B7
:102B600090911006FC01EE0FFF1FE05BFD4F212F3F
:102B7000012E000C330B31832083019690931006B5
:102B800080930F0680910D0690910E06019690930A
:102B90000E0680930D06111135CE6DCF88EB93E0B4
:102BA0000E94060D81E0809305060E94170D81E4C6
:102BB00093E00E94060D80910F06909110060E94EE
:102BC0009C0C81E593E00E94060D80910D0690918A
:102BD0000E060E949C0C1092050614CE80E394E031
:102BE0000E94060D82EF97E00E94510D4B0100916B
:102BF000090610910A06E090FA05F090FB0588E0BE
:102C000090E00E94C521FC01F182E08293828282E1
:102C10001782168215821482D8012D913C9111974A
:102C200014968D919C911597232B09F06BC01396E8
:102C3000FC93EE9312971196FC93EE9301961596E2
:102C40009C938E9314970E943F0B60E082E00E9459
:102C5000E80B61E474E085E697E00E94150D609151
:102C6000FA057091FB0585E697E00E94D00C61E0C3
:102C700080E00E94E80B65E474E085E697E00E943E
:102C8000150DB40185E697E00E94D00C61E080E468
:102C90000E94ED036CED75E080E090E00E94A609D3
:102CA00060E080E40E94ED038CE494E00E94060D55
:102CB0000E94280C80E694E00E94060D8091FA059F
:102CC0009091FB050E949C0C8CE694E00E94060DFE
:102CD000C4010E949C0C64960FB6F894DEBF0FBE30
:102CE000CDBFDF91CF911F910F91FF90EF90DF90BB
:102CF000CF90BF90AF909F908F907F906F905F909C
:102D00004F90089512962D913C91D9011596FC9300
:102D1000EE93149737832683D8011396FC93EE9392
:102D200012978CCF10923A061092390688EE93E0F3
:102D3000A0E0B0E080933B0690933C06A0933D0654
:102D4000B0933E0684E892E090933806809337066D
:102D500085EC90E0909344068093430684EC90E0E9
:102D6000909346068093450680EC90E09093480649
:102D70008093470681EC90E090934A068093490641
:102D800082EC90E090934C0680934B0686EC90E0AA
:102D900090934E0680934D06109250061092510665
:102DA00010925206109253061092180810921708AB
:102DB00010920E0810920D08109223081092240809
:102DC00010922508109226088CE090E09093140849
:102DD000809313088CE190E090931A08809319086F
:102DE0008DE190E090931C0880931B088EE190E0A9
:102DF00090931E0880931D088FE190E09093200827
:102E000080931F0861E08CE10E94760561E080916B
:102E10001B080E94760561E080911D080E947605DE
:102E200061E080911F080E9476051092220810929E
:102E3000210884E090E09093160880931508809113
:102E40006407803308F09CC091E0980F909364076A
:102E500080930A0890E0FC01EE0FFF1FE80FF91FB6
:102E6000EC52F94F88EB9BE09283818384E098E0F9
:102E70000E94FB0D8EEF97E00E94FB0D88EF97E01C
:102E80000E94FB0D82EF97E00E94FB0D8CEE97E015
:102E90000E94FB0D10927F07109283071092820709
:102EA0001092840782EA92E090937E0780937D07D8
:102EB000E9E9F7E01082148213821582369687E0E2
:102EC000E53DF807B9F786E692E09093E007809336
:102ED000DF0782E692E09093E2078093E10784E0C7
:102EE0008093E3078093E4078AE692E09093DE07FD
:102EF0008093DD078AE090E09093E6078093E507F2
:102F000084EF91E09093E8078093E7071092EB0736
:102F10001092EA071092D9071092DA071092DB0795
:102F20001092DC071092E907109268071092670769
:102F300086E992E090936607809365078BE1809322
:102F400069078FEF80936A078AE180936B0789E1B5
:102F500080936C0788E180936D0787E180936E070B
:102F600086E180936F07109270071092710710929C
:102F70007207109273071092740781E00C94470B4C
:102F80008FEF80930A0872CF789484B5826084BDF5
:102F900084B5816084BD85B5826085BD85B581605D
:102FA00085BD80916E00816080936E0010928100DB
:102FB0008091810082608093810080918100816096
:102FC0008093810080918000816080938000809157
:102FD000B10084608093B1008091B00081608093E3
:102FE000B000809191008260809391008091910067
:102FF0008160809391008091900081608093900027
:103000008091A10082608093A1008091A1008160E5
:103010008093A1008091A00081608093A0008091A6
:103020002101826080932101809121018160809340
:1030300021018091200181608093200180917A009C
:10304000846080937A0080917A00826080937A0015
:1030500080917A00816080937A0080917A00806804
:1030600080937A001092C100E0914706F0914806E3
:1030700082E08083E0914306F09144061082E09163
:103080004506F09146068FEC808310924F06E09142
:103090004B06F0914C0686E08083E0914906F09162
:1030A0004A06808180618083E0914906F0914A065A
:1030B000808188608083E0914906F0914A06808192
:1030C00080688083E0914906F0914A0680818F7D77
:1030D000808368E372E080E00E94FD0B60E372E0B1
:1030E00081E00E94FD0B68E272E082E00E94FD0B2D
:1030F00060E272E083E00E94FD0B88E090E00E94B5
:10310000C521FC0113821282118210821582148261
:1031100081E090E097838683F0930A06E0930906A6
:1031200082E00E94470B61E088E30E94760561E03F
:1031300089E30E94760561E08AE30E94760561E0FA
:103140008BE30E94760561E08EE30E94760561E0E4
:103150008FE30E94760561E080E40E94760561E0DD
:103160008DE20E94760560E08AE00E94760560E0CC
:1031700089E00E94760580910A08803308F054C0E7
:1031800061E08DE00E94760580910A08282F30E0EA
:10319000F901EE0FFF1FE20FF31FEC52F94F908180
:1031A000907C9D60908395E790930B0894E69093B4
:1031B0000C082CE0622F0E948921829FB00111240B
:1031C00030E020E0AB01420F531FFA01EE0FFF1F6A
:1031D000E40FF51FEC52F94F908196FD17C02F5F59
:1031E0003F4F2C30310571F7813009F0D1C010927A
:1031F000800082E08093810010928500109284000C
:10320000B19A80916F00826080936F00E0910A080C
:103210008E2F90E0FC01EE0FFF1FE80FF91FEC521C
:10322000F94F808180648083E0910A0820910B0827
:1032300088E890E0821B910927FD9395880F991FDC
:10324000880F991FE03388F40297880F991F4FB7B2
:10325000F8942E2F30E0F901EE0FFF1FE20FF31F5D
:10326000EC52F94F928381834FBF20911308309124
:103270001408032E000C440B550B60E077E883E93B
:1032800093E00E944821CA01B90122EC31E040E0FC
:1032900050E00E94482120930F083093100840937B
:1032A00011085093120881E090E0909312068093E9
:1032B000110666246394712CCFEFDFEF0FEF1FEF41
:1032C00080911106909112068130910509F419C67A
:1032D0008230910509F43AC6892B09F034C60E9460
:1032E0003F0B60E081E00E94E80B60E085E697E03C
:1032F0000E94F70B63E774E085E697E00E94150DE6
:1033000060E085E697E00E94F70B60ED77E080E0F3
:1033100090E00E94A60980916002882309F413C6F8
:103320000E943F0B80E894E00E94060D1092100668
:1033300010920F0610920E0610920D0684E098E08F
:103340000E94080E8EEF97E00E94080E80910C06F6
:10335000882309F4D5C180910B068111D1C10E9447
:103360008507F82E882309F465C180910D0661E078
:103370008B5F0E94E80B25E58FED92E0F21629F0B5
:1033800084E4F81231C082EE92E00E94060DDECF96
:10339000823061F410929000809391001092950019
:1033A0001092940088BB8093710030CF833069F411
:1033B0001092A00082E08093A1001092A5001092CC
:1033C000A40089BB8093720021CF81111FCF10927E
:1033D000200182E0809321011092250110922401A6
:1033E0008ABB8093730012CF93E5F91203C087EE76
:1033F00092E0CBCF23E4F21268C08BEE92E00E9401
:10340000060D80910D0690910E0618161906BCF552
:1034100080910F06909110061816190684F5880FF2
:10342000991FFC01E05CFD4FD183C08360E285E61B
:1034300097E00E941F0280910D0661E08B5F0E9461
:10344000E80B60E285E697E00E941F02E0900F061D
:10345000F0901006B70184E098E00E945C0D81E0D6
:10346000E81AF108F0921006E0920F0680910D061E
:1034700090910E06019790930E0680930D06809111
:103480000F0690911006892B09F060CF109341022E
:103490000093400270E060E084E098E00E945C0DE0
:1034A00084E098E00E94080E60E285E697E00E94C2
:1034B0001F0280910D0661E08B5F0E94E80B60E2C5
:1034C00085E697E00E941F0241CF98E4F91223C0DD
:1034D00081EF92E00E94060D0E943F0B60E081E0C8
:1034E0000E94E80B61E974E085E697E00E94150D03
:1034F00061E081E00E94E80B6FE974E085E697E007
:103500000E94150D68EE73E080E090E00E94A6092D
:103510000E943F0B1BCF25E4F2123DC08FEB92E0DF
:103520000E94060D8091400290914102892B81F505
:103530008091420290914302892B51F5809144027F
:1035400090914502892B21F5809146029091470286
:10355000892BF1F480914802909149020196C1F4BF
:1035600080914A0290914B02019691F480914C0215
:1035700090914D02019661F480914E0290914F021C
:10358000019631F481E080930B060E94D80FDECEC5
:1035900010920C06DBCE65E173E087E396E00E94B3
:1035A000150D8F2D0E94410C80910F0690911006F1
:1035B00008970CF04AC080910D0690910E0608976E
:1035C0000CF043C06F2D85E697E00E941F028091AA
:1035D0000D0661E08B5F0E94E80B6F2D85E697E09A
:1035E0000E941F026F2D84E098E00E94970D80EDED
:1035F0008F0D20910F0630911006F901EE0FFF1F7D
:10360000E05CFD4F482F082E000C550B5183408382
:103610002F5F3F4F3093100620930F0620910D0629
:1036200030910E062F5F3F4F30930E0620930D060C
:1036300081118CCE60E080E00E94E80B6BEB74E0BF
:1036400085E697E00E94150D81CE8DE193E00E9402
:10365000060D81E0809305060E943F0B80910506D0
:10366000882399F160E080E00E94E80B6FEA74E043
:1036700085E697E00E94150D61E083E00E94E80B6B
:1036800069EB72E085E697E00E94150D0E948507C0
:10369000853421F71092100610920F0610920E0634
:1036A00010920D0680E492E00E94960A0E943F0B61
:1036B00060E080E00E94E80B6BEB74E085E697E049
:1036C0000E94150D10920506C9CF84E098E00E9473
:1036D000080E81E493E00E94060D80910F06909100
:1036E00010060E949C0C81E593E00E94060D8091DB
:1036F0000D0690910E060E949C0C1092050626CE97
:1037000086EC94E00E94060D84E098E00E942E0C66
:103710000E94280C0E943F0B89ED94E00E94060D48
:103720001092100610920F0610920E0610920D06BF
:1037300081E080930C0680910B0690910C069923F2
:1037400009F4A7C181111EC20E948507F82E8823A3
:1037500009F439C180910D0661E08B5F0E94E80B8E
:1037600085E5F81205C08FED92E00E94060DE3CFCB
:1037700094E4F91203C082EE92E0F7CF23E587EEDE
:1037800092E0F21691F383E4F81268C08BEE92E0B7
:103790000E94060D80910D0690910E0618161906CE
:1037A000BCF580910F06909110061816190684F545
:1037B000880F991FFC01E05BFD4FD183C08360E25D
:1037C00085E697E00E941F0280910D0661E08B5F05
:1037D0000E94E80B60E285E697E00E941F02E090FD
:1037E0000F06F0901006B7018EEF97E00E945C0D77
:1037F00091E0E91AF108F0921006E0920F0680912C
:103800000D0690910E06019790930E0680930D067B
:1038100080910F0690911006892B09F08CCF1093A0
:1038200051020093500270E060E08EEF97E00E943A
:103830005C0D8EEF97E00E94080E60E285E697E04F
:103840000E941F0280910D0661E08B5F0E94E80BD1
:1038500060E285E697E00E941F026DCF28E4F21235
:1038600023C081EF92E00E94060D0E943F0B60E0B2
:1038700081E00E94E80B61E974E085E697E00E9430
:10388000150D61E081E00E94E80B6FE974E085E6C8
:1038900097E00E94150D68EE73E080E090E00E94D2
:1038A000A6090E943F0B47CF85E4F8123DC08FEB7D
:1038B00092E00E94060D8091500290915102892B56
:1038C00081F58091520290915302892B51F580919C
:1038D000540290915502892B21F5809156029091C6
:1038E0005702892BF1F48091580290915902019668
:1038F000C1F480915A0290915B02019691F48091FB
:103900005C0290915D02019661F480915E0290915B
:103910005F02019631F481E080930B060E94D80F7C
:103920000ACF10920C0607CF65E173E087E396E0BB
:103930000E94150D8F2D0E94410C80910F069091D1
:10394000100608970CF04AC080910D0690910E0663
:1039500008970CF043C06F2D85E697E00E941F0288
:1039600080910D0661E08B5F0E94E80B6F2D85E66C
:1039700097E00E941F026F2D8EEF97E00E94970D37
:1039800080ED8F0D20910F0630911006F901EE0F9A
:10399000FF1FE05BFD4F482F082E000C550B518395
:1039A00040832F5F3F4F3093100620930F062091E6
:1039B0000D0630910E062F5F3F4F30930E06209379
:1039C0000D068111B8CE60E080E00E94E80B61E353
:1039D00073E085E697E00E94150DADCE8DE193E092
:1039E0000E94060D81E0809305060E943F0B8091A6
:1039F0000506882399F160E080E00E94E80B6BEAFD
:103A000072E085E697E00E94150D61E083E00E9478
:103A1000E80B69EB72E085E697E00E94150D0E94C5
:103A20008507853421F71092100610920F06109228
:103A30000E0610920D0680E592E00E94960A0E9402
:103A40003F0B60E080E00E94E80B61E373E085E6F5
:103A500097E00E94150D10920506C9CF8EEF97E0F2
:103A60000E94080E81E493E00E94060D80910F06EB
:103A7000909110060E949C0C81E593E00E94060D37
:103A800080910D0690910E060E949C0C10920506E6
:103A900052CE811177C088EE94E00E94060D8EEF21
:103AA00097E00E942E0C0E94280C84E098E00E946F
:103AB000510D4B011B018EEF97E00E94510D6B01E0
:103AC0002B0189EF94E00E94060DC4010E949C0C1A
:103AD00084E095E00E94060DC6010E949C0CE091D6
:103AE0000906F0910A060190F081E02D309779F0F7
:103AF000808191812816390631F48281938148169C
:103B0000590609F4D7C20480F581E02DEFCF82E198
:103B100095E00E94060D8091070690910806019697
:103B20009093080680930706049794F50E943F0B34
:103B300060E080E00E94E80B64E275E085E697E0D3
:103B40000E94150D609107067091080685E697E0C2
:103B50000E94D00C61E080E00E94E80B61E375E018
:103B600085E697E00E94150D61E08FE30E94ED036A
:103B70006CED75E080E090E00E94A60960E08FE3C4
:103B80000E94ED0310920B0681E080930C06C3CBDC
:103B900081E08093060661E08DE20E94ED0361E022
:103BA0008FE30E94ED0360ED77E080E090E00E94FB
:103BB000A60960E08DE20E94ED03109210061092BB
:103BC0000F0610920E0610920D060E943F0B809178
:103BD0000606882309F490C10E948507F82E8823E1
:103BE00009F45FC180910D0661E08B5F0E94E80BD4
:103BF00085E5F81205C08FED92E00E94060DE7CF33
:103C000094E4F91203C082EE92E0F7CF23E587EE49
:103C100092E0F21691F383E4F81257C08BEE92E033
:103C20000E94060D80910D0690910E061816190639
:103C300084F580910F0690911006181619064CF520
:103C4000880F991FFC01E05BFD4FD183C08360E2C8
:103C500085E697E00E941F0280910D0661E08B5F70
:103C60000E94E80B60E285E697E00E941F028091C7
:103C70000F069091100601979093100680930F06FF
:103C800080910D0690910E06019790930E068093F9
:103C90000D0680910F0690911006892B09F097CFA1
:103CA000109351020093500260E285E697E00E9473
:103CB0001F0280910D0661E08B5F0E94E80B60E2BD
:103CC00085E697E00E941F0282CF98E4F91203C0B4
:103CD00081EF92E092CF25E4F21299C08FEB92E04F
:103CE0000E94060D8091500290915102892B09F09B
:103CF0005BC08091520290915302019709F054C029
:103D00008091540290915502892B09F04DC0809109
:103D1000560290915702069709F046C080915802CA
:103D200090915902019609F03FC080915A029091FA
:103D30005B020196C9F580915C0290915D0201964B
:103D400099F580915E0290915F02019669F50E945B
:103D50003F0B60E083E00E94E80B67EE73E085E6CE
:103D600097E00E94150D61E084E00E94E80B65E594
:103D700075E085E697E00E94150D61E08EE30E94F4
:103D8000ED0364EC79E080E090E00E94A6090E94D7
:103D90003F0B60E08EE30E94ED0310920806109244
:103DA00007061092060613CF0E943F0B60E082E0E8
:103DB0000E94E80B62E475E085E697E00E94150D2D
:103DC00061E080E00E94E80B6FE475E085E697E033
:103DD0000E94150D61E08DE20E94ED036CED75E02F
:103DE00080E090E00E94A60960E08DE20E94ED0371
:103DF0000E943F0B1092100610920F0610920E06B2
:103E000010920D0680E592E00E94960AE0CE65E1F0
:103E100073E087E396E00E94150D8F2D0E94410C00
:103E200080910F069091100608970CF045C0809184
:103E30000D0690910E0608970CF03EC06F2D85E69A
:103E400097E00E941F0280910D0661E08B5F0E9447
:103E5000E80B6F2D85E697E00E941F0280ED8F0D25
:103E600020910F0630911006F901EE0FFF1FE05B65
:103E7000FD4F482F082E000C550B518340832F5FB8
:103E80003F4F3093100620930F0620910D0630917E
:103E90000E062F5F3F4F30930E0620930D068111C3
:103EA00096CE60E081E00E94E80B69ED73E085E664
:103EB00097E00E94150D8BCE88EB93E00E94060DD3
:103EC00081E0809305060E94170D81E493E00E9433
:103ED000060D80910F06909110060E949C0C81E5C2
:103EE00093E00E94060D80910D0690910E060E94AF
:103EF0009C0C109205066BCE1092080610920706D5
:103F00003DCE0E943F0B60E081E00E94E80B6DE532
:103F100075E085E697E00E94150D62E081E00E9461
:103F2000E80B4091080850910908609104087091CD
:103F3000050885E697E00E94260282E090E09093D3
:103F40001206809311060E942903BAC987E396E0FE
:103F50000E94840218161906B4F787E396E00E94BF
:103F600062028134910509F05DC08AE00E94C103BC
:103F70000197B9F588EE93E00E94B20568EE73E010
:103F800080E090E00E94A6098DE20E9431050E9427
:103F90003F0B6BE675E085E697E00E94150D62E049
:103FA00080E00E94E80B6AE775E085E697E00E94F2
:103FB000150D8AE00E94C103019729F480E09FEF6C
:103FC0000E940109F6CF8CED95E00E94B20564EFE6
:103FD00071E080E090E00E94A6098DE20E94310528
:103FE0001CC00E943F0B60E081E00E94E80B64E887
:103FF00075E085E697E00E94150D62E080E00E9482
:10400000E80B62E975E085E697E00E94150D60ED2A
:1040100077E080E090E00E94A6097092120660921C
:10402000110691CF8234910509F08DCF89E00E946D
:10403000C103019761F588EB9BE00E94B20564EF34
:1040400071E080E090E00E94A6098DE20E943105B7
:104050000E943F0B6BE675E085E697E00E94150D28
:1040600062E080E00E94E80B62EA75E085E697E096
:104070000E94150D89E00E94C103019729F480E098
:1040800091E00E940109F6CF84EC99E09ECF0E9456
:104090003F0B60E080E00E94E80B6BEA75E085E68C
:1040A00097E00E94150D62E080E00E94E80B6AEB49
:1040B00075E0A9CF0E943F0B60E080E00E94E80B12
:1040C0006AEC75E085E697E00E94150D61E080E0FE
:1040D0000E94E80B6AED75E085E697E00E94150DF9
:1040E00061E08DE20E94ED0361E08EE30E94ED034A
:1040F00061E088E30E94ED0361E089E30E94ED0343
:1041000061E08AE30E94ED0361E08BE30E94ED032E
:1041100060ED77E080E090E00E94A60960E08DE22B
:104120000E94ED038AEE95E00E94060D7092120641
:10413000609211061092600225CD8CEE97E00E94ED
:104140000E0E82EF97E00E940E0E88EF97E00E941D
:104150000E0E8EEF97E00E940E0E84E098E00C9415
:104160000E0EFC0188279927E89421912032E9F36B
:10417000293010F02E30C8F32B3241F02D3239F4B3
:10418000689404C00E941621820F911D2191205332
:104190002A30C0F31EF4909581959F4F08951F9388
:1041A000FC0199278827BC01E89411911032E9F3AA
:1041B000193010F01E30C8F31B3251F01D3249F493
:1041C000689406C00E940121610F711D811D911D1F
:1041D000119110531A30B0F33EF49095809570957C
:1041E00061957F4F8F4F9F4F1F910895BB274A3096
:1041F00031F4992322F4BDE2909581959F4F0C9460
:104200001F21592F482F372F262F660F771F881F02
:10421000991F660F771F881F991F620F731F841FD6
:10422000951F660F771F881F991F08957AE0979F43
:10423000902D879F802D910D11240895BB27FB01A0
:104240005527AA27880F991FAA1FA41710F0A41B8F
:1042500083955051B9F7A05DAA3308F0A95DA193E9
:10426000009779F7B111B1931192CB010C943821D9
:10427000DC01FC01672F71917723E1F7329704C0CD
:104280007C916D9370836291AE17BF07C8F3089558
:10429000052E97FB1EF400940E945F2157FD07D066
:1042A0000E94672107FC03D04EF40C945F215095C7
:1042B0004095309521953F4F4F4F5F4F0895909512
:1042C0008095709561957F4F8F4F9F4F0895A1E224
:1042D0001A2EAA1BBB1BFD010DC0AA1FBB1FEE1F80
:1042E000FF1FA217B307E407F50720F0A21BB30BCB
:1042F000E40BF50B661F771F881F991F1A9469F747
:1043000060957095809590959B01AC01BD01CF01A2
:104310000895991B79E004C0991F961708F0961B21
:10432000881F7A95C9F78095089597FB072E16F494
:10433000009407D077FD09D00E94B12107FC05D079
:104340003EF4909581959F4F0895709561957F4FAC
:104350000895EE0FFF1F881F8BBF0790F691E02D89
:104360001994AA1BBB1B51E107C0AA1FBB1FA617AC
:10437000B70710F0A61BB70B881F991F5A95A9F70E
:1043800080959095BC01CD0108950F931F93CF9315
:10439000DF938230910510F482E090E0E0912908EB
:1043A000F0912A0830E020E0B0E0A0E0309799F4E6
:1043B0002115310509F44AC0281B390B2430310579
:1043C000D8F58A819B816115710589F1FB01938381
:1043D0008283FE0111C040815181028113814817FF
:1043E0005907E0F04817590799F4109761F01296B1
:1043F0000C93129713961C933296CF01DF91CF91B5
:104400001F910F9108950093290810932A08F4CF63
:104410002115310551F04217530738F0A901DB018E
:104420009A01BD01DF01F801C1CFEF01F9CF9093EF
:104430002A0880932908CDCFFE01E20FF31F819354
:1044400091932250310939832883D7CF20912708AF
:1044500030912808232B41F420917C0230917D0279
:10446000309328082093270820917A0230917B020C
:104470002115310541F42DB73EB740917E02509190
:104480007F02241B350BE0912708F0912808E217E2
:10449000F307A0F42E1B3F0B2817390778F0AC0167
:1044A0004E5F5F4F2417350748F04E0F5F1F509344
:1044B000280840932708819391939FCFF0E0E0E094
:1044C0009CCFCF93DF930097E9F0FC0132971382E2
:1044D0001282A0912908B0912A08ED0130E020E075
:1044E0001097A1F420813181820F931F209127081A
:1044F000309128082817390709F061C0F09328087F
:10450000E0932708DF91CF910895EA01CE17DF07E6
:10451000E8F54A815B819E0141155105B1F7E9013A
:10452000FB83EA8349915991C40FD51FEC17FD070E
:1045300061F4808191810296840F951FE90199832E
:104540008883828193819B838A83F0E0E0E01296E6
:104550008D919C9113970097B9F52D913C911197EE
:10456000CD010296820F931F2091270830912808D1
:104570002817390739F6309751F510922A0810920A
:104580002908B0932808A0932708BCCFD383C283FF
:1045900040815181840F951FC817D90761F44E5F80
:1045A0005F4F88819981480F591F518340838A81C9
:1045B0009B81938382832115310509F0B0CFF0935D
:1045C0002A08E09329089ECFFD01DC01C0CF1382A9
:1045D0001282D7CF4F925F926F927F928F929F926B
:1045E000AF92BF92CF92DF92EF92FF920F931F9301
:1045F000CF93DF938C01009799F4CB01DF91CF919A
:104600001F910F91FF90EF90DF90CF90BF90AF90F0
:104610009F908F907F906F905F904F900C94C521EA
:10462000FC01E60FF71F9C0122503109E217F30746
:1046300008F4AEC0D901CD91DC911197C617D70708
:1046400020F1C530D10578F0CE0104978617970781
:1046500050F0C61BD70B2297C193D1936D937C93D7
:10466000CF010E946122C801DF91CF911F910F916C
:10467000FF90EF90DF90CF90BF90AF909F908F9082
:104680007F906F905F904F9008955B01AC1ABD0AC8
:104690004C018C0E9D1EA0912908B0912A08512C26
:1046A000412CF12CE12C109731F580912708909145
:1046B00028088815990509F05CC04616570608F0C9
:1046C00058C080917A0290917B02009741F48DB797
:1046D0009EB740917E0250917F02841B950BE81794
:1046E000F90708F055C0F0932808E0932708F9016E
:1046F00071836083B8CF8D919C91119712966C90C5
:10470000129713967C901397A815B90559F56C016B
:1047100042E0C40ED11CCA14DB0420F1AC014A19DA
:104720005B09DA011296159780F0628273825183D9
:104730004083D9016D937C93E114F10471F0D701AA
:104740001396FC93EE9312978ECF22968C0F9D1F9B
:10475000F90191838083F301EFCFF0932A08E0936E
:10476000290881CF4816590608F42C017D01D30190
:104770009ACFCB010E94C5217C01009749F0AE0180
:10478000B8010E94CB23C8010E94612287016BCF30
:1047900010E000E068CFFB01DC0102C001900D9247
:1047A00041505040D8F70895FB01DC0101900D9273
:1047B0000020E1F7089511E0C8E5D1E000E006C06F
:1047C000802FFE010E94A9212196011DC935D10724
:1047D00080E00807A9F7F894FFCFFFFFFFFFFFFF76
:1047E000FFFFFFFFFFFFFFFFFFFFFFFFFFFFFFFFD9
:1047F000FFFFFFFFFFFFFFFFFFFF000A0A0A001194
:104800000E00000103161C0800000E01011F1B1BF7
:104810001F000E11111F1B1B1F00FFFFFFFFFFFFDB
:10482000FFFFFFFFFFFFFFFFFFFFFFFFFFFFFFFF98
:10483000FFFFFFFFFFFFFFFFFFFF01FF31302F2EC4
:1048400035343332313233553435364437383953D1
:104850004330484500002B08800000000000BC02E7
:10486000260253020903840262027602000000005D
:10487000F70B2602930A920A0000000081072D051B
:10488000EA030D0A005041535320544F4F204C4F20
:104890004E4700505245535320454E544552005206
:1048A000454749535452414E444F002052454749D1
:1048B000535452414E444F2000555000444F574EE0
:1048C00000324E4400434C4541520048454C500094
:1048D000434C415645204D454E4F522044452038CB
:1048E00000454E54455220414345505441520054D6
:1048F00065636C613A20004552524F522049442072
:104900004D5559204752414E44450044494749546A
:104910004520535520434C41564500696E646963F8
:10492000652061637475616C3A2000637572736F02
:10493000722061637475616C3A20005245494E5390
:10494000455254414E444F20434C4156450050413E
:10495000535320434F494E434944454E00646174CC
:104960006F7320766563746F72006E756D65726F1C
:104970000050415353204E4F20434F494E4349442A
:1049800045005245494E475245534520434C4156F8
:1049900045004552524F5220434C415645204D55FB
:1049A00059204752414E4445004553504552414ECF
:1049B000444F20434C41564520474552454E5445AF
:1049C000004249454E56454E49444F004552524FCC
:1049D000522020202000434C41564520494E434F51
:1049E00052524543544F0053495354454D41204280
:1049F0004C4F51554541444F004156495345204184
:104A00004C20474552454E544500435245414E4483
:104A10004F20454D504C4541444F00494420002013
:104A200050415353200043524541444F204558497B
:104A3000544F53414D454E5445004944205553551C
:104A40004152494F2000434C4156452000204249E5
:104A5000454E56454E49444F200050696469656E85
:104A6000646F205573756172696F005052455349E8
:104A70004F4E45203030303000454E544552205284
:104A8000454749535452415200494420544F4F2006
:104A90004C4F4E4700494E4752455345204944002C
:104AA0004553544520455320454C205553554152BC
:104AB000494F0050696469656E646F20636C61766C
:104AC000650045535441204553204C4120434C41FF
:104AD0005645004944205553554152494F00434CD7
:104AE000415645205553554152494F004441544F7A
:104AF0005320494E434F52524543544F53002020B8
:104B00004552524F52202020202000434C41564510
:104B100020494E434F5252454354410042414420A4
:104B200050415353574F5244004156495345204733
:104B30004552454E544500204249454E56454E4942
:104B4000444F3A20004D6F7669656E646F2068614E
:104B500063696100697A71756965726461004552C3
:104B6000524F523A206E6F20686179006D756573FF
:104B700074726120656E204C41423100646572653B
:104B800063686173004552524F523A206E6F20683D
:104B9000617920006D75657374726120656E204CBB
:104BA000414232002020204F4B2041434345534F88
:104BB000202020002020205045524D495449444F88
:104BC00020202000434C41564520434F525245433C
:044BD000544100004C
:10E000000D9489F10D94B2F10D94B2F10D94B2F129
:10E010000D94B2F10D94B2F10D94B2F10D94B2F1F0
:10E020000D94B2F10D94B2F10D94B2F10D94B2F1E0
:10E030000D94B2F10D94B2F10D94B2F10D94B2F1D0
:10E040000D94B2F10D94B2F10D94B2F10D94B2F1C0
:10E050000D94B2F10D94B2F10D94B2F10D94B2F1B0
:10E060000D94B2F10D94B2F10D94B2F10D94B2F1A0
:10E070000D94B2F10D94B2F10D94B2F10D94B2F190
:10E080000D94B2F10D94B2F10D94B2F10D94B2F180
:10E090000D94B2F10D94B2F10D94B2F10D94B2F170
:10E0A0000D94B2F10D94B2F10D94B2F10D94B2F160
:10E0B0000D94B2F10D94B2F10D94B2F10D94B2F150
:10E0C0000D94B2F10D94B2F10D94B2F10D94B2F140
:10E0D0000D94B2F10D94B2F10D94B2F10D94B2F130
:10E0E0000D94B2F141546D656761323536300041AF
:10E0F000726475696E6F206578706C6F72657220DE
:10E1000073746B3530305632206279204D4C530099
:10E11000426F6F746C6F616465723E004875683F52
:10E1200000436F6D70696C6564206F6E203D200048
:10E130004350552054797065202020203D20005FF9
:10E140005F4156525F415243485F5F3D2000415658
:10E1500052204C696243205665723D20004743437C
:10E160002056657273696F6E203D20004350552024
:10E1700049442020202020203D20004C6F7720663D
:10E18000757365202020203D20004869676820665F
:10E190007573652020203D200045787420667573D6
:10E1A00065202020203D20004C6F636B2066757336
:10E1B000652020203D20004D617220203720323024
:10E1C000313300312E362E3800342E332E350056A2
:10E1D00023202020414444522020206F7020636F70
:10E1E00064652020202020696E73747275637469E1
:10E1F0006F6E2061646472202020496E74657272B3
:10E20000757074006E6F20766563746F7200726A49
:10E210006D702020006A6D70200057686174207056
:10E220006F72743A00506F7274206E6F7420737541
:10E2300070706F72746564004D7573742062652030
:10E2400061206C6574746572002000577269747483
:10E25000696E672045450052656164696E672045B7
:10E26000450045452065727220636E743D00504F35
:10E27000525400303D5A65726F2061646472003FF1
:10E280003D43505520737461747300403D454550C3
:10E29000524F4D207465737400423D426C696E6B41
:10E2A000204C454400453D44756D70204545505215
:10E2B0004F4D00463D44756D7020464C415348001B
:10E2C000483D48656C70004C3D4C69737420492F83
:10E2D0004F20506F72747300513D51756974005234
:10E2E0003D44756D702052414D00563D73686F7707
:10E2F00020696E7465727275707420566563746FF0
:10E30000727300593D506F727420626C696E6B00BD
:10E310002A0011241FBECFEFD1E2DEBFCDBF01E046
:10E320000CBF12E0A0E0B2E0EEE1FDEF03E00BBFB6
:10E3300002C007900D92A030B107D9F712E0A0E01B
:10E34000B2E001C01D92AE30B107E1F70F9460F367
:10E350000D948DFE01E20EBF0FEF0DBF11241FBE05
:10E360000D9460F30D9400F020E030E040ED57E0B4
:10E3700005C0FA013197F1F72F5F3F4F2817390792
:10E38000C0F308959C01260F311DC901A0E0B0E043
:10E390002F5F3F4FABBFFC018791882361F08093D3
:10E3A000C6008091C00086FFFCCF8091C0008064D1
:10E3B0008093C000EACF08958DE08093C6008091DD
:10E3C000C00086FFFCCF8091C00080648093C000B5
:10E3D0008AE08093C6008091C00086FFFCCF8091C8
:10E3E000C00080648093C00008950F94C2F10F9420
:10E3F000DCF10895FC019081992359F09093C600B7
:10E400008091C00086FFFCCF8091C0008064809323
:10E41000C0003196992379F70895282F982F929567
:10E420009F70892F805D8A3308F0895F8093C600D2
:10E430008091C00086FFFCCF8091C00080648093F3
:10E44000C000822F8F70982F905D9A3308F0995FEB
:10E450009093C6008091C00086FFFCCF8091C000E1
:10E4600080648093C00008959C01FB01853691056E
:10E470001CF46330710594F0C90164E670E00F94F8
:10E480002EFE605D7F4F6093C6008091C00086FFC6
:10E49000FCCF8091C00080648093C0002B30310598
:10E4A00014F43297B4F0C90164E670E00F942EFEC4
:10E4B0006AE070E00F942EFE605D7F4F6093C600AF
:10E4C0008091C00086FFFCCF8091C0008064809363
:10E4D000C000C9016AE070E00F942EFEC0968093E0
:10E4E000C6008091C00086FFFCCF8091C000806490
:10E4F0008093C00008951F93182F8EE692EE60E07F
:10E500000F94C2F11093C6008091C00086FFFCCF2B
:10E510008091C00080648093C0000F94DCF11F9153
:10E5200008952F923F924F925F926F927F928F92B7
:10E530009F92AF92BF92CF92DF92EF92FF920F9392
:10E540001F93DF93CF93CDB7DEB762970FB6F894E2
:10E55000DEBF0FBECDBF382E622ECA01DB015C01CB
:10E560006D01772420E2222E2E010894411C511CBB
:10E570008BC081E0A81680E0B80681E0C80680E084
:10E58000D80628F0C601AA27BB270F940DF2BB2797
:10E59000AD2D9C2D8B2D0F940DF28A2D0F940DF225
:10E5A0002092C6008091C00086FFFCCF8091C00001
:10E5B00080648093C0009DE29093C6008091C0006B
:10E5C00086FFFCCF8091C00080648093C0002092C1
:10E5D000C6008091C00086FFFCCF8091C00080649F
:10E5E0008093C00019828601750188249924A1E0D6
:10E5F0003A1651F03A1620F0B2E03B1661F409C029
:10E600000BBFF701779007C0C7010F9477FE782EF4
:10E6100002C0F7017080872D0F940DF22092C60082
:10E620008091C00086FFFCCF8091C0008064809301
:10E63000C000872D8052F401EF70F0708F3520F408
:10E64000E40DF51D708204C0E40DF51D8EE280839B
:10E650000894E11CF11C011D111D0894811C911CE2
:10E6600090E18916910409F0C2CF80E190E0A0E02A
:10E67000B0E0A80EB91ECA1EDB1E198AC2010F9493
:10E68000FAF10F94DCF16A94662009F072CF629679
:10E690000FB6F894DEBF0FBECDBFCF91DF911F91B3
:10E6A0000F91FF90EF90DF90CF90BF90AF909F9031
:10E6B0008F907F906F905F904F903F902F90089534
:10E6C0002F923F924F925F926F927F928F929F9282
:10E6D000AF92BF92CF92DF92EF92FF920F931F9370
:10E6E000DF93CF93CDB7DEB7CD53D1400FB6F894BB
:10E6F000DEBF0FBECDBF01E20EBF0FEF0DBF94B75F
:10E70000F894A89514BE80916000886180936000A1
:10E7100010926000789493FF05C0E0910002F091A0
:10E7200001021995279A2F9A8091C00082608093E8
:10E73000C00080E18093C40088E18093C1000000A4
:10E74000EE24FF24870144E0A42EB12CCC24DD2448
:10E7500024C0C5010197F1F70894E11CF11C011DCB
:10E76000111D21E2E2162EE4F20620E0020720E06D
:10E77000120718F031E0C32ED12CC801B70127ECE5
:10E780003BE140E050E00F9441FE611571058105C9
:10E79000910519F485B1805885B98091C00087FD35
:10E7A00003C0C114D104A9F2A6014F5F5F4FC25E3E
:10E7B000DE4F59834883CE51D140C25EDE4F8881FF
:10E7C0009981CE51D140019711F00D9410FEC05D9A
:10E7D000DE4F19821882C053D14060E0C15DDE4F28
:10E7E0001882CF52D14088249924C35DDE4F19820C
:10E7F0001882CD52D140C05EDE4F188219821A8233
:10E800001B82C052D140CE5CDE4F188219821A8220
:10E810001B82C253D140EE24FF2487010BBFF701B6
:10E8200007911691C45CDE4F19830883CC53D14005
:10E830000D940BFEC25EDE4F28813981CE51D1404E
:10E840002130310509F52091C600C25EDE4F1982E4
:10E850001882CE51D14022C02F5F3F4F4F4F5F4FA4
:10E86000213082E138078AE7480780E0580780F0C6
:10E87000C45CDE4FE881F981CC53D140EF5FFF4F9C
:10E8800019F0EE27FF27099420E030E040E050E047
:10E890008091C00087FFE0CF2091C600C35DDE4FAE
:10E8A00048815981CD52D1404F5F5F4FC35DDE4FEC
:10E8B00059834883CD52D140213209F063C64A3092
:10E8C000510508F05FC60894811C911C53E0851621
:10E8D000910409F059C600E010E018C081E280936D
:10E8E000C6008091C00086FFFCCF8091C00080648C
:10E8F0008093C0002F5F3F4F2931310579F70F9486
:10E90000DCF10F5F1F4F0530110519F020E030E0FA
:10E91000E5CF10920A0210920B0210920C02109294
:10E920000D02109206021092070210920802109235
:10E930000902109202021092030210920402109235
:10E9400005028FEE90EE60E00F94F5F180E191EE1C
:10E9500060E00F94C2F18091C00087FFFCCF9091DE
:10E96000C600903608F09F759032B8F09093C600BC
:10E970008091C00086FFFCCF8091C00080648093AE
:10E98000C000A0E2A093C6008091C00086FFFCCF2B
:10E990008091C00080648093C000983409F4D7C18E
:10E9A0009934B8F4923409F459C1933458F490333B
:10E9B00019F1903308F4E3C59F33A1F1903409F0C5
:10E9C000DEC5BDC0953409F470C1963409F0D7C5D1
:10E9D00098C1923509F42BC2933538F49C3409F46C
:10E9E000F5C1913509F0CBC518C2963509F445C279
:10E9F000993509F0C4C567C483E792EE62E00F94CD
:10EA0000F5F110920602109207021092080210927D
:10EA1000090210920A0210920B0210920C0210923C
:10EA20000D0213C18FE792EE62E00F94F5F18FEEC5
:10EA300090EE60E00F94F5F181E291EE60E00F94CA
:10EA4000C2F187EB91EE60E00F94F5F180E391EE77
:10EA500060E00F94C2F184EE90EE60E00F94F5F167
:10EA60008FE391EE60E00F94C2F186E090E061E008
:10EA700070E00F9434F20F94DCF18DE591EE60E0DC
:10EA80000F94C2F189EC91EE60E00F94F5F18EE401
:10EA900091EE60E00F94C2F183EC91EE60E00F9490
:10EAA000F5F18CE691EE60E00F94C2F18EE10F94E7
:10EAB0000DF288E90F940DF281E00F940DF20F949E
:10EAC000DCF18BE791EE60E00F94C2F119E0E0E039
:10EAD000F0E010935700E4918E2F0F940DF20F94F5
:10EAE000DCF18AE891EE60E00F94C2F1E3E0F0E03F
:10EAF00010935700E4918E2F0F940DF20F94DCF1D8
:10EB000089E991EE60E00F94C2F1E2E0F0E0109349
:10EB10005700E4918E2F0F940DF20F94DCF188EAE8
:10EB200091EE60E00F94C2F1E1E0F0E01093570045
:10EB30001491812F0F940DF20F94DCF107CF8BE825
:10EB400092EE62E00F94F5F18BE492EE60E00F94A8
:10EB5000F5F10F94DCF100E010E019C0C8016F2D51
:10EB60000F947FFEFF2031F489E492EE60E00F9471
:10EB7000C2F10BC0F092C6008091C00086FFFCCFAE
:10EB80008091C00080648093C0000F5F1F4FC80158
:10EB900081519F41A0E0B0E0ABBFFC01F790BAE229
:10EBA000FB1621F0E2E000301E07C1F60F94DCF105
:10EBB0000F94DCF187E592EE60E00F94F5F10F948D
:10EBC000DCF1CC24DD2400E010E01EC0C8010F946D
:10EBD00077FEF82E882331F489E492EE60E00F94FA
:10EBE000C2F10BC08093C6008091C00086FFFCCFAD
:10EBF0008091C00080648093C000FE1419F00894D6
:10EC0000C11CD11C0F5F1F4FC80181519F41A0E063
:10EC1000B0E0ABBFFC01E790FAE2EF1621F022E092
:10EC20000030120799F60F94DCF10F94DCF182E6C4
:10EC300092EE60E00F94C2F1C60161E070E00F94C3
:10EC400034F20F94DCF10F94DCF110920202109276
:10EC50000302109204021092050278CE89E992EE26
:10EC600062E00F94F5F1279A2F9A16C02F9880E052
:10EC700090E0E0EDF7E03197F1F7019684369105E9
:10EC8000C1F72F9A80E090E0E0EDF7E03197F1F7DF
:10EC9000019684369105C1F78091C00087FFE6CFC9
:10ECA0008091C00087FFFCCF64C485EA92EE62E0E9
:10ECB0000F94F5F140910202509103026091040219
:10ECC0007091050281E020E10F9491F2809102029F
:10ECD00090910302A0910402B091050280509F4FD1
:10ECE000AF4FBF4F8093020290930302A0930402A0
:10ECF000B093050280509041A040B04008F426CE69
:10ED0000A4CF83EB92EE62E00F94F5F140910602FE
:10ED100050910702609108027091090280E020E1A1
:10ED20000F9491F28091060290910702A09108023F
:10ED3000B091090280509F4FAF4FBF4F80930602A2
:10ED400090930702A0930802B0930902FFCD80ECD4
:10ED500092EE62E00F94F5F183E792EE60E00F949B
:10ED6000F5F18FE792EE60E00F94F5F18BE892EE0B
:10ED700060E00F94F5F189E992EE60E00F94F5F10F
:10ED800085EA92EE60E00F94F5F183EB92EE60E09D
:10ED90000F94F5F180EC92EE60E00F94F5F187ECC2
:10EDA00092EE60E00F94F5F188ED92EE60E00F9442
:10EDB000F5F18FED92EE60E00F94F5F18AEE92EEB0
:10EDC00060E00F94F5F183E093EEBDCD87EC92EE19
:10EDD00062E00F94F5F181E40F947BF282E40F94EA
:10EDE0007BF283E40F947BF284E40F947BF285E45E
:10EDF0000F947BF286E40F947BF287E40F947BF20E
:10EE000088E40F947BF28AE40F947BF28BE40F94F6
:10EE10007BF28CE40F947BF299CD88ED92EE62E068
:10EE20000F94F5F1772473948824992409C48FED05
:10EE300092EE62E00F94F5F140910A0250910B02BC
:10EE400060910C0270910D0282E020E10F9491F22A
:10EE500080910A0290910B02A0910C02B0910D02D8
:10EE600080509F4FAF4FBF4F80930A0290930B0289
:10EE7000A0930C02B0930D0269CD8AEE92EE62E08F
:10EE80000F94F5F184EE90EE60E00F94F5F18FECC5
:10EE900091EE60E00F94F5F1662477244301CC5D98
:10EEA000DE4F19821882C452D140D401C301B695F5
:10EEB000A79597958795CA5DDE4F88839983AA8326
:10EEC000BB83C652D140CC5DDE4FA881B981C4520C
:10EED000D1401196CC5DDE4FB983A883C452D14096
:10EEE000CD0162E070E00F9434F2B0E2B093C6005E
:10EEF0008091C00086FFFCCF8091C0008064809329
