:020000040000FA
:100000000C9459010C948A010C948A010C948A0175
:100010000C948A010C948A010C948A010C948A0134
:100020000C948A010C948A010C948A010C948A0124
:100030000C948A010C94450F0C948A010C948A014B
:100040000C948A010C94D9100C948A010C948A01A6
:100050000C948A010C948A010C948A010C9405106A
:100060000C948A010C94CF0F0C94A50F0C948A0168
:100070000C948A010C948A010C948A010C948A01D4
:100080000C94AB100C948A010C948A010C948A0194
:100090000C948A010C948A010C948A010C948A01B4
:1000A0000C948A010C948A010C947D100C948A01A2
:1000B0000C948A010C948A010C948A010C944F10C0
:1000C0000C948A010C948A010C948A010C948A0184
:1000D0000C948A010C948A010C948A010C948A0174
:1000E0000C948A010C94DF030C94D5040C948203C5
:1000F0000C94A8030C947B030C94DF0A0C949603D5
:100100000C94E00A0C94AE030C9473030C94050554
:100110000C94FE020C94F2040C94F0040C94C1179D
:100120000C94B1020C9441230C947F030C94BF04F3
:100130000C946B020C9476070C941B020C949203A3
:100140000C9416050C94440C0C94AE040C94AD0362
:100150000C9457020C94A0030C94B2030C94F90471
:100160000C941D050C94A2040C946D030C9488034C
:100170000C94A4030C949A030C9448020C948C03E2
:100180000C9477030C9479020C9422050000210052
:10019000240027002A002D00300033000101000058
:1001A000040107010A0100002000230026002900A5
:1001B0002C002F003200000100000301060109019C
:1001C00000000A0B02090C0D0E08070304010000D1
:1001D000000000000000000000000000000000001F
:1001E00000000000000000000000000012111000DC
:1001F00000000000000000000000000000000000FF
:10020000000000000000010210202008081020401B
:1002100010204080020102010804020101020408CA
:100220001020408080402010080402018004020158
:1002300080402010080402010804020101020408A1
:10024000102040800102040810204080000022009D
:10025000250028002B002E00310034000201000090
:10026000050108010B010505050507050808080833
:10027000020202020A0A080804040404010101013E
:100280000101010103030303030303030407070739
:100290000C0C0C0C0C0C0C0C0202020206060606DE
:1002A000060606060B0B0B0B0B0B0B0B0200C11704
:1002B000412311241FBECFEFD1E2DEBFCDBF00E04E
:1002C0000CBF16E0A0E0B2E0EEEDF1E500E00BBF00
:1002D00002C007900D92A836B107D9F728E0A8E62A
:1002E000B6E001C01D92A939B207E1F711E0C8E5F7
:1002F000D1E000E006C021970109802FFE010E9495
:10030000AB26C735D10780E00807A9F70E94F3188C
:100310000C94DD280C9400008F929F92AF92BF92B4
:10032000FF920F931F93CF93DF93F09078082FE203
:100330002F1508F44CC020917A0808E512E0021B42
:10034000110927FD1395000F111F000F111F209198
:100350007908C8E8D0E0C21BD10927FDD395CC0F9E
:10036000DD1FCC0FDD1F4E010D2E000CAA08BB08AF
:100370009801012E000C440B550B281939094A0924
:100380005B09DC010E943A2524EB30E040E050E0BC
:100390000E941025820E931EA41EB51E8C169D066B
:1003A0002CF0E801801691060CF4E4012297CC0FA2
:1003B000DD1F2FB7F8948F2D90E0FC01EE0FFF1F8B
:1003C000E80FF91FEE5BF84FD283C1832FBFDF9197
:1003D000CF911F910F91FF90BF90AF909F908F9002
:1003E000089596E0899FD0011124A551B84F9096A9
:1003F0007C936E935F9791E091969C939197E09197
:100400005808F091590890915708992339F030977E
:1004100051F0811108C0809107081994309719F0A4
:100420005C968C91FACF0895DC01ED91FC910190DE
:10043000F081E02D1994AF92BF92CF92DF92EF92AC
:10044000FF920F931F93CF93DF936C017B018B017E
:10045000040F151FEB015E01AE18BF08C017D107CE
:1004600059F06991D601ED91FC910190F081E02D58
:10047000C6011995892B79F7C501DF91CF911F919D
:100480000F91FF90EF90DF90CF90BF90AF900895C5
:10049000FC01538D448D252F30E0842F90E0821B8A
:1004A000930B541710F0CF96089501970895FC010F
:1004B000918D828D981761F0A28DAE0FBF2FB11D67
:1004C0005D968C91928D9F5F9F73928F90E00895BF
:1004D0008FEF9FEF0895FC01918D828D981731F079
:1004E000828DE80FF11D858D90E008958FEF9FEFCD
:1004F0000895FC01918D228D892F90E0805C9F4FA3
:10050000821B91098F739927089585EA96E00E94CE
:10051000790221E0892B09F420E0822F0895FC0163
:10052000A48DA80FB92FB11DA35ABF4F2C91848D54
:1005300090E001968F739927848FA689B7892C93B1
:10054000A089B1898C91837080648C93938D848D04
:10055000981306C00288F389E02D80818F7D808307
:100560000895EF92FF920F931F93CF93DF93EC01C7
:1005700081E0888F9B8D8C8D98131AC0E889F9894A
:10058000808185FF15C09FB7F894EE89FF8960834D
:10059000E889F98980818370806480839FBF81E0CE
:1005A00090E0DF91CF911F910F91FF90EF90089510
:1005B000F62E0B8D10E00F5F1F4F0F731127E02EEB
:1005C0008C8D8E110CC00FB607FCFACFE889F98923
:1005D000808185FFF5CFCE010E948F02F1CFEB8D98
:1005E000EC0FFD2FF11DE35AFF4FF0829FB7F894F7
:1005F0000B8FEA89FB8980818062CFCFCF93DF9315
:10060000EC01888D8823B9F0AA89BB89E889F9892A
:100610008C9185FD03C0808186FD0DC00FB607FC5F
:10062000F7CF8C9185FFF2CF808185FFEDCFCE0192
:100630000E948F02E9CFDF91CF91089580E090E092
:10064000892B29F00E94850281110E94000080E020
:1006500090E0892B49F080E090E0892B29F00E94FE
:10066000000081110E94000080E090E0892B49F099
:1006700080E090E0892B29F00E94000081110E9407
:10068000000080E090E0892B49F080E090E0892B29
:1006900029F00E94000081110C94000008958150FF
:1006A000823108F05AC0E82FF0E08827E55AFC4F65
:1006B0008F4F0C94AB267B037F036D03730377038B
:1006C000AD03820388038C03920396039A03A0036D
:1006D000A403AD03A803AE03B203809180008F771B
:1006E000809380000895809180008F7DF9CF809164
:1006F0008000877FF5CF84B58F7784BD089584B55A
:100700008F7DFBCF8091B0008F778093B0000895EC
:100710008091B0008F7DF9CF809190008F7780938A
:1007200090000895809190008F7DF9CF8091900086
:10073000877FF5CF8091A0008F778093A0000895E8
:100740008091A0008F7DF9CF8091A000877FF5CFA9
:10075000809120018F77809320010895809120015E
:100760008F7DF9CF80912001877FF5CFCF93DF93E5
:10077000282F30E0F901E054FE4F8491F901EA5F3F
:10078000FD4FD491F901EA59FD4FC491CC23A1F05A
:1007900081110E944F03EC2FF0E0EE0FFF1FEA558E
:1007A000FE4FA591B491EC91ED2381E090E009F426
:1007B00080E0DF91CF91089580E090E0FACF862F1E
:1007C0000C94B6031F93CF93DF93282F30E0F901E9
:1007D000E054FE4F8491F901EA5FFD4FD491F90195
:1007E000EA59FD4FC491CC23A9F0162F81110E9424
:1007F0004F03EC2FF0E0EE0FFF1FE45BFD4FA591E0
:10080000B4918FB7F894EC91111108C0D095DE2304
:10081000DC938FBFDF91CF911F910895DE2BF8CF2E
:10082000CF93DF93EC018091830890918408029725
:1008300049F4C130D10509F43DC07CF560E0209752
:1008400009F439C08091830890918408049749F491
:10085000C130D10509F45EC00CF039C0209709F40D
:1008600044C08091830890918408059709F0E7C0FF
:10087000CA30D10508F0E3C0FE018827ED5BFB4FCD
:100880008F4F0C94AB26A204AE04BF04D504F00431
:10089000F204F904050516051D05C230D105A9F0BD
:1008A00060E0C330D10571F6809187080E94E203B1
:1008B00060E006C061E0809187080E94E20361E089
:1008C000809189080E94E203BDCF61E0EDCFC23084
:1008D000D10539F1C330D10509F0C3CF61E0809172
:1008E00087080E94E20360E022C061E080918708EF
:1008F0000E94E20360E0809189080E94E20361E0C7
:1009000080918B080E94E20360E080918D080E9434
:10091000E203A7CF60E0809187080E94E20361E0D4
:10092000EACF60E0809187080E94E20361E0809155
:1009300089080E94E20360E080918B080E94E20334
:1009400061E0E3CF60E0809187080E94E20361E00C
:10095000809189080E94E20361E00BC060E0809111
:1009600087080E94E20361E0809189080E94E20307
:1009700060E080918B080E94E20360E010C060E0BC
:10098000809187080E94E20361E0809189080E94BB
:10099000E20360E080918B080E94E20361E08091B5
:1009A0008D080E94E20361E015C060E08091870835
:1009B0000E94E20361E0809189080E94E20360E006
:1009C00080918B080E94E20361E080918D080E9473
:1009D000E20360E080918F08DF91CF910C94E203F5
:1009E00061E0E4CF61E0809187080E94E20360E06B
:1009F000E2CF61E0809187080E94E20360E080918D
:100A000089080E94E20361E0DBCF61E08091870802
:100A10000E94E20360E0809189080E94E20361E0A5
:100A200080918B080E94E20360E0CFCF61E080916B
:100A300087080E94E20360E08BCF60E0F8CFDF918F
:100A4000CF910895862F642F0C94E2039091610258
:100A500089130DC0ECEAF2E0E4919FEF90936102FC
:100A6000E230E1F038F4EE2381F0E13089F060E02B
:100A70000C94E203E43049F110F1E530C1F79091B4
:100A800073009D7F90937300F2CF10926E00EFCFB2
:100A900090916F009D7F90936F00E9CF90917000CF
:100AA0009D7F9093700091E09093B0009091B10081
:100AB000987F94609093B1001092B300D8CF90913A
:100AC00071009D7F90937100D2CF909172009D7FB5
:100AD00090937200CCCFCF93DF9390E0FC01EA5F5C
:100AE000FD4F24918A599D4FFC0184918823C9F0C0
:100AF00090E0880F991FFC01E457FE4FA591B49137
:100B0000FC01E45BFD4FC591D49161110DC09FB70D
:100B1000F8948C91209582238C93888128232883B4
:100B20009FBFDF91CF910895623051F49FB7F89441
:100B30003C91822F809583238C93E8812E2BEFCFDD
:100B40008FB7F894EC912E2B2C938FBFEACF0F9395
:100B50001F93CF938C01809161028D3231F08F3FD2
:100B6000A1F1CF911F910F910895ECEAF2E0C491A9
:100B7000C7FDF7CF61E08DE20E946B05C1113FC058
:100B8000980150E040E068E478EE81E090E00E9457
:100B90001025BA01A901415051096109710985B5B2
:100BA000887F836085BD47BD8FEF9FEFDC01809319
:100BB000A1069093A206A093A306B093A4068091E9
:100BC0006E00826080936E00CCCF8DE280936102D4
:100BD000ECEAF2E0C4918C2FCF3F09F4C2CFC230CF
:100BE00009F493C0B8F5CC2309F459C0C13009F415
:100BF0006EC087FDB6CF61E08DE20E946B05980163
:100C000050E040E0C23009F0DFC060E970ED83E001
:100C100090E00E941025BA01A901415051096109D3
:100C200071098091B100887F83608093B100409307
:100C3000B3008FEF9FEFDC018093990690939A06A3
:100C4000A0939B06B0939C06809170008260809375
:100C5000700087CFC43009F499C008F478C0C5305B
:100C600041F61092200110922101809121018860AB
:100C70008093210180912101816080932101E3E92A
:100C8000F2E0E491F0E0EE0FFF1FE45BFD4F859191
:100C90009491E3E3F2E0E491E09385066BCF14BC1A
:100CA00015BC84B5826084BD85B5816085BDE3E9EE
:100CB000F2E0E491F0E0EE0FFF1FE45BFD4F859161
:100CC0009491E3E3F2E0E491E0938C0653CF109229
:100CD0008000109281008091810088608093810063
:100CE00080918100816080938100E3E9F2E0E491EA
:100CF000F0E0EE0FFF1FE45BFD4F85919491E3E37D
:100D0000F2E0E491E0938B0635CF1092B0001092A0
:100D1000B1008091B00082608093B0008091B100FA
:100D200081608093B100E3E9F2E0E491F0E0EE0F3E
:100D3000FF1FE45BFD4F8591949190938A06809309
:100D40008906E3E3F2E0E491E093880613CF109282
:100D500090001092910080919100886080939100A2
:100D600080919100816080939100E3E9F2E0E49149
:100D7000F0E0EE0FFF1FE45BFD4F85919491E3E3FC
:100D8000F2E0E491E0938706C3E0F4CE1092A00075
:100D90001092A1008091A10088608093A1008091B1
:100DA000A10081608093A100E3E9F2E0E491F0E02A
:100DB000EE0FFF1FE45BFD4F85919491E3E3F2E0BA
:100DC000E491E0938606D6CE60E072E18AE790E097
:100DD0000E941025DA01C9010197A109B109AC01EE
:100DE000C130D9F420918100287F216020938100B7
:100DF00090938900809388008FEF9FEFDC018093B0
:100E00009D0690939E06A0939F06B093A0068091A6
:100E10006F00826080936F00A4CEC330D9F420911C
:100E20009100287F216020939100909399008093F6
:100E300098008FEF9FEFDC018093950690939606C4
:100E4000A0939706B093980680917100826080937A
:100E5000710087CEC430D9F42091A100287F216091
:100E60002093A1009093A9008093A8008FEF9FEF9B
:100E7000DC018093910690939206A0939306B09321
:100E80009406809172008260809372006ACEC530B1
:100E9000D9F420912101287F216020932101909392
:100EA0002901809328018FEF9FEFDC0180938D064D
:100EB00090938E06A0938F06B09390068091730056
:100EC0008260809373004DCEC23009F4B0CE3CF402
:100ED000CC2309F468CEC13009F043CE89CFC430A9
:100EE00009F20CF4A2CFC530D1F23BCE862F642F8D
:100EF0000C946B053FB7F89480917306909174063B
:100F0000A0917506B091760626B5A89B05C02F3F27
:100F100019F00196A11DB11D3FBFBA2FA92F982F1F
:100F20008827BC01CD01620F711D811D911D42E01A
:100F3000660F771F881F991F4A95D1F708954F9222
:100F40005F926F927F928F929F92AF92BF92EF9239
:100F5000FF920F931F93CF93DF93EC0197FF04C091
:100F6000CC27DD27C81BD90B181619060CF061C059
:100F700081E090E090937C0880937B0804E010E08F
:100F80008AE0E82EF12C209709F46FC00E947A07BE
:100F90008090910890909208A0909308B090940847
:100FA0002B013C01481859086A087B0880907D088D
:100FB00090907E08A0907F08B09080084814590453
:100FC0006A047B0400F36093910870939208809305
:100FD00093089093940880918508909186082091B9
:100FE0007B0830917C082130310559F501969093AA
:100FF00086088093850820918108309182088217A5
:10100000930721F410928608109285082197809109
:101010008508909186082091830830918408B70153
:101020002530310509F0B8010E9497260E9410046E
:10103000AACF892B09F4A2CF10927C0810927B08CA
:101040009DCF892B41F480918108909182089093E3
:10105000860880938508809185089091860801977D
:101060009093860880938508D1CFDF91CF911F910F
:101070000F91FF90EF90BF90AF909F908F907F90D7
:101080006F905F904F9008958F929F92AF92BF9212
:10109000CF92DF92EF92FF924B015C010E947A07A0
:1010A0006B017C010E947A076C197D098E099F09EA
:1010B000683E734081059105A8F321E0821A9108EA
:1010C000A108B10888EEC80E83E0D81EE11CF11C0F
:1010D00081149104A104B10429F7FF90EF90DF90EF
:1010E000CF90BF90AF909F908F9008952FB7F894B6
:1010F00060916F06709170068091710690917206F2
:101100002FBF08950F931F93CF93DF93C82FD62F30
:1011100086E0C89FF0011124E551F84F11A2878D98
:1011200090A181309105F1F058F082309105F1F1F4
:10113000039709F440C0DF91CF911F910F9108955B
:101140006623C9F361E070E08C2F0E94F1010E94D8
:101150007608609343087093440880934508909301
:101160004608E9CF0E947608009143081091440890
:101170002091450830914608AB01BC01401B510B42
:10118000620B730B8091550890915608B0E0A0E077
:1011900084179507A607B70748F462E070E08C2F24
:1011A000DF91CF911F910F910C94F10163E070E0FA
:1011B000D111C1CFF4CF70E060E0F1CF6F927F9298
:1011C0008F929F92AF92BF92CF92DF92EF92FF9257
:1011D0000F931F93CF93DF9381E0809357080E9472
:1011E00076080091470810914808209149083091ED
:1011F0004A08AB01BC01401B510B620B730B809181
:10120000530890915408B0E0A0E084179507A60712
:10121000B70708F014C1C0E080915108C81760F406
:10122000E0914D08F0914E08EC0FF11D62E08081D5
:101230000E946B05CF5FF0CF712C812C912C540153
:10124000839480915208781608F05FC0072D10E053
:10125000E0914F08F0915008E00FF11F61E08081AC
:101260000E946B05E0914F08F0915008E00FF11FCC
:1012700060E080810E94E203D501C401072C04C014
:10128000880F991FAA1FBB1F0A94D2F76C017C011B
:10129000E094F094612C809151086816F8F4C62D02
:1012A000D0E0E0914D08F0914E08EC0FFD1F8081D9
:1012B0000E94B6032496CC0FDD1FC551D84F892B51
:1012C00041F4888199818C299D299983888363942D
:1012D000E2CF888199818E219F21F7CFE0914F083D
:1012E000F0915008E00FF11F61E080810E94E2035D
:1012F00080914F0890915008080F191F60E0F80185
:1013000080810E946B0573949CCFCBEED7E0FE01E9
:101310008FEF9FEF278D30A1232B21F4148E968F12
:10132000858F11A2369628E0E732F20799F7F12C63
:1013300096E0D92E80915108F81608F050C0E12CA3
:101340000F2D10E0000F111F0D50184F2091520863
:10135000E21608F042C0F801608171810E2C02C0D3
:10136000769567950A94E2F7F29E900111242E0D6E
:10137000311DEBEEF7E080E0458D568D24173507E3
:1013800009F461C08F5F36968A30B1F760FF23C0E1
:10139000EBEEF7E090E080E0448D411117C0E09162
:1013A0004B08F0914C08E20FF31F4081D89EF001EA
:1013B000D99EF00D1124E551F84F448F368F258FBB
:1013C00010A2178E61E00E94820805C00196369631
:1013D0008A30910509F7E394B9CFF394ABCF10E0CD
:1013E00089A18111182F2696F8E0C732DF07C1F7CF
:1013F0000E947608609347087093480880934908D4
:1014000090934A081123D9F080910C088823B9F0F1
:1014100080910A0890910B08019789F48091070840
:10142000DF91CF911F910F91FF90EF90DF90CF90C0
:10143000BF90AF909F908F907F906F900895109283
:10144000570880E0EDCF6170BECFAF92BF92CF92D0
:10145000DF92EF92FF920F931F93CF93DF936B0175
:101460007A01EC01C659D94F28813CE0389F8001B0
:10147000399F100D1124A090D207B12C27FF1FC057
:10148000FB011182108288818F5F88838881980197
:10149000280F311D87FD3A95F6012A153B051CF4EE
:1014A00088818C30C4F180819181049680349C497C
:1014B00008F473C0F60180819181049670C0888120
:1014C0009801280F311D87FD3A952A153B05DCF65A
:1014D0008881A801480F511D87FD5A95FA01EE0F2A
:1014E000FF1FE40FF51FEE5BF84F808186FFCBCF27
:1014F0008881F801E80FF11D87FDFA95CF01EE0F05
:10150000FF1FE80FF91FEE5BF84F808160E08F73DB
:101510000E94E203B8CF808191812881A801420F07
:10152000511D27FD5A959A01FA01EE0FFF1FE20F98
:10153000F31FEE5BF84F21813281820F931FF70179
:101540009183808388819801280F311D87FD3A950A
:10155000F901EE0FFF1FE20FF31FEE5BF84F8081E2
:1015600086FF22C08881080F111D87FD1A95F8019A
:10157000EE0FFF1FE00FF11FEE5BF84F808161E07F
:101580008F73DF91CF911F910F91FF90EF90DF90BC
:10159000CF90BF90AF900C94E20380E49CE9F701F8
:1015A000918380838FEF8883DF91CF911F910F917B
:1015B000FF90EF90DF90CF90BF90AF900895089587
:1015C00090E080E008959C01205F3F4F4FEF5FEF78
:1015D000FC0141935193CF01E217F307C9F7089536
:1015E000CF93DF93EC0160E08E810E94E20361E023
:1015F0008E810E94E20360E08E810E94E2038BE80C
:1016000091E00197F1F7DF91CF910895CF92DF92AA
:10161000EF92FF920F931F93CF93DF936C017C01A6
:1016200087E0E80EF11CD0E0C0E0062F10E0B80122
:101630000C2E02C0759567950A94E2F76170F70168
:1016400081917F010E94E2032196C430D10579F790
:10165000C601DF91CF911F910F91FF90EF90DF9026
:10166000CF900C94F00ACF92DF92EF92FF920F93FB
:101670001F93CF93DF93EC01F62E642F8C810E9491
:10168000E2038D818F3F19F060E00E94E2030F2D8D
:1016900010E08F8584FF25C06E0187E0C80ED11C45
:1016A000F12CE12CB8010E2C02C0759567950A94B7
:1016B000E2F76170F60181916F010E94E203FFEF92
:1016C000EF1AFF0A88E0E816F10461F7CE01DF9116
:1016D000CF911F910F91FF90EF90DF90CF900C94DE
:1016E000F00AB80184E0759567958A95E1F7CE0117
:1016F0000E94060B6F2DCE01DF91CF911F910F91AC
:10170000FF90EF90DF90CF900C94060B40E0682F95
:1017100083ED97E00C94330B81E00E94860B8BE302
:101720009FE10197F1F70895CF93DF93823029F479
:101730009091E20798609093E2078093E6071092F9
:10174000E70780E48093E80780E18093E90780E57C
:101750008093EA0761E08091D7070E946B05809132
:10176000D8078F3F19F061E00E946B0561E080911E
:10177000D9070E946B05C3EDD7E09E01235D37407A
:101780008091E20784FD0BC084E090E02196281749
:10179000390744F461E08E810E946B05EECF88E04A
:1017A00090E0F4CF8BE39DE00197F1F760E080914A
:1017B000D7070E94E20360E08091D9070E94E2030C
:1017C0008091D8078F3F19F060E00E94E20380917A
:1017D000E20784FD34C063E083ED97E00E94060BCE
:1017E000CBE4D6E4CE010197F1F763E083ED97E017
:1017F0000E94060B2197F1F763E083ED97E00E94CA
:10180000060B83E592E00197F1F762E083ED97E044
:101810000E94060B8091E20780620E94860B84E0A2
:101820008093E3078CE00E94860B0E948C0B82E081
:101830008093E40786E0DF91CF910C94860B806261
:101840000E94860B8BE496E40197F1F78091E20702
:1018500080620E94860B83E592E00197F1F7809108
:10186000E20780620E94860BD5CF9091E607691748
:1018700010F06FEF690FE62FF0E0ED52F84F94890A
:10188000890F80680C94860B41E00E94330B81E045
:1018900090E008950F931F93CF93DF938B0128E07F
:1018A000829FC001112480640E94860BE801085FBA
:1018B0001F4F699183ED97E00E94440CC017D10738
:1018C000C1F7DF91CF911F910F910895FB01019016
:1018D0000020E9F73197AF01461B570BDC01ED9172
:1018E000FC910280F381E02D199468EA72E085EAA8
:1018F00096E00C94660CCF93DF93FC0144815581F4
:101900006081718185EA96E00E941B02EC010E94D1
:10191000750C8C0F9D1FDF91CF910895CF93DF93AE
:10192000682F85EA96E00E941402EC010E94750C73
:101930008C0F9D1FDF91CF9108958F929F92AF9250
:10194000BF92EF92FF920F931F93CF93DF93CDB788
:10195000DEB7A1970FB6F894DEBF0FBECDBF7C01F6
:10196000FA01CB0119A2223008F42AE08E010F5DA2
:101970001F4F822E912CB12CA12CBF01A5019401E7
:101980000E944225F901CA016A300CF5605DD80158
:101990006E938D01232B242B252B79F790E080E08B
:1019A000109721F0BD01C7010E94660CA1960FB6E9
:1019B000F894DEBF0FBECDBFDF91CF911F910F9185
:1019C000FF90EF90BF90AF909F908F900895695CCB
:1019D000DECFCF92DF92EF92FF92CF93DF936C0135
:1019E000990FEE08FF08F7FE1FC06DE285EA96E04A
:1019F0000E941402EC0144275527BA014C195D09D5
:101A00006E097F092AE085EA96E00E949D0CC80FC6
:101A1000D91F0E94750C8C0F9D1FDF91CF91FF90F5
:101A2000EF90DF90CF9008952AE0B701A60185EAF4
:101A300096E00E949D0CEC01ECCFCF92DF92EF92EA
:101A4000FF920F931F93CF93DF936B01770FEE08F5
:101A5000FF08F7FE1BC0EC016DE20E9414028C012E
:101A600044275527BA014C195D096E097F092AE000
:101A7000CE010E949D0C800F911FDF91CF911F918D
:101A80000F91FF90EF90DF90CF9008952AE0B7017B
:101A9000A601DF91CF911F910F91FF90EF90DF9002
:101AA000CF900C949D0CCF93DF93BC0185EA96E018
:101AB0000E94660CEC010E94750C8C0F9D1FDF913B
:101AC000CF9108954F925F926F927F928F929F92E3
:101AD000AF92BF92CF92DF92EF92FF920F931F933C
:101AE000CF936B017C01742EAC019B010E94862672
:101AF0006BEA72E0811126C046015701E894B7F8FD
:101B00002FEF3FEF4FE75FE7C501B4010E94862644
:101B100081110CC02FEF3FEF4FE75FE7C501B40124
:101B20000E94EC236FEA72E0181664F02FEF3FEF8B
:101B30004FE75FE4C701B6010E9481261816ACF496
:101B400063EB72E085EA96E0CF911F910F91FF90D1
:101B5000EF90DF90CF90BF90AF909F908F907F904D
:101B60006F905F904F900C94660C2FEF3FEF4FE714
:101B70005FECC701B6010E94EC2387FDE1CF20E0B6
:101B800030E0A901C701B6010E94EC2310E000E09B
:101B900087FF0AC06DE285EA96E00E9414028C017C
:101BA000F7FAF094F7F8F094C0E060E070E080E0BD
:101BB0009FE37C1641F020E030E040E251E40E94D7
:101BC000E025CF5FF6CFA70196010E9474252B0177
:101BD0003C010E9452264B015C012AE0BC01A40199
:101BE00085EA96E00E949D0C7C01E00EF11ECC235C
:101BF000D1F1C501B4010E94F1239B01AC01C301E5
:101C0000B2010E9473254B015C016EE285EA96E009
:101C10000E941402E80EF91EC15028F120E030E0C5
:101C200040E251E4C501B4010E9452242B013C0161
:101C30000E9452264B01B12CA12C2AE0B501A4012F
:101C400085EA96E00E949D0CE80EF91EC501B401DC
:101C50000E94F1239B01AC01C301B2010E947325D4
:101C60004B015C01D9CFC701CF911F910F91FF901C
:101C7000EF90DF90CF90BF90AF909F908F907F902C
:101C80006F905F904F9008950C94660C0E948C0B9F
:101C900080917706882399F160E080E00E94350CFE
:101CA00067EB72E083ED97E00E94440E61E083E011
:101CB0000E94350C65EC72E083ED97E00E94440EC3
:101CC0000E94DE08853421F7109282061092810668
:101CD0001092800610927F0680E592E00E94E30A4F
:101CE0000E948C0B60E080E00E94350C65EE73E092
:101CF00083ED97E00E94440E10927706C9CF0895B5
:101D0000FC0180819181009711F00C94732360E0B5
:101D100070E0CB010895DC0114968D919C9115978C
:101D20006817790750F4ED91FC911197E60FF71FB2
:101D300015967C936E931497108208950F931F93BA
:101D4000CF93DF93EC0188819981009759F02A8124
:101D50003B812617370730F081E0DF91CF911F914B
:101D60000F9108958B016F5F7F4F0E94EC270097C2
:101D700059F0998388831B830A832C813D81232B0F
:101D800059F7FC011082E8CF80E0E7CFEF92FF9295
:101D90000F931F93CF93DF931F921F92CDB7DEB7A0
:101DA0008C0169831A82FC01E480F580FFEFEF1A51
:101DB000FF0AB7010E949E0E882381F0F80120815E
:101DC000318184819581BE016F5F7F4F820F931FA8
:101DD0000E94D628F801F582E48281E00F900F90EE
:101DE000DF91CF911F910F91FF90EF900895CF93C6
:101DF000DF93EC0188819981009711F00E9463279D
:101E0000198218821D821C821B821A82DF91CF9157
:101E10000895EF92FF920F931F93CF93DF93EC01FE
:101E20007B018A01BA010E949E0E81110BC0CE0176
:101E30000E94F70ECE01DF91CF911F910F91FF907D
:101E4000EF9008951D830C83B701888199810E94CA
:101E5000D628F0CFFC0111821082138212821582E3
:101E6000148250E040E06AEA72E00C94090F50E0FE
:101E700040E06AEA72E00C94090FFC0180819181D4
:101E8000009711F00C94632708951F920F920FB6DC
:101E90000F9211240BB60F922F933F934F935F93A2
:101EA0006F937F938F939F93AF93BF93EF93FF9322
:101EB0008091990690919A06A0919B06B0919C06FC
:101EC000892B8A2B8B2BE1F190918806E091890672
:101ED000F0918A068081892780838091990690916C
:101EE0009A06A0919B06B0919C06181619061A0630
:101EF0001B069CF48091990690919A06A0919B06EE
:101F0000B0919C060197A109B1098093990690931D
:101F10009A06A0939B06B0939C06FF91EF91BF9108
:101F2000AF919F918F917F916F915F914F913F9171
:101F30002F910F900BBE0F900FBE0F901F90189512
:101F4000809161020E942605E8CF1F920F920FB682
:101F50000F9211240BB60F922F933F934F935F93E1
:101F60006F937F938F939F93AF93BF93EF93FF9361
:101F700085EA96E00E948F02FF91EF91BF91AF91A9
:101F80009F918F917F916F915F914F913F912F9191
:101F90000F900BBE0F900FBE0F901F9018951F92C1
:101FA0000F920FB60F9211240BB60F922F938F93AF
:101FB0009F93EF93FF93E091B506F091B606808171
:101FC000E091BB06F091BC0682FD1DC0908180911E
:101FD000BE068F5F8F732091BF06821741F0E0919C
:101FE000BE06F0E0EB55F94F958F8093BE06FF914A
:101FF000EF919F918F912F910F900BBE0F900FBE7D
:102000000F901F9018958081F2CF1F920F920FB6FC
:102010000F9211242F933F938F939F93AF93BF936E
:1020200080916F0690917006A0917106B091720632
:1020300030916E0623E0230F2D3758F50196A11D30
:10204000B11D20936E0680936F0690937006A09347
:102050007106B09372068091730690917406A091F8
:102060007506B09176060196A11DB11D8093730689
:1020700090937406A0937506B0937606BF91AF91C6
:102080009F918F913F912F910F900FBE0F901F90B6
:10209000189526E8230F0296A11DB11DD2CF1F92DD
:1020A0000F920FB60F9211240BB60F922F933F93FE
:1020B0004F935F936F937F938F939F93AF93BF9350
:1020C000EF93FF9348E251E064E271E090E080E03A
:1020D0000E94250AFF91EF91BF91AF919F918F913F
:1020E0007F916F915F914F913F912F910F900BBE18
:1020F0000F900FBE0F901F9018951F920F920FB662
:102100000F9211240BB60F922F933F934F935F932F
:102110006F937F938F939F93AF93BF93EF93FF93AF
:1021200048EA50E064EA70E083E090E00E94250A0B
:10213000FF91EF91BF91AF919F918F917F916F919F
:102140005F914F913F912F910F900BBE0F900FBE5B
:102150000F901F9018951F920F920FB60F92112497
:102160000BB60F922F933F934F935F936F937F9391
:102170008F939F93AF93BF93EF93FF9348E950E002
:1021800064E970E082E090E00E94250AFF91EF91FF
:10219000BF91AF919F918F917F916F915F914F917F
:1021A0003F912F910F900BBE0F900FBE0F901F907D
:1021B00018951F920F920FB60F9211240BB60F9223
:1021C0002F933F934F935F936F937F938F939F933F
:1021D000AF93BF93EF93FF9348E850E064E870E05B
:1021E00081E090E00E94250AFF91EF91BF91AF91AD
:1021F0009F918F917F916F915F914F913F912F911F
:102200000F900BBE0F900FBE0F901F9018954F921E
:102210005F926F927F928F929F92AF92BF92CF9276
:10222000DF92EF92FF920F931F93CF93DF93CDB77F
:10223000DEB764970FB6F894DEBF0FBECDBF81ED59
:1022400092E00E94530D0E948C0B60E081E00E949E
:10225000350C60E083ED97E00E94440C6DED72E078
:1022600083ED97E00E94440E60E083ED97E00E94CA
:10227000440C60ED77E080E090E00E9444080E940A
:102280008C0B10928206109281061092800610929A
:102290007F0681E080937E06EE24EA94FE2CCC2417
:1022A000CA94DC2C80917E06882309F461C10E94C7
:1022B000DE08182F882309F4F5C080917F0661E0BD
:1022C0008B5F0E94350C8BEE92E0153521F01434B3
:1022D00029F48EEE92E00E94530DE4CF83EF92E05A
:1022E0001335C9F3133409F063C087EF92E00E94FD
:1022F000530D80917F069091800618161906B4F54B
:102300008091810690918206181619067CF5880F37
:10231000991FFC01E050FE4FF182E08260E283ED04
:1023200097E00E94140280917F0661E08B5F0E941B
:10233000350C60E283ED97E00E9414020091810663
:1023400010918206B80180E698E00E948B0E015041
:102350001109109382060093810680917F06909167
:10236000800601979093800680937F068091810676
:1023700090918206892B09F095CFD0920102C092EC
:10238000000270E060E080E698E00E948B0E60E260
:1023900083ED97E00E94140280917F0661E08B5FDD
:1023A0000E94350C60E283ED97E00E9414027ACF20
:1023B000183419F58DEF92E00E94530D0E948C0B9A
:1023C00060E081E00E94350C62E073E083ED97E00D
:1023D0000E94440E61E081E00E94350C63E173E0ED
:1023E00083ED97E00E94440E68EE73E080E090E099
:1023F0000E9444080E948C0B55CF153439F48BECA5
:1024000092E00E94530D10927E064CCF61E273E081
:1024100085EA96E00E94440E812F0E948E0C8091E6
:1024200081069091820608970CF047C080917F0644
:102430009091800608970CF040C0612F83ED97E0E3
:102440000E94140280917F0661E08B5F0E94350C30
:10245000612F83ED97E00E941402612F80E698E0DF
:102460000E94C60E10538091810690918206FC0155
:10247000EE0FFF1FE050FE4F212F012E000C330BFB
:102480003183208301969093820680938106809108
:102490007F069091800601969093800680937F0638
:1024A000111100CF60E080E00E94350C6DE373E015
:1024B00083ED97E00E94440EF5CE89E293E00E94FE
:1024C000530D81E0809377060E948C0B80917706F4
:1024D000882399F160E080E00E94350C67EB72E0A0
:1024E00083ED97E00E94440E61E083E00E94350C8A
:1024F00065EC72E083ED97E00E94440E0E94DE08D6
:10250000853421F71092820610928106109280067F
:1025100010927F0680E092E00E94E30A0E948C0BFA
:1025200060E080E00E94350C6DE373E083ED97E09E
:102530000E94440E10927706C9CF80E698E00E9470
:10254000370F8DE493E00E94530D809181069091A6
:1025500082060E94E90C8DE593E00E94530D809164
:102560007F06909180060E94E90C109277069ACE21
:1025700010928206109281061092800610927F06B9
:102580008DE693E00E94530D0E948C0B81E08093B6
:102590007E06F0E14F2EF2E05F2E8E010F5F1F4F9F
:1025A00066246A94762CAA24AA94BA2C80917E067A
:1025B000882309F43FC20E94DE08F82E882309F41C
:1025C000D3C180917F0661E08B5F0E94350C25E5C9
:1025D0008BEE92E0F21629F084E4F81205C08EEE3C
:1025E00092E00E94530DE2CFA3E583EF92E0FA164A
:1025F000C1F3B3E4FB1268C087EF92E00E94530D71
:1026000080917F069091800618161906BCF580917E
:102610008106909182061816190684F5880F991F75
:10262000FC01E05FFD4F7182608260E283ED97E024
:102630000E94140280917F0661E08B5F0E94350C3E
:1026400060E283ED97E00E941402E0908106F09032
:102650008206B7018AE598E00E948B0EE1E0EE1A4F
:10266000F108F0928206E092810680917F069091B7
:10267000800601979093800680937F068091810663
:1026800090918206892B09F091CFB0921102A0920D
:10269000100270E060E08AE598E00E948B0E8AE507
:1026A00098E00E94370F60E283ED97E00E941402E9
:1026B00080917F0661E08B5F0E94350C60E283EDC4
:1026C00097E00E94140272CFF8E4FF1223C08DEF4E
:1026D00092E00E94530D0E948C0B60E081E00E940A
:1026E000350C62E073E083ED97E00E94440E61E0F8
:1026F00081E00E94350C63E173E083ED97E00E9476
:10270000440E68EE73E080E090E00E9444080E946E
:102710008C0B4CCF25E4F212D8C08BEC92E00E94D7
:10272000530D80E698E00E94800E6B018AE598E0E8
:102730000E94800EC616D70609F086C080E893E096
:102740000E94530DCE010F960E942A0F70E0E72ED3
:1027500072E0F72ED7018D919D917D018F3F9807F3
:1027600009F440C0CF84D8880E9455234C011A86B2
:1027700019861C861B861E861D86C114D10439F05D
:102780004B895C89B601CE0109960E94090F4AE087
:10279000B801C4010E949A23F80101900020E9F7D2
:1027A0003197E01BF10B79F0CD84DE84CE0EDF1E75
:1027B000B601CE0109960E949E0E811134C0CE0151
:1027C00009960E94F70E69857A8561157105B9F140
:1027D0004D855E85CE010F960E94090FCE010996A8
:1027E0000E943D0F4E145F0409F0B4CF8F85988985
:1027F0000E9455237C018FE893E00E94530DCE0187
:102800000F960E947B0C8CE993E00E94530DC70148
:102810000E94E90CCE010F960E943D0F0E94750C9C
:1028200010927E06C3CE29853A858D859E85B80196
:10283000820F931F0E94D628DE86CD86C4CFCE019C
:102840000F960E94F70ECACF0E948C0B81E08093F6
:10285000770680917706882309F4A8CE60E080E0AF
:102860000E94350C63EA73E083ED97E00E94440E0A
:1028700061E083E00E94350C65EC72E083ED97E047
:102880000E94440E0E94DE08853419F710928206D9
:10289000109281061092800610927F068AE598E0D9
:1028A0000E94370F80E192E00E94E30A0E948C0BA5
:1028B00060E080E00E94350C64EB73E083ED97E00C
:1028C0000E94440E10927706C4CF61E273E085EA5D
:1028D00096E00E94440E8F2D0E948E0C80918106FE
:1028E0009091820608970CF04AC080917F069091E3
:1028F000800608970CF043C06F2D83ED97E00E948F
:10290000140280917F0661E08B5F0E94350C6F2D71
:1029100083ED97E00E9414026F2D8AE598E00E94F3
:10292000C60E80ED8F0D2091810630918206F9014F
:10293000EE0FFF1FE05FFD4F482F082E000C550BD8
:10294000518340832F5F3F4F30938206209381064F
:1029500020917F06309180062F5F3F4F3093800695
:1029600020937F06811122CE60E080E00E94350C2A
:1029700064EB73E083ED97E00E94440E17CE84EC85
:1029800093E00E94530D81E0809377060E948C0BA8
:1029900080917706882399F160E080E00E94350CF1
:1029A00067EB72E083ED97E00E94440E61E083E004
:1029B0000E94350C65EC72E083ED97E00E94440EB6
:1029C0000E94DE08853421F710928206109281065B
:1029D0001092800610927F0680E192E00E94E30A46
:1029E0000E948C0B60E080E00E94350C64EB73E089
:1029F00083ED97E00E94440E10927706C9CF8AE5D6
:102A000098E00E94370F8DE493E00E94530D80916F
:102A10008106909182060E94E90C8DE593E00E9468
:102A2000530D80917F06909180060E94E90C1092D0
:102A30007706BCCD10928206109281061092800615
:102A400010927F068BED93E00E94530D0E948C0B39
:102A500081E080937E06EE24EA94FE2CCC24CA9476
:102A6000DC2C80917E06882309F4E7C10E94DE08F1
:102A7000182F882309F42EC180917F0661E08B5FB7
:102A80000E94350C8BEE92E0153521F0143429F4B8
:102A90008EEE92E00E94530DE4CF83EF92E0133567
:102AA000C9F3133409F057C087EF92E00E94530D29
:102AB00080917F06909180061816190684F5809102
:102AC000810690918206181619064CF5880F991FF9
:102AD000FC01E05BFD4FF182E08260E283ED97E074
:102AE0000E94140280917F0661E08B5F0E94350C8A
:102AF00060E283ED97E00E9414028091810690913C
:102B000082060197909382068093810680917F06CA
:102B10009091800601979093800680937F06809124
:102B2000810690918206892B09F09BCFD0925102A9
:102B3000C092500260E283ED97E00E9414028091FF
:102B40007F0661E08B5F0E94350C60E283ED97E0C9
:102B50000E94140286CF8DEF92E0183409F49ACFC8
:102B6000153409F004C18BEC92E00E94530D809162
:102B7000500290915102892B09F065C08091520258
:102B800090915302019709F05EC080915402909198
:102B90005502892B09F057C0809156029091570237
:102BA000069709F050C08091580290915902019601
:102BB00009F049C080915A0290915B02019609F098
:102BC00042C080915C0290915D020196E1F5809196
:102BD0005E0290915F020196B1F50E948C0B60E05D
:102BE00083E00E94350C63EF73E083ED97E00E9471
:102BF000440E61E084E00E94350C61E675E083EDEF
:102C000097E00E94440E61E08EE30E94E20368EECA
:102C100073E080E090E00E9444080E948C0B60E02A
:102C20008EE30E94E20310927A06109279061092C7
:102C30007E068091680690916906019690936906D8
:102C4000809368060ECF8091790690917A06843041
:102C500091050CF04AC0019690937A06809379060C
:102C60000E948C0B60E080E00E94350C6EEF73E0F8
:102C700083ED97E00E94440E6091790670917A0688
:102C800083ED97E00E941D0D61E080E00E94350C0D
:102C900068E074E083ED97E00E94440E61E08FE30A
:102CA0000E94E2036CED75E080E090E00E94440831
:102CB00060E08FE30E94E203109282061092810688
:102CC0001092800610927F0680E592E00E94E30A4F
:102CD0000E948C0B60E080E00E94350C65EE73E092
:102CE00083ED97E00E94440EBCCE0E948C0B81E0E5
:102CF0008093770661E08FE30E94E203809177067C
:102D0000882309F4AECE60E080E00E94350C69E1D2
:102D100074E083ED97E00E94440E61E080E00E9441
:102D2000350C6BE274E083ED97E00E94440E0E9444
:102D3000DE08853419F710928206109281061092EF
:102D4000800610927F0680E592E00E94E30A0E94CE
:102D50008C0B60E080E00E94350C65EE73E083ED43
:102D600097E00E94440E1092770660E0C4CF61E2C3
:102D700073E085EA96E00E94440E812F0E948E0C3B
:102D800080918106909182060897BCF580917F061C
:102D90009091800608978CF5612F83ED97E00E9453
:102DA000140280917F0661E08B5F0E94350C612FD9
:102DB00083ED97E00E941402105380918106909158
:102DC0008206FC01EE0FFF1FE05BFD4F212F012E5D
:102DD000000C330B318320830196909382068093FD
:102DE000810680917F0690918006019690938006DF
:102DF00080937F06111135CE6DCF84EC93E00E9455
:102E0000530D81E0809377060E94460E8DE493E097
:102E10000E94530D80918106909182060E94E90CD8
:102E20008DE593E00E94530D80917F06909180067E
:102E30000E94E90C1092770614CE8CE394E00E9475
:102E4000530D80E698E00E94800E4B0100917B06B6
:102E500010917C06E0906806F090690688E090E0AA
:102E60000E94C726FC01F182E0829382828217824F
:102E7000168215821482D8012D913C9111971496D7
:102E80008D919C911597232B09F06BC01396FC93A1
:102E9000EE9312971196FC93EE93019615969C93E0
:102EA0008E9314970E948C0B60E082E00E94350C98
:102EB0006DE474E083ED97E00E94440E6091680633
:102EC0007091690683ED97E00E941D0D61E080E03E
:102ED0000E94350C61E574E083ED97E00E94440E9A
:102EE000B40183ED97E00E941D0D61E080E40E9433
:102EF000E2036CED75E080E090E00E94440860E041
:102F000080E40E94E20388E594E00E94530D0E9451
:102F1000750C8CE694E00E94530D809168069091A8
:102F200069060E94E90C88E794E00E94530DC401F1
:102F30000E94E90C64960FB6F894DEBF0FBECDBFB9
:102F4000DF91CF911F910F91FF90EF90DF90CF9085
:102F5000BF90AF909F908F907F906F905F904F90B9
:102F6000089512962D913C91D9011596FC93EE93FC
:102F7000149737832683D8011396FC93EE93129708
:102F80008CCF1092A8061092A70688EE93E0A0E0DE
:102F9000B0E08093A9069093AA06A093AB06B093E5
:102FA000AC0684E892E09093A6068093A50685EC93
:102FB00090E09093B2068093B10684EC90E09093F9
:102FC000B4068093B30680EC90E09093B6068093AD
:102FD000B50681EC90E09093B8068093B70682EC3A
:102FE00090E09093BA068093B90686EC90E09093B7
:102FF000BC068093BB061092BE061092BF061092CC
:10300000C0061092C1061092860810928508109290
:103010007C0810927B0810929108109292081092EE
:103020009308109294088CE090E09093820880932B
:1030300081088CE190E090938808809387088DE167
:1030400090E090938A08809389088EE190E09093B5
:103050008C0880938B088FE190E090938E0880938A
:103060008D0861E08CE10E946B0561E08091890828
:103070000E946B0561E080918B080E946B0561E006
:1030800080918D080E946B051092900810928F0815
:1030900084E090E090938408809383088091D20725
:1030A000803308F09CC091E0980F9093D2078093F2
:1030B000780890E0FC01EE0FFF1FE80FF91FEE5BB0
:1030C000F84F88EB9BE09283818382E798E00E942F
:1030D0002A0F8CE698E00E942A0F86E698E00E946C
:1030E0002A0F80E698E00E942A0F8AE598E00E9465
:1030F0002A0F1092ED071092F1071092F00710922C
:10310000F20782EA92E09093EC078093EB07E7E006
:10311000F8E01082148213821582369688E0E33438
:10312000F807B9F786E692E090934E0880934D0831
:1031300082E692E09093500880934F0884E0809359
:103140005108809352088AE692E090934C0880934D
:103150004B088AE090E0909354088093530884EFE2
:1031600091E0909356088093550810925908109258
:103170005808109247081092480810924908109277
:103180004A08109257081092D6071092D50786E980
:1031900092E09093D4078093D3078BE18093D70775
:1031A0008FEF8093D8078AE18093D90789E18093D4
:1031B000DA0788E18093DB0787E18093DC0786E10B
:1031C0008093DD071092DE071092DF071092E00770
:1031D0001092E1071092E20781E00C94940B8FEFBC
:1031E0008093780872CFCF93DF9300D01F92CDB732
:1031F000DEB7789484B5826084BD84B5816084BD77
:1032000085B5826085BD85B5816085BD80916E0084
:10321000816080936E0010928100809181008260B5
:1032200080938100809181008160809381008091F2
:1032300080008160809380008091B10084608093E1
:10324000B1008091B00081608093B00080919100C6
:1032500082608093910080919100816080939100C1
:10326000809190008160809390008091A1008260A5
:103270008093A1008091A10081608093A100809142
:10328000A00081608093A0008091210182608093E2
:103290002101809121018160809321018091200191
:1032A00081608093200180917A00846080937A000D
:1032B00080917A00826080937A0080917A008160A8
:1032C00080937A0080917A00806880937A001092CF
:1032D000C100E091B506F091B60682E08083E091EE
:1032E000B106F091B2061082E091B306F091B406F7
:1032F0008FEC80831092BD06E091B906F091BA067A
:1033000086E08083E091B706F091B8068081806105
:103310008083E091B706F091B80680818860808351
:10332000E091B706F091B806808180688083E091D3
:10333000B706F091B80680818F7D808368E372E0E4
:1033400080E00E944A0C60E372E081E00E944A0C37
:1033500068E272E082E00E944A0C60E272E083E080
:103360000E944A0C88E090E00E94C726FC0113826C
:103370001282118210821582148281E090E097837C
:103380008683F0937C06E0937B0682E00E94940B98
:1033900061E088E30E946B0561E089E30E946B05B0
:1033A00061E08AE30E946B0561E08BE30E946B059C
:1033B00061E08EE30E946B0561E08FE30E946B0584
:1033C00061E080E40E946B0561E08DE20E946B0584
:1033D00060E08AE00E946B0560E089E00E946B0576
:1033E00080917808803308F054C061E08DE00E943D
:1033F0006B0580917808282F30E0F901EE0FFF1F50
:10340000E20FF31FEE5BF84F9081907C9D609083FC
:1034100095E79093790894E690937A082CE0622FD0
:103420000E948B26829FB001112430E020E0AB0186
:10343000420F531FFA01EE0FFF1FE40FF51FEE5B63
:10344000F84F908196FD17C02F5F3F4F2C3031050C
:1034500071F7813009F0B8C01092800082E080934B
:1034600081001092850010928400B19A80916F00C3
:10347000826080936F00E09178088E2F90E0FC01CD
:10348000EE0FFF1FE80FF91FEE5BF84F808180649D
:10349000808390E080E00E948C012091810830912F
:1034A0008208032E000C440B550B60E077E883E99B
:1034B00093E00E941025CA01B90122EC31E040E0FE
:1034C00050E00E94102520937D0830937E084093A1
:1034D0007F085093800860E086E30E946B0581E0DE
:1034E00090E09093840680938306E2E04E2E512C68
:1034F00022242394312C66246A94762C80918306AE
:10350000909184068130910509F411C682309105AD
:1035100009F434C6892B09F02EC60E948C0B60E09A
:1035200081E00E94350C60E083ED97E00E94440C3E
:103530006FE774E083ED97E00E94440E60E083ED56
:1035400097E00E94440C60ED77E080E090E00E94FC
:10355000440880916002882309F40DC60E948C0BF8
:103560008CE894E00E94530D10928206109281061E
:103570001092800610927F0682E798E00E94370F33
:103580008CE698E00E94370F80917E06882309F42C
:10359000D1C180917D068111CDC10E94DE08182F16
:1035A000882309F461C180917F0661E08B5F0E94EE
:1035B000350C8BEE92E0153521F0143489F58EEE42
:1035C00092E00E94530DE0CF823061F4109290009F
:1035D00080939100109295001092940088BB809384
:1035E000710049CF833069F41092A00082E080938B
:1035F000A1001092A5001092A40089BB80937200D4
:103600003ACF811138CF1092200182E080932101BE
:1036100010922501109224018ABB809373002BCF56
:1036200083EF92E0133569F2133409F06AC087EF33
:1036300092E00E94530D80917F06909180061816AB
:103640001906BCF58091810690918206181619061C
:1036500084F5880F991FFC01E05CFD4F7182608248
:1036600060E283ED97E00E94140280917F0661E0A2
:103670008B5F0E94350C60E283ED97E00E9414029C
:10368000E0908106F0908206B70182E798E00E9400
:103690008B0E21E0E21AF108F0928206E092810698
:1036A00080917F0690918006019790938006809389
:1036B0007F068091810690918206892B09F064CF64
:1036C0008FEF9FEF909341028093400270E060E0A3
:1036D00082E798E00E948B0E82E798E00E94370F05
:1036E00060E283ED97E00E94140280917F0661E022
:1036F0008B5F0E94350C60E283ED97E00E9414021C
:1037000043CF183419F58DEF92E00E94530D0E94BB
:103710008C0B60E081E00E94350C6DE974E083ED74
:1037200097E00E94440E61E081E00E94350C6BEA54
:1037300074E083ED97E00E94440E68EE73E080E051
:1037400090E00E9444080E948C0B1ECF1534E9F5CE
:103750008BEC92E00E94530D8091400290914102C7
:10376000892B81F58091420290914302892B51F57A
:103770008091440290914502892B21F58091460267
:1037800090914702892BF1F480914802909149026F
:103790000196C1F480914A0290914B02019691F4F6
:1037A00080914C0290914D02019661F480914E02FD
:1037B00090914F02019631F481E080937D060E9442
:1037C0000711E2CE10927E06DFCE61E273E085EA59
:1037D00096E00E94440E812F0E948E0C80918106FB
:1037E0009091820608970CF04AC080917F069091D4
:1037F000800608970CF043C0612F83ED97E00E948C
:10380000140280917F0661E08B5F0E94350C612F6E
:1038100083ED97E00E941402612F82E798E00E94F6
:10382000C60E80ED810F2091810630918206F9014C
:10383000EE0FFF1FE05CFD4F482F082E000C550BCC
:10384000518340832F5F3F4F309382062093810640
:1038500020917F06309180062F5F3F4F3093800686
:1038600020937F06811190CE60E080E00E94350CAD
:1038700067EC74E083ED97E00E94440E85CE89E208
:1038800093E00E94530D81E0809377060E948C0B99
:1038900080917706882399F160E080E00E94350CE2
:1038A0006BEB74E083ED97E00E94440E61E083E0EF
:1038B0000E94350C65EC72E083ED97E00E94440EA7
:1038C0000E94DE08853421F710928206109281064C
:1038D0001092800610927F0680E492E00E94E30A34
:1038E0000E948C0B60E080E00E94350C67EC74E075
:1038F00083ED97E00E94440E10927706C9CF82E7CD
:1039000098E00E94370F8DE493E00E94530D809160
:103910008106909182060E94E90C8DE593E00E9459
:10392000530D80917F06909180060E94E90C1092C1
:1039300077062ACE82ED94E00E94530D82E798E04C
:103940000E947B0C0E94750C0E948C0B85EE94E00B
:103950000E94530D109282061092810610928006EA
:1039600010927F0681E080937E0680917D06909183
:103970007E06992309F4A3C181111DC20E94DE08AD
:10398000182F882309F435C180917F0661E08B5F91
:103990000E94350C8BEE92E0153521F0143429F499
:1039A0008EEE92E00E94530DE0CF83EF92E013354C
:1039B000C9F3133409F06AC087EF92E00E94530DF7
:1039C00080917F069091800618161906BCF58091AB
:1039D0008106909182061816190684F5880F991FA2
:1039E000FC01E05BFD4F7182608260E283ED97E055
:1039F0000E94140280917F0661E08B5F0E94350C6B
:103A000060E283ED97E00E941402E0908106F0905E
:103A10008206B7018CE698E00E948B0E81E0E81ADE
:103A2000F108F0928206E092810680917F069091E3
:103A3000800601979093800680937F06809181068F
:103A400090918206892B09F090CF2FEF3FEF3093B2
:103A500051022093500270E060E08CE698E00E94F2
:103A60008B0E8CE698E00E94370F60E283ED97E0C2
:103A70000E94140280917F0661E08B5F0E94350CEA
:103A800060E283ED97E00E9414026FCF183419F5BD
:103A90008DEF92E00E94530D0E948C0B60E081E05C
:103AA0000E94350C6DE974E083ED97E00E94440EAE
:103AB00061E081E00E94350C6BEA74E083ED97E0F1
:103AC0000E94440E68EE73E080E090E00E9444089B
:103AD0000E948C0B4ACF1534E9F58BEC92E00E94E2
:103AE000530D8091500290915102892B81F5809164
:103AF000520290915302892B51F58091540290917A
:103B00005502892B21F58091560290915702892BFD
:103B1000F1F480915802909159020196C1F480917C
:103B20005A0290915B02019691F480915C0290910F
:103B30005D02019661F480915E0290915F020196B0
:103B400031F481E080937D060E9407110ECF109220
:103B50007E060BCF61E273E085EA96E00E94440E98
:103B6000812F0E948E0C8091810690918206089789
:103B70000CF04AC080917F069091800608970CF067
:103B800043C0612F83ED97E00E94140280917F066D
:103B900061E08B5F0E94350C612F83ED97E00E94FE
:103BA0001402612F8CE698E00E94C60E80ED810F12
:103BB0002091810630918206F901EE0FFF1FE05B34
:103BC000FD4F482F082E000C550B518340832F5F6B
:103BD0003F4F309382062093810620917F063091DB
:103BE00080062F5F3F4F3093800620937F06811120
:103BF000BCCE60E080E00E94350C6DE373E083EDA5
:103C000097E00E94440EB1CE89E293E00E94530DEA
:103C100081E0809377060E948C0B80917706882341
:103C200099F160E080E00E94350C67EB72E083ED73
:103C300097E00E94440E61E083E00E94350C65EC41
:103C400072E083ED97E00E94440E0E94DE08853406
:103C500021F710928206109281061092800610922F
:103C60007F0680E592E00E94E30A0E948C0B60E0F0
:103C700080E00E94350C6DE373E083ED97E00E94D5
:103C8000440E10927706C9CF8CE698E00E94370F59
:103C90008DE493E00E94530D8091810690918206FD
:103CA0000E94E90C8DE593E00E94530D80917F0600
:103CB000909180060E94E90C1092770656CE8111F1
:103CC0007AC084EF94E00E94530D8CE698E00E9445
:103CD0007B0C0E94750C82E798E00E94800E4B01DD
:103CE0008B018CE698E00E94800E6B017C836B83D5
:103CF00085E095E00E94530DC4010E94E90C80E12B
:103D000095E00E94530DC6010E94E90CE0917B06EC
:103D1000F0917C060190F081E02D309789F0808150
:103D200091810817190741F4828193812B813C818D
:103D30002817390709F462C40480F581E02DEDCF1E
:103D40008EE195E00E94530D8091790690917A065C
:103D5000019690937A0680937906049794F50E94D1
:103D60008C0B60E080E00E94350C60E375E083ED31
:103D700097E00E94440E6091790670917A0683ED77
:103D800097E00E941D0D61E080E00E94350C6DE31C
:103D900075E083ED97E00E94440E61E08FE30E949E
:103DA000E2036CED75E080E090E00E94440860E082
:103DB0008FE30E94E20310927D0681E080937E06ED
:103DC000C8CB81E08093780661E08DE20E94E20337
:103DD00061E08FE30E94E20360ED77E080E090E035
:103DE0000E94440860E08DE20E94E2031092820685
:103DF000109281061092800610927F060E948C0B12
:103E000080917806882309F48DC10E94DE08182F5E
:103E1000882309F45CC180917F0661E08B5F0E947A
:103E2000350C8BEE92E0153521F0143429F48EEE2A
:103E300092E00E94530DE4CF83EF92E01335C9F373
:103E4000133409F059C087EF92E00E94530D80911E
:103E50007F06909180061816190684F580918106D8
:103E600090918206181619064CF5880F991FFC01CF
:103E7000E05BFD4F7182608260E283ED97E00E941B
:103E8000140280917F0661E08B5F0E94350C60E236
:103E900083ED97E00E941402809181069091820642
:103EA0000197909382068093810680917F0690917E
:103EB000800601979093800680937F06809181060B
:103EC00090918206892B09F09BCF8FEF9FEF909303
:103ED00051028093500260E283ED97E00E94140249
:103EE00080917F0661E08B5F0E94350C60E283ED7C
:103EF00097E00E94140284CF8DEF92E0183409F409
:103F000098CF153409F099C08BEC92E00E94530DC4
:103F10008091500290915102892B09F05BC08091F1
:103F2000520290915302019709F054C080915402BB
:103F300090915502892B09F04DC0809156029091C5
:103F40005702069709F046C0809158029091590295
:103F5000019609F03FC080915A0290915B02019650
:103F6000C9F580915C0290915D02019699F580916E
:103F70005E0290915F02019669F50E948C0B60E0F1
:103F800083E00E94350C63EF73E083ED97E00E94BD
:103F9000440E61E084E00E94350C61E675E083ED3B
:103FA00097E00E94440E61E08EE30E94E20364EC1D
:103FB00079E080E090E00E9444080E948C0B60E071
:103FC0008EE30E94E20310927A0610927906109214
:103FD000780616CF0E948C0B60E082E00E94350CC0
:103FE0006EE475E083ED97E00E94440E61E080E0AE
:103FF0000E94350C6BE575E083ED97E00E94440E5E
:1040000061E08DE20E94E2036CED75E080E090E0FB
:104010000E94440860E08DE20E94E2030E948C0B43
:1040200010928206109281061092800610927F06EE
:1040300080E592E00E94E30AE3CE61E273E085EA64
:1040400096E00E94440E812F0E948E0C8091810682
:104050009091820608970CF045C080917F06909160
:10406000800608970CF03EC0612F83ED97E00E9418
:10407000140280917F0661E08B5F0E94350C612FF6
:1040800083ED97E00E94140280ED810F209181065C
:1040900030918206F901EE0FFF1FE05BFD4F482FC4
:1040A000082E000C550B518340832F5F3F4F3093F8
:1040B00082062093810620917F06309180062F5F33
:1040C0003F4F3093800620937F06811199CE60E0A8
:1040D00081E00E94350C65EE73E083ED97E00E946D
:1040E000440E8ECE84EC93E00E94530D81E08093C9
:1040F00077060E94460E8DE493E00E94530D809156
:104100008106909182060E94E90C8DE593E00E9461
:10411000530D80917F06909180060E94E90C1092C9
:1041200077066ECE10927A061092790640CE0E94E3
:104130008C0B60E081E00E94350C69E675E083ED50
:1041400097E00E94440E62E081E00E94350C4091AD
:10415000760850917708609172087091730883ED2A
:1041600097E00E941B0287E795E00E94530D509252
:104170008406409283060E941E03C0C985EA96E029
:104180000E94790218161906B4F785EA96E00E9493
:1041900057028134910509F074C08AE00E94B60389
:1041A000019709F051C00E948C0B60E080E00E94F2
:1041B000350C6EE875E083ED97E00E94440E61E0F7
:1041C00080E00E94350C6DE975E083ED97E00E9478
:1041D000440E88EE93E00E94A70568EE73E080E04D
:1041E00090E00E9444088DE20E9426058AE00E9429
:1041F000B603019729F480E09FEF0E949F07F6CF56
:104200000E948C0B60E080E00E94350C67EA75E04C
:1042100083ED97E00E94440E61E080E00E94350C3F
:1042200068EB75E083ED97E00E94440E8CED95E01D
:104230000E94A70564EF71E080E090E00E944408CE
:104240008DE20E94260593CF0E948C0B60E080E0F7
:104250000E94350C60EC75E083ED97E00E94440EFF
:1042600061E080E00E94350C6EEC75E083ED97E034
:104270000E94440E60ED77E080E090E00E944408E8
:1042800076CF8234910509F05FC089E00E94B603C1
:10429000019709F046C00E948C0B60E080E00E940C
:1042A000350C6EE875E083ED97E00E94440E61E006
:1042B00080E00E94350C6EED75E083ED97E00E9482
:1042C000440E88EB9BE00E94A70564EF71E080E05C
:1042D00090E00E9444088DE20E94260589E00E9439
:1042E000B603019729F480E091E00E949F07F6CF82
:1042F0000E948C0B60E080E00E94350C67EA75E05C
:1043000083ED97E00E94440E61E080E00E94350C4E
:1043100067EE75E083ED97E00E94440E84EC99E02F
:1043200087CF0E948C0B60E080E00E94350C6FEE1E
:1043300075E083ED97E00E94440E61E080E00E940A
:10434000350C6EEF75E092CF8334910509F0C5C04E
:104350000E948C0B60E080E00E94350C62E083EDEF
:1043600097E00E94440C6EE076E083ED97E00E94B7
:10437000440E61E082E00E94350C61E083ED97E03D
:104380000E94440C63E083ED97E00E94440C6EE1D0
:1043900076E083ED97E00E94440E63E083ED97E0C2
:1043A0000E94440C84EB90E00E948C0168E873E169
:1043B00080E090E00E94440885EA96E00E9479023D
:1043C0001816190634F485EA96E00E9457029A837B
:1043D00089830E9476080E94F1236B017C0187E2A9
:1043E00096E00E94530D60E070E0CB0129813A8194
:1043F0002434310521F120E030E040EC50E40E940B
:10440000EC2387FF1CC085EA96E00E94790218160B
:10441000190634F485EA96E00E9457029A8389834C
:104420000E9476080E94F123A70196010E9473253D
:1044300020E030E04AE754E40E94E025D7CF61E075
:104440008EE30E94E2030E948C0B60E080E00E94F9
:10445000350C62E083ED97E00E94440C6EE076E05C
:1044600083ED97E00E94440E61E082E00E94350CEB
:1044700060E083ED97E00E94440C63E083ED97E0F9
:104480000E94440C60E376E083ED97E00E94440EC6
:1044900063E083ED97E00E94440C90E080E00E948E
:1044A0008C0180ED97E00E94A70568EE73E080E044
:1044B00090E00E9444088DE20E94260568E873E1BE
:1044C00080E090E00E94440860E08EE30E94E203F6
:1044D00030928406209283064ECE8534910509F0F1
:1044E00044C080917B00877F80937B0030E43093D1
:1044F0007C0080917A00806480937A0080917A00B9
:1045000086FDFCCF8091780060917900762F682F2E
:10451000072E000C880B990B0E94F3236B017C0182
:1045200042E00E94620D0E94750C20E030E04AE7F4
:1045300054E4C701B6010E94E02520E030E44CE9D4
:1045400055E40E94522420E030E040E251E40E9411
:10455000E02520E030E040E85FE30E94732542E080
:104560000E94620D0E94750C06CE8033910579F48D
:1045700061E088E30E94E20361E089E30E94E203D4
:1045800061E08AE30E94E20361E08BE31AC08133B9
:10459000910571F460E088E30E94E20360E089E342
:1045A0000E94E20360E08AE30E94E20360E0EDCF54
:1045B00061E08233910521F08333910529F460E0B5
:1045C00088E30E94E203D7CD61E08433910521F0B6
:1045D0008533910519F460E089E3F3CF61E0863318
:1045E000910521F08733910519F460E08AE3E9CF62
:1045F0008833910549F2C997C9F2BDCD0E948C0B51
:1046000060E080E00E94350C69E376E083ED97E09E
:104610000E94440E61E080E00E94350C69E476E07F
:1046200083ED97E00E94440E61E08DE20E94E20378
:1046300061E08EE30E94E20361E088E30E94E2030E
:1046400061E089E30E94E20361E08AE30E94E20301
:1046500061E08BE30E94E20360ED77E080E090E0B0
:104660000E94440860E08DE20E94E20389E596E042
:104670000E94530D309284062092830610926002AD
:104680009ACB8AE598E00E943D0F80E698E00E9470
:104690003D0F86E698E00E943D0F8CE698E00E9470
:1046A0003D0F82E798E00C943D0FFC018827992785
:1046B000E89421912032E9F3293010F02E30C8F32C
:1046C0002B3241F02D3239F4689404C00E94BA2391
:1046D000820F911D219120532A30C0F31EF4909532
:1046E00081959F4F08951F93FC0199278827BC014E
:1046F000E89411911032E9F3193010F01E30C8F32C
:104700001B3251F01D3249F4689406C00E94A52363
:10471000610F711D811D911D119110531A30B0F35D
:104720003EF490958095709561957F4F8F4F9F4F88
:104730001F910895BB274A3031F4992322F4BDE23A
:10474000909581959F4F0C94C323592F482F372F55
:10475000262F660F771F881F991F660F771F881FE8
:10476000991F620F731F841F951F660F771F881F85
:10477000991F08957AE0979F902D879F802D910D26
:1047800011240895BB27FB015527AA27880F991FDD
:10479000AA1FA41710F0A41B83955051B9F7A05D70
:1047A000AA3308F0A95DA193009779F7B111B193ED
:1047B0001192CB010C94DC23DC01FC01672F719179
:1047C0007723E1F7329704C07C916D9370836291F7
:1047D000AE17BF07C8F308950E942E2408F481E0A5
:1047E0000895E89409C097FB3EF4909580957095E4
:1047F00061957F4F8F4F9F4F9923A9F0F92F96E92D
:10480000BB279395F695879577956795B795F111A1
:10481000F8CFFAF4BB0F11F460FF1BC06F5F7F4F3E
:104820008F4F9F4F16C0882311F096E911C0772350
:1048300021F09EE8872F762F05C0662371F096E859
:10484000862F70E060E02AF09A95660F771F881F28
:10485000DAF7880F9695879597F90895990F0008CC
:10486000550FAA0BE0E8FEEF16161706E807F90742
:10487000C0F012161306E407F50798F0621B730BDD
:10488000840B950B39F40A2661F0232B242B252B5E
:1048900021F408950A2609F4A140A6958FEF811D01
:1048A000811D08950E9465240C94D6240E94C8247A
:1048B00038F00E94CF2420F0952311F00C94BF24EF
:1048C0000C94C52411240C940A250E94E72470F34B
:1048D000959FC1F3950F50E0551F629FF001729FA5
:1048E000BB27F00DB11D639FAA27F00DB11DAA1FB4
:1048F000649F6627B00DA11D661F829F2227B00D01
:10490000A11D621F739FB00DA11D621F839FA00D8B
:10491000611D221F749F3327A00D611D231F849FDB
:10492000600D211D822F762F6A2F11249F57504032
:104930009AF0F1F088234AF0EE0FFF1FBB1F661FAD
:10494000771F881F91505040A9F79E3F510580F076
:104950000C94BF240C940A255F3FE4F3983ED4F3F3
:10496000869577956795B795F795E7959F5FC1F71A
:10497000FE2B880F911D9695879597F9089597F9C5
:104980009F6780E870E060E008959FEF80EC0895F5
:1049900000240A941616170618060906089500241E
:1049A0000A9412161306140605060895092E039498
:1049B000000C11F4882352F0BB0F40F4BF2B11F40C
:1049C00060FF04C06F5F7F4F8F4F9F4F089557FD6B
:1049D0009058440F551F59F05F3F71F04795880F6D
:1049E00097FB991F61F09F3F79F087950895121604
:1049F00013061406551FF2CF4695F1DF08C01616B0
:104A000017061806991FF1CF869571056105089460
:104A10000895E894BB2766277727CB0197F9089577
:104A2000052E97FB1EF400940E94272557FD07D002
:104A30000E94422507FC03D04EF40C942725509584
:104A40004095309521953F4F4F4F5F4F089590957A
:104A50008095709561957F4F8F4F9F4F08950E946D
:104A60006425A59F900DB49F900DA49F800D911D6E
:104A700011240895B7FF0C942F250E942F25821B27
:104A8000930B0895A1E21A2EAA1BBB1BFD010DC0BA
:104A9000AA1FBB1FEE1FFF1FA217B307E407F507EE
:104AA00020F0A21BB30BE40BF50B661F771F881FCA
:104AB000991F1A9469F760957095809590959B0160
:104AC000AC01BD01CF010895A29FB001B39FC00109
:104AD000A39F700D811D1124911DB29F700D811D2A
:104AE0001124911D08955058BB27AA270E948B2599
:104AF0000C94D6240E94C82438F00E94CF2420F0C1
:104B000039F49F3F19F426F40C94C5240EF4E09573
:104B1000E7FB0C94BF24E92F0E94E72458F3BA174F
:104B2000620773078407950720F079F4A6F50C94C3
:104B300009250EF4E0950B2EBA2FA02D0B01B9011B
:104B400090010C01CA01A0011124FF27591B99F003
:104B5000593F50F4503E68F11A16F040A22F232F0F
:104B6000342F4427585FF3CF469537952795A7955F
:104B7000F0405395C9F77EF41F16BA0B620B730B06
:104B8000840BBAF09150A1F0FF0FBB1F661F771F77
:104B9000881FC2F70EC0BA0F621F731F841F48F42C
:104BA000879577956795B795F7959E3F08F0B0CFB5
:104BB0009395880F08F09927EE0F9795879508959C
:104BC0000E94F4250C94D6240E94CF2458F00E9411
:104BD000C82440F029F45F3F29F00C94BF24511100
:104BE0000C940A250C94C5240E94E72468F39923A9
:104BF000B1F3552391F3951B550BBB27AA276217D9
:104C00007307840738F09F5F5F4F220F331F441FE5
:104C1000AA1FA9F335D00E2E3AF0E0E832D0915019
:104C20005040E695001CCAF72BD0FE2F29D0660F06
:104C3000771F881FBB1F261737074807AB07B0E849
:104C400009F0BB0B802DBF01FF2793585F4F3AF04F
:104C50009E3F510578F00C94BF240C940A255F3FC9
:104C6000E4F3983ED4F3869577956795B795F795D5
:104C70009F5FC9F7880F911D9695879597F90895BD
:104C8000E1E0660F771F881FBB1F62177307840759
:104C9000BA0720F0621B730B840BBA0BEE1F88F768
:104CA000E09508950E94EF2488F09F5798F0B92F5F
:104CB0009927B751B0F0E1F0660F771F881F991F51
:104CC0001AF0BA95C9F714C0B13091F00E940925C5
:104CD000B1E008950C940925672F782F8827B85FD5
:104CE00039F0B93FCCF3869577956795B395D9F7A9
:104CF0003EF490958095709561957F4F8F4F9F4FB3
:104D000008950E942E2408F48FEF08950E942E2407
:104D1000880B990B0895991B79E004C0991F961789
:104D200008F0961B881F7A95C9F78095089597FB20
:104D3000072E16F4009407D077FD09D00E94B32601
:104D400007FC05D03EF4909581959F4F089570958E
:104D500061957F4F0895EE0FFF1F881F8BBF07904F
:104D6000F691E02D1994AA1BBB1B51E107C0AA1FA5
:104D7000BB1FA617B70710F0A61BB70B881F991FFC
:104D80005A95A9F780959095BC01CD0108950F9390
:104D90001F93CF93DF938230910510F482E090E06F
:104DA000E0919708F091980830E020E0B0E0A0E0B2
:104DB000309799F42115310509F44AC0281B390BA5
:104DC00024303105D8F58A819B816115710589F1FF
:104DD000FB0193838283FE0111C0408151810281D6
:104DE000138148175907E0F04817590799F41097AD
:104DF00061F012960C93129713961C933296CF0182
:104E0000DF91CF911F910F91089500939708109310
:104E10009808F4CF2115310551F04217530738F0A7
:104E2000A901DB019A01BD01DF01F801C1CFEF014A
:104E3000F9CF9093980880939708CDCFFE01E20FA9
:104E4000F31F819391932250310939832883D7CF5F
:104E50002091950830919608232B41F420917C02F3
:104E600030917D02309396082093950820917A0224
:104E700030917B022115310541F42DB73EB74091A9
:104E80007E0250917F02241B350BE0919508F09132
:104E90009608E217F307A0F42E1B3F0B28173907DB
:104EA00078F0AC014E5F5F4F2417350748F04E0F86
:104EB0005F1F5093960840939508819391939FCFDD
:104EC000F0E0E0E09CCFCF93DF930097E9F0FC01A6
:104ED000329713821282A0919708B0919808ED0141
:104EE00030E020E01097A1F420813181820F931FE0
:104EF00020919508309196082817390709F061C06C
:104F0000F0939608E0939508DF91CF910895EA0118
:104F1000CE17DF07E8F54A815B819E0141155105F7
:104F2000B1F7E901FB83EA8349915991C40FD51F79
:104F3000EC17FD0761F4808191810296840F951F23
:104F4000E90199838883828193819B838A83F0E03E
:104F5000E0E012968D919C9113970097B9F52D91F1
:104F60003C911197CD010296820F931F20919508D5
:104F7000309196082817390739F6309751F5109275
:104F8000980810929708B0939608A0939508BCCF04
:104F9000D383C28340815181840F951FC817D907DD
:104FA00061F44E5F5F4F88819981480F591F51838B
:104FB00040838A819B81938382832115310509F087
:104FC000B0CFF0939808E09397089ECFFD01DC01E5
:104FD000C0CF13821282D7CF4F925F926F927F928F
:104FE0008F929F92AF92BF92CF92DF92EF92FF92F9
:104FF0000F931F93CF93DF938C01009799F4CB010C
:10500000DF91CF911F910F91FF90EF90DF90CF90A4
:10501000BF90AF909F908F907F906F905F904F90D8
:105020000C94C726FC01E60FF71F9C0122503109A2
:10503000E217F30708F4AEC0D901CD91DC911197C6
:10504000C617D70720F1C530D10578F0CE010497F7
:105050008617970750F0C61BD70B2297C193D193A1
:105060006D937C93CF010E946327C801DF91CF919C
:105070001F910F91FF90EF90DF90CF90BF90AF9076
:105080009F908F907F906F905F904F9008955B01FD
:10509000AC1ABD0A4C018C0E9D1EA0919708B091D0
:1050A0009808512C412CF12CE12C109731F580916E
:1050B0009508909196088815990509F05CC04616E8
:1050C000570608F058C080917A0290917B020097B1
:1050D00041F48DB79EB740917E0250917F02841BB0
:1050E000950BE817F90708F055C0F0939608E09380
:1050F0009508F90171836083B8CF8D919C911197C8
:1051000012966C90129713967C901397A815B90578
:1051100059F56C0142E0C40ED11CCA14DB0420F125
:10512000AC014A195B09DA011296159780F0628288
:10513000738251834083D9016D937C93E114F10410
:1051400071F0D7011396FC93EE9312978ECF2296AF
:105150008C0F9D1FF90191838083F301EFCFF093B2
:105160009808E093970881CF4816590608F42C0157
:105170007D01D3019ACFCB010E94C7267C01009705
:1051800049F0AE01B8010E94CD28C8010E946327F2
:1051900087016BCF10E000E068CFFB01DC0102C0AB
:1051A00001900D9241505040D8F70895FB01DC0169
:1051B00001900D920020E1F7089511E0C8E5D1E0DB
:1051C00000E006C0802FFE010E94AB262196011D43
:1051D000C935D10780E00807A9F7F894FFCFFFFF92
:1051E000FFFFFFFFFFFFFFFFFFFFFFFFFFFFFFFFCF
:1051F000FFFFFFFFFFFFFFFFFFFFFFFFFFFF000AB3
:105200000A0A00110E00000103161C0800000E011E
:10521000011F1B1B1F000E11111F1B1B1F00FFFF77
:10522000FFFFFFFFFFFFFFFFFFFFFFFFFFFFFFFF8E
:10523000FFFFFFFFFFFFFFFFFFFFFFFFFFFF01FF7C
:1052400031302F2E35343332313233553435364404
:105250003738395343304845000099088000000032
:105260000000B1021B024802FE02790257026B02E3
:1052700000000000440C1B02E00ADF0A00000000EE
:1052800076072205DF030D0A006E616E00696E6607
:10529000006F7666005041535320544F4F204C4FBF
:1052A0004E4700505245535320454E5445520052EC
:1052B000454749535452414E444F002052454749B7
:1052C000535452414E444F2000555000444F574EC6
:1052D00000324E4400434C4541520048454C50007A
:1052E000434C415645204D454E4F522044452038B1
:1052F00000454E54455220414345505441520054BC
:1053000065636C613A20004552524F522049442057
:105310004D5559204752414E444500444947495450
:105320004520535520434C41564500696E646963DE
:10533000652061637475616C3A2000637572736FE8
:10534000722061637475616C3A20005245494E5376
:10535000455254414E444F20434C41564500504124
:10536000535320434F494E434944454E00646174B2
:105370006F7320766563746F72006E756D65726F02
:105380000050415353204E4F20434F494E43494410
:1053900045005245494E475245534520434C4156DE
:1053A00045004552524F5220434C415645204D55E1
:1053B00059204752414E4445004553504552414EB5
:1053C000444F20434C41564520474552454E544595
:1053D000004249454E56454E49444F004552524FB2
:1053E000522020202000434C41564520494E434F37
:1053F00052524543544F0053495354454D41204266
:105400004C4F51554541444F004156495345204169
:105410004C20474552454E544500435245414E4469
:105420004F20454D504C4541444F004944200020F9
:1054300050415353200043524541444F2045584961
:10544000544F53414D454E54450049442055535502
:105450004152494F2000434C4156452000204249CB
:10546000454E56454E49444F200050696469656E6B
:10547000646F205573756172696F005052455349CE
:105480004F4E45203030303000454E54455220526A
:10549000454749535452415200494420544F4F20EC
:1054A0004C4F4E4700494E47524553452049440012
:1054B0004553544520455320454C205553554152A2
:1054C000494F0050696469656E646F20636C617652
:1054D000650045535441204553204C4120434C41E5
:1054E0005645004944205553554152494F00434CBD
:1054F000415645205553554152494F004441544F60
:105500005320494E434F52524543544F530020209D
:105510004552524F52202020202000434C415645F6
:1055200020494E434F52524543544100424144208A
:1055300050415353574F5244004156495345204719
:105540004552454E544500204249454E56454E4928
:10555000444F3A200070746F20656C20717565208F
:105560006C6F206C6561206A656A65004D6F7669B5
:10557000656E646F20686163696100697A7175693D
:1055800065726461004C61206D7565737472612091
:105590006C6C65676F00616C204C41423200455273
:1055A000524F523A206E6F20686179006D756573B5
:1055B00074726120656E204C4142310064657265F1
:1055C0006368617300616C204C4142310045525266
:1055D0004F523A206E6F2068617920006D756573B7
:1055E00074726120656E204C4142320026436F6E1A
:1055F00074726F6C506F72746F6E260041627269C4
:10560000656E646F00636F6D69656E7A61004365F6
:105610007272616E646F002020204F4B2041434323
:1056200045534F202020002020205045524D495402
:1056300049444F20202000434C41564520434F52BF
:06564000524543544100F5
:10E000000D9489F10D94B2F10D94B2F10D94B2F129
:10E010000D94B2F10D94B2F10D94B2F10D94B2F1F0
:10E020000D94B2F10D94B2F10D94B2F10D94B2F1E0
:10E030000D94B2F10D94B2F10D94B2F10D94B2F1D0
:10E040000D94B2F10D94B2F10D94B2F10D94B2F1C0
:10E050000D94B2F10D94B2F10D94B2F10D94B2F1B0
:10E060000D94B2F10D94B2F10D94B2F10D94B2F1A0
:10E070000D94B2F10D94B2F10D94B2F10D94B2F190
:10E080000D94B2F10D94B2F10D94B2F10D94B2F180
:10E090000D94B2F10D94B2F10D94B2F10D94B2F170
:10E0A0000D94B2F10D94B2F10D94B2F10D94B2F160
:10E0B0000D94B2F10D94B2F10D94B2F10D94B2F150
:10E0C0000D94B2F10D94B2F10D94B2F10D94B2F140
:10E0D0000D94B2F10D94B2F10D94B2F10D94B2F130
:10E0E0000D94B2F141546D656761323536300041AF
:10E0F000726475696E6F206578706C6F72657220DE
:10E1000073746B3530305632206279204D4C530099
:10E11000426F6F746C6F616465723E004875683F52
:10E1200000436F6D70696C6564206F6E203D200048
:10E130004350552054797065202020203D20005FF9
:10E140005F4156525F415243485F5F3D2000415658
:10E1500052204C696243205665723D20004743437C
:10E160002056657273696F6E203D20004350552024
:10E1700049442020202020203D20004C6F7720663D
:10E18000757365202020203D20004869676820665F
:10E190007573652020203D200045787420667573D6
:10E1A00065202020203D20004C6F636B2066757336
:10E1B000652020203D20004D617220203720323024
:10E1C000313300312E362E3800342E332E350056A2
:10E1D00023202020414444522020206F7020636F70
:10E1E00064652020202020696E73747275637469E1
:10E1F0006F6E2061646472202020496E74657272B3
:10E20000757074006E6F20766563746F7200726A49
:10E210006D702020006A6D70200057686174207056
:10E220006F72743A00506F7274206E6F7420737541
:10E2300070706F72746564004D7573742062652030
:10E2400061206C6574746572002000577269747483
:10E25000696E672045450052656164696E672045B7
:10E26000450045452065727220636E743D00504F35
:10E27000525400303D5A65726F2061646472003FF1
:10E280003D43505520737461747300403D454550C3
:10E29000524F4D207465737400423D426C696E6B41
:10E2A000204C454400453D44756D70204545505215
:10E2B0004F4D00463D44756D7020464C415348001B
:10E2C000483D48656C70004C3D4C69737420492F83
:10E2D0004F20506F72747300513D51756974005234
:10E2E0003D44756D702052414D00563D73686F7707
:10E2F00020696E7465727275707420566563746FF0
:10E30000727300593D506F727420626C696E6B00BD
:10E310002A0011241FBECFEFD1E2DEBFCDBF01E046
:10E320000CBF12E0A0E0B2E0EEE1FDEF03E00BBFB6
:10E3300002C007900D92A030B107D9F712E0A0E01B
:10E34000B2E001C01D92AE30B107E1F70F9460F367
:10E350000D948DFE01E20EBF0FEF0DBF11241FBE05
:10E360000D9460F30D9400F020E030E040ED57E0B4
:10E3700005C0FA013197F1F72F5F3F4F2817390792
:10E38000C0F308959C01260F311DC901A0E0B0E043
:10E390002F5F3F4FABBFFC018791882361F08093D3
:10E3A000C6008091C00086FFFCCF8091C0008064D1
:10E3B0008093C000EACF08958DE08093C6008091DD
:10E3C000C00086FFFCCF8091C00080648093C000B5
:10E3D0008AE08093C6008091C00086FFFCCF8091C8
:10E3E000C00080648093C00008950F94C2F10F9420
:10E3F000DCF10895FC019081992359F09093C600B7
:10E400008091C00086FFFCCF8091C0008064809323
:10E41000C0003196992379F70895282F982F929567
:10E420009F70892F805D8A3308F0895F8093C600D2
:10E430008091C00086FFFCCF8091C00080648093F3
:10E44000C000822F8F70982F905D9A3308F0995FEB
:10E450009093C6008091C00086FFFCCF8091C000E1
:10E4600080648093C00008959C01FB01853691056E
:10E470001CF46330710594F0C90164E670E00F94F8
:10E480002EFE605D7F4F6093C6008091C00086FFC6
